{
  "_format": "hh-sol-artifact-1",
  "contractName": "ArcaneBarracksV1",
  "sourceName": "src/ArcaneBarracksV1.sol",
  "abi": [
    {
      "inputs": [
        {
          "internalType": "address",
          "name": "_itemsAddress",
          "type": "address"
        },
        {
          "internalType": "address",
          "name": "_itemStorageAddress",
          "type": "address"
        },
        {
          "internalType": "address",
          "name": "_itemMintingStationAddress",
          "type": "address"
        },
        {
          "internalType": "address",
          "name": "_profileAddress",
          "type": "address"
        },
        {
          "internalType": "uint256",
          "name": "_tokenPrice",
          "type": "uint256"
        }
      ],
      "stateMutability": "nonpayable",
      "type": "constructor"
    },
    {
      "anonymous": false,
      "inputs": [
        {
          "indexed": true,
          "internalType": "address",
          "name": "user",
          "type": "address"
        },
        {
          "indexed": false,
          "internalType": "uint256",
          "name": "amount",
          "type": "uint256"
        }
      ],
      "name": "ActionBonus",
      "type": "event"
    },
    {
      "anonymous": false,
      "inputs": [
        {
          "indexed": true,
          "internalType": "address",
          "name": "user",
          "type": "address"
        },
        {
          "indexed": false,
          "internalType": "uint256",
          "name": "amount",
          "type": "uint256"
        }
      ],
      "name": "ActionBurn",
      "type": "event"
    },
    {
      "anonymous": false,
      "inputs": [
        {
          "indexed": true,
          "internalType": "address",
          "name": "user",
          "type": "address"
        },
        {
          "indexed": true,
          "internalType": "address",
          "name": "token",
          "type": "address"
        },
        {
          "indexed": false,
          "internalType": "uint256",
          "name": "amount",
          "type": "uint256"
        }
      ],
      "name": "ActionFee",
      "type": "event"
    },
    {
      "anonymous": false,
      "inputs": [
        {
          "indexed": true,
          "internalType": "address",
          "name": "user",
          "type": "address"
        },
        {
          "indexed": false,
          "internalType": "uint256",
          "name": "amount",
          "type": "uint256"
        }
      ],
      "name": "ActionHiddenPool",
      "type": "event"
    },
    {
      "anonymous": false,
      "inputs": [
        {
          "indexed": true,
          "internalType": "address",
          "name": "user",
          "type": "address"
        },
        {
          "indexed": true,
          "internalType": "uint256",
          "name": "tokenId",
          "type": "uint256"
        },
        {
          "indexed": true,
          "internalType": "uint16",
          "name": "itemId",
          "type": "uint16"
        }
      ],
      "name": "Equip",
      "type": "event"
    },
    {
      "anonymous": false,
      "inputs": [
        {
          "indexed": true,
          "internalType": "address",
          "name": "previousOwner",
          "type": "address"
        },
        {
          "indexed": true,
          "internalType": "address",
          "name": "newOwner",
          "type": "address"
        }
      ],
      "name": "OwnershipTransferred",
      "type": "event"
    },
    {
      "anonymous": false,
      "inputs": [
        {
          "indexed": true,
          "internalType": "address",
          "name": "user",
          "type": "address"
        },
        {
          "indexed": true,
          "internalType": "uint256",
          "name": "tokenId",
          "type": "uint256"
        },
        {
          "indexed": true,
          "internalType": "uint16",
          "name": "itemId",
          "type": "uint16"
        }
      ],
      "name": "Unequip",
      "type": "event"
    },
    {
      "inputs": [
        {
          "internalType": "uint256",
          "name": "_amount",
          "type": "uint256"
        }
      ],
      "name": "claimFee",
      "outputs": [],
      "stateMutability": "nonpayable",
      "type": "function"
    },
    {
      "inputs": [
        {
          "internalType": "enum ArcaneItemLibraryV1.ArcaneItemSlot",
          "name": "_slotId",
          "type": "uint8"
        },
        {
          "internalType": "uint256",
          "name": "_tokenId",
          "type": "uint256"
        }
      ],
      "name": "equip",
      "outputs": [],
      "stateMutability": "nonpayable",
      "type": "function"
    },
    {
      "inputs": [
        {
          "internalType": "address",
          "name": "_address",
          "type": "address"
        },
        {
          "internalType": "enum ArcaneItemLibraryV1.ArcaneItemSlot",
          "name": "_slotId",
          "type": "uint8"
        }
      ],
      "name": "getEquippedItem",
      "outputs": [
        {
          "internalType": "uint256",
          "name": "",
          "type": "uint256"
        }
      ],
      "stateMutability": "view",
      "type": "function"
    },
    {
      "inputs": [
        {
          "internalType": "uint256",
          "name": "_tokenId",
          "type": "uint256"
        }
      ],
      "name": "getItem",
      "outputs": [
        {
          "components": [
            {
              "internalType": "uint16",
              "name": "version",
              "type": "uint16"
            },
            {
              "internalType": "uint16",
              "name": "itemId",
              "type": "uint16"
            },
            {
              "internalType": "enum ArcaneItemLibraryV1.ArcaneItemType",
              "name": "itemType",
              "type": "uint8"
            },
            {
              "components": [
                {
                  "internalType": "uint8",
                  "name": "variant",
                  "type": "uint8"
                },
                {
                  "internalType": "uint16",
                  "name": "value",
                  "type": "uint16"
                }
              ],
              "internalType": "struct ArcaneItemLibraryV1.ArcaneItemModifier[]",
              "name": "mods",
              "type": "tuple[]"
            }
          ],
          "internalType": "struct ArcaneItemLibraryV1.ArcaneItem",
          "name": "",
          "type": "tuple"
        }
      ],
      "stateMutability": "view",
      "type": "function"
    },
    {
      "inputs": [
        {
          "internalType": "uint8",
          "name": "_id",
          "type": "uint8"
        }
      ],
      "name": "getRune",
      "outputs": [
        {
          "internalType": "address",
          "name": "",
          "type": "address"
        }
      ],
      "stateMutability": "view",
      "type": "function"
    },
    {
      "inputs": [
        {
          "internalType": "address",
          "name": "",
          "type": "address"
        },
        {
          "internalType": "address",
          "name": "",
          "type": "address"
        }
      ],
      "name": "hasAbolishedFees",
      "outputs": [
        {
          "internalType": "bool",
          "name": "",
          "type": "bool"
        }
      ],
      "stateMutability": "view",
      "type": "function"
    },
    {
      "inputs": [
        {
          "internalType": "address",
          "name": "",
          "type": "address"
        },
        {
          "internalType": "address",
          "name": "",
          "type": "address"
        }
      ],
      "name": "hasAcquiredHarvestDelay",
      "outputs": [
        {
          "internalType": "bool",
          "name": "",
          "type": "bool"
        }
      ],
      "stateMutability": "view",
      "type": "function"
    },
    {
      "inputs": [
        {
          "internalType": "address",
          "name": "",
          "type": "address"
        },
        {
          "internalType": "address",
          "name": "",
          "type": "address"
        }
      ],
      "name": "hasClaimedShard",
      "outputs": [
        {
          "internalType": "bool",
          "name": "",
          "type": "bool"
        }
      ],
      "stateMutability": "view",
      "type": "function"
    },
    {
      "inputs": [
        {
          "internalType": "address",
          "name": "",
          "type": "address"
        },
        {
          "internalType": "address",
          "name": "",
          "type": "address"
        }
      ],
      "name": "hasCreatedRandomRuneword",
      "outputs": [
        {
          "internalType": "bool",
          "name": "",
          "type": "bool"
        }
      ],
      "stateMutability": "view",
      "type": "function"
    },
    {
      "inputs": [
        {
          "internalType": "address",
          "name": "",
          "type": "address"
        },
        {
          "internalType": "address",
          "name": "",
          "type": "address"
        }
      ],
      "name": "hasFoundGuildToken",
      "outputs": [
        {
          "internalType": "bool",
          "name": "",
          "type": "bool"
        }
      ],
      "stateMutability": "view",
      "type": "function"
    },
    {
      "inputs": [
        {
          "internalType": "address",
          "name": "",
          "type": "address"
        },
        {
          "internalType": "address",
          "name": "",
          "type": "address"
        }
      ],
      "name": "hasUnlockedHiddenPool",
      "outputs": [
        {
          "internalType": "bool",
          "name": "",
          "type": "bool"
        }
      ],
      "stateMutability": "view",
      "type": "function"
    },
    {
      "inputs": [],
      "name": "hiddenPoolPid",
      "outputs": [
        {
          "internalType": "uint256",
          "name": "",
          "type": "uint256"
        }
      ],
      "stateMutability": "view",
      "type": "function"
    },
    {
      "inputs": [
        {
          "internalType": "address",
          "name": "",
          "type": "address"
        }
      ],
      "name": "itemCount",
      "outputs": [
        {
          "internalType": "uint8",
          "name": "",
          "type": "uint8"
        }
      ],
      "stateMutability": "view",
      "type": "function"
    },
    {
      "inputs": [],
      "name": "itemMintingStationAddress",
      "outputs": [
        {
          "internalType": "address",
          "name": "",
          "type": "address"
        }
      ],
      "stateMutability": "view",
      "type": "function"
    },
    {
      "inputs": [],
      "name": "itemStorageAddress",
      "outputs": [
        {
          "internalType": "address",
          "name": "",
          "type": "address"
        }
      ],
      "stateMutability": "view",
      "type": "function"
    },
    {
      "inputs": [
        {
          "internalType": "address",
          "name": "",
          "type": "address"
        },
        {
          "internalType": "uint8",
          "name": "",
          "type": "uint8"
        }
      ],
      "name": "items",
      "outputs": [
        {
          "internalType": "uint256",
          "name": "",
          "type": "uint256"
        }
      ],
      "stateMutability": "view",
      "type": "function"
    },
    {
      "inputs": [],
      "name": "itemsAddress",
      "outputs": [
        {
          "internalType": "address",
          "name": "",
          "type": "address"
        }
      ],
      "stateMutability": "view",
      "type": "function"
    },
    {
      "inputs": [],
      "name": "mintingEnabled",
      "outputs": [
        {
          "internalType": "bool",
          "name": "",
          "type": "bool"
        }
      ],
      "stateMutability": "view",
      "type": "function"
    },
    {
      "inputs": [
        {
          "internalType": "uint256",
          "name": "_pid",
          "type": "uint256"
        },
        {
          "internalType": "uint256",
          "name": "_pending",
          "type": "uint256"
        },
        {
          "internalType": "address",
          "name": "_userAddress",
          "type": "address"
        },
        {
          "internalType": "address",
          "name": "_rewardToken",
          "type": "address"
        },
        {
          "internalType": "uint256",
          "name": "_amount",
          "type": "uint256"
        }
      ],
      "name": "onDeposit",
      "outputs": [],
      "stateMutability": "nonpayable",
      "type": "function"
    },
    {
      "inputs": [
        {
          "internalType": "uint256",
          "name": "_pid",
          "type": "uint256"
        },
        {
          "internalType": "uint256",
          "name": "_pending",
          "type": "uint256"
        },
        {
          "internalType": "address",
          "name": "_userAddress",
          "type": "address"
        },
        {
          "internalType": "address",
          "name": "_rewardToken",
          "type": "address"
        }
      ],
      "name": "onDepositHarvest",
      "outputs": [
        {
          "internalType": "uint256",
          "name": "",
          "type": "uint256"
        }
      ],
      "stateMutability": "nonpayable",
      "type": "function"
    },
    {
      "inputs": [
        {
          "internalType": "uint256",
          "name": "_pid",
          "type": "uint256"
        },
        {
          "internalType": "uint256",
          "name": "_pending",
          "type": "uint256"
        },
        {
          "internalType": "address",
          "name": "_userAddress",
          "type": "address"
        },
        {
          "internalType": "address",
          "name": "_rewardToken",
          "type": "address"
        },
        {
          "internalType": "uint256",
          "name": "_actionId",
          "type": "uint256"
        }
      ],
      "name": "onHarvestIteration",
      "outputs": [
        {
          "internalType": "uint256",
          "name": "",
          "type": "uint256"
        }
      ],
      "stateMutability": "nonpayable",
      "type": "function"
    },
    {
      "inputs": [
        {
          "internalType": "uint256",
          "name": "_pid",
          "type": "uint256"
        },
        {
          "internalType": "address",
          "name": "_runeReward",
          "type": "address"
        },
        {
          "internalType": "uint256",
          "name": "_runeRewardAmount",
          "type": "uint256"
        },
        {
          "internalType": "uint256",
          "name": "_perShare",
          "type": "uint256"
        }
      ],
      "name": "onUpdatePool",
      "outputs": [],
      "stateMutability": "nonpayable",
      "type": "function"
    },
    {
      "inputs": [
        {
          "internalType": "uint256",
          "name": "_pid",
          "type": "uint256"
        },
        {
          "internalType": "uint256",
          "name": "_pending",
          "type": "uint256"
        },
        {
          "internalType": "address",
          "name": "_userAddress",
          "type": "address"
        },
        {
          "internalType": "address",
          "name": "_rewardToken",
          "type": "address"
        },
        {
          "internalType": "uint256",
          "name": "_amount",
          "type": "uint256"
        }
      ],
      "name": "onWithdraw",
      "outputs": [],
      "stateMutability": "nonpayable",
      "type": "function"
    },
    {
      "inputs": [
        {
          "internalType": "uint256",
          "name": "_pid",
          "type": "uint256"
        },
        {
          "internalType": "uint256",
          "name": "_pending",
          "type": "uint256"
        },
        {
          "internalType": "address",
          "name": "_userAddress",
          "type": "address"
        },
        {
          "internalType": "address",
          "name": "_rewardToken",
          "type": "address"
        }
      ],
      "name": "onWithdrawHarvest",
      "outputs": [
        {
          "internalType": "uint256",
          "name": "",
          "type": "uint256"
        }
      ],
      "stateMutability": "nonpayable",
      "type": "function"
    },
    {
      "inputs": [],
      "name": "owner",
      "outputs": [
        {
          "internalType": "address",
          "name": "",
          "type": "address"
        }
      ],
      "stateMutability": "view",
      "type": "function"
    },
    {
      "inputs": [],
      "name": "profileAddress",
      "outputs": [
        {
          "internalType": "address",
          "name": "",
          "type": "address"
        }
      ],
      "stateMutability": "view",
      "type": "function"
    },
    {
      "inputs": [],
      "name": "raidAddress",
      "outputs": [
        {
          "internalType": "address",
          "name": "",
          "type": "address"
        }
      ],
      "stateMutability": "view",
      "type": "function"
    },
    {
      "inputs": [],
      "name": "renounceOwnership",
      "outputs": [],
      "stateMutability": "nonpayable",
      "type": "function"
    },
    {
      "inputs": [],
      "name": "runeToken",
      "outputs": [
        {
          "internalType": "address",
          "name": "",
          "type": "address"
        }
      ],
      "stateMutability": "view",
      "type": "function"
    },
    {
      "inputs": [
        {
          "internalType": "uint8",
          "name": "",
          "type": "uint8"
        }
      ],
      "name": "runes",
      "outputs": [
        {
          "internalType": "address",
          "name": "",
          "type": "address"
        }
      ],
      "stateMutability": "view",
      "type": "function"
    },
    {
      "inputs": [
        {
          "internalType": "uint256",
          "name": "_pid",
          "type": "uint256"
        }
      ],
      "name": "setHiddenPoolPid",
      "outputs": [],
      "stateMutability": "nonpayable",
      "type": "function"
    },
    {
      "inputs": [
        {
          "internalType": "bool",
          "name": "_mintingEnabled",
          "type": "bool"
        }
      ],
      "name": "setMintingEnabled",
      "outputs": [],
      "stateMutability": "nonpayable",
      "type": "function"
    },
    {
      "inputs": [
        {
          "internalType": "address",
          "name": "_raid",
          "type": "address"
        }
      ],
      "name": "setRaid",
      "outputs": [],
      "stateMutability": "nonpayable",
      "type": "function"
    },
    {
      "inputs": [
        {
          "internalType": "uint8",
          "name": "_id",
          "type": "uint8"
        },
        {
          "internalType": "address",
          "name": "_address",
          "type": "address"
        }
      ],
      "name": "setRune",
      "outputs": [],
      "stateMutability": "nonpayable",
      "type": "function"
    },
    {
      "inputs": [
        {
          "internalType": "uint8",
          "name": "_rune1Index",
          "type": "uint8"
        },
        {
          "internalType": "address",
          "name": "_rune1Address",
          "type": "address"
        },
        {
          "internalType": "uint8",
          "name": "_rune2Index",
          "type": "uint8"
        },
        {
          "internalType": "address",
          "name": "_rune2Address",
          "type": "address"
        },
        {
          "internalType": "uint8",
          "name": "_rune3Index",
          "type": "uint8"
        },
        {
          "internalType": "address",
          "name": "_rune3Address",
          "type": "address"
        },
        {
          "internalType": "uint8",
          "name": "_rune4Index",
          "type": "uint8"
        },
        {
          "internalType": "address",
          "name": "_rune4Address",
          "type": "address"
        }
      ],
      "name": "setRuneAddresses",
      "outputs": [],
      "stateMutability": "nonpayable",
      "type": "function"
    },
    {
      "inputs": [],
      "name": "tokenPrice",
      "outputs": [
        {
          "internalType": "uint256",
          "name": "",
          "type": "uint256"
        }
      ],
      "stateMutability": "view",
      "type": "function"
    },
    {
      "inputs": [
        {
          "internalType": "address",
          "name": "newOwner",
          "type": "address"
        }
      ],
      "name": "transferOwnership",
      "outputs": [],
      "stateMutability": "nonpayable",
      "type": "function"
    },
    {
      "inputs": [
        {
          "internalType": "enum ArcaneItemLibraryV1.ArcaneItemSlot",
          "name": "_slotId",
          "type": "uint8"
        },
        {
          "internalType": "uint256",
          "name": "_tokenId",
          "type": "uint256"
        }
      ],
      "name": "unequip",
      "outputs": [],
      "stateMutability": "nonpayable",
      "type": "function"
    },
    {
      "inputs": [
        {
          "internalType": "uint256",
          "name": "_newTokenPrice",
          "type": "uint256"
        }
      ],
      "name": "updateTokenPrice",
      "outputs": [],
      "stateMutability": "nonpayable",
      "type": "function"
    },
    {
      "inputs": [],
      "name": "vaultAddress",
      "outputs": [
        {
          "internalType": "address",
          "name": "",
          "type": "address"
        }
      ],
      "stateMutability": "view",
      "type": "function"
    }
  ],
  "bytecode": "0x6080604052600c805460ff19166001179055601c600f553480156200002357600080fd5b5060405162003e9c38038062003e9c8339810160408190526200004691620002b2565b600062000052620002ae565b600080546001600160a01b0319166001600160a01b0383169081178255604051929350917f8be0079c531659141344cd1fd0a4f28419497f9722a3daafe3b4186f6b6457e0908290a35060018055600480546001600160a01b039687166001600160a01b031991821617909155600580549587169582169590951790945560068054938616938516939093178355600e5560038054919094169083161790925560078054821673602a27bbf954b6945534a84c8c88fb8ca9e92b7f17905560028054821673a9776b590bfc2f956711b3419910a5ec1f63153e179055600b6020527fdf7de25b7f1fd6d0b5205f0e18f1f35bd7b8d84cce336588d184533ce43a6f768054821673210c14fbecc2bd9b6231199470da12ad45f64d451790557f72c6bfb7988af3a1efa6568f02a999bc52252641c659d85961ca3d372b57d5cf8054821673e00b8109bcb70b1edeb4cf87914efc28050209951790557fa50eece07c7db1631545c0069bd8f5f54d5935e215d59097edf258a44ba916348054821673125a3e00a9a11317d4d95349e68ba0bc744addc41790557f64c15cc42be7899b001f818cf4433057002112c418d1d3a67cd5cb453051d33e8054821673ef4f66506aaaeeff6d10775ad6f994105d8f11b41790557febae6141bae5521e99e0a8d610356b0f501fea54980b59c84841db43ba7204f48054821673098afb73f809d8fe145363f802113e3825d7490c1790556000919091527f0387e9d1203691d8e3362a7e4c6723de358a4010d7f31ecbec3fbfc61d1c75fc8054909116735de72a6fca2144aa134650bbea92cc919244f05d1790556200033e565b3390565b600080600080600060a08688031215620002ca578081fd5b8551620002d78162000325565b6020870151909550620002ea8162000325565b6040870151909450620002fd8162000325565b6060870151909350620003108162000325565b80925050608086015190509295509295909350565b6001600160a01b03811681146200033b57600080fd5b50565b613b4e806200034e6000396000f3fe608060405234801561001057600080fd5b50600436106102c85760003560e01c8063988b280c1161017b578063d55fa747116100d8578063eec990811161008c578063f667526a11610071578063f667526a14610541578063f9f7c7b614610554578063fa35651d14610567576102c8565b8063eec990811461051b578063f2fde38b1461052e576102c8565b8063dbe65367116100bd578063dbe65367146104ed578063e68958da146104f5578063ebc695eb14610508576102c8565b8063d55fa747146104d2578063d63bdd54146104da576102c8565b8063ae6b16031161012f578063b8748e3111610114578063b8748e3114610497578063c00ae885146104aa578063c1f57bdb146104ca576102c8565b8063ae6b16031461047c578063af14043e1461048f576102c8565b80639fd6db12116101605780639fd6db121461044e578063aaa65bfc14610456578063aaf47d1a14610469576102c8565b8063988b280c146104335780639fd53f2b14610446576102c8565b806352e3ac83116102295780637ff9b596116101dd5780638da5cb5b116101c25780638da5cb5b14610410578063905d11ca14610418578063934849f31461042b576102c8565b80637ff9b59614610408578063825cb9c61461033e576102c8565b8063676c0d771161020e578063676c0d77146103e55780636c167e03146103f8578063715018a614610400576102c8565b806352e3ac83146103bf578063550928d2146103d2576102c8565b806327d92ff3116102805780633fc017bf116102655780633fc017bf14610384578063430bf08a146103a45780634ea3871a146103ac576102c8565b806327d92ff3146103515780633129e77314610364576102c8565b80631742d7d3116102b15780631742d7d3146103165780631aafb8711461032b5780632688da6d1461033e576102c8565b806303f5160d146102cd5780630fd21e96146102f6575b600080fd5b6102e06102db366004612d1b565b61057a565b6040516102ed91906139b7565b60405180910390f35b610309610304366004612cae565b610597565b6040516102ed919061317b565b610329610324366004612d80565b6105b7565b005b610309610339366004612cae565b610d3f565b61032961034c366004612f04565b610d5f565b61032961035f366004612d80565b610d6e565b610377610372366004612e4f565b611025565b6040516102ed919061392d565b610397610392366004612fb3565b6110be565b6040516102ed9190613124565b6103976110dc565b6103296103ba366004612d48565b6110eb565b6103096103cd366004612cae565b61113d565b6102e06103e0366004612ebb565b61115d565b6103296103f3366004612e4f565b61117e565b6103976111c2565b6103296111d1565b6102e061125a565b610397611260565b6102e0610426366004612ebb565b61126f565b610397611287565b610397610441366004612fb3565b611296565b6103976112b1565b6103096112c0565b6102e0610464366004612ce6565b6112c9565b610309610477366004612cae565b611309565b61032961048a366004612c76565b611329565b61039761138a565b6103096104a5366004612cae565b611399565b6104bd6104b8366004612c76565b6113b9565b6040516102ed91906139e5565b6103976113ce565b6103976113dd565b6103296104e8366004612e7f565b6113ec565b6102e06113fa565b610329610503366004612fec565b611400565b610329610516366004612fcf565b611535565b610329610529366004612e4f565b6115a7565b61032961053c366004612c76565b6115eb565b61032961054f366004612e4f565b6116ab565b610309610562366004612cae565b61170b565b6102e0610575366004612f04565b61172b565b600960209081526000928352604080842090915290825290205481565b601460209081526000928352604080842090915290825290205460ff1681565b6105bf612b1c565b6003546105dc906001600160a01b03166105d761174c565b611750565b90508060a001511515600115151461060f5760405162461bcd60e51b815260040161060690613775565b60405180910390fd5b600260015414156106325760405162461bcd60e51b815260040161060690613851565b6002600155600480546040517f6352211e0000000000000000000000000000000000000000000000000000000081526001600160a01b03909116918291636352211e91610681918791016139b7565b60206040518083038186803b15801561069957600080fd5b505afa1580156106ad573d6000803e3d6000fd5b505050506040513d601f19601f820116820180604052508101906106d19190612c92565b6001600160a01b03166106e261174c565b6001600160a01b0316146107085760405162461bcd60e51b815260040161060690613460565b6009600061071461174c565b6001600160a01b03166001600160a01b03168152602001908152602001600020600085601481111561074257fe5b60ff168152602081019190915260400160002054156107735760405162461bcd60e51b8152600401610606906136d2565b61077b612b5d565b604051633129e77360e01b815273__$6e6aae3005a1aabc9fb6bf26501a702d59$__90633129e773906107b29087906004016139b7565b60006040518083038186803b1580156107ca57600080fd5b505af41580156107de573d6000803e3d6000fd5b505050506040513d6000823e601f3d908101601f191682016040526108069190810190612daa565b905060028160400151601881111561081a57fe5b141561085057600185601481111561082e57fe5b1461084b5760405162461bcd60e51b815260040161060690613599565b610bfe565b60018160400151601881111561086257fe5b14156108a957600185601481111561087657fe5b148061088d5750600285601481111561088b57fe5b145b61084b5760405162461bcd60e51b815260040161060690613505565b6003816040015160188111156108bb57fe5b14806108d657506004816040015160188111156108d457fe5b145b156109065760028560148111156108e957fe5b1461084b5760405162461bcd60e51b8152600401610606906135d0565b60058160400151601881111561091857fe5b141561094957600385601481111561092c57fe5b1461084b5760405162461bcd60e51b81526004016106069061381a565b60078160400151601881111561095b57fe5b141561098c57600785601481111561096f57fe5b1461084b5760405162461bcd60e51b81526004016106069061326d565b60068160400151601881111561099e57fe5b14156109cf5760048560148111156109b257fe5b1461084b5760405162461bcd60e51b8152600401610606906137ac565b6008816040015160188111156109e157fe5b1415610a125760068560148111156109f557fe5b1461084b5760405162461bcd60e51b815260040161060690613562565b600981604001516018811115610a2457fe5b1415610a55576009856014811115610a3857fe5b1461084b5760405162461bcd60e51b8152600401610606906138f6565b600a81604001516018811115610a6757fe5b1415610a98576008856014811115610a7b57fe5b1461084b5760405162461bcd60e51b815260040161060690613664565b600b81604001516018811115610aaa57fe5b1415610adb57600c856014811115610abe57fe5b1461084b5760405162461bcd60e51b815260040161060690613888565b600e81604001516018811115610aed57fe5b1415610b4a57600f856014811115610b0157fe5b1480610b1857506010856014811115610b1657fe5b145b80610b2e57506011856014811115610b2c57fe5b145b61084b5760405162461bcd60e51b8152600401610606906138bf565b600c81604001516018811115610b5c57fe5b1415610ba357600d856014811115610b7057fe5b1480610b875750600e856014811115610b8557fe5b145b61084b5760405162461bcd60e51b8152600401610606906132a4565b600d81604001516018811115610bb557fe5b1415610be6576005856014811115610bc957fe5b1461084b5760405162461bcd60e51b815260040161060690613709565b60405162461bcd60e51b815260040161060690613395565b8360096000610c0b61174c565b6001600160a01b03166001600160a01b031681526020019081526020016000206000876014811115610c3957fe5b60ff1660ff16815260200190815260200160002081905550600a6000610c5d61174c565b6001600160a01b0390811682526020820192909252604001600020805460ff8082166001011660ff199091161790556005541663e0e5d2b2610c9d61174c565b866040518363ffffffff1660e01b8152600401610cbb929190613138565b600060405180830381600087803b158015610cd557600080fd5b505af1158015610ce9573d6000803e3d6000fd5b50505050806020015161ffff1684610cff61174c565b6001600160a01b03167f7d4d4607f618490ec85e393587c2b6ccaddf8d1054b2278c6ff55bfc858806f060405160405180910390a4505060018055505050565b601360209081526000928352604080842090915290825290205460ff1681565b610d67611832565b5050505050565b610d76612b1c565b600354610d8e906001600160a01b03166105d761174c565b90508060a0015115156001151514610db85760405162461bcd60e51b815260040161060690613775565b60026001541415610ddb5760405162461bcd60e51b815260040161060690613851565b60026001558160096000610ded61174c565b6001600160a01b03166001600160a01b031681526020019081526020016000206000856014811115610e1b57fe5b60ff1660ff1681526020019081526020016000205414610e4d5760405162461bcd60e51b8152600401610606906134ce565b610e55612b5d565b604051633129e77360e01b815273__$6e6aae3005a1aabc9fb6bf26501a702d59$__90633129e77390610e8c9086906004016139b7565b60006040518083038186803b158015610ea457600080fd5b505af4158015610eb8573d6000803e3d6000fd5b505050506040513d6000823e601f3d908101601f19168201604052610ee09190810190612daa565b9050600060096000610ef061174c565b6001600160a01b03166001600160a01b031681526020019081526020016000206000866014811115610f1e57fe5b60ff1660ff16815260200190815260200160002081905550600a6000610f4261174c565b6001600160a01b0390811682526020820192909252604001600020805460ff19811660ff91821660001901909116179055600554166392dfe367610f8461174c565b856040518363ffffffff1660e01b8152600401610fa2929190613138565b600060405180830381600087803b158015610fbc57600080fd5b505af1158015610fd0573d6000803e3d6000fd5b50505050806020015161ffff1683610fe661174c565b6001600160a01b03167f8e29323119c8e859ebb0c8c9d973026002b1d95e109e0744554e944905030a6360405160405180910390a45050600180555050565b61102d612b5d565b604051633129e77360e01b815273__$6e6aae3005a1aabc9fb6bf26501a702d59$__90633129e773906110649085906004016139b7565b60006040518083038186803b15801561107c57600080fd5b505af4158015611090573d6000803e3d6000fd5b505050506040513d6000823e601f3d908101601f191682016040526110b89190810190612daa565b92915050565b60ff166000908152600b60205260409020546001600160a01b031690565b6007546001600160a01b031681565b6110f361174c565b6001600160a01b0316611104611260565b6001600160a01b03161461112a5760405162461bcd60e51b815260040161060690613740565b600c805460ff1916911515919091179055565b601260209081526000928352604080842090915290825290205460ff1681565b6000611167611832565b61117560028686868661185e565b95945050505050565b61118661174c565b6001600160a01b0316611197611260565b6001600160a01b0316146111bd5760405162461bcd60e51b815260040161060690613740565b600e55565b6003546001600160a01b031681565b6111d961174c565b6001600160a01b03166111ea611260565b6001600160a01b0316146112105760405162461bcd60e51b815260040161060690613740565b600080546040516001600160a01b03909116907f8be0079c531659141344cd1fd0a4f28419497f9722a3daafe3b4186f6b6457e0908390a3600080546001600160a01b0319169055565b600e5481565b6000546001600160a01b031690565b6000611279611832565b61117560018686868661185e565b6006546001600160a01b031681565b600b602052600090815260409020546001600160a01b031681565b6002546001600160a01b031681565b600c5460ff1681565b6001600160a01b0382166000908152600960205260408120818360148111156112ee57fe5b60ff1681526020810191909152604001600020549392505050565b601060209081526000928352604080842090915290825290205460ff1681565b61133161174c565b6001600160a01b0316611342611260565b6001600160a01b0316146113685760405162461bcd60e51b815260040161060690613740565b600880546001600160a01b0319166001600160a01b0392909216919091179055565b6005546001600160a01b031681565b601160209081526000928352604080842090915290825290205460ff1681565b600a6020526000908152604090205460ff1681565b6004546001600160a01b031681565b6008546001600160a01b031681565b6113f4611832565b50505050565b600f5481565b61140861174c565b6001600160a01b0316611419611260565b6001600160a01b03161461143f5760405162461bcd60e51b815260040161060690613740565b6001600160a01b0387161561147a5760ff88166000908152600b6020526040902080546001600160a01b0319166001600160a01b0389161790555b6001600160a01b038516156114b55760ff86166000908152600b6020526040902080546001600160a01b0319166001600160a01b0387161790555b6001600160a01b038316156114f05760ff84166000908152600b6020526040902080546001600160a01b0319166001600160a01b0385161790555b6001600160a01b0381161561152b5760ff82166000908152600b6020526040902080546001600160a01b0319166001600160a01b0383161790555b5050505050505050565b61153d61174c565b6001600160a01b031661154e611260565b6001600160a01b0316146115745760405162461bcd60e51b815260040161060690613740565b60ff919091166000908152600b6020526040902080546001600160a01b0319166001600160a01b03909216919091179055565b6115af61174c565b6001600160a01b03166115c0611260565b6001600160a01b0316146115e65760405162461bcd60e51b815260040161060690613740565b600f55565b6115f361174c565b6001600160a01b0316611604611260565b6001600160a01b03161461162a5760405162461bcd60e51b815260040161060690613740565b6001600160a01b0381166116505760405162461bcd60e51b815260040161060690613338565b600080546040516001600160a01b03808516939216917f8be0079c531659141344cd1fd0a4f28419497f9722a3daafe3b4186f6b6457e091a3600080546001600160a01b0319166001600160a01b0392909216919091179055565b6116b361174c565b6001600160a01b03166116c4611260565b6001600160a01b0316146116ea5760405162461bcd60e51b815260040161060690613740565b6117086116f561174c565b6002546001600160a01b0316908361267b565b50565b601560209081526000928352604080842090915290825290205460ff1681565b6000611735611832565b611742828787878761185e565b9695505050505050565b3390565b611758612b1c565b600080600080600080886001600160a01b031663987ee156896040518263ffffffff1660e01b815260040161178d9190613124565b60c06040518083038186803b1580156117a557600080fd5b505afa1580156117b9573d6000803e3d6000fd5b505050506040513d601f19601f820116820180604052508101906117dd9190612f55565b949a509298509096509450925090506117f4612b1c565b506040805160c0810182529687526020870195909552938501929092526001600160a01b031660608401526080830152151560a08201529392505050565b6008546001600160a01b0316331461185c5760405162461bcd60e51b81526004016106069061369b565b565b600854604080518082018252601781527f5b4261727261636b735d204974656d20436f756e743a200000000000000000006020808301919091526001600160a01b038681166000908152600a90925292812054909392909216918691849182916118ca9160ff166126ee565b6001600160a01b0387166000908152600a602052604090205460ff16156124215760015b60148160ff161161241f576001600160a01b038816600090815260096020908152604080832060ff851684529091529020548061192b5750612417565b611933612b5d565b604051633129e77360e01b815273__$6e6aae3005a1aabc9fb6bf26501a702d59$__90633129e7739061196a9085906004016139b7565b60006040518083038186803b15801561198257600080fd5b505af4158015611996573d6000803e3d6000fd5b505050506040513d6000823e601f3d908101601f191682016040526119be9190810190612daa565b9050611a076040518060400160405280601481526020017f5b4261727261636b735d204974656d2049443a20000000000000000000000000815250826020015161ffff166126ee565b611a4e6040518060400160405280601981526020017f5b4261727261636b735d204974656d2056657273696f6e3a2000000000000000815250826000015161ffff166126ee565b611a9f6040518060400160405280601681526020017f5b4261727261636b735d204974656d20547970653a200000000000000000000081525082604001516018811115611a9757fe5b60ff166126ee565b806020015161ffff1660011415611f1257611b0f6040518060400160405280602081526020017f5b4261727261636b735d5b537465656c5d20686172766573745969656c643a208152508260600151600081518110611afa57fe5b60200260200101516020015161ffff166126ee565b611b3c604051806060016040528060258152602001613af4602591398260600151600181518110611afa57fe5b611b69604051806060016040528060238152602001613ad1602391398260600151600281518110611afa57fe5b60008160600151600181518110611b7c57fe5b60200260200101516020015161ffff161115611ed15760008160600151600281518110611ba557fe5b60200260200101516020015161ffff1660011415611bf7575060008052600b6020527fdf7de25b7f1fd6d0b5205f0e18f1f35bd7b8d84cce336588d184533ce43a6f76546001600160a01b0316611c92565b8160600151600281518110611c0857fe5b60200260200101516020015161ffff1660021415611c5b57506002600052600b6020527fa50eece07c7db1631545c0069bd8f5f54d5935e215d59097edf258a44ba91634546001600160a01b0316611c92565b506005600052600b6020527febae6141bae5521e99e0a8d610356b0f501fea54980b59c84841db43ba7204f4546001600160a01b03165b6000611cd26064611ccc8560600151600181518110611cad57fe5b60200260200101516020015161ffff168b61275090919063ffffffff16565b90612791565b9050611d4a6040518060400160405280601681526020017f5b4261727261636b735d5b537465656c5d204665653a00000000000000000000815250826040518060400160405280600281526020017f6f6e0000000000000000000000000000000000000000000000000000000000008152508b6127c3565b611dc06040518060400160405280600281526020017f6f66000000000000000000000000000000000000000000000000000000000000815250836040518060400160405280600481526020017f66726f6d000000000000000000000000000000000000000000000000000000008152508f612825565b60408051808201909152600281527f746f0000000000000000000000000000000000000000000000000000000000006020820152600754611e0a91906001600160a01b0316612887565b886001600160a01b0316632bcbcc10838e600760009054906101000a90046001600160a01b0316856040518563ffffffff1660e01b8152600401611e519493929190613151565b600060405180830381600087803b158015611e6b57600080fd5b505af1158015611e7f573d6000803e3d6000fd5b50505050816001600160a01b03168c6001600160a01b03167fd8449057aba08c8471cc2df06e1191048c936b03fafe68ad13d26d90798c93d583604051611ec691906139b7565b60405180910390a350505b611f096064611ccc8360600151600081518110611eea57fe5b60200260200101516020015161ffff168961275090919063ffffffff16565b85019450612414565b806020015161ffff166002141561230557611f6d6040518060400160405280601f81526020017f5b4261727261636b735d5b467572795d20686172766573745969656c643a20008152508260600151600081518110611afa57fe5b611f9a604051806060016040528060328152602001613a9f603291398260600151600181518110611afa57fe5b611fc7604051806060016040528060268152602001613a79602691398260600151600281518110611afa57fe5b6004600d54118015611fe357506004600d5481611fe057fe5b06155b611ff257600d54600301611ff9565b6003600d54035b600101600d819055600090612010906064906128e5565b90508d6001148061202157508d6003145b156122c357816060015160018151811061203757fe5b60200260200101516020015161ffff16811161229357600854600f546040517f73309b960000000000000000000000000000000000000000000000000000000081526001600160a01b03909216916373309b9691612099918e906004016139c0565b600060405180830381600087803b1580156120b357600080fd5b505af11580156120c7573d6000803e3d6000fd5b5050600854600f546040517fd59f62a80000000000000000000000000000000000000000000000000000000081526001600160a01b03909216935063faa8e75892509061217c908b90859063d59f62a8906121269086906004016139b7565b60206040518083038186803b15801561213e57600080fd5b505afa158015612152573d6000803e3d6000fd5b505050506040513d601f19601f820116820180604052508101906121769190612e67565b90612930565b6040518363ffffffff1660e01b81526004016121999291906139d7565b600060405180830381600087803b1580156121b357600080fd5b505af11580156121c7573d6000803e3d6000fd5b5050600854600f546040517f216369b40000000000000000000000000000000000000000000000000000000081526001600160a01b03909216935063216369b49250612217918e906004016139c0565b600060405180830381600087803b15801561223157600080fd5b505af1158015612245573d6000803e3d6000fd5b505050508a6001600160a01b03167f21d9757e72ed3c439ed21ea06df5c09b611c00fbab96ec3aa3b6e4852f83d1458860405161228291906139b7565b60405180910390a2600096506122c3565b81606001516002815181106122a457fe5b60200260200101516020015160640361ffff1681106122c35760009694505b6122fb6064611ccc84606001516000815181106122dc57fe5b60200260200101516020015161ffff168a61275090919063ffffffff16565b8601955050612414565b806020015161ffff1660031415612414576123606040518060400160405280602081526020017f5b4261727261636b735d5b537465656c5d20686172766573745969656c643a208152508260600151600081518110611afa57fe5b6123aa6040518060400160405280601f81526020017f5b4261727261636b735d5b537465656c5d20686172766573744275726e3a20008152508260600151600181518110611afa57fe5b600081606001516001815181106123bd57fe5b60200260200101516020015161ffff1611156123f6576123ec6064611ccc8360600151600181518110611eea57fe5b8401935083860395505b61240f6064611ccc8360600151600081518110611eea57fe5b850194505b50505b6001016118ee565b505b6124606040518060400160405280601181526020017f5b4261727261636b735d204275726e3a20000000000000000000000000000000815250826126ee565b61249f6040518060400160405280601281526020017f5b4261727261636b735d20426f6e75733a200000000000000000000000000000815250836126ee565b6124de6040518060400160405280601481526020017f5b4261727261636b735d2050656e64696e673a20000000000000000000000000815250846126ee565b80156125a4576040517fca6b6f5500000000000000000000000000000000000000000000000000000000815261dead906001600160a01b0386169063ca6b6f559061252f9084908690600401613138565b600060405180830381600087803b15801561254957600080fd5b505af115801561255d573d6000803e3d6000fd5b50505050876001600160a01b03167fbd6c81b22f61e66bb371451577d2d772376e4204095bdfd92ff6a48aa86837ef8360405161259a91906139b7565b60405180910390a2505b811561266d576007546040517f2bcbcc100000000000000000000000000000000000000000000000000000000081526001600160a01b0380871692632bcbcc10926125f9928b9216908c908890600401613151565b600060405180830381600087803b15801561261357600080fd5b505af1158015612627573d6000803e3d6000fd5b50505050866001600160a01b03167f7203e7db7b790743c0d380a243aa1629267ec702b820d4413cc65f7d3e15ba888360405161266491906139b7565b60405180910390a25b509098975050505050505050565b6126e98363a9059cbb60e01b848460405160240161269a929190613138565b60408051601f198184030181529190526020810180516001600160e01b03167fffffffff0000000000000000000000000000000000000000000000000000000090931692909217909152612955565b505050565b61274c828260405160240161270492919061320e565b60408051601f198184030181529190526020810180516001600160e01b03167f9710a9d0000000000000000000000000000000000000000000000000000000001790526129e4565b5050565b60008261275f575060006110b8565b8282028284828161276c57fe5b041461278a5760405162461bcd60e51b815260040161060690613607565b9392505050565b60008082116127b25760405162461bcd60e51b815260040161060690613497565b8183816127bb57fe5b049392505050565b6113f4848484846040516024016127dd9493929190613230565b60408051601f198184030181529190526020810180516001600160e01b03167fa0c4b225000000000000000000000000000000000000000000000000000000001790526129e4565b6113f48484848460405160240161283f94939291906131c4565b60408051601f198184030181529190526020810180516001600160e01b03167faabc9a31000000000000000000000000000000000000000000000000000000001790526129e4565b61274c828260405160240161289d929190613199565b60408051601f198184030181529190526020810180516001600160e01b03167f319af333000000000000000000000000000000000000000000000000000000001790526129e4565b6000600182019150826001014244338560405160200161290894939291906130f7565b6040516020818303038152906040528051906020012060001c8161292857fe5b069392505050565b60008282018381101561278a5760405162461bcd60e51b8152600401610606906133cc565b60606129aa826040518060400160405280602081526020017f5361666542455032303a206c6f772d6c6576656c2063616c6c206661696c6564815250856001600160a01b0316612a059092919063ffffffff16565b8051909150156126e957808060200190518101906129c89190612d64565b6126e95760405162461bcd60e51b8152600401610606906132db565b80516a636f6e736f6c652e6c6f67602083016000808483855afa5050505050565b6060612a148484600085612a1c565b949350505050565b606082471015612a3e5760405162461bcd60e51b815260040161060690613403565b612a4785612add565b612a635760405162461bcd60e51b8152600401610606906137e3565b60006060866001600160a01b03168587604051612a8091906130db565b60006040518083038185875af1925050503d8060008114612abd576040519150601f19603f3d011682016040523d82523d6000602084013e612ac2565b606091505b5091509150612ad2828286612ae3565b979650505050505050565b3b151590565b60608315612af257508161278a565b825115612b025782518084602001fd5b8160405162461bcd60e51b81526004016106069190613186565b6040518060c0016040528060008152602001600081526020016000815260200160006001600160a01b03168152602001600081526020016000151581525090565b604080516080810182526000808252602082018190529181019190915260608082015290565b600082601f830112612b93578081fd5b815167ffffffffffffffff811115612ba9578182fd5b6020612bb881828402016139f3565b8281529250808301848201604080850287018401881015612bd857600080fd5b60005b85811015612bff57612bed8984612c1a565b84529284019291810191600101612bdb565b50505050505092915050565b8035601581106110b857600080fd5b600060408284031215612c2b578081fd5b612c3560406139f3565b90508151612c4281613a69565b8152602082015161ffff81168114612c5957600080fd5b602082015292915050565b805161ffff811681146110b857600080fd5b600060208284031215612c87578081fd5b813561278a81613a46565b600060208284031215612ca3578081fd5b815161278a81613a46565b60008060408385031215612cc0578081fd5b8235612ccb81613a46565b91506020830135612cdb81613a46565b809150509250929050565b60008060408385031215612cf8578182fd5b8235612d0381613a46565b9150612d128460208501612c0b565b90509250929050565b60008060408385031215612d2d578182fd5b8235612d3881613a46565b91506020830135612cdb81613a69565b600060208284031215612d59578081fd5b813561278a81613a5b565b600060208284031215612d75578081fd5b815161278a81613a5b565b60008060408385031215612d92578182fd5b612d9c8484612c0b565b946020939093013593505050565b600060208284031215612dbb578081fd5b815167ffffffffffffffff80821115612dd2578283fd5b9083019060808286031215612de5578283fd5b612def60806139f3565b612df98684612c64565b8152612e088660208501612c64565b6020820152604083015160198110612e1e578485fd5b6040820152606083015182811115612e34578485fd5b612e4087828601612b83565b60608301525095945050505050565b600060208284031215612e60578081fd5b5035919050565b600060208284031215612e78578081fd5b5051919050565b60008060008060808587031215612e94578182fd5b843593506020850135612ea681613a46565b93969395505050506040820135916060013590565b60008060008060808587031215612ed0578182fd5b84359350602085013592506040850135612ee981613a46565b91506060850135612ef981613a46565b939692955090935050565b600080600080600060a08688031215612f1b578283fd5b85359450602086013593506040860135612f3481613a46565b92506060860135612f4481613a46565b949793965091946080013592915050565b60008060008060008060c08789031215612f6d578384fd5b8651955060208701519450604087015193506060870151612f8d81613a46565b608088015160a08901519194509250612fa581613a5b565b809150509295509295509295565b600060208284031215612fc4578081fd5b813561278a81613a69565b60008060408385031215612fe1578182fd5b8235612ccb81613a69565b600080600080600080600080610100898b031215613008578586fd5b883561301381613a69565b9750602089013561302381613a46565b9650604089013561303381613a69565b9550606089013561304381613a46565b9450608089013561305381613a69565b935060a089013561306381613a46565b925060c089013561307381613a69565b915060e089013561308381613a46565b809150509295985092959890939650565b805160ff16825260209081015161ffff169082015260400190565b600081518084526130c7816020860160208601613a1a565b601f01601f19169290920160200192915050565b600082516130ed818460208701613a1a565b9190910192915050565b938452602084019290925260601b6bffffffffffffffffffffffff19166040830152605482015260740190565b6001600160a01b0391909116815260200190565b6001600160a01b03929092168252602082015260400190565b6001600160a01b039485168152928416602084015292166040820152606081019190915260800190565b901515815260200190565b60006020825261278a60208301846130af565b6000604082526131ac60408301856130af565b90506001600160a01b03831660208301529392505050565b6000608082526131d760808301876130af565b6001600160a01b03808716602085015283820360408501526131f982876130af565b92508085166060850152505095945050505050565b60006040825261322160408301856130af565b90508260208301529392505050565b60006080825261324360808301876130af565b856020840152828103604084015261325b81866130af565b91505082606083015295945050505050565b60208082526017908201527f43616e206f6e6c79206571756970206f6e206368657374000000000000000000604082015260600190565b60208082526018908201527f43616e206f6e6c79206571756970206f6e2066696e6765720000000000000000604082015260600190565b6020808252602a908201527f5361666542455032303a204245503230206f7065726174696f6e20646964206e60408201527f6f74207375636365656400000000000000000000000000000000000000000000606082015260800190565b60208082526026908201527f4f776e61626c653a206e6577206f776e657220697320746865207a65726f206160408201527f6464726573730000000000000000000000000000000000000000000000000000606082015260800190565b6020808252600d908201527f496e76616c696420657175697000000000000000000000000000000000000000604082015260600190565b6020808252601b908201527f536166654d6174683a206164646974696f6e206f766572666c6f770000000000604082015260600190565b60208082526026908201527f416464726573733a20696e73756666696369656e742062616c616e636520666f60408201527f722063616c6c0000000000000000000000000000000000000000000000000000606082015260800190565b6020808252601b908201527f4f6e6c79204e4654206f776e65722063616e2072656769737465720000000000604082015260600190565b6020808252601a908201527f536166654d6174683a206469766973696f6e206279207a65726f000000000000604082015260600190565b60208082526011908201527f4974656d206e6f74206571756970706564000000000000000000000000000000604082015260600190565b60208082526024908201527f43616e206f6e6c7920657175697020696e206c656674206f722072696768742060408201527f68616e6400000000000000000000000000000000000000000000000000000000606082015260800190565b6020808252601b908201527f43616e206f6e6c79206571756970206f6e2073686f756c646572730000000000604082015260600190565b6020808252601b908201527f43616e206f6e6c7920657175697020696e206c6566742068616e640000000000604082015260600190565b6020808252601c908201527f43616e206f6e6c7920657175697020696e2072696768742068616e6400000000604082015260600190565b60208082526021908201527f536166654d6174683a206d756c7469706c69636174696f6e206f766572666c6f60408201527f7700000000000000000000000000000000000000000000000000000000000000606082015260800190565b60208082526017908201527f43616e206f6e6c79206571756970206f6e207761697374000000000000000000604082015260600190565b60208082526011908201527f4e6f74206f776e6572206f722063686566000000000000000000000000000000604082015260600190565b60208082526015908201527f536c6f7420616c72656164792065717569707065640000000000000000000000604082015260600190565b60208082526016908201527f43616e206f6e6c79206571756970206f6e206e65636b00000000000000000000604082015260600190565b6020808252818101527f4f776e61626c653a2063616c6c6572206973206e6f7420746865206f776e6572604082015260600190565b60208082526013908201527f55736572206d7573742062652061637469766500000000000000000000000000604082015260600190565b60208082526016908201527f43616e206f6e6c79206571756970206f6e20626f647900000000000000000000604082015260600190565b6020808252601d908201527f416464726573733a2063616c6c20746f206e6f6e2d636f6e7472616374000000604082015260600190565b60208082526016908201527f43616e206f6e6c79206571756970206f6e206865616400000000000000000000604082015260600190565b6020808252601f908201527f5265656e7472616e637947756172643a207265656e7472616e742063616c6c00604082015260600190565b60208082526016908201527f43616e206f6e6c79206571756970206f6e206665657400000000000000000000604082015260600190565b60208082526019908201527f43616e206f6e6c79206571756970206f6e207472696e6b657400000000000000604082015260600190565b60208082526017908201527f43616e206f6e6c79206571756970206f6e2068616e6473000000000000000000604082015260600190565b6000602080835260a0830161ffff808651168386015280838701511660408601525060408501516019811061395e57fe5b80606086015250606085015160808086015281815161397d81856139b7565b9285019350859291505b808310156139ac5761399a828551613094565b91508484019350600183019250613987565b509695505050505050565b90815260200190565b9182526001600160a01b0316602082015260400190565b918252602082015260400190565b60ff91909116815260200190565b60405181810167ffffffffffffffff81118282101715613a1257600080fd5b604052919050565b60005b83811015613a35578181015183820152602001613a1d565b838111156113f45750506000910152565b6001600160a01b038116811461170857600080fd5b801515811461170857600080fd5b60ff8116811461170857600080fdfe5b4261727261636b735d5b467572795d206368616e6365546f4c6f7365486172766573743a205b4261727261636b735d5b467572795d206368616e6365546f53656e6448617276657374546f48696464656e506f6f6c3a205b4261727261636b735d5b537465656c5d2068617276657374466565546f6b656e3a205b4261727261636b735d5b537465656c5d206861727665737446656550657263656e743a20a26469706673582212209fc5cd5a1bfdba51daf12e5f2f02e15bdd3e39945ff764d928ad59b9fc9c949a64736f6c634300060c0033",
  "linkReferences": {
    "src/ArcaneItemLibraryV1.sol": {
      "ArcaneItemLibraryV1": [
        {
          "length": 20,
          "start": 2776
        },
        {
          "length": 20,
          "start": 4530
        },
        {
          "length": 20,
          "start": 5002
        },
        {
          "length": 20,
          "start": 7312
        }
      ]
    }
  },
  "deployedLinkReferences": {
    "src/ArcaneItemLibraryV1.sol": {
      "ArcaneItemLibraryV1": [
        {
          "length": 20,
          "start": 1930
        },
        {
          "length": 20,
          "start": 3684
        },
        {
          "length": 20,
          "start": 4156
        },
        {
          "length": 20,
          "start": 6466
        }
      ]
    }
  }
}