{
  "_format": "hh-sol-artifact-1",
  "contractName": "ArcaneProfile",
  "sourceName": "src/ArcaneProfile.sol",
  "abi": [
    {
      "inputs": [
        {
          "internalType": "contract IBEP20",
          "name": "_runeToken",
          "type": "address"
        },
        {
          "internalType": "uint256",
          "name": "_numberRuneToReactivate",
          "type": "uint256"
        },
        {
          "internalType": "uint256",
          "name": "_numberRuneToRegister",
          "type": "uint256"
        },
        {
          "internalType": "uint256",
          "name": "_numberRuneToUpdate",
          "type": "uint256"
        }
      ],
      "stateMutability": "nonpayable",
      "type": "constructor"
    },
    {
      "anonymous": false,
      "inputs": [
        {
          "indexed": true,
          "internalType": "bytes32",
          "name": "role",
          "type": "bytes32"
        },
        {
          "indexed": true,
          "internalType": "bytes32",
          "name": "previousAdminRole",
          "type": "bytes32"
        },
        {
          "indexed": true,
          "internalType": "bytes32",
          "name": "newAdminRole",
          "type": "bytes32"
        }
      ],
      "name": "RoleAdminChanged",
      "type": "event"
    },
    {
      "anonymous": false,
      "inputs": [
        {
          "indexed": true,
          "internalType": "bytes32",
          "name": "role",
          "type": "bytes32"
        },
        {
          "indexed": true,
          "internalType": "address",
          "name": "account",
          "type": "address"
        },
        {
          "indexed": true,
          "internalType": "address",
          "name": "sender",
          "type": "address"
        }
      ],
      "name": "RoleGranted",
      "type": "event"
    },
    {
      "anonymous": false,
      "inputs": [
        {
          "indexed": true,
          "internalType": "bytes32",
          "name": "role",
          "type": "bytes32"
        },
        {
          "indexed": true,
          "internalType": "address",
          "name": "account",
          "type": "address"
        },
        {
          "indexed": true,
          "internalType": "address",
          "name": "sender",
          "type": "address"
        }
      ],
      "name": "RoleRevoked",
      "type": "event"
    },
    {
      "anonymous": false,
      "inputs": [
        {
          "indexed": false,
          "internalType": "uint256",
          "name": "teamId",
          "type": "uint256"
        },
        {
          "indexed": false,
          "internalType": "string",
          "name": "teamName",
          "type": "string"
        }
      ],
      "name": "TeamAdd",
      "type": "event"
    },
    {
      "anonymous": false,
      "inputs": [
        {
          "indexed": true,
          "internalType": "uint256",
          "name": "teamId",
          "type": "uint256"
        },
        {
          "indexed": false,
          "internalType": "uint256",
          "name": "numberPoints",
          "type": "uint256"
        },
        {
          "indexed": true,
          "internalType": "uint256",
          "name": "campaignId",
          "type": "uint256"
        }
      ],
      "name": "TeamPointIncrease",
      "type": "event"
    },
    {
      "anonymous": false,
      "inputs": [
        {
          "indexed": true,
          "internalType": "address",
          "name": "userAddress",
          "type": "address"
        },
        {
          "indexed": false,
          "internalType": "uint256",
          "name": "oldTeamId",
          "type": "uint256"
        },
        {
          "indexed": false,
          "internalType": "uint256",
          "name": "newTeamId",
          "type": "uint256"
        }
      ],
      "name": "UserChangeTeam",
      "type": "event"
    },
    {
      "anonymous": false,
      "inputs": [
        {
          "indexed": true,
          "internalType": "address",
          "name": "userAddress",
          "type": "address"
        },
        {
          "indexed": false,
          "internalType": "uint256",
          "name": "teamId",
          "type": "uint256"
        },
        {
          "indexed": false,
          "internalType": "address",
          "name": "nftAddress",
          "type": "address"
        },
        {
          "indexed": false,
          "internalType": "uint256",
          "name": "tokenId",
          "type": "uint256"
        }
      ],
      "name": "UserNew",
      "type": "event"
    },
    {
      "anonymous": false,
      "inputs": [
        {
          "indexed": true,
          "internalType": "address",
          "name": "userAddress",
          "type": "address"
        },
        {
          "indexed": false,
          "internalType": "uint256",
          "name": "teamId",
          "type": "uint256"
        }
      ],
      "name": "UserPause",
      "type": "event"
    },
    {
      "anonymous": false,
      "inputs": [
        {
          "indexed": true,
          "internalType": "address",
          "name": "userAddress",
          "type": "address"
        },
        {
          "indexed": false,
          "internalType": "uint256",
          "name": "numberPoints",
          "type": "uint256"
        },
        {
          "indexed": true,
          "internalType": "uint256",
          "name": "campaignId",
          "type": "uint256"
        }
      ],
      "name": "UserPointIncrease",
      "type": "event"
    },
    {
      "anonymous": false,
      "inputs": [
        {
          "indexed": false,
          "internalType": "address[]",
          "name": "userAddresses",
          "type": "address[]"
        },
        {
          "indexed": false,
          "internalType": "uint256",
          "name": "numberPoints",
          "type": "uint256"
        },
        {
          "indexed": true,
          "internalType": "uint256",
          "name": "campaignId",
          "type": "uint256"
        }
      ],
      "name": "UserPointIncreaseMultiple",
      "type": "event"
    },
    {
      "anonymous": false,
      "inputs": [
        {
          "indexed": true,
          "internalType": "address",
          "name": "userAddress",
          "type": "address"
        },
        {
          "indexed": false,
          "internalType": "uint256",
          "name": "teamId",
          "type": "uint256"
        },
        {
          "indexed": false,
          "internalType": "address",
          "name": "nftAddress",
          "type": "address"
        },
        {
          "indexed": false,
          "internalType": "uint256",
          "name": "tokenId",
          "type": "uint256"
        }
      ],
      "name": "UserReactivate",
      "type": "event"
    },
    {
      "anonymous": false,
      "inputs": [
        {
          "indexed": true,
          "internalType": "address",
          "name": "userAddress",
          "type": "address"
        },
        {
          "indexed": false,
          "internalType": "address",
          "name": "nftAddress",
          "type": "address"
        },
        {
          "indexed": false,
          "internalType": "uint256",
          "name": "tokenId",
          "type": "uint256"
        }
      ],
      "name": "UserUpdate",
      "type": "event"
    },
    {
      "inputs": [],
      "name": "DEFAULT_ADMIN_ROLE",
      "outputs": [
        {
          "internalType": "bytes32",
          "name": "",
          "type": "bytes32"
        }
      ],
      "stateMutability": "view",
      "type": "function"
    },
    {
      "inputs": [],
      "name": "NFT_ROLE",
      "outputs": [
        {
          "internalType": "bytes32",
          "name": "",
          "type": "bytes32"
        }
      ],
      "stateMutability": "view",
      "type": "function"
    },
    {
      "inputs": [],
      "name": "POINT_ROLE",
      "outputs": [
        {
          "internalType": "bytes32",
          "name": "",
          "type": "bytes32"
        }
      ],
      "stateMutability": "view",
      "type": "function"
    },
    {
      "inputs": [],
      "name": "SPECIAL_ROLE",
      "outputs": [
        {
          "internalType": "bytes32",
          "name": "",
          "type": "bytes32"
        }
      ],
      "stateMutability": "view",
      "type": "function"
    },
    {
      "inputs": [
        {
          "internalType": "address",
          "name": "_nftAddress",
          "type": "address"
        }
      ],
      "name": "addNftAddress",
      "outputs": [],
      "stateMutability": "nonpayable",
      "type": "function"
    },
    {
      "inputs": [
        {
          "internalType": "string",
          "name": "_teamName",
          "type": "string"
        },
        {
          "internalType": "string",
          "name": "_teamDescription",
          "type": "string"
        }
      ],
      "name": "addTeam",
      "outputs": [],
      "stateMutability": "nonpayable",
      "type": "function"
    },
    {
      "inputs": [
        {
          "internalType": "address",
          "name": "_userAddress",
          "type": "address"
        },
        {
          "internalType": "uint256",
          "name": "_newTeamId",
          "type": "uint256"
        }
      ],
      "name": "changeTeam",
      "outputs": [],
      "stateMutability": "nonpayable",
      "type": "function"
    },
    {
      "inputs": [
        {
          "internalType": "uint256",
          "name": "_amount",
          "type": "uint256"
        }
      ],
      "name": "claimFee",
      "outputs": [],
      "stateMutability": "nonpayable",
      "type": "function"
    },
    {
      "inputs": [
        {
          "internalType": "uint256",
          "name": "_teamId",
          "type": "uint256"
        },
        {
          "internalType": "address",
          "name": "_nftAddress",
          "type": "address"
        },
        {
          "internalType": "uint256",
          "name": "_tokenId",
          "type": "uint256"
        }
      ],
      "name": "createProfile",
      "outputs": [],
      "stateMutability": "nonpayable",
      "type": "function"
    },
    {
      "inputs": [
        {
          "internalType": "bytes32",
          "name": "role",
          "type": "bytes32"
        }
      ],
      "name": "getRoleAdmin",
      "outputs": [
        {
          "internalType": "bytes32",
          "name": "",
          "type": "bytes32"
        }
      ],
      "stateMutability": "view",
      "type": "function"
    },
    {
      "inputs": [
        {
          "internalType": "bytes32",
          "name": "role",
          "type": "bytes32"
        },
        {
          "internalType": "uint256",
          "name": "index",
          "type": "uint256"
        }
      ],
      "name": "getRoleMember",
      "outputs": [
        {
          "internalType": "address",
          "name": "",
          "type": "address"
        }
      ],
      "stateMutability": "view",
      "type": "function"
    },
    {
      "inputs": [
        {
          "internalType": "bytes32",
          "name": "role",
          "type": "bytes32"
        }
      ],
      "name": "getRoleMemberCount",
      "outputs": [
        {
          "internalType": "uint256",
          "name": "",
          "type": "uint256"
        }
      ],
      "stateMutability": "view",
      "type": "function"
    },
    {
      "inputs": [
        {
          "internalType": "uint256",
          "name": "_teamId",
          "type": "uint256"
        }
      ],
      "name": "getTeamProfile",
      "outputs": [
        {
          "internalType": "string",
          "name": "",
          "type": "string"
        },
        {
          "internalType": "string",
          "name": "",
          "type": "string"
        },
        {
          "internalType": "uint256",
          "name": "",
          "type": "uint256"
        },
        {
          "internalType": "uint256",
          "name": "",
          "type": "uint256"
        },
        {
          "internalType": "bool",
          "name": "",
          "type": "bool"
        }
      ],
      "stateMutability": "view",
      "type": "function"
    },
    {
      "inputs": [
        {
          "internalType": "address",
          "name": "_userAddress",
          "type": "address"
        }
      ],
      "name": "getUserProfile",
      "outputs": [
        {
          "internalType": "uint256",
          "name": "",
          "type": "uint256"
        },
        {
          "internalType": "uint256",
          "name": "",
          "type": "uint256"
        },
        {
          "internalType": "uint256",
          "name": "",
          "type": "uint256"
        },
        {
          "internalType": "address",
          "name": "",
          "type": "address"
        },
        {
          "internalType": "uint256",
          "name": "",
          "type": "uint256"
        },
        {
          "internalType": "bool",
          "name": "",
          "type": "bool"
        }
      ],
      "stateMutability": "view",
      "type": "function"
    },
    {
      "inputs": [
        {
          "internalType": "address",
          "name": "_userAddress",
          "type": "address"
        }
      ],
      "name": "getUserStatus",
      "outputs": [
        {
          "internalType": "bool",
          "name": "",
          "type": "bool"
        }
      ],
      "stateMutability": "view",
      "type": "function"
    },
    {
      "inputs": [
        {
          "internalType": "bytes32",
          "name": "role",
          "type": "bytes32"
        },
        {
          "internalType": "address",
          "name": "account",
          "type": "address"
        }
      ],
      "name": "grantRole",
      "outputs": [],
      "stateMutability": "nonpayable",
      "type": "function"
    },
    {
      "inputs": [
        {
          "internalType": "address",
          "name": "",
          "type": "address"
        }
      ],
      "name": "hasRegistered",
      "outputs": [
        {
          "internalType": "bool",
          "name": "",
          "type": "bool"
        }
      ],
      "stateMutability": "view",
      "type": "function"
    },
    {
      "inputs": [
        {
          "internalType": "bytes32",
          "name": "role",
          "type": "bytes32"
        },
        {
          "internalType": "address",
          "name": "account",
          "type": "address"
        }
      ],
      "name": "hasRole",
      "outputs": [
        {
          "internalType": "bool",
          "name": "",
          "type": "bool"
        }
      ],
      "stateMutability": "view",
      "type": "function"
    },
    {
      "inputs": [
        {
          "internalType": "uint256",
          "name": "_teamId",
          "type": "uint256"
        },
        {
          "internalType": "uint256",
          "name": "_numberPoints",
          "type": "uint256"
        },
        {
          "internalType": "uint256",
          "name": "_campaignId",
          "type": "uint256"
        }
      ],
      "name": "increaseTeamPoints",
      "outputs": [],
      "stateMutability": "nonpayable",
      "type": "function"
    },
    {
      "inputs": [
        {
          "internalType": "address",
          "name": "_userAddress",
          "type": "address"
        },
        {
          "internalType": "uint256",
          "name": "_numberPoints",
          "type": "uint256"
        },
        {
          "internalType": "uint256",
          "name": "_campaignId",
          "type": "uint256"
        }
      ],
      "name": "increaseUserPoints",
      "outputs": [],
      "stateMutability": "nonpayable",
      "type": "function"
    },
    {
      "inputs": [
        {
          "internalType": "address[]",
          "name": "_userAddresses",
          "type": "address[]"
        },
        {
          "internalType": "uint256",
          "name": "_numberPoints",
          "type": "uint256"
        },
        {
          "internalType": "uint256",
          "name": "_campaignId",
          "type": "uint256"
        }
      ],
      "name": "increaseUserPointsMultiple",
      "outputs": [],
      "stateMutability": "nonpayable",
      "type": "function"
    },
    {
      "inputs": [
        {
          "internalType": "uint256",
          "name": "_teamId",
          "type": "uint256"
        }
      ],
      "name": "makeTeamJoinable",
      "outputs": [],
      "stateMutability": "nonpayable",
      "type": "function"
    },
    {
      "inputs": [
        {
          "internalType": "uint256",
          "name": "_teamId",
          "type": "uint256"
        }
      ],
      "name": "makeTeamNotJoinable",
      "outputs": [],
      "stateMutability": "nonpayable",
      "type": "function"
    },
    {
      "inputs": [],
      "name": "numberActiveProfiles",
      "outputs": [
        {
          "internalType": "uint256",
          "name": "",
          "type": "uint256"
        }
      ],
      "stateMutability": "view",
      "type": "function"
    },
    {
      "inputs": [],
      "name": "numberRuneToReactivate",
      "outputs": [
        {
          "internalType": "uint256",
          "name": "",
          "type": "uint256"
        }
      ],
      "stateMutability": "view",
      "type": "function"
    },
    {
      "inputs": [],
      "name": "numberRuneToRegister",
      "outputs": [
        {
          "internalType": "uint256",
          "name": "",
          "type": "uint256"
        }
      ],
      "stateMutability": "view",
      "type": "function"
    },
    {
      "inputs": [],
      "name": "numberRuneToUpdate",
      "outputs": [
        {
          "internalType": "uint256",
          "name": "",
          "type": "uint256"
        }
      ],
      "stateMutability": "view",
      "type": "function"
    },
    {
      "inputs": [],
      "name": "numberTeams",
      "outputs": [
        {
          "internalType": "uint256",
          "name": "",
          "type": "uint256"
        }
      ],
      "stateMutability": "view",
      "type": "function"
    },
    {
      "inputs": [
        {
          "internalType": "address",
          "name": "",
          "type": "address"
        },
        {
          "internalType": "address",
          "name": "",
          "type": "address"
        },
        {
          "internalType": "uint256",
          "name": "",
          "type": "uint256"
        },
        {
          "internalType": "bytes",
          "name": "",
          "type": "bytes"
        }
      ],
      "name": "onERC721Received",
      "outputs": [
        {
          "internalType": "bytes4",
          "name": "",
          "type": "bytes4"
        }
      ],
      "stateMutability": "nonpayable",
      "type": "function"
    },
    {
      "inputs": [],
      "name": "pauseProfile",
      "outputs": [],
      "stateMutability": "nonpayable",
      "type": "function"
    },
    {
      "inputs": [
        {
          "internalType": "address",
          "name": "_nftAddress",
          "type": "address"
        },
        {
          "internalType": "uint256",
          "name": "_tokenId",
          "type": "uint256"
        }
      ],
      "name": "reactivateProfile",
      "outputs": [],
      "stateMutability": "nonpayable",
      "type": "function"
    },
    {
      "inputs": [
        {
          "internalType": "uint256",
          "name": "_teamId",
          "type": "uint256"
        },
        {
          "internalType": "uint256",
          "name": "_numberPoints",
          "type": "uint256"
        }
      ],
      "name": "removeTeamPoints",
      "outputs": [],
      "stateMutability": "nonpayable",
      "type": "function"
    },
    {
      "inputs": [
        {
          "internalType": "address",
          "name": "_userAddress",
          "type": "address"
        },
        {
          "internalType": "uint256",
          "name": "_numberPoints",
          "type": "uint256"
        }
      ],
      "name": "removeUserPoints",
      "outputs": [],
      "stateMutability": "nonpayable",
      "type": "function"
    },
    {
      "inputs": [
        {
          "internalType": "address[]",
          "name": "_userAddresses",
          "type": "address[]"
        },
        {
          "internalType": "uint256",
          "name": "_numberPoints",
          "type": "uint256"
        }
      ],
      "name": "removeUserPointsMultiple",
      "outputs": [],
      "stateMutability": "nonpayable",
      "type": "function"
    },
    {
      "inputs": [
        {
          "internalType": "uint256",
          "name": "_teamId",
          "type": "uint256"
        },
        {
          "internalType": "string",
          "name": "_teamName",
          "type": "string"
        },
        {
          "internalType": "string",
          "name": "_teamDescription",
          "type": "string"
        }
      ],
      "name": "renameTeam",
      "outputs": [],
      "stateMutability": "nonpayable",
      "type": "function"
    },
    {
      "inputs": [
        {
          "internalType": "bytes32",
          "name": "role",
          "type": "bytes32"
        },
        {
          "internalType": "address",
          "name": "account",
          "type": "address"
        }
      ],
      "name": "renounceRole",
      "outputs": [],
      "stateMutability": "nonpayable",
      "type": "function"
    },
    {
      "inputs": [
        {
          "internalType": "bytes32",
          "name": "role",
          "type": "bytes32"
        },
        {
          "internalType": "address",
          "name": "account",
          "type": "address"
        }
      ],
      "name": "revokeRole",
      "outputs": [],
      "stateMutability": "nonpayable",
      "type": "function"
    },
    {
      "inputs": [],
      "name": "runeToken",
      "outputs": [
        {
          "internalType": "contract IBEP20",
          "name": "",
          "type": "address"
        }
      ],
      "stateMutability": "view",
      "type": "function"
    },
    {
      "inputs": [
        {
          "internalType": "uint256",
          "name": "_newNumberRuneToReactivate",
          "type": "uint256"
        },
        {
          "internalType": "uint256",
          "name": "_newNumberRuneToRegister",
          "type": "uint256"
        },
        {
          "internalType": "uint256",
          "name": "_newNumberRuneToUpdate",
          "type": "uint256"
        }
      ],
      "name": "updateNumberRune",
      "outputs": [],
      "stateMutability": "nonpayable",
      "type": "function"
    },
    {
      "inputs": [
        {
          "internalType": "address",
          "name": "_nftAddress",
          "type": "address"
        },
        {
          "internalType": "uint256",
          "name": "_tokenId",
          "type": "uint256"
        }
      ],
      "name": "updateProfile",
      "outputs": [],
      "stateMutability": "nonpayable",
      "type": "function"
    }
  ],
  "bytecode": "0x60806040523480156200001157600080fd5b5060405162003f9638038062003f96833981810160405260808110156200003757600080fd5b50805160208201516040830151606090930151600180546001600160a01b0319166001600160a01b038516179055600382905560048490556005819055919290916200008e60006200008862000098565b6200009c565b50505050620001ac565b3390565b620000a88282620000ac565b5050565b600082815260208181526040909120620000d19183906200344a62000125821b17901c565b15620000a857620000e162000098565b6001600160a01b0316816001600160a01b0316837f2f8788117e7eff1d82e926ec794901d17c78024a50270940304540a733656f0d60405160405180910390a45050565b60006200013c836001600160a01b03841662000145565b90505b92915050565b600062000153838362000194565b6200018b575081546001818101845560008481526020808220909301849055845484825282860190935260409020919091556200013f565b5060006200013f565b60009081526001919091016020526040902054151590565b613dda80620001bc6000396000f3fe608060405234801561001057600080fd5b50600436106102c85760003560e01c8063a40601ee1161017b578063d547741f116100d8578063ebc4ffc71161008c578063f684f33c11610071578063f684f33c14610b67578063f95ffe4914610b6f578063fd825f5814610b77576102c8565b8063ebc4ffc714610b2d578063f667526a14610b4a576102c8565b8063e2fa2ff3116100bd578063e2fa2ff314610a65578063e5020a6214610adb578063ea0d5dcd14610b07576102c8565b8063d547741f14610a0d578063da83fe4a14610a39576102c8565b8063bf051c131161012f578063c9bed94811610114578063c9bed948146109c5578063ca15c873146109cd578063d1d0954c146109ea576102c8565b8063bf051c13146109b5578063c1694a2f146109bd576102c8565b8063aee2f47f11610160578063aee2f47f14610872578063b0ab1a3114610984578063be4f9bd6146109ad576102c8565b8063a40601ee146107d6578063a56bd1de14610802576102c8565b80633dd452d61161022957806391d14854116101dd5780639fd53f2b116101c25780639fd53f2b146107a0578063a0d03526146107a8578063a217fddf146107ce576102c8565b806391d14854146106fd578063987ee1561461073d576102c8565b80635db345661161020e5780635db34566146105ed57806374032637146106b65780639010d07c146106be576102c8565b80633dd452d6146105bf5780635da3c240146105c7576102c8565b80631e47a47611610280578063248a9ca311610265578063248a9ca31461054a5780632f2ff15d1461056757806336568abe14610593576102c8565b80631e47a47614610504578063218188d71461052d576102c8565b80630d4fb803116102b15780630d4fb80314610315578063150b7a02146103d75780631bdc17f6146104d2576102c8565b80630a82697b146102cd5780630b875554146102fb575b600080fd5b6102f9600480360360408110156102e357600080fd5b506001600160a01b038135169060200135610ba9565b005b610303611067565b60408051918252519081900360200190f35b6102f96004803603604081101561032b57600080fd5b81019060208101813564010000000081111561034657600080fd5b82018360208201111561035857600080fd5b8035906020019184600183028401116401000000008311171561037a57600080fd5b91939092909160208101903564010000000081111561039857600080fd5b8201836020820111156103aa57600080fd5b803590602001918460018302840111640100000000831117156103cc57600080fd5b50909250905061106d565b61049d600480360360808110156103ed57600080fd5b6001600160a01b0382358116926020810135909116916040820135919081019060808101606082013564010000000081111561042857600080fd5b82018360208201111561043a57600080fd5b8035906020019184600183028401116401000000008311171561045c57600080fd5b91908080601f016020809104026020016040519081016040528093929190818152602001838380828437600092019190915250929550611316945050505050565b604080517fffffffff000000000000000000000000000000000000000000000000000000009092168252519081900360200190f35b6102f9600480360360608110156104e857600080fd5b506001600160a01b03813516906020810135906040013561133f565b6102f96004803603606081101561051a57600080fd5b508035906020810135906040013561142f565b6102f96004803603602081101561054357600080fd5b5035611514565b6103036004803603602081101561056057600080fd5b50356115d6565b6102f96004803603604081101561057d57600080fd5b50803590602001356001600160a01b03166115eb565b6102f9600480360360408110156105a957600080fd5b50803590602001356001600160a01b0316611652565b6103036116b3565b6102f9600480360360208110156105dd57600080fd5b50356001600160a01b03166116b9565b6102f96004803603606081101561060357600080fd5b8135919081019060408101602082013564010000000081111561062557600080fd5b82018360208201111561063757600080fd5b8035906020019184600183028401116401000000008311171561065957600080fd5b91939092909160208101903564010000000081111561067757600080fd5b82018360208201111561068957600080fd5b803590602001918460018302840111640100000000831117156106ab57600080fd5b509092509050611835565b6103036119e2565b6106e1600480360360408110156106d457600080fd5b50803590602001356119e8565b604080516001600160a01b039092168252519081900360200190f35b6107296004803603604081101561071357600080fd5b50803590602001356001600160a01b0316611a09565b604080519115158252519081900360200190f35b6107636004803603602081101561075357600080fd5b50356001600160a01b0316611a21565b604080519687526020870195909552858501939093526001600160a01b0390911660608501526080840152151560a0830152519081900360c00190f35b6106e1611ae3565b610729600480360360208110156107be57600080fd5b50356001600160a01b0316611af2565b610303611b07565b6102f9600480360360408110156107ec57600080fd5b506001600160a01b038135169060200135611b0c565b6102f96004803603604081101561081857600080fd5b81019060208101813564010000000081111561083357600080fd5b82018360208201111561084557600080fd5b8035906020019184602083028401116401000000008311171561086757600080fd5b919350915035611fa5565b61088f6004803603602081101561088857600080fd5b5035612127565b6040518080602001806020018681526020018581526020018415158152602001838103835288818151815260200191508051906020019080838360005b838110156108e45781810151838201526020016108cc565b50505050905090810190601f1680156109115780820380516001836020036101000a031916815260200191505b50838103825287518152875160209182019189019080838360005b8381101561094457818101518382015260200161092c565b50505050905090810190601f1680156109715780820380516001836020036101000a031916815260200191505b5097505050505050505060405180910390f35b6102f96004803603606081101561099a57600080fd5b50803590602081013590604001356122e0565b610303612341565b610303612347565b6102f961236b565b6103036126d6565b610303600480360360208110156109e357600080fd5b50356126fa565b6102f960048036036040811015610a0057600080fd5b5080359060200135612711565b6102f960048036036040811015610a2357600080fd5b50803590602001356001600160a01b03166127b7565b6102f960048036036040811015610a4f57600080fd5b506001600160a01b038135169060200135612810565b6102f960048036036060811015610a7b57600080fd5b810190602081018135640100000000811115610a9657600080fd5b820183602082011115610aa857600080fd5b80359060200191846020830284011164010000000083111715610aca57600080fd5b9193509150803590602001356128ca565b6102f960048036036040811015610af157600080fd5b506001600160a01b038135169060200135612ab9565b61072960048036036020811015610b1d57600080fd5b50356001600160a01b0316612dbc565b6102f960048036036020811015610b4357600080fd5b5035612ddd565b6102f960048036036020811015610b6057600080fd5b5035612ea2565b610303612f13565b610303612f37565b6102f960048036036060811015610b8d57600080fd5b508035906001600160a01b036020820135169060400135612f3d565b60076000610bb561345f565b6001600160a01b0316815260208101919091526040016000205460ff16610c18576040805162461bcd60e51b815260206004820152601260248201527112185cc81b9bdd081c9959da5cdd195c995960721b604482015290519081900360640190fd5b610c427f8736816fdbcc15d6cc3f6dcf60e42b0ef33eb02281d312c807a38b4ad09190c083611a09565b610c93576040805162461bcd60e51b815260206004820152601360248201527f4e4654206164647265737320696e76616c696400000000000000000000000000604482015290519081900360640190fd5b60096000610c9f61345f565b6001600160a01b0316815260208101919091526040016000206005015460ff16610d10576040805162461bcd60e51b815260206004820152600f60248201527f55736572206e6f74206163746976650000000000000000000000000000000000604482015290519081900360640190fd5b600060096000610d1e61345f565b6001600160a01b03908116825260208201929092526040016000908120600301549091169150600981610d4f61345f565b6001600160a01b03166001600160a01b031681526020019081526020016000206004015490506000849050806001600160a01b0316636352211e856040518263ffffffff1660e01b81526004018082815260200191505060206040518083038186803b158015610dbe57600080fd5b505afa158015610dd2573d6000803e3d6000fd5b505050506040513d6020811015610de857600080fd5b50516001600160a01b0316610dfb61345f565b6001600160a01b031614610e56576040805162461bcd60e51b815260206004820152601960248201527f4f6e6c79204e4654206f776e65722063616e2075706461746500000000000000604482015290519081900360640190fd5b806001600160a01b03166342842e0e610e6d61345f565b30876040518463ffffffff1660e01b815260040180846001600160a01b03168152602001836001600160a01b031681526020018281526020019350505050600060405180830381600087803b158015610ec557600080fd5b505af1158015610ed9573d6000803e3d6000fd5b50505050610f00610ee861345f565b6005546001546001600160a01b031691903090613463565b826001600160a01b0381166342842e0e30610f1961345f565b866040518463ffffffff1660e01b815260040180846001600160a01b03168152602001836001600160a01b031681526020018281526020019350505050600060405180830381600087803b158015610f7057600080fd5b505af1158015610f84573d6000803e3d6000fd5b505050508560096000610f9561345f565b6001600160a01b03166001600160a01b0316815260200190815260200160002060030160006101000a8154816001600160a01b0302191690836001600160a01b031602179055508460096000610fe961345f565b6001600160a01b0316815260208101919091526040016000206004015561100e61345f565b6001600160a01b03167fe8e88d4216f3bbc2d1a4dd55aa66fd3e0065ef03970fa056a19d018ca19d5805878760405180836001600160a01b031681526020018281526020019250505060405180910390a2505050505050565b60055481565b61107f600061107a61345f565b611a09565b6110c5576040805162461bcd60e51b81526020600482015260126024820152712737ba103a34329036b0b4b71030b236b4b760711b604482015290519081900360640190fd5b606084848080601f0160208091040260200160405190810160405280939291908181526020018383808284376000920191909152505082519293505060149091109050611148576040805162461bcd60e51b815260206004820152600c60248201526b04d757374206265203c2032360a41b604482015290519081900360640190fd5b600381511161118c576040805162461bcd60e51b815260206004820152600b60248201526a4d757374206265203e203360a81b604482015290519081900360640190fd5b611196600a6134eb565b60006111a2600a6134f4565b6040805160c06020601f8a01819004028201810190925260a081018881529293509182918990899081908501838280828437600092019190915250505090825250604080516020601f88018190048102820181019092528681529181019190879087908190840183828082843760009201829052509385525050506020808301829052604080840183905260016060909401939093528482526008815291902082518051919261125792849290910190613ba3565b5060208281015180516112709260018501920190613ba3565b50604082810151600283015560608084015160038401556080909301516004909201805460ff19169215159290921790915560068390558051838152602081018281529181018890527f1137f48534f03e02268dec7839069a7484bc6788c43e4ed9dc38dd8a2f269bc79284928a928a929091908201848480828437600083820152604051601f909101601f1916909201829003965090945050505050a1505050505050565b7f150b7a0200000000000000000000000000000000000000000000000000000000949350505050565b61136b7f110b44e4bccdedbab0625f137765abddea8ae658791a82fff3fb5e80db2bad4861107a61345f565b6113b0576040805162461bcd60e51b81526020600482015260116024820152702737ba1030903837b4b73a1030b236b4b760791b604482015290519081900360640190fd5b6001600160a01b0383166000908152600960205260409020600101546113d690836134f8565b6001600160a01b038416600081815260096020908152604091829020600101939093558051858152905184937f04bc07bcb78bb21e5665cf01cd24f6a6a06e21fd20d60df8f0fa8d58c66f2934928290030190a3505050565b61145b7f110b44e4bccdedbab0625f137765abddea8ae658791a82fff3fb5e80db2bad4861107a61345f565b6114a0576040805162461bcd60e51b81526020600482015260116024820152702737ba1030903837b4b73a1030b236b4b760791b604482015290519081900360640190fd5b6000838152600860205260409020600301546114bc90836134f8565b600860008581526020019081526020016000206003018190555080837f2056366a9d1345af9da00985231357931fb77dc7fa7bdf71058e3ca3816f9d38846040518082815260200191505060405180910390a3505050565b611521600061107a61345f565b611567576040805162461bcd60e51b81526020600482015260126024820152712737ba103a34329036b0b4b71030b236b4b760711b604482015290519081900360640190fd5b60065481111580156115795750600081115b6115bb576040805162461bcd60e51b815260206004820152600e60248201526d1d19585b5259081a5b9d985b1a5960921b604482015290519081900360640190fd5b6000908152600860205260409020600401805460ff19169055565b60009081526020819052604090206002015490565b6000828152602081905260409020600201546116099061107a61345f565b6116445760405162461bcd60e51b815260040180806020018281038252602f815260200180613cc7602f913960400191505060405180910390fd5b61164e8282613552565b5050565b61165a61345f565b6001600160a01b0316816001600160a01b0316146116a95760405162461bcd60e51b815260040180806020018281038252602f815260200180613d76602f913960400191505060405180910390fd5b61164e82826135bb565b60065481565b6116c6600061107a61345f565b61170c576040805162461bcd60e51b81526020600482015260126024820152712737ba103a34329036b0b4b71030b236b4b760711b604482015290519081900360640190fd5b604080517f01ffc9a70000000000000000000000000000000000000000000000000000000081527f80ac58cd00000000000000000000000000000000000000000000000000000000600482015290516001600160a01b038316916301ffc9a7916024808301926020929190829003018186803b15801561178b57600080fd5b505afa15801561179f573d6000803e3d6000fd5b505050506040513d60208110156117b557600080fd5b5051611808576040805162461bcd60e51b815260206004820152600a60248201527f4e6f742045524337323100000000000000000000000000000000000000000000604482015290519081900360640190fd5b6118327f8736816fdbcc15d6cc3f6dcf60e42b0ef33eb02281d312c807a38b4ad09190c0826115eb565b50565b611842600061107a61345f565b611888576040805162461bcd60e51b81526020600482015260126024820152712737ba103a34329036b0b4b71030b236b4b760711b604482015290519081900360640190fd5b600654851115801561189a5750600085115b6118dc576040805162461bcd60e51b815260206004820152600e60248201526d1d19585b5259081a5b9d985b1a5960921b604482015290519081900360640190fd5b606084848080601f016020809104026020016040519081016040528093929190818152602001838380828437600092019190915250508251929350506014909110905061195f576040805162461bcd60e51b815260206004820152600c60248201526b04d757374206265203c2032360a41b604482015290519081900360640190fd5b60038151116119a3576040805162461bcd60e51b815260206004820152600b60248201526a4d757374206265203e203360a81b604482015290519081900360640190fd5b60008681526008602052604090206119bc908686613c21565b5060008681526008602052604090206119d9906001018484613c21565b50505050505050565b60035481565b6000828152602081905260408120611a009083613624565b90505b92915050565b6000828152602081905260408120611a009083613630565b6001600160a01b0381166000908152600760205260408120548190819081908190819060ff16611a98576040805162461bcd60e51b815260206004820152600e60248201527f4e6f742072656769737465726564000000000000000000000000000000000000604482015290519081900360640190fd5b505050506001600160a01b039283166000908152600960205260409020805460018201546002830154600384015460048501546005909501549398929791965016935060ff90911690565b6001546001600160a01b031681565b60076020526000908152604090205460ff1681565b600081565b60076000611b1861345f565b6001600160a01b0316815260208101919091526040016000205460ff16611b7b576040805162461bcd60e51b815260206004820152601260248201527112185cc81b9bdd081c9959da5cdd195c995960721b604482015290519081900360640190fd5b611ba57f8736816fdbcc15d6cc3f6dcf60e42b0ef33eb02281d312c807a38b4ad09190c083611a09565b611bf6576040805162461bcd60e51b815260206004820152601360248201527f4e4654206164647265737320696e76616c696400000000000000000000000000604482015290519081900360640190fd5b60096000611c0261345f565b6001600160a01b0316815260208101919091526040016000206005015460ff1615611c74576040805162461bcd60e51b815260206004820152600e60248201527f5573657220697320616374697665000000000000000000000000000000000000604482015290519081900360640190fd5b6000829050806001600160a01b0316636352211e836040518263ffffffff1660e01b81526004018082815260200191505060206040518083038186803b158015611cbd57600080fd5b505afa158015611cd1573d6000803e3d6000fd5b505050506040513d6020811015611ce757600080fd5b50516001600160a01b0316611cfa61345f565b6001600160a01b031614611d55576040805162461bcd60e51b815260206004820152601960248201527f4f6e6c79204e4654206f776e65722063616e2075706461746500000000000000604482015290519081900360640190fd5b611d78611d6061345f565b6003546001546001600160a01b031691903090613463565b806001600160a01b03166342842e0e611d8f61345f565b30856040518463ffffffff1660e01b815260040180846001600160a01b03168152602001836001600160a01b031681526020018281526020019350505050600060405180830381600087803b158015611de757600080fd5b505af1158015611dfb573d6000803e3d6000fd5b50505050600060096000611e0d61345f565b6001600160a01b03166001600160a01b03168152602001908152602001600020600201549050611e5d600160086000848152602001908152602001600020600201546134f890919063ffffffff16565b600082815260086020526040902060029081019190915554611e809060016134f8565b600255600160096000611e9161345f565b6001600160a01b03166001600160a01b0316815260200190815260200160002060050160006101000a81548160ff0219169083151502179055508360096000611ed861345f565b6001600160a01b03166001600160a01b0316815260200190815260200160002060030160006101000a8154816001600160a01b0302191690836001600160a01b031602179055508260096000611f2c61345f565b6001600160a01b03168152602081019190915260400160002060040155611f5161345f565b604080518381526001600160a01b038781166020830152818301879052915192909116917fdb76eea80687b6553e5d689ff9d000c0ce2c10574b39d64cacc2b4f6f54f68389181900360600190a250505050565b611fd17f110b44e4bccdedbab0625f137765abddea8ae658791a82fff3fb5e80db2bad4861107a61345f565b612016576040805162461bcd60e51b81526020600482015260116024820152702737ba1030903837b4b73a1030b236b4b760791b604482015290519081900360640190fd5b6103e9821061206c576040805162461bcd60e51b815260206004820152601560248201527f4c656e677468206d757374206265203c20313030310000000000000000000000604482015290519081900360640190fd5b60005b82811015612121576120cd826009600087878681811061208b57fe5b905060200201356001600160a01b03166001600160a01b03166001600160a01b031681526020019081526020016000206001015461364590919063ffffffff16565b600960008686858181106120dd57fe5b905060200201356001600160a01b03166001600160a01b03166001600160a01b0316815260200190815260200160002060010181905550808060010191505061206f565b50505050565b606080600080600060065486111580156121415750600086115b612183576040805162461bcd60e51b815260206004820152600e60248201526d1d19585b5259081a5b9d985b1a5960921b604482015290519081900360640190fd5b6000868152600860209081526040918290206002808201546003830154600484015484548751601f6000196001848116156101000291909101909316969096049586018890048802810188019098528488529496948701959294919360ff909116928791908301828280156122395780601f1061220e57610100808354040283529160200191612239565b820191906000526020600020905b81548152906001019060200180831161221c57829003601f168201915b5050875460408051602060026001851615610100026000190190941693909304601f8101849004840282018401909252818152959a50899450925084019050828280156122c75780601f1061229c576101008083540402835291602001916122c7565b820191906000526020600020905b8154815290600101906020018083116122aa57829003601f168201915b50989f939e50959c50939a509198509650505050505050565b6122ed600061107a61345f565b612333576040805162461bcd60e51b81526020600482015260126024820152712737ba103a34329036b0b4b71030b236b4b760711b604482015290519081900360640190fd5b600392909255600455600555565b60025481565b7f3f12a51c1a5d4235e47a0365ddc220be1678ccffcdf71bfd6ee9c417f801e00881565b6007600061237761345f565b6001600160a01b0316815260208101919091526040016000205460ff166123da576040805162461bcd60e51b815260206004820152601260248201527112185cc81b9bdd081c9959da5cdd195c995960721b604482015290519081900360640190fd5b600960006123e661345f565b6001600160a01b0316815260208101919091526040016000206005015460ff16612457576040805162461bcd60e51b815260206004820152600f60248201527f55736572206e6f74206163746976650000000000000000000000000000000000604482015290519081900360640190fd5b60006009600061246561345f565b6001600160a01b0316815260208101919091526040016000908120600501805460ff19169215159290921790915560098161249e61345f565b6001600160a01b03166001600160a01b031681526020019081526020016000206002015490506124ee6001600860008481526020019081526020016000206002015461364590919063ffffffff16565b600082815260086020526040902060029081019190915554612511906001613645565b600255600060098161252161345f565b6001600160a01b0390811682526020820192909252604001600090812060030154909116915060098161255261345f565b6001600160a01b03166001600160a01b0316815260200190815260200160002060040154905060006009600061258661345f565b6001600160a01b03166001600160a01b0316815260200190815260200160002060030160006101000a8154816001600160a01b0302191690836001600160a01b031602179055506000600960006125db61345f565b6001600160a01b03166001600160a01b0316815260200190815260200160002060040181905550816001600160a01b03166342842e0e3061261a61345f565b846040518463ffffffff1660e01b815260040180846001600160a01b03168152602001836001600160a01b031681526020018281526020019350505050600060405180830381600087803b15801561267157600080fd5b505af1158015612685573d6000803e3d6000fd5b5050505061269161345f565b6001600160a01b03167fe0ed25582c4d86fd51bfe26383781fc8bbf5636813cbfdf93c440b5828c93040846040518082815260200191505060405180910390a2505050565b7f110b44e4bccdedbab0625f137765abddea8ae658791a82fff3fb5e80db2bad4881565b6000818152602081905260408120611a03906136a2565b61273d7f110b44e4bccdedbab0625f137765abddea8ae658791a82fff3fb5e80db2bad4861107a61345f565b612782576040805162461bcd60e51b81526020600482015260116024820152702737ba1030903837b4b73a1030b236b4b760791b604482015290519081900360640190fd5b60008281526008602052604090206003015461279e9082613645565b6000928352600860205260409092206003019190915550565b6000828152602081905260409020600201546127d59061107a61345f565b6116a95760405162461bcd60e51b8152600401808060200182810382526030815260200180613d466030913960400191505060405180910390fd5b61283c7f110b44e4bccdedbab0625f137765abddea8ae658791a82fff3fb5e80db2bad4861107a61345f565b612881576040805162461bcd60e51b81526020600482015260116024820152702737ba1030903837b4b73a1030b236b4b760791b604482015290519081900360640190fd5b6001600160a01b0382166000908152600960205260409020600101546128a79082613645565b6001600160a01b0390921660009081526009602052604090206001019190915550565b6128f67f110b44e4bccdedbab0625f137765abddea8ae658791a82fff3fb5e80db2bad4861107a61345f565b61293b576040805162461bcd60e51b81526020600482015260116024820152702737ba1030903837b4b73a1030b236b4b760791b604482015290519081900360640190fd5b6103e98310612991576040805162461bcd60e51b815260206004820152601560248201527f4c656e677468206d757374206265203c20313030310000000000000000000000604482015290519081900360640190fd5b60005b83811015612a46576129f283600960008888868181106129b057fe5b905060200201356001600160a01b03166001600160a01b03166001600160a01b03168152602001908152602001600020600101546134f890919063ffffffff16565b60096000878785818110612a0257fe5b905060200201356001600160a01b03166001600160a01b03166001600160a01b03168152602001908152602001600020600101819055508080600101915050612994565b50807f473f8fafa9bb6f152b95565955b672a2c8b798b9c0a7c17f2e43bd4577f972de85858560405180806020018381526020018281038252858582818152602001925060200280828437600083820152604051601f909101601f1916909201829003965090945050505050a250505050565b612ae57f3f12a51c1a5d4235e47a0365ddc220be1678ccffcdf71bfd6ee9c417f801e00861107a61345f565b612b36576040805162461bcd60e51b815260206004820152601360248201527f4e6f742061207370656369616c2061646d696e00000000000000000000000000604482015290519081900360640190fd5b6001600160a01b03821660009081526007602052604090205460ff16612ba3576040805162461bcd60e51b815260206004820152601260248201527f5573657220646f65736e27742065786973740000000000000000000000000000604482015290519081900360640190fd5b6006548111158015612bb55750600081115b612c06576040805162461bcd60e51b815260206004820152601460248201527f7465616d496420646f65736e2774206578697374000000000000000000000000604482015290519081900360640190fd5b60008181526008602052604090206004015460ff16612c6c576040805162461bcd60e51b815260206004820152601160248201527f5465616d206e6f74206a6f696e61626c65000000000000000000000000000000604482015290519081900360640190fd5b6001600160a01b038216600090815260096020526040902060020154811415612cdc576040805162461bcd60e51b815260206004820152601360248201527f416c726561647920696e20746865207465616d00000000000000000000000000604482015290519081900360640190fd5b6001600160a01b03821660009081526009602090815260408083206002908101548085526008909352922090910154612d16906001613645565b60008281526008602081815260408084206002908101959095556001600160a01b038816845260098252808420850187905586845291905290200154612d5d9060016134f8565b60008381526008602090815260409182902060020192909255805183815291820184905280516001600160a01b038616927f74c08ece62e2369a06a4cac8609fd31e7f3ae99e0dbedbc2bfcf0b9397d9a69192908290030190a2505050565b6001600160a01b031660009081526009602052604090206005015460ff1690565b612dea600061107a61345f565b612e30576040805162461bcd60e51b81526020600482015260126024820152712737ba103a34329036b0b4b71030b236b4b760711b604482015290519081900360640190fd5b6006548111158015612e425750600081115b612e84576040805162461bcd60e51b815260206004820152600e60248201526d1d19585b5259081a5b9d985b1a5960921b604482015290519081900360640190fd5b6000908152600860205260409020600401805460ff19166001179055565b612eaf600061107a61345f565b612ef5576040805162461bcd60e51b81526020600482015260126024820152712737ba103a34329036b0b4b71030b236b4b760711b604482015290519081900360640190fd5b611832612f0061345f565b6001546001600160a01b031690836136ad565b7f8736816fdbcc15d6cc3f6dcf60e42b0ef33eb02281d312c807a38b4ad09190c081565b60045481565b60076000612f4961345f565b6001600160a01b0316815260208101919091526040016000205460ff1615612fb8576040805162461bcd60e51b815260206004820152601260248201527f416c726561647920726567697374657265640000000000000000000000000000604482015290519081900360640190fd5b6006548311158015612fca5750600083115b61301b576040805162461bcd60e51b815260206004820152600e60248201527f496e76616c6964207465616d4964000000000000000000000000000000000000604482015290519081900360640190fd5b60008381526008602052604090206004015460ff16613081576040805162461bcd60e51b815260206004820152601160248201527f5465616d206e6f74206a6f696e61626c65000000000000000000000000000000604482015290519081900360640190fd5b6130ab7f8736816fdbcc15d6cc3f6dcf60e42b0ef33eb02281d312c807a38b4ad09190c083611a09565b6130fc576040805162461bcd60e51b815260206004820152601360248201527f4e4654206164647265737320696e76616c696400000000000000000000000000604482015290519081900360640190fd5b6000829050806001600160a01b0316636352211e836040518263ffffffff1660e01b81526004018082815260200191505060206040518083038186803b15801561314557600080fd5b505afa158015613159573d6000803e3d6000fd5b505050506040513d602081101561316f57600080fd5b50516001600160a01b031661318261345f565b6001600160a01b0316146131dd576040805162461bcd60e51b815260206004820152601b60248201527f4f6e6c79204e4654206f776e65722063616e2072656769737465720000000000604482015290519081900360640190fd5b806001600160a01b03166342842e0e6131f461345f565b30856040518463ffffffff1660e01b815260040180846001600160a01b03168152602001836001600160a01b031681526020018281526020019350505050600060405180830381600087803b15801561324c57600080fd5b505af1158015613260573d6000803e3d6000fd5b5050505061328761326f61345f565b6004546001546001600160a01b031691903090613463565b613291600b6134eb565b600061329d600b6134f4565b90506040518060c0016040528082815260200160008152602001868152602001856001600160a01b0316815260200184815260200160011515815250600960006132e561345f565b6001600160a01b03908116825260208083019390935260409182016000908120855181559385015160018086019190915592850151600285015560608501516003850180547fffffffffffffffffffffffff00000000000000000000000000000000000000001691909316179091556080840151600484015560a0909301516005909201805460ff1916921515929092179091559060079061338561345f565b6001600160a01b031681526020810191909152604001600020805460ff19169115159190911790556002546133bb9060016134f8565b6002908155600086815260086020526040902001546133db9060016134f8565b6000868152600860205260409020600201556133f561345f565b604080518781526001600160a01b038781166020830152818301879052915192909116917f628915737ae1dae037b128d0892692746d4e63e2f72632781c0a08f7168b1be89181900360600190a25050505050565b6000611a00836001600160a01b038416613732565b3390565b604080516001600160a01b0380861660248301528416604482015260648082018490528251808303909101815260849091019091526020810180517bffffffffffffffffffffffffffffffffffffffffffffffffffffffff167f23b872dd0000000000000000000000000000000000000000000000000000000017905261212190859061377c565b80546001019055565b5490565b600082820183811015611a00576040805162461bcd60e51b815260206004820152601b60248201527f536166654d6174683a206164646974696f6e206f766572666c6f770000000000604482015290519081900360640190fd5b600082815260208190526040902061356a908261344a565b1561164e5761357761345f565b6001600160a01b0316816001600160a01b0316837f2f8788117e7eff1d82e926ec794901d17c78024a50270940304540a733656f0d60405160405180910390a45050565b60008281526020819052604090206135d3908261382d565b1561164e576135e061345f565b6001600160a01b0316816001600160a01b0316837ff6391f5c32d9c69d2a47ea670b442974b53935d1edc7fd64eb21e047a839171b60405160405180910390a45050565b6000611a008383613842565b6000611a00836001600160a01b0384166138a6565b60008282111561369c576040805162461bcd60e51b815260206004820152601e60248201527f536166654d6174683a207375627472616374696f6e206f766572666c6f770000604482015290519081900360640190fd5b50900390565b6000611a03826134f4565b604080516001600160a01b038416602482015260448082018490528251808303909101815260649091019091526020810180517bffffffffffffffffffffffffffffffffffffffffffffffffffffffff167fa9059cbb0000000000000000000000000000000000000000000000000000000017905261372d90849061377c565b505050565b600061373e83836138a6565b61377457508154600181810184556000848152602080822090930184905584548482528286019093526040902091909155611a03565b506000611a03565b60606137d1826040518060400160405280602081526020017f5361666542455032303a206c6f772d6c6576656c2063616c6c206661696c6564815250856001600160a01b03166138be9092919063ffffffff16565b80519091501561372d578080602001905160208110156137f057600080fd5b505161372d5760405162461bcd60e51b815260040180806020018281038252602a815260200180613cf6602a913960400191505060405180910390fd5b6000611a00836001600160a01b0384166138d7565b815460009082106138845760405162461bcd60e51b8152600401808060200182810382526022815260200180613ca56022913960400191505060405180910390fd5b82600001828154811061389357fe5b9060005260206000200154905092915050565b60009081526001919091016020526040902054151590565b60606138cd848460008561399d565b90505b9392505050565b60008181526001830160205260408120548015613993578354600019808301919081019060009087908390811061390a57fe5b906000526020600020015490508087600001848154811061392757fe5b60009182526020808320909101929092558281526001898101909252604090209084019055865487908061395757fe5b60019003818190600052602060002001600090559055866001016000878152602001908152602001600020600090556001945050505050611a03565b6000915050611a03565b6060824710156139de5760405162461bcd60e51b8152600401808060200182810382526026815260200180613d206026913960400191505060405180910390fd5b6139e785613af9565b613a38576040805162461bcd60e51b815260206004820152601d60248201527f416464726573733a2063616c6c20746f206e6f6e2d636f6e7472616374000000604482015290519081900360640190fd5b60006060866001600160a01b031685876040518082805190602001908083835b60208310613a775780518252601f199092019160209182019101613a58565b6001836020036101000a03801982511681845116808217855250505050505090500191505060006040518083038185875af1925050503d8060008114613ad9576040519150601f19603f3d011682016040523d82523d6000602084013e613ade565b606091505b5091509150613aee828286613aff565b979650505050505050565b3b151590565b60608315613b0e5750816138d0565b825115613b1e5782518084602001fd5b8160405162461bcd60e51b81526004018080602001828103825283818151815260200191508051906020019080838360005b83811015613b68578181015183820152602001613b50565b50505050905090810190601f168015613b955780820380516001836020036101000a031916815260200191505b509250505060405180910390fd5b828054600181600116156101000203166002900490600052602060002090601f016020900481019282601f10613be457805160ff1916838001178555613c11565b82800160010185558215613c11579182015b82811115613c11578251825591602001919060010190613bf6565b50613c1d929150613c8f565b5090565b828054600181600116156101000203166002900490600052602060002090601f016020900481019282601f10613c625782800160ff19823516178555613c11565b82800160010185558215613c11579182015b82811115613c11578235825591602001919060010190613c74565b5b80821115613c1d5760008155600101613c9056fe456e756d657261626c655365743a20696e646578206f7574206f6620626f756e6473416363657373436f6e74726f6c3a2073656e646572206d75737420626520616e2061646d696e20746f206772616e745361666542455032303a204245503230206f7065726174696f6e20646964206e6f742073756363656564416464726573733a20696e73756666696369656e742062616c616e636520666f722063616c6c416363657373436f6e74726f6c3a2073656e646572206d75737420626520616e2061646d696e20746f207265766f6b65416363657373436f6e74726f6c3a2063616e206f6e6c792072656e6f756e636520726f6c657320666f722073656c66a2646970667358221220925b13ae6d4032b62dea5382e9a2eb222e9bcd2ebbca6bc81ea3451e14ab10ad64736f6c634300060c0033",
  "linkReferences": {},
  "deployedLinkReferences": {}
}