{
  "_format": "hh-sol-artifact-1",
  "contractName": "ArcaneWorldstoneMinterV1",
  "sourceName": "src/ArcaneWorldstoneMinterV1.sol",
  "abi": [
    {
      "inputs": [
        {
          "internalType": "address",
          "name": "_itemMintingStationAddress",
          "type": "address"
        },
        {
          "internalType": "address",
          "name": "_runeToken",
          "type": "address"
        },
        {
          "internalType": "address",
          "name": "_barracksAddress",
          "type": "address"
        },
        {
          "internalType": "uint256",
          "name": "_tokenPrice",
          "type": "uint256"
        }
      ],
      "stateMutability": "nonpayable",
      "type": "constructor"
    },
    {
      "anonymous": false,
      "inputs": [
        {
          "indexed": true,
          "internalType": "address",
          "name": "to",
          "type": "address"
        },
        {
          "indexed": true,
          "internalType": "uint256",
          "name": "tokenId",
          "type": "uint256"
        },
        {
          "indexed": true,
          "internalType": "uint16",
          "name": "itemId",
          "type": "uint16"
        }
      ],
      "name": "ItemMint",
      "type": "event"
    },
    {
      "anonymous": false,
      "inputs": [
        {
          "indexed": true,
          "internalType": "address",
          "name": "previousOwner",
          "type": "address"
        },
        {
          "indexed": true,
          "internalType": "address",
          "name": "newOwner",
          "type": "address"
        }
      ],
      "name": "OwnershipTransferred",
      "type": "event"
    },
    {
      "inputs": [],
      "name": "barracksAddress",
      "outputs": [
        {
          "internalType": "address",
          "name": "",
          "type": "address"
        }
      ],
      "stateMutability": "view",
      "type": "function"
    },
    {
      "inputs": [
        {
          "internalType": "uint256",
          "name": "_amount",
          "type": "uint256"
        }
      ],
      "name": "claimFee",
      "outputs": [],
      "stateMutability": "nonpayable",
      "type": "function"
    },
    {
      "inputs": [
        {
          "internalType": "address",
          "name": "",
          "type": "address"
        }
      ],
      "name": "hasClaimedShard",
      "outputs": [
        {
          "internalType": "bool",
          "name": "",
          "type": "bool"
        }
      ],
      "stateMutability": "view",
      "type": "function"
    },
    {
      "inputs": [],
      "name": "itemMintingStationAddress",
      "outputs": [
        {
          "internalType": "address",
          "name": "",
          "type": "address"
        }
      ],
      "stateMutability": "view",
      "type": "function"
    },
    {
      "inputs": [
        {
          "internalType": "uint16",
          "name": "_rand",
          "type": "uint16"
        }
      ],
      "name": "mint",
      "outputs": [],
      "stateMutability": "nonpayable",
      "type": "function"
    },
    {
      "inputs": [],
      "name": "mintingEnabled",
      "outputs": [
        {
          "internalType": "bool",
          "name": "",
          "type": "bool"
        }
      ],
      "stateMutability": "view",
      "type": "function"
    },
    {
      "inputs": [],
      "name": "owner",
      "outputs": [
        {
          "internalType": "address",
          "name": "",
          "type": "address"
        }
      ],
      "stateMutability": "view",
      "type": "function"
    },
    {
      "inputs": [],
      "name": "renounceOwnership",
      "outputs": [],
      "stateMutability": "nonpayable",
      "type": "function"
    },
    {
      "inputs": [],
      "name": "runeToken",
      "outputs": [
        {
          "internalType": "address",
          "name": "",
          "type": "address"
        }
      ],
      "stateMutability": "view",
      "type": "function"
    },
    {
      "inputs": [
        {
          "internalType": "bool",
          "name": "_mintingEnabled",
          "type": "bool"
        }
      ],
      "name": "setMintingEnabled",
      "outputs": [],
      "stateMutability": "nonpayable",
      "type": "function"
    },
    {
      "inputs": [],
      "name": "tokenPrice",
      "outputs": [
        {
          "internalType": "uint256",
          "name": "",
          "type": "uint256"
        }
      ],
      "stateMutability": "view",
      "type": "function"
    },
    {
      "inputs": [
        {
          "internalType": "address",
          "name": "newOwner",
          "type": "address"
        }
      ],
      "name": "transferOwnership",
      "outputs": [],
      "stateMutability": "nonpayable",
      "type": "function"
    },
    {
      "inputs": [
        {
          "internalType": "uint256",
          "name": "_newTokenPrice",
          "type": "uint256"
        }
      ],
      "name": "updateTokenPrice",
      "outputs": [],
      "stateMutability": "nonpayable",
      "type": "function"
    },
    {
      "inputs": [],
      "name": "vaultAddress",
      "outputs": [
        {
          "internalType": "address",
          "name": "",
          "type": "address"
        }
      ],
      "stateMutability": "view",
      "type": "function"
    }
  ],
  "bytecode": "0x60806040526007805460ff191660011790553480156200001e57600080fd5b50604051620018d7380380620018d7833981016040819052620000419162000126565b60006200004d62000104565b600080546001600160a01b0319166001600160a01b0383169081178255604051929350917f8be0079c531659141344cd1fd0a4f28419497f9722a3daafe3b4186f6b6457e0908290a350600480546001600160a01b039586166001600160a01b03199182161790915560018054948616948216949094179093556005805492909416918316919091179092556002919091556003805490911673602a27bbf954b6945534a84c8c88fb8ca9e92b7f1790556200017a565b3390565b80516001600160a01b03811681146200012057600080fd5b92915050565b600080600080608085870312156200013c578384fd5b62000148868662000108565b935062000159866020870162000108565b92506200016a866040870162000108565b6060959095015193969295505050565b61174d806200018a6000396000f3fe608060405234801561001057600080fd5b50600436106100ea5760003560e01c8063934849f31161008c578063a2685a5d11610066578063a2685a5d14610192578063e3779cc6146101a5578063f2fde38b146101ad578063f667526a146101c0576100ea565b8063934849f31461016d5780639fd53f2b146101755780639fd6db121461017d576100ea565b8063676c0d77116100c8578063676c0d7714610135578063715018a6146101485780637ff9b596146101505780638da5cb5b14610165576100ea565b806323cf0a22146100ef578063430bf08a146101045780634ea3871a14610122575b600080fd5b6101026100fd3660046111a7565b6101d3565b005b61010c610624565b6040516101199190611318565b60405180910390f35b6101026101303660046110c8565b610633565b6101026101433660046111c3565b610685565b6101026106c9565b61015861075f565b604051610119919061165d565b61010c610765565b61010c610774565b61010c610783565b610185610792565b60405161011991906113be565b6101856101a03660046110a1565b61079b565b61010c6107b0565b6101026101bb3660046110a1565b6107bf565b6101026101ce3660046111c3565b61088c565b60075460ff1615156001146102035760405162461bcd60e51b81526004016101fa906115b8565b60405180910390fd5b6006600061020f6108ec565b6001600160a01b0316815260208101919091526040016000205460ff16156102495760405162461bcd60e51b81526004016101fa9061154c565b6005546000906001600160a01b03166303f5160d6102656108ec565b60036040518363ffffffff1660e01b8152600401610284929190611365565b60206040518083038186803b15801561029c57600080fd5b505afa1580156102b0573d6000803e3d6000fd5b505050506040513d601f19601f820116820180604052508101906102d491906111db565b9050600081116102f65760405162461bcd60e51b81526004016101fa90611626565b6102fe610f97565b6040517f3129e77300000000000000000000000000000000000000000000000000000000815273__$cc4a53c932f829c5fc834b450b71c23bdf$__90633129e7739061034e90859060040161165d565b60006040518083038186803b15801561036657600080fd5b505af415801561037a573d6000803e3d6000fd5b505050506040513d6000823e601f3d908101601f191682016040526103a29190810190611100565b90506103eb6040518060400160405280601881526020017f5b417263616e65576f726c6473746f6e654d696e7465725d0000000000000000815250826020015161ffff166108f0565b806020015161ffff166003146104135760405162461bcd60e51b81526004016101fa90611515565b60025415610443576104436104266108ec565b6003546002546001546001600160a01b0390811693921690610952565b6001600660006104516108ec565b6001600160a01b031681526020810191909152604001600020805460ff19169115159190911790556008546009108015610495575060096008548161049257fe5b06155b6104a4576008546003016104ab565b6003600854035b60085560408051606081810183528282526004929091906116d86020830139905060606104f36104ec6103e7600160086000828254019250508190556109c8565b6004610a15565b905060606105068761ffff166006610a15565b9050600061053e610518846003610b8c565b8360405160200161052a92919061126a565b604051602081830303815290604052610c28565b905061054981610caa565b6004546001600160a01b031663cf0504746105626108ec565b8688856040518563ffffffff1660e01b8152600401610584949392919061132c565b602060405180830381600087803b15801561059e57600080fd5b505af11580156105b2573d6000803e3d6000fd5b505050506040513d601f19601f820116820180604052508101906105d691906111db565b508461ffff16816105e56108ec565b6001600160a01b03167fbc6001cfe06d9841f1d11a60a0468bcdcb5552dc7d2c4d248bdeccc60ed1a97e60405160405180910390a45050505050505050565b6003546001600160a01b031681565b61063b6108ec565b6001600160a01b031661064c610765565b6001600160a01b0316146106725760405162461bcd60e51b81526004016101fa90611583565b6007805460ff1916911515919091179055565b61068d6108ec565b6001600160a01b031661069e610765565b6001600160a01b0316146106c45760405162461bcd60e51b81526004016101fa90611583565b600255565b6106d16108ec565b6001600160a01b03166106e2610765565b6001600160a01b0316146107085760405162461bcd60e51b81526004016101fa90611583565b600080546040516001600160a01b03909116907f8be0079c531659141344cd1fd0a4f28419497f9722a3daafe3b4186f6b6457e0908390a36000805473ffffffffffffffffffffffffffffffffffffffff19169055565b60025481565b6000546001600160a01b031690565b6004546001600160a01b031681565b6001546001600160a01b031681565b60075460ff1681565b60066020526000908152604090205460ff1681565b6005546001600160a01b031681565b6107c76108ec565b6001600160a01b03166107d8610765565b6001600160a01b0316146107fe5760405162461bcd60e51b81526004016101fa90611583565b6001600160a01b0381166108245760405162461bcd60e51b81526004016101fa9061145b565b600080546040516001600160a01b03808516939216917f8be0079c531659141344cd1fd0a4f28419497f9722a3daafe3b4186f6b6457e091a36000805473ffffffffffffffffffffffffffffffffffffffff19166001600160a01b0392909216919091179055565b6108946108ec565b6001600160a01b03166108a5610765565b6001600160a01b0316146108cb5760405162461bcd60e51b81526004016101fa90611583565b6108e96108d66108ec565b6001546001600160a01b03169083610d06565b50565b3390565b61094e82826040516024016109069291906113dc565b60408051601f198184030181529190526020810180516001600160e01b03167f9710a9d000000000000000000000000000000000000000000000000000000000179052610d2a565b5050565b6109c2846323b872dd60e01b85858560405160240161097393929190611381565b60408051601f198184030181529190526020810180516001600160e01b03167fffffffff0000000000000000000000000000000000000000000000000000000090931692909217909152610d4b565b50505050565b600060018201915082600101424433856040516020016109eb94939291906112eb565b6040516020818303038152906040528051906020012060001c81610a0b57fe5b0690505b92915050565b606082610a56575060408051808201909152600181527f30000000000000000000000000000000000000000000000000000000000000006020820152610a0f565b60608260010167ffffffffffffffff81118015610a7257600080fd5b506040519080825280601f01601f191660200182016040528015610a9d576020820181803683370190505b50905060005b8415610ae9578151600a808704966001840193919006916030830160f81b9185918110610acc57fe5b60200101906001600160f81b031916908160001a90535050610aa3565b60608167ffffffffffffffff81118015610b0257600080fd5b506040519080825280601f01601f191660200182016040528015610b2d576020820181803683370190505b50905060005b82811015610b82578360018285030381518110610b4c57fe5b602001015160f81c60f81b828281518110610b6357fe5b60200101906001600160f81b031916908160001a905350600101610b33565b5095945050505050565b815160609060ff83168110610ba45783915050610a0f565b8260ff16816009011015610bb757600080fd5b60408051808201909152600981527f30303030303030303000000000000000000000000000000000000000000000006020820152610bfd600060ff861684900383610dda565b85604051602001610c0f92919061123b565b6040516020818303038152906040529250505092915050565b600080805b8351811015610ca3576030848281518110610c4457fe5b016020015160f81c10801590610c6e57506039848281518110610c6357fe5b016020015160f81c11155b15610c9b576030848281518110610c8157fe5b602001015160f81c60f81b60f81c0360ff1682600a020191505b600101610c2d565b5092915050565b6108e981604051602401610cbe919061165d565b60408051601f198184030181529190526020810180516001600160e01b03167ff5b1bba900000000000000000000000000000000000000000000000000000000179052610d2a565b610d258363a9059cbb60e01b84846040516024016109739291906113a5565b505050565b80516a636f6e736f6c652e6c6f67602083016000808483855afa5050505050565b6060610da0826040518060400160405280602081526020017f5361666542455032303a206c6f772d6c6576656c2063616c6c206661696c6564815250856001600160a01b0316610e809092919063ffffffff16565b805190915015610d255780806020019051810190610dbe91906110e4565b610d255760405162461bcd60e51b81526004016101fa906113fe565b60608084840367ffffffffffffffff81118015610df657600080fd5b506040519080825280601f01601f191660200182016040528015610e21576020820181803683370190505b50905060005b858503811015610e75578386820181518110610e3f57fe5b602001015160f81c60f81b828281518110610e5657fe5b60200101906001600160f81b031916908160001a905350600101610e27565b5090505b9392505050565b6060610e8f8484600085610e97565b949350505050565b606082471015610eb95760405162461bcd60e51b81526004016101fa906114b8565b610ec285610f58565b610ede5760405162461bcd60e51b81526004016101fa906115ef565b60006060866001600160a01b03168587604051610efb919061121f565b60006040518083038185875af1925050503d8060008114610f38576040519150601f19603f3d011682016040523d82523d6000602084013e610f3d565b606091505b5091509150610f4d828286610f5e565b979650505050505050565b3b151590565b60608315610f6d575081610e79565b825115610f7d5782518084602001fd5b8160405162461bcd60e51b81526004016101fa91906113c9565b604080516080810182526000808252602082018190529181019190915260608082015290565b600082601f830112610fcd578081fd5b815167ffffffffffffffff811115610fe3578182fd5b6020610ff28182840201611666565b828152925080830184820160608085028701840188101561101257600080fd5b60005b85811015611039576110278984611045565b84529284019291810191600101611015565b50505050505092915050565b600060608284031215611056578081fd5b6110606060611666565b9050815160ff8116811461107357600080fd5b81526020820151611083816116c7565b60208201526040820151611096816116c7565b604082015292915050565b6000602082840312156110b2578081fd5b81356001600160a01b0381168114610e79578182fd5b6000602082840312156110d9578081fd5b8135610e79816116b9565b6000602082840312156110f5578081fd5b8151610e79816116b9565b600060208284031215611111578081fd5b815167ffffffffffffffff80821115611128578283fd5b908301906080828603121561113b578283fd5b6111456080611666565b8251611150816116c7565b81526020830151611160816116c7565b6020820152604083015160198110611176578485fd5b604082015260608301518281111561118c578485fd5b61119887828601610fbd565b60608301525095945050505050565b6000602082840312156111b8578081fd5b8135610e79816116c7565b6000602082840312156111d4578081fd5b5035919050565b6000602082840312156111ec578081fd5b5051919050565b6000815180845261120b81602086016020860161168d565b601f01601f19169290920160200192915050565b6000825161123181846020870161168d565b9190910192915050565b6000835161124d81846020880161168d565b83519083019061126181836020880161168d565b01949350505050565b60007f3130303230303030343130303031303030310000000000000000000000000000825283516112a281601285016020880161168d565b7f310000000000000000000000000000000000000000000000000000000000000060129184019182015283516112df81601384016020880161168d565b01601301949350505050565b938452602084019290925260601b6bffffffffffffffffffffffff19166040830152605482015260740190565b6001600160a01b0391909116815260200190565b60006001600160a01b03861682526080602083015261134e60808301866111f3565b61ffff949094166040830152506060015292915050565b6001600160a01b0392909216825260ff16602082015260400190565b6001600160a01b039384168152919092166020820152604081019190915260600190565b6001600160a01b03929092168252602082015260400190565b901515815260200190565b600060208252610e7960208301846111f3565b6000604082526113ef60408301856111f3565b90508260208301529392505050565b6020808252602a908201527f5361666542455032303a204245503230206f7065726174696f6e20646964206e60408201527f6f74207375636365656400000000000000000000000000000000000000000000606082015260800190565b60208082526026908201527f4f776e61626c653a206e6577206f776e657220697320746865207a65726f206160408201527f6464726573730000000000000000000000000000000000000000000000000000606082015260800190565b60208082526026908201527f416464726573733a20696e73756666696369656e742062616c616e636520666f60408201527f722063616c6c0000000000000000000000000000000000000000000000000000606082015260800190565b60208082526013908201527f57726f6e67206974656d20657175697070656400000000000000000000000000604082015260600190565b6020808252600f908201527f416c726561647920636c61696d65640000000000000000000000000000000000604082015260600190565b6020808252818101527f4f776e61626c653a2063616c6c6572206973206e6f7420746865206f776e6572604082015260600190565b60208082526010908201527f4d696e74696e672064697361626c656400000000000000000000000000000000604082015260600190565b6020808252601d908201527f416464726573733a2063616c6c20746f206e6f6e2d636f6e7472616374000000604082015260600190565b60208082526010908201527f4e6f206974656d20657175697070656400000000000000000000000000000000604082015260600190565b90815260200190565b60405181810167ffffffffffffffff8111828210171561168557600080fd5b604052919050565b60005b838110156116a8578181015183820152602001611690565b838111156109c25750506000910152565b80151581146108e957600080fd5b61ffff811681146108e957600080fdfe6d74776972737161776a756f6c6f7132677674797567327463336a62663568746d327a656f3472736b6e666976336664703436612f6974656d2d342e6a736f6ea2646970667358221220a98cc0bd91423244aab193d5f6b89e34c8fd4f79ca2900ef96a089c150fcebcd64736f6c634300060c0033",
  "linkReferences": {
    "src/ArcaneItemLibraryV2.sol": {
      "ArcaneItemLibraryV2": [
        {
          "length": 20,
          "start": 1200
        }
      ]
    }
  },
  "deployedLinkReferences": {
    "src/ArcaneItemLibraryV2.sol": {
      "ArcaneItemLibraryV2": [
        {
          "length": 20,
          "start": 806
        }
      ]
    }
  }
}