{
  "_format": "hh-sol-artifact-1",
  "contractName": "ArcaneCharacterFactoryV4",
  "sourceName": "src/ArcaneCharacterFactoryV4.sol",
  "abi": [
    {
      "inputs": [
        {
          "internalType": "contract ArcaneCharacterMintingStation",
          "name": "_characterMintingStation",
          "type": "address"
        },
        {
          "internalType": "contract IBEP20",
          "name": "_runeToken",
          "type": "address"
        },
        {
          "internalType": "uint256",
          "name": "_tokenPrice",
          "type": "uint256"
        },
        {
          "internalType": "string",
          "name": "_ipfsHash",
          "type": "string"
        },
        {
          "internalType": "uint256",
          "name": "_startBlockNumber",
          "type": "uint256"
        }
      ],
      "stateMutability": "nonpayable",
      "type": "constructor"
    },
    {
      "anonymous": false,
      "inputs": [
        {
          "indexed": true,
          "internalType": "address",
          "name": "to",
          "type": "address"
        },
        {
          "indexed": true,
          "internalType": "uint256",
          "name": "tokenId",
          "type": "uint256"
        },
        {
          "indexed": true,
          "internalType": "uint8",
          "name": "characterId",
          "type": "uint8"
        }
      ],
      "name": "CharacterMint",
      "type": "event"
    },
    {
      "anonymous": false,
      "inputs": [
        {
          "indexed": true,
          "internalType": "address",
          "name": "previousOwner",
          "type": "address"
        },
        {
          "indexed": true,
          "internalType": "address",
          "name": "newOwner",
          "type": "address"
        }
      ],
      "name": "OwnershipTransferred",
      "type": "event"
    },
    {
      "inputs": [],
      "name": "canMint",
      "outputs": [
        {
          "internalType": "bool",
          "name": "",
          "type": "bool"
        }
      ],
      "stateMutability": "view",
      "type": "function"
    },
    {
      "inputs": [],
      "name": "characterMintingStation",
      "outputs": [
        {
          "internalType": "contract ArcaneCharacterMintingStation",
          "name": "",
          "type": "address"
        }
      ],
      "stateMutability": "view",
      "type": "function"
    },
    {
      "inputs": [
        {
          "internalType": "uint256",
          "name": "_amount",
          "type": "uint256"
        }
      ],
      "name": "claimFee",
      "outputs": [],
      "stateMutability": "nonpayable",
      "type": "function"
    },
    {
      "inputs": [
        {
          "internalType": "address",
          "name": "",
          "type": "address"
        }
      ],
      "name": "hasClaimed",
      "outputs": [
        {
          "internalType": "bool",
          "name": "",
          "type": "bool"
        }
      ],
      "stateMutability": "view",
      "type": "function"
    },
    {
      "inputs": [
        {
          "internalType": "uint8",
          "name": "_characterId",
          "type": "uint8"
        }
      ],
      "name": "mintNFT",
      "outputs": [],
      "stateMutability": "nonpayable",
      "type": "function"
    },
    {
      "inputs": [],
      "name": "owner",
      "outputs": [
        {
          "internalType": "address",
          "name": "",
          "type": "address"
        }
      ],
      "stateMutability": "view",
      "type": "function"
    },
    {
      "inputs": [],
      "name": "renounceOwnership",
      "outputs": [],
      "stateMutability": "nonpayable",
      "type": "function"
    },
    {
      "inputs": [],
      "name": "runeToken",
      "outputs": [
        {
          "internalType": "contract IBEP20",
          "name": "",
          "type": "address"
        }
      ],
      "stateMutability": "view",
      "type": "function"
    },
    {
      "inputs": [
        {
          "internalType": "string",
          "name": "_characterId1Json",
          "type": "string"
        },
        {
          "internalType": "string",
          "name": "_characterId2Json",
          "type": "string"
        },
        {
          "internalType": "string",
          "name": "_characterId3Json",
          "type": "string"
        },
        {
          "internalType": "string",
          "name": "_characterId4Json",
          "type": "string"
        },
        {
          "internalType": "string",
          "name": "_characterId5Json",
          "type": "string"
        },
        {
          "internalType": "string",
          "name": "_characterId6Json",
          "type": "string"
        },
        {
          "internalType": "string",
          "name": "_characterId7Json",
          "type": "string"
        }
      ],
      "name": "setCharacterJson",
      "outputs": [],
      "stateMutability": "nonpayable",
      "type": "function"
    },
    {
      "inputs": [
        {
          "internalType": "uint256",
          "name": "_newStartBlockNumber",
          "type": "uint256"
        }
      ],
      "name": "setStartBlockNumber",
      "outputs": [],
      "stateMutability": "nonpayable",
      "type": "function"
    },
    {
      "inputs": [],
      "name": "startBlockNumber",
      "outputs": [
        {
          "internalType": "uint256",
          "name": "",
          "type": "uint256"
        }
      ],
      "stateMutability": "view",
      "type": "function"
    },
    {
      "inputs": [],
      "name": "tokenPrice",
      "outputs": [
        {
          "internalType": "uint256",
          "name": "",
          "type": "uint256"
        }
      ],
      "stateMutability": "view",
      "type": "function"
    },
    {
      "inputs": [
        {
          "internalType": "address",
          "name": "newOwner",
          "type": "address"
        }
      ],
      "name": "transferOwnership",
      "outputs": [],
      "stateMutability": "nonpayable",
      "type": "function"
    },
    {
      "inputs": [
        {
          "internalType": "string",
          "name": "_ipfsHash",
          "type": "string"
        }
      ],
      "name": "updateIpfsHash",
      "outputs": [],
      "stateMutability": "nonpayable",
      "type": "function"
    },
    {
      "inputs": [
        {
          "internalType": "uint256",
          "name": "_newTokenPrice",
          "type": "uint256"
        }
      ],
      "name": "updateTokenPrice",
      "outputs": [],
      "stateMutability": "nonpayable",
      "type": "function"
    }
  ],
  "bytecode": "0x60806040523480156200001157600080fd5b5060405162001a5a38038062001a5a833981810160405260a08110156200003757600080fd5b8151602083015160408085015160608601805192519496939591949391820192846401000000008211156200006b57600080fd5b9083019060208201858111156200008157600080fd5b82516401000000008111828201881017156200009c57600080fd5b82525081516020918201929091019080838360005b83811015620000cb578181015183820152602001620000b1565b50505050905090810190601f168015620000f95780820380516001836020036101000a031916815260200191505b506040526020015191506000905062000111620001b4565b600080546001600160a01b0319166001600160a01b0383169081178255604051929350917f8be0079c531659141344cd1fd0a4f28419497f9722a3daafe3b4186f6b6457e0908290a350600180546001600160a01b038088166001600160a01b031992831617909255600280549287169290911691909117905560048390558151620001a5906006906020850190620001b8565b50600355506200025492505050565b3390565b828054600181600116156101000203166002900490600052602060002090601f016020900481019282601f10620001fb57805160ff19168380011785556200022b565b828001600101855582156200022b579182015b828111156200022b5782518255916020019190600101906200020e565b50620002399291506200023d565b5090565b5b808211156200023957600081556001016200023e565b6117f680620002646000396000f3fe608060405234801561001057600080fd5b50600436106100f55760003560e01c80637ff9b59611610097578063beb9716d11610066578063beb9716d146104d0578063f2fde38b146104d8578063f667526a146104fe578063fa77983e1461051b576100f5565b80637ff9b5961461025c5780638da5cb5b146102645780639fd53f2b1461026c578063b4c97ca014610274576100f5565b8063676c0d77116100d3578063676c0d77146101d95780636fc8139c146101f6578063715018a61461021a57806373b2e80e14610222576100f5565b80630913348f146100fa57806324173597146101a2578063498a4c2d146101bf575b600080fd5b6101a06004803603602081101561011057600080fd5b81019060208101813564010000000081111561012b57600080fd5b82018360208201111561013d57600080fd5b8035906020019184600183028401116401000000008311171561015f57600080fd5b91908080601f01602080910402602001604051908101604052809392919081815260200183838082843760009201919091525092955061053b945050505050565b005b6101a0600480360360208110156101b857600080fd5b50356105c6565b6101c7610693565b60408051918252519081900360200190f35b6101a0600480360360208110156101ef57600080fd5b5035610699565b6101fe610712565b604080516001600160a01b039092168252519081900360200190f35b6101a0610721565b6102486004803603602081101561023857600080fd5b50356001600160a01b03166107ec565b604080519115158252519081900360200190f35b6101c7610801565b6101fe610807565b6101fe610816565b6101a0600480360360e081101561028a57600080fd5b8101906020810181356401000000008111156102a557600080fd5b8201836020820111156102b757600080fd5b803590602001918460018302840111640100000000831117156102d957600080fd5b9193909290916020810190356401000000008111156102f757600080fd5b82018360208201111561030957600080fd5b8035906020019184600183028401116401000000008311171561032b57600080fd5b91939092909160208101903564010000000081111561034957600080fd5b82018360208201111561035b57600080fd5b8035906020019184600183028401116401000000008311171561037d57600080fd5b91939092909160208101903564010000000081111561039b57600080fd5b8201836020820111156103ad57600080fd5b803590602001918460018302840111640100000000831117156103cf57600080fd5b9193909290916020810190356401000000008111156103ed57600080fd5b8201836020820111156103ff57600080fd5b8035906020019184600183028401116401000000008311171561042157600080fd5b91939092909160208101903564010000000081111561043f57600080fd5b82018360208201111561045157600080fd5b8035906020019184600183028401116401000000008311171561047357600080fd5b91939092909160208101903564010000000081111561049157600080fd5b8201836020820111156104a357600080fd5b803590602001918460018302840111640100000000831117156104c557600080fd5b509092509050610825565b610248610df0565b6101a0600480360360208110156104ee57600080fd5b50356001600160a01b0316610df5565b6101a06004803603602081101561051457600080fd5b5035610f16565b6101a06004803603602081101561053157600080fd5b503560ff16610fab565b6105436112d0565b6001600160a01b0316610554610807565b6001600160a01b0316146105af576040805162461bcd60e51b815260206004820181905260248201527f4f776e61626c653a2063616c6c6572206973206e6f7420746865206f776e6572604482015290519081900360640190fd5b80516105c29060069060208401906116b7565b5050565b6105ce6112d0565b6001600160a01b03166105df610807565b6001600160a01b03161461063a576040805162461bcd60e51b815260206004820181905260248201527f4f776e61626c653a2063616c6c6572206973206e6f7420746865206f776e6572604482015290519081900360640190fd5b43811161068e576040805162461bcd60e51b815260206004820152600960248201527f746f6f2073686f72740000000000000000000000000000000000000000000000604482015290519081900360640190fd5b600355565b60035481565b6106a16112d0565b6001600160a01b03166106b2610807565b6001600160a01b03161461070d576040805162461bcd60e51b815260206004820181905260248201527f4f776e61626c653a2063616c6c6572206973206e6f7420746865206f776e6572604482015290519081900360640190fd5b600455565b6001546001600160a01b031681565b6107296112d0565b6001600160a01b031661073a610807565b6001600160a01b031614610795576040805162461bcd60e51b815260206004820181905260248201527f4f776e61626c653a2063616c6c6572206973206e6f7420746865206f776e6572604482015290519081900360640190fd5b600080546040516001600160a01b03909116907f8be0079c531659141344cd1fd0a4f28419497f9722a3daafe3b4186f6b6457e0908390a36000805473ffffffffffffffffffffffffffffffffffffffff19169055565b60056020526000908152604090205460ff1681565b60045481565b6000546001600160a01b031690565b6002546001600160a01b031681565b61082d6112d0565b6001600160a01b031661083e610807565b6001600160a01b031614610899576040805162461bcd60e51b815260206004820181905260248201527f4f776e61626c653a2063616c6c6572206973206e6f7420746865206f776e6572604482015290519081900360640190fd5b60068e8e60405160200180848054600181600116156101000203166002900480156108fb5780601f106108d95761010080835404028352918201916108fb565b820191906000526020600020905b8154815290600101906020018083116108e7575b50508383808284376040805191909301818103601f1901825290925250600160005260076020908152815161095996507fb39221ace053465ec3453ce2b36430bd138b997ecea25c1043da0c366812b82895509101925090506116b7565b5060068c8c60405160200180848054600181600116156101000203166002900480156109bc5780601f1061099a5761010080835404028352918201916109bc565b820191906000526020600020905b8154815290600101906020018083116109a8575b50508383808284376040805191909301818103601f19018252909252506002600052600760209081528151610a1a96507fb7c774451310d1be4108bc180d1b52823cb0ee0274a6c0081bcaf94f115fb96d95509101925090506116b7565b5060068a8a6040516020018084805460018160011615610100020316600290048015610a7d5780601f10610a5b576101008083540402835291820191610a7d565b820191906000526020600020905b815481529060010190602001808311610a69575b50508383808284376040805191909301818103601f19018252909252506003600052600760209081528151610adb96507f3be6fd20d5acfde5b873b48692cd31f4d3c7e8ee8a813af4696af8859e5ca6c695509101925090506116b7565b50600688886040516020018084805460018160011615610100020316600290048015610b3e5780601f10610b1c576101008083540402835291820191610b3e565b820191906000526020600020905b815481529060010190602001808311610b2a575b50508383808284376040805191909301818103601f19018252909252506004600052600760209081528151610b9c96507fb805995a7ec585a251200611a61d179cfd7fb105e1ab17dc415a7336783786f795509101925090506116b7565b50600686866040516020018084805460018160011615610100020316600290048015610bff5780601f10610bdd576101008083540402835291820191610bff565b820191906000526020600020905b815481529060010190602001808311610beb575b50508383808284376040805191909301818103601f19018252909252506005600052600760209081528151610c5d96507fbcdda56b5d08466ec462cbbe0adfa57cb0a15fcc8940ef68f702f21b787bc93595509101925090506116b7565b50600684846040516020018084805460018160011615610100020316600290048015610cc05780601f10610c9e576101008083540402835291820191610cc0565b820191906000526020600020905b815481529060010190602001808311610cac575b50508383808284376040805191909301818103601f19018252909252506006600052600760209081528151610d1e96507f55c5b153ab560fcde54a63b18c7f53d75501706907cef8767fbded79ab9997c795509101925090506116b7565b50600682826040516020018084805460018160011615610100020316600290048015610d815780601f10610d5f576101008083540402835291820191610d81565b820191906000526020600020905b815481529060010190602001808311610d6d575b50508383808284376040805191909301818103601f19018252909252506007600081905260209081528151610ddf96507fb7c49cceb9f85950584035457a41ebbd8cf93b9b612733ad25aa9731ac43aad695509101925090506116b7565b505050505050505050505050505050565b600190565b610dfd6112d0565b6001600160a01b0316610e0e610807565b6001600160a01b031614610e69576040805162461bcd60e51b815260206004820181905260248201527f4f776e61626c653a2063616c6c6572206973206e6f7420746865206f776e6572604482015290519081900360640190fd5b6001600160a01b038116610eae5760405162461bcd60e51b81526004018080602001828103825260268152602001806117756026913960400191505060405180910390fd5b600080546040516001600160a01b03808516939216917f8be0079c531659141344cd1fd0a4f28419497f9722a3daafe3b4186f6b6457e091a36000805473ffffffffffffffffffffffffffffffffffffffff19166001600160a01b0392909216919091179055565b610f1e6112d0565b6001600160a01b0316610f2f610807565b6001600160a01b031614610f8a576040805162461bcd60e51b815260206004820181905260248201527f4f776e61626c653a2063616c6c6572206973206e6f7420746865206f776e6572604482015290519081900360640190fd5b610fa8610f956112d0565b6002546001600160a01b031690836112d4565b50565b6000610fb56112d0565b9050600354431161100d576040805162461bcd60e51b815260206004820152600960248201527f746f6f206561726c790000000000000000000000000000000000000000000000604482015290519081900360640190fd5b600160ff83161015611066576040805162461bcd60e51b815260206004820152601360248201527f636861726163746572496420746f6f206c6f7700000000000000000000000000604482015290519081900360640190fd5b600860ff8316106110be576040805162461bcd60e51b815260206004820152601460248201527f636861726163746572496420746f6f2068696768000000000000000000000000604482015290519081900360640190fd5b6004546002546110dd916001600160a01b039091169083903090611359565b60ff821660009081526007602090815260409182902080548351601f60026000196101006001861615020190931692909204918201849004840281018401909452808452606093928301828280156111765780601f1061114b57610100808354040283529160200191611176565b820191906000526020600020905b81548152906001019060200180831161115957829003601f168201915b50506001546040517f0f85cb5a0000000000000000000000000000000000000000000000000000000081526001600160a01b038881166004830190815260ff8b166044840152606060248401908152885160648501528851989950600098929094169650630f85cb5a955089945088938b93919290916084019060208601908083838d5b838110156112125781810151838201526020016111fa565b50505050905090810190601f16801561123f5780820380516001836020036101000a031916815260200191505b50945050505050602060405180830381600087803b15801561126057600080fd5b505af1158015611274573d6000803e3d6000fd5b505050506040513d602081101561128a57600080fd5b505160405190915060ff85169082906001600160a01b038616907f4720a76901ddfdb07ba1ecba6576d152a0b4508803e6af622e2f0d9c41574be190600090a450505050565b3390565b604080516001600160a01b038416602482015260448082018490528251808303909101815260649091019091526020810180517bffffffffffffffffffffffffffffffffffffffffffffffffffffffff167fa9059cbb000000000000000000000000000000000000000000000000000000001790526113549084906113e7565b505050565b604080516001600160a01b0380861660248301528416604482015260648082018490528251808303909101815260849091019091526020810180517bffffffffffffffffffffffffffffffffffffffffffffffffffffffff167f23b872dd000000000000000000000000000000000000000000000000000000001790526113e19085906113e7565b50505050565b606061143c826040518060400160405280602081526020017f5361666542455032303a206c6f772d6c6576656c2063616c6c206661696c6564815250856001600160a01b03166114989092919063ffffffff16565b8051909150156113545780806020019051602081101561145b57600080fd5b50516113545760405162461bcd60e51b815260040180806020018281038252602a81526020018061174b602a913960400191505060405180910390fd5b60606114a784846000856114b1565b90505b9392505050565b6060824710156114f25760405162461bcd60e51b815260040180806020018281038252602681526020018061179b6026913960400191505060405180910390fd5b6114fb8561160d565b61154c576040805162461bcd60e51b815260206004820152601d60248201527f416464726573733a2063616c6c20746f206e6f6e2d636f6e7472616374000000604482015290519081900360640190fd5b60006060866001600160a01b031685876040518082805190602001908083835b6020831061158b5780518252601f19909201916020918201910161156c565b6001836020036101000a03801982511681845116808217855250505050505090500191505060006040518083038185875af1925050503d80600081146115ed576040519150601f19603f3d011682016040523d82523d6000602084013e6115f2565b606091505b5091509150611602828286611613565b979650505050505050565b3b151590565b606083156116225750816114aa565b8251156116325782518084602001fd5b8160405162461bcd60e51b81526004018080602001828103825283818151815260200191508051906020019080838360005b8381101561167c578181015183820152602001611664565b50505050905090810190601f1680156116a95780820380516001836020036101000a031916815260200191505b509250505060405180910390fd5b828054600181600116156101000203166002900490600052602060002090601f016020900481019282601f106116f857805160ff1916838001178555611725565b82800160010185558215611725579182015b8281111561172557825182559160200191906001019061170a565b50611731929150611735565b5090565b5b80821115611731576000815560010161173656fe5361666542455032303a204245503230206f7065726174696f6e20646964206e6f7420737563636565644f776e61626c653a206e6577206f776e657220697320746865207a65726f2061646472657373416464726573733a20696e73756666696369656e742062616c616e636520666f722063616c6ca26469706673582212206aa8df42f5cc7546efa242a931278778a0239e9cf38b14dfbf2920a086fca54a64736f6c634300060c0033",
  "linkReferences": {},
  "deployedLinkReferences": {}
}