{
  "_format": "hh-sol-artifact-1",
  "contractName": "ArcaneBlacksmithV5",
  "sourceName": "src/ArcaneBlacksmithV5.sol",
  "abi": [
    {
      "inputs": [
        {
          "internalType": "contract ArcaneItemMintingStation",
          "name": "_itemMintingStation",
          "type": "address"
        },
        {
          "internalType": "contract IBEP20",
          "name": "_runeToken",
          "type": "address"
        },
        {
          "internalType": "uint256",
          "name": "_tokenPrice",
          "type": "uint256"
        },
        {
          "internalType": "string",
          "name": "_ipfsHash",
          "type": "string"
        },
        {
          "internalType": "uint256",
          "name": "_startBlockNumber",
          "type": "uint256"
        }
      ],
      "stateMutability": "nonpayable",
      "type": "constructor"
    },
    {
      "anonymous": false,
      "inputs": [
        {
          "indexed": true,
          "internalType": "address",
          "name": "to",
          "type": "address"
        },
        {
          "indexed": true,
          "internalType": "uint256",
          "name": "tokenId",
          "type": "uint256"
        },
        {
          "indexed": true,
          "internalType": "uint16",
          "name": "itemId",
          "type": "uint16"
        }
      ],
      "name": "ItemMint",
      "type": "event"
    },
    {
      "anonymous": false,
      "inputs": [
        {
          "indexed": true,
          "internalType": "address",
          "name": "previousOwner",
          "type": "address"
        },
        {
          "indexed": true,
          "internalType": "address",
          "name": "newOwner",
          "type": "address"
        }
      ],
      "name": "OwnershipTransferred",
      "type": "event"
    },
    {
      "inputs": [
        {
          "internalType": "uint256",
          "name": "_amount",
          "type": "uint256"
        }
      ],
      "name": "claimFee",
      "outputs": [],
      "stateMutability": "nonpayable",
      "type": "function"
    },
    {
      "inputs": [
        {
          "internalType": "uint8",
          "name": "_id",
          "type": "uint8"
        }
      ],
      "name": "getRune",
      "outputs": [
        {
          "internalType": "address",
          "name": "",
          "type": "address"
        }
      ],
      "stateMutability": "view",
      "type": "function"
    },
    {
      "inputs": [
        {
          "internalType": "uint16",
          "name": "",
          "type": "uint16"
        }
      ],
      "name": "itemIdCount",
      "outputs": [
        {
          "internalType": "uint16",
          "name": "",
          "type": "uint16"
        }
      ],
      "stateMutability": "view",
      "type": "function"
    },
    {
      "inputs": [],
      "name": "itemMintingStation",
      "outputs": [
        {
          "internalType": "contract ArcaneItemMintingStation",
          "name": "",
          "type": "address"
        }
      ],
      "stateMutability": "view",
      "type": "function"
    },
    {
      "inputs": [],
      "name": "owner",
      "outputs": [
        {
          "internalType": "address",
          "name": "",
          "type": "address"
        }
      ],
      "stateMutability": "view",
      "type": "function"
    },
    {
      "inputs": [
        {
          "internalType": "address",
          "name": "",
          "type": "address"
        },
        {
          "internalType": "address",
          "name": "",
          "type": "address"
        },
        {
          "internalType": "address",
          "name": "",
          "type": "address"
        },
        {
          "internalType": "address",
          "name": "",
          "type": "address"
        },
        {
          "internalType": "address",
          "name": "",
          "type": "address"
        },
        {
          "internalType": "address",
          "name": "",
          "type": "address"
        }
      ],
      "name": "recipes",
      "outputs": [
        {
          "internalType": "uint16",
          "name": "version",
          "type": "uint16"
        },
        {
          "internalType": "uint16",
          "name": "itemId",
          "type": "uint16"
        },
        {
          "internalType": "enum ArcaneItemLibraryV2.ArcaneItemType",
          "name": "itemType",
          "type": "uint8"
        }
      ],
      "stateMutability": "view",
      "type": "function"
    },
    {
      "inputs": [],
      "name": "renounceOwnership",
      "outputs": [],
      "stateMutability": "nonpayable",
      "type": "function"
    },
    {
      "inputs": [],
      "name": "runeToken",
      "outputs": [
        {
          "internalType": "contract IBEP20",
          "name": "",
          "type": "address"
        }
      ],
      "stateMutability": "view",
      "type": "function"
    },
    {
      "inputs": [
        {
          "internalType": "uint8",
          "name": "",
          "type": "uint8"
        }
      ],
      "name": "runes",
      "outputs": [
        {
          "internalType": "address",
          "name": "",
          "type": "address"
        }
      ],
      "stateMutability": "view",
      "type": "function"
    },
    {
      "inputs": [
        {
          "internalType": "uint16",
          "name": "_itemId",
          "type": "uint16"
        },
        {
          "internalType": "string",
          "name": "_itemIdJson",
          "type": "string"
        }
      ],
      "name": "setItemJson",
      "outputs": [],
      "stateMutability": "nonpayable",
      "type": "function"
    },
    {
      "inputs": [
        {
          "internalType": "bool",
          "name": "_mintingEnabled",
          "type": "bool"
        }
      ],
      "name": "setMintingEnabled",
      "outputs": [],
      "stateMutability": "nonpayable",
      "type": "function"
    },
    {
      "inputs": [
        {
          "internalType": "address",
          "name": "_item1",
          "type": "address"
        },
        {
          "internalType": "address",
          "name": "_item2",
          "type": "address"
        },
        {
          "internalType": "address",
          "name": "_item3",
          "type": "address"
        },
        {
          "internalType": "address",
          "name": "_item4",
          "type": "address"
        },
        {
          "internalType": "address",
          "name": "_item5",
          "type": "address"
        },
        {
          "internalType": "address",
          "name": "_item6",
          "type": "address"
        },
        {
          "internalType": "uint16",
          "name": "_itemId",
          "type": "uint16"
        },
        {
          "internalType": "enum ArcaneItemLibraryV2.ArcaneItemType",
          "name": "_itemType",
          "type": "uint8"
        }
      ],
      "name": "setRecipe",
      "outputs": [],
      "stateMutability": "nonpayable",
      "type": "function"
    },
    {
      "inputs": [
        {
          "internalType": "address",
          "name": "_item1",
          "type": "address"
        },
        {
          "internalType": "address",
          "name": "_item2",
          "type": "address"
        },
        {
          "internalType": "address",
          "name": "_item3",
          "type": "address"
        },
        {
          "internalType": "address",
          "name": "_item4",
          "type": "address"
        },
        {
          "internalType": "address",
          "name": "_item5",
          "type": "address"
        },
        {
          "internalType": "address",
          "name": "_item6",
          "type": "address"
        },
        {
          "internalType": "uint8",
          "name": "_index",
          "type": "uint8"
        },
        {
          "internalType": "uint8",
          "name": "_variant",
          "type": "uint8"
        },
        {
          "internalType": "uint16",
          "name": "_attributeId",
          "type": "uint16"
        },
        {
          "internalType": "uint16",
          "name": "_minRange",
          "type": "uint16"
        },
        {
          "internalType": "uint16",
          "name": "_maxRange",
          "type": "uint16"
        },
        {
          "internalType": "uint8",
          "name": "_difficulty",
          "type": "uint8"
        }
      ],
      "name": "setRecipeMod",
      "outputs": [],
      "stateMutability": "nonpayable",
      "type": "function"
    },
    {
      "inputs": [
        {
          "internalType": "uint8",
          "name": "_rune1Index",
          "type": "uint8"
        },
        {
          "internalType": "address",
          "name": "_rune1Address",
          "type": "address"
        },
        {
          "internalType": "uint8",
          "name": "_rune2Index",
          "type": "uint8"
        },
        {
          "internalType": "address",
          "name": "_rune2Address",
          "type": "address"
        },
        {
          "internalType": "uint8",
          "name": "_rune3Index",
          "type": "uint8"
        },
        {
          "internalType": "address",
          "name": "_rune3Address",
          "type": "address"
        },
        {
          "internalType": "uint8",
          "name": "_rune4Index",
          "type": "uint8"
        },
        {
          "internalType": "address",
          "name": "_rune4Address",
          "type": "address"
        }
      ],
      "name": "setRuneAddresses",
      "outputs": [],
      "stateMutability": "nonpayable",
      "type": "function"
    },
    {
      "inputs": [
        {
          "internalType": "uint256",
          "name": "_newStartBlockNumber",
          "type": "uint256"
        }
      ],
      "name": "setStartBlockNumber",
      "outputs": [],
      "stateMutability": "nonpayable",
      "type": "function"
    },
    {
      "inputs": [],
      "name": "startBlockNumber",
      "outputs": [
        {
          "internalType": "uint256",
          "name": "",
          "type": "uint256"
        }
      ],
      "stateMutability": "view",
      "type": "function"
    },
    {
      "inputs": [],
      "name": "tokenPrice",
      "outputs": [
        {
          "internalType": "uint256",
          "name": "",
          "type": "uint256"
        }
      ],
      "stateMutability": "view",
      "type": "function"
    },
    {
      "inputs": [
        {
          "internalType": "address",
          "name": "newOwner",
          "type": "address"
        }
      ],
      "name": "transferOwnership",
      "outputs": [],
      "stateMutability": "nonpayable",
      "type": "function"
    },
    {
      "inputs": [
        {
          "internalType": "address",
          "name": "_item1",
          "type": "address"
        },
        {
          "internalType": "address",
          "name": "_item2",
          "type": "address"
        },
        {
          "internalType": "address",
          "name": "_item3",
          "type": "address"
        },
        {
          "internalType": "address",
          "name": "_item4",
          "type": "address"
        },
        {
          "internalType": "address",
          "name": "_item5",
          "type": "address"
        },
        {
          "internalType": "address",
          "name": "_item6",
          "type": "address"
        },
        {
          "internalType": "uint16",
          "name": "rand",
          "type": "uint16"
        }
      ],
      "name": "transmute",
      "outputs": [],
      "stateMutability": "nonpayable",
      "type": "function"
    },
    {
      "inputs": [
        {
          "internalType": "string",
          "name": "_ipfsHash",
          "type": "string"
        }
      ],
      "name": "updateIpfsHash",
      "outputs": [],
      "stateMutability": "nonpayable",
      "type": "function"
    },
    {
      "inputs": [
        {
          "internalType": "uint256",
          "name": "_newTokenPrice",
          "type": "uint256"
        }
      ],
      "name": "updateTokenPrice",
      "outputs": [],
      "stateMutability": "nonpayable",
      "type": "function"
    },
    {
      "inputs": [],
      "name": "vaultAddress",
      "outputs": [
        {
          "internalType": "address",
          "name": "",
          "type": "address"
        }
      ],
      "stateMutability": "view",
      "type": "function"
    },
    {
      "inputs": [],
      "name": "version",
      "outputs": [
        {
          "internalType": "uint8",
          "name": "",
          "type": "uint8"
        }
      ],
      "stateMutability": "view",
      "type": "function"
    }
  ],
  "bytecode": "0x60806040526009805460ff191660011790553480156200001e57600080fd5b506040516200622e3803806200622e833981016040819052620000419162003a41565b60006200004d620039a1565b600080546001600160a01b0319166001600160a01b0383169081178255604051929350917f8be0079c531659141344cd1fd0a4f28419497f9722a3daafe3b4186f6b6457e0908290a350600180546001600160a01b038088166001600160a01b031992831617909255600280549287169290911691909117905560048390558151620000e1906005906020850190620039a5565b5060038181556009805474602a27bbf954b6945534a84c8c88fb8ca9e92b7f00610100600160a81b03199091161790557fdf7de25b7f1fd6d0b5205f0e18f1f35bd7b8d84cce336588d184533ce43a6f7680546001600160a01b031990811673210c14fbecc2bd9b6231199470da12ad45f64d4517918290557f72c6bfb7988af3a1efa6568f02a999bc52252641c659d85961ca3d372b57d5cf8054821673e00b8109bcb70b1edeb4cf87914efc280502099517908190557fa50eece07c7db1631545c0069bd8f5f54d5935e215d59097edf258a44ba916348054831673125a3e00a9a11317d4d95349e68ba0bc744addc417908190557f64c15cc42be7899b001f818cf4433057002112c418d1d3a67cd5cb453051d33e8054841673ef4f66506aaaeeff6d10775ad6f994105d8f11b417908190557febae6141bae5521e99e0a8d610356b0f501fea54980b59c84841db43ba7204f48054851673098afb73f809d8fe145363f802113e3825d7490c17908190557f0387e9d1203691d8e3362a7e4c6723de358a4010d7f31ecbec3fbfc61d1c75fc80548616735de72a6fca2144aa134650bbea92cc919244f05d17908190557ff5559028dc9ba50d75343c779b2f75e13a84a14662932fc67a486f263ca31a968054909616732f25dbd430cdbd1a6ec184c79c56c18918fcc97d17958690557f71f482bdabd1ea844d62c952b094e632959690d7448ca2aab34034ec98569358546001600160a01b0394851660008181526007602090815260408083209b89168084529b8252808320838052825280832082528083208252808320808352908320805463ffff00001961ffff19909116909e179d909d166201000017808e558380529152909a97871698919795871696948516959385169491821693929091169160019160ff60201b1916640100000000830217905550600560076000886001600160a01b03166001600160a01b0316815260200190815260200160002060008a6001600160a01b03166001600160a01b0316815260200190815260200160002060008b6001600160a01b03166001600160a01b0316815260200190815260200160002060008b6001600160a01b03166001600160a01b0316815260200190815260200160002060008b6001600160a01b03166001600160a01b0316815260200190815260200160002060008b6001600160a01b03166001600160a01b0316815260200190815260200160002060010160008060ff16815260200190815260200160002060000160036101000a81548161ffff021916908361ffff160217905550600f60076000886001600160a01b03166001600160a01b0316815260200190815260200160002060008a6001600160a01b03166001600160a01b0316815260200190815260200160002060008b6001600160a01b03166001600160a01b0316815260200190815260200160002060008b6001600160a01b03166001600160a01b0316815260200190815260200160002060008b6001600160a01b03166001600160a01b0316815260200190815260200160002060008b6001600160a01b03166001600160a01b0316815260200190815260200160002060010160008060ff16815260200190815260200160002060000160056101000a81548161ffff021916908361ffff160217905550600360076000886001600160a01b03166001600160a01b0316815260200190815260200160002060008a6001600160a01b03166001600160a01b0316815260200190815260200160002060008b6001600160a01b03166001600160a01b0316815260200190815260200160002060008b6001600160a01b03166001600160a01b0316815260200190815260200160002060008b6001600160a01b03166001600160a01b0316815260200190815260200160002060008b6001600160a01b03166001600160a01b031681526020019081526020016000206001016000600160ff16815260200190815260200160002060000160036101000a81548161ffff021916908361ffff160217905550600560076000886001600160a01b03166001600160a01b0316815260200190815260200160002060008a6001600160a01b03166001600160a01b0316815260200190815260200160002060008b6001600160a01b03166001600160a01b0316815260200190815260200160002060008b6001600160a01b03166001600160a01b0316815260200190815260200160002060008b6001600160a01b03166001600160a01b0316815260200190815260200160002060008b6001600160a01b03166001600160a01b031681526020019081526020016000206001016000600160ff16815260200190815260200160002060000160056101000a81548161ffff021916908361ffff160217905550600060076000886001600160a01b03166001600160a01b0316815260200190815260200160002060008a6001600160a01b03166001600160a01b0316815260200190815260200160002060008b6001600160a01b03166001600160a01b0316815260200190815260200160002060008b6001600160a01b03166001600160a01b0316815260200190815260200160002060008b6001600160a01b03166001600160a01b0316815260200190815260200160002060008b6001600160a01b03166001600160a01b031681526020019081526020016000206001016000600260ff16815260200190815260200160002060000160036101000a81548161ffff021916908361ffff160217905550600260076000886001600160a01b03166001600160a01b0316815260200190815260200160002060008a6001600160a01b03166001600160a01b0316815260200190815260200160002060008b6001600160a01b03166001600160a01b0316815260200190815260200160002060008b6001600160a01b03166001600160a01b0316815260200190815260200160002060008b6001600160a01b03166001600160a01b0316815260200190815260200160002060008b6001600160a01b03166001600160a01b031681526020019081526020016000206001016000600260ff16815260200190815260200160002060000160056101000a81548161ffff021916908361ffff160217905550600360ff1660076000876001600160a01b03166001600160a01b031681526020019081526020016000206000896001600160a01b03166001600160a01b031681526020019081526020016000206000886001600160a01b03166001600160a01b0316815260200190815260200160002060008a6001600160a01b03166001600160a01b0316815260200190815260200160002060008b6001600160a01b03166001600160a01b0316815260200190815260200160002060008b6001600160a01b03166001600160a01b0316815260200190815260200160002060000160006101000a81548161ffff021916908361ffff160217905550600260076000876001600160a01b03166001600160a01b031681526020019081526020016000206000896001600160a01b03166001600160a01b031681526020019081526020016000206000886001600160a01b03166001600160a01b0316815260200190815260200160002060008a6001600160a01b03166001600160a01b0316815260200190815260200160002060008b6001600160a01b03166001600160a01b0316815260200190815260200160002060008b6001600160a01b03166001600160a01b0316815260200190815260200160002060000160026101000a81548161ffff021916908361ffff160217905550600160076000876001600160a01b03166001600160a01b031681526020019081526020016000206000896001600160a01b03166001600160a01b031681526020019081526020016000206000886001600160a01b03166001600160a01b0316815260200190815260200160002060008a6001600160a01b03166001600160a01b0316815260200190815260200160002060008b6001600160a01b03166001600160a01b0316815260200190815260200160002060008b6001600160a01b03166001600160a01b0316815260200190815260200160002060000160046101000a81548160ff0219169083601881111562000cab57fe5b02179055506001600160a01b0385811660009081526007602090815260408083208b851684528083528184208b86168086529084528285208e871686528452828520958f16808652958452828520845282852085805260019081018552838620805464ffff0000ff191663030000001761ffff60281b199081166507000000000017909155908652838620805464ffff0000001990811663140000009081178416652800000000009081179093556002895286892080549092161790921617905584528252808320938352928152828220815282822081528282209052208054600361ffff199091161763ffff0000191662030000178082556005919060ff60201b19166401000000008302179055506001600160a01b0385811660009081526007602081815260408084208b8616855282528084208e8616808652908352818520835281852083528185208352818520858052600190810184528286208054630100000064ffff00000019918216811761ffff60281b19908116650300000000009081179094559389528589208054831690911784169092179091556002875283872080549091166319000000179091166564000000000017905589861685529282528084208c8616855282528084208786168552825280842094881684529381528383209183529081528282209052208054600361ffff199091161763ffff000019166205000017808255600b919060ff60201b1916640100000000830217905550600160076000866001600160a01b03166001600160a01b031681526020019081526020016000206000896001600160a01b03166001600160a01b031681526020019081526020016000206000846001600160a01b03166001600160a01b031681526020019081526020016000206000856001600160a01b03166001600160a01b0316815260200190815260200160002060008b6001600160a01b03166001600160a01b0316815260200190815260200160002060008b6001600160a01b03166001600160a01b0316815260200190815260200160002060010160008060ff16815260200190815260200160002060000160036101000a81548161ffff021916908361ffff160217905550600a60076000866001600160a01b03166001600160a01b031681526020019081526020016000206000896001600160a01b03166001600160a01b031681526020019081526020016000206000846001600160a01b03166001600160a01b031681526020019081526020016000206000856001600160a01b03166001600160a01b0316815260200190815260200160002060008b6001600160a01b03166001600160a01b0316815260200190815260200160002060008b6001600160a01b03166001600160a01b0316815260200190815260200160002060010160008060ff16815260200190815260200160002060000160056101000a81548161ffff021916908361ffff160217905550600160076000866001600160a01b03166001600160a01b031681526020019081526020016000206000896001600160a01b03166001600160a01b031681526020019081526020016000206000846001600160a01b03166001600160a01b031681526020019081526020016000206000856001600160a01b03166001600160a01b0316815260200190815260200160002060008b6001600160a01b03166001600160a01b0316815260200190815260200160002060008b6001600160a01b03166001600160a01b031681526020019081526020016000206001016000600160ff16815260200190815260200160002060000160036101000a81548161ffff021916908361ffff160217905550600560076000866001600160a01b03166001600160a01b031681526020019081526020016000206000896001600160a01b03166001600160a01b031681526020019081526020016000206000846001600160a01b03166001600160a01b031681526020019081526020016000206000856001600160a01b03166001600160a01b0316815260200190815260200160002060008b6001600160a01b03166001600160a01b0316815260200190815260200160002060008b6001600160a01b03166001600160a01b031681526020019081526020016000206001016000600160ff16815260200190815260200160002060000160056101000a81548161ffff021916908361ffff160217905550600a60076000866001600160a01b03166001600160a01b031681526020019081526020016000206000896001600160a01b03166001600160a01b031681526020019081526020016000206000846001600160a01b03166001600160a01b031681526020019081526020016000206000856001600160a01b03166001600160a01b0316815260200190815260200160002060008b6001600160a01b03166001600160a01b0316815260200190815260200160002060008b6001600160a01b03166001600160a01b031681526020019081526020016000206001016000600260ff16815260200190815260200160002060000160036101000a81548161ffff021916908361ffff160217905550601460076000866001600160a01b03166001600160a01b031681526020019081526020016000206000896001600160a01b03166001600160a01b031681526020019081526020016000206000846001600160a01b03166001600160a01b031681526020019081526020016000206000856001600160a01b03166001600160a01b0316815260200190815260200160002060008b6001600160a01b03166001600160a01b0316815260200190815260200160002060008b6001600160a01b03166001600160a01b031681526020019081526020016000206001016000600260ff16815260200190815260200160002060000160056101000a81548161ffff021916908361ffff160217905550600360ff16600760008a6001600160a01b03166001600160a01b031681526020019081526020016000206000846001600160a01b03166001600160a01b031681526020019081526020016000206000836001600160a01b03166001600160a01b031681526020019081526020016000206000856001600160a01b03166001600160a01b0316815260200190815260200160002060008b6001600160a01b03166001600160a01b0316815260200190815260200160002060008b6001600160a01b03166001600160a01b0316815260200190815260200160002060000160006101000a81548161ffff021916908361ffff1602179055506006600760008a6001600160a01b03166001600160a01b031681526020019081526020016000206000846001600160a01b03166001600160a01b031681526020019081526020016000206000836001600160a01b03166001600160a01b031681526020019081526020016000206000856001600160a01b03166001600160a01b0316815260200190815260200160002060008b6001600160a01b03166001600160a01b0316815260200190815260200160002060008b6001600160a01b03166001600160a01b0316815260200190815260200160002060000160026101000a81548161ffff021916908361ffff16021790555060078060008a6001600160a01b03166001600160a01b031681526020019081526020016000206000846001600160a01b03166001600160a01b031681526020019081526020016000206000836001600160a01b03166001600160a01b031681526020019081526020016000206000856001600160a01b03166001600160a01b0316815260200190815260200160002060008b6001600160a01b03166001600160a01b0316815260200190815260200160002060008b6001600160a01b03166001600160a01b0316815260200190815260200160002060000160046101000a81548160ff02191690836018811115620017ec57fe5b02179055506002600760008a6001600160a01b03166001600160a01b031681526020019081526020016000206000846001600160a01b03166001600160a01b031681526020019081526020016000206000836001600160a01b03166001600160a01b031681526020019081526020016000206000856001600160a01b03166001600160a01b0316815260200190815260200160002060008b6001600160a01b03166001600160a01b0316815260200190815260200160002060008b6001600160a01b03166001600160a01b0316815260200190815260200160002060010160008060ff16815260200190815260200160002060000160036101000a81548161ffff021916908361ffff1602179055506005600760008a6001600160a01b03166001600160a01b031681526020019081526020016000206000846001600160a01b03166001600160a01b031681526020019081526020016000206000836001600160a01b03166001600160a01b031681526020019081526020016000206000856001600160a01b03166001600160a01b0316815260200190815260200160002060008b6001600160a01b03166001600160a01b0316815260200190815260200160002060008b6001600160a01b03166001600160a01b0316815260200190815260200160002060010160008060ff16815260200190815260200160002060000160056101000a81548161ffff021916908361ffff160217905550600a600760008a6001600160a01b03166001600160a01b031681526020019081526020016000206000846001600160a01b03166001600160a01b031681526020019081526020016000206000836001600160a01b03166001600160a01b031681526020019081526020016000206000856001600160a01b03166001600160a01b0316815260200190815260200160002060008b6001600160a01b03166001600160a01b0316815260200190815260200160002060008b6001600160a01b03166001600160a01b031681526020019081526020016000206001016000600160ff16815260200190815260200160002060000160036101000a81548161ffff021916908361ffff1602179055506014600760008a6001600160a01b03166001600160a01b031681526020019081526020016000206000846001600160a01b03166001600160a01b031681526020019081526020016000206000836001600160a01b03166001600160a01b031681526020019081526020016000206000856001600160a01b03166001600160a01b0316815260200190815260200160002060008b6001600160a01b03166001600160a01b0316815260200190815260200160002060008b6001600160a01b03166001600160a01b031681526020019081526020016000206001016000600160ff16815260200190815260200160002060000160056101000a81548161ffff021916908361ffff1602179055506001600760008a6001600160a01b03166001600160a01b031681526020019081526020016000206000846001600160a01b03166001600160a01b031681526020019081526020016000206000836001600160a01b03166001600160a01b031681526020019081526020016000206000856001600160a01b03166001600160a01b0316815260200190815260200160002060008b6001600160a01b03166001600160a01b0316815260200190815260200160002060008b6001600160a01b03166001600160a01b031681526020019081526020016000206001016000600260ff16815260200190815260200160002060000160036101000a81548161ffff021916908361ffff1602179055506002600760008a6001600160a01b03166001600160a01b031681526020019081526020016000206000846001600160a01b03166001600160a01b031681526020019081526020016000206000836001600160a01b03166001600160a01b031681526020019081526020016000206000856001600160a01b03166001600160a01b0316815260200190815260200160002060008b6001600160a01b03166001600160a01b0316815260200190815260200160002060008b6001600160a01b03166001600160a01b031681526020019081526020016000206001016000600260ff16815260200190815260200160002060000160056101000a81548161ffff021916908361ffff160217905550600360ff1660076000856001600160a01b03166001600160a01b031681526020019081526020016000206000866001600160a01b03166001600160a01b031681526020019081526020016000206000836001600160a01b03166001600160a01b031681526020019081526020016000206000846001600160a01b03166001600160a01b0316815260200190815260200160002060008b6001600160a01b03166001600160a01b0316815260200190815260200160002060008b6001600160a01b03166001600160a01b0316815260200190815260200160002060000160006101000a81548161ffff021916908361ffff1602179055506007806000856001600160a01b03166001600160a01b031681526020019081526020016000206000866001600160a01b03166001600160a01b031681526020019081526020016000206000836001600160a01b03166001600160a01b031681526020019081526020016000206000846001600160a01b03166001600160a01b0316815260200190815260200160002060008b6001600160a01b03166001600160a01b0316815260200190815260200160002060008b6001600160a01b03166001600160a01b0316815260200190815260200160002060000160026101000a81548161ffff021916908361ffff160217905550600960076000856001600160a01b03166001600160a01b031681526020019081526020016000206000866001600160a01b03166001600160a01b031681526020019081526020016000206000836001600160a01b03166001600160a01b031681526020019081526020016000206000846001600160a01b03166001600160a01b0316815260200190815260200160002060008b6001600160a01b03166001600160a01b0316815260200190815260200160002060008b6001600160a01b03166001600160a01b0316815260200190815260200160002060000160046101000a81548160ff021916908360188111156200210e57fe5b0217905550600160076000856001600160a01b03166001600160a01b031681526020019081526020016000206000866001600160a01b03166001600160a01b031681526020019081526020016000206000836001600160a01b03166001600160a01b031681526020019081526020016000206000846001600160a01b03166001600160a01b0316815260200190815260200160002060008b6001600160a01b03166001600160a01b0316815260200190815260200160002060008b6001600160a01b03166001600160a01b0316815260200190815260200160002060010160008060ff16815260200190815260200160002060000160036101000a81548161ffff021916908361ffff160217905550600560076000856001600160a01b03166001600160a01b031681526020019081526020016000206000866001600160a01b03166001600160a01b031681526020019081526020016000206000836001600160a01b03166001600160a01b031681526020019081526020016000206000846001600160a01b03166001600160a01b0316815260200190815260200160002060008b6001600160a01b03166001600160a01b0316815260200190815260200160002060008b6001600160a01b03166001600160a01b0316815260200190815260200160002060010160008060ff16815260200190815260200160002060000160056101000a81548161ffff021916908361ffff160217905550601960076000856001600160a01b03166001600160a01b031681526020019081526020016000206000866001600160a01b03166001600160a01b031681526020019081526020016000206000836001600160a01b03166001600160a01b031681526020019081526020016000206000846001600160a01b03166001600160a01b0316815260200190815260200160002060008b6001600160a01b03166001600160a01b0316815260200190815260200160002060008b6001600160a01b03166001600160a01b031681526020019081526020016000206001016000600160ff16815260200190815260200160002060000160036101000a81548161ffff021916908361ffff160217905550606460076000856001600160a01b03166001600160a01b031681526020019081526020016000206000866001600160a01b03166001600160a01b031681526020019081526020016000206000836001600160a01b03166001600160a01b031681526020019081526020016000206000846001600160a01b03166001600160a01b0316815260200190815260200160002060008b6001600160a01b03166001600160a01b0316815260200190815260200160002060008b6001600160a01b03166001600160a01b031681526020019081526020016000206001016000600160ff16815260200190815260200160002060000160056101000a81548161ffff021916908361ffff160217905550606460076000856001600160a01b03166001600160a01b031681526020019081526020016000206000866001600160a01b03166001600160a01b031681526020019081526020016000206000836001600160a01b03166001600160a01b031681526020019081526020016000206000846001600160a01b03166001600160a01b0316815260200190815260200160002060008b6001600160a01b03166001600160a01b0316815260200190815260200160002060008b6001600160a01b03166001600160a01b031681526020019081526020016000206001016000600260ff16815260200190815260200160002060000160036101000a81548161ffff021916908361ffff160217905550606460076000856001600160a01b03166001600160a01b031681526020019081526020016000206000866001600160a01b03166001600160a01b031681526020019081526020016000206000836001600160a01b03166001600160a01b031681526020019081526020016000206000846001600160a01b03166001600160a01b0316815260200190815260200160002060008b6001600160a01b03166001600160a01b0316815260200190815260200160002060008b6001600160a01b03166001600160a01b031681526020019081526020016000206001016000600260ff16815260200190815260200160002060000160056101000a81548161ffff021916908361ffff160217905550600360ff1660076000856001600160a01b03166001600160a01b031681526020019081526020016000206000836001600160a01b03166001600160a01b031681526020019081526020016000206000856001600160a01b03166001600160a01b031681526020019081526020016000206000896001600160a01b03166001600160a01b031681526020019081526020016000206000876001600160a01b03166001600160a01b0316815260200190815260200160002060008b6001600160a01b03166001600160a01b0316815260200190815260200160002060000160006101000a81548161ffff021916908361ffff160217905550600860076000856001600160a01b03166001600160a01b031681526020019081526020016000206000836001600160a01b03166001600160a01b031681526020019081526020016000206000856001600160a01b03166001600160a01b031681526020019081526020016000206000896001600160a01b03166001600160a01b031681526020019081526020016000206000876001600160a01b03166001600160a01b0316815260200190815260200160002060008b6001600160a01b03166001600160a01b0316815260200190815260200160002060000160026101000a81548161ffff021916908361ffff1602179055506007806000856001600160a01b03166001600160a01b031681526020019081526020016000206000836001600160a01b03166001600160a01b031681526020019081526020016000206000856001600160a01b03166001600160a01b031681526020019081526020016000206000896001600160a01b03166001600160a01b031681526020019081526020016000206000876001600160a01b03166001600160a01b0316815260200190815260200160002060008b6001600160a01b03166001600160a01b0316815260200190815260200160002060000160046101000a81548160ff0219169083601881111562002a3057fe5b02179055506001600160a01b0383811660008181526007602081815260408084208787168552825280842085855282528084208d8716855282528084208b8716855282528084208f871680865290835281852085805260019081018452828620805464ffff0000001990811663020000001761ffff60281b199081166505000000000017909255918752838720805483166319000000178216654b00000000001790556002808852848820805490931663640000001790911665640000000000179091558d881686529383528185208b8816865283528185209585529482528084209588168452948152848320938352928352838220909252919091208054600361ffff199091161763ffff00001916620900001780825560ff60201b1916640100000000830217905550600a60076000886001600160a01b03166001600160a01b031681526020019081526020016000206000866001600160a01b03166001600160a01b031681526020019081526020016000206000856001600160a01b03166001600160a01b031681526020019081526020016000206000846001600160a01b03166001600160a01b0316815260200190815260200160002060008b6001600160a01b03166001600160a01b0316815260200190815260200160002060008b6001600160a01b03166001600160a01b0316815260200190815260200160002060010160008060ff16815260200190815260200160002060000160036101000a81548161ffff021916908361ffff160217905550601460076000886001600160a01b03166001600160a01b031681526020019081526020016000206000866001600160a01b03166001600160a01b031681526020019081526020016000206000856001600160a01b03166001600160a01b031681526020019081526020016000206000846001600160a01b03166001600160a01b0316815260200190815260200160002060008b6001600160a01b03166001600160a01b0316815260200190815260200160002060008b6001600160a01b03166001600160a01b0316815260200190815260200160002060010160008060ff16815260200190815260200160002060000160056101000a81548161ffff021916908361ffff160217905550600160076000886001600160a01b03166001600160a01b031681526020019081526020016000206000866001600160a01b03166001600160a01b031681526020019081526020016000206000856001600160a01b03166001600160a01b031681526020019081526020016000206000846001600160a01b03166001600160a01b0316815260200190815260200160002060008b6001600160a01b03166001600160a01b0316815260200190815260200160002060008b6001600160a01b03166001600160a01b031681526020019081526020016000206001016000600160ff16815260200190815260200160002060000160036101000a81548161ffff021916908361ffff160217905550601e60076000886001600160a01b03166001600160a01b031681526020019081526020016000206000866001600160a01b03166001600160a01b031681526020019081526020016000206000856001600160a01b03166001600160a01b031681526020019081526020016000206000846001600160a01b03166001600160a01b0316815260200190815260200160002060008b6001600160a01b03166001600160a01b0316815260200190815260200160002060008b6001600160a01b03166001600160a01b031681526020019081526020016000206001016000600160ff16815260200190815260200160002060000160056101000a81548161ffff021916908361ffff160217905550600160076000886001600160a01b03166001600160a01b031681526020019081526020016000206000866001600160a01b03166001600160a01b031681526020019081526020016000206000856001600160a01b03166001600160a01b031681526020019081526020016000206000846001600160a01b03166001600160a01b0316815260200190815260200160002060008b6001600160a01b03166001600160a01b0316815260200190815260200160002060008b6001600160a01b03166001600160a01b031681526020019081526020016000206001016000600260ff16815260200190815260200160002060000160036101000a81548161ffff021916908361ffff160217905550600460076000886001600160a01b03166001600160a01b031681526020019081526020016000206000866001600160a01b03166001600160a01b031681526020019081526020016000206000856001600160a01b03166001600160a01b031681526020019081526020016000206000846001600160a01b03166001600160a01b0316815260200190815260200160002060008b6001600160a01b03166001600160a01b0316815260200190815260200160002060008b6001600160a01b03166001600160a01b031681526020019081526020016000206001016000600260ff16815260200190815260200160002060000160056101000a81548161ffff021916908361ffff160217905550600360ff1660076000856001600160a01b03166001600160a01b031681526020019081526020016000206000846001600160a01b03166001600160a01b031681526020019081526020016000206000866001600160a01b03166001600160a01b031681526020019081526020016000206000896001600160a01b03166001600160a01b031681526020019081526020016000206000836001600160a01b03166001600160a01b031681526020019081526020016000206000876001600160a01b03166001600160a01b0316815260200190815260200160002060000160006101000a81548161ffff021916908361ffff160217905550600a60076000856001600160a01b03166001600160a01b031681526020019081526020016000206000846001600160a01b03166001600160a01b031681526020019081526020016000206000866001600160a01b03166001600160a01b031681526020019081526020016000206000896001600160a01b03166001600160a01b031681526020019081526020016000206000836001600160a01b03166001600160a01b031681526020019081526020016000206000876001600160a01b03166001600160a01b0316815260200190815260200160002060000160026101000a81548161ffff021916908361ffff160217905550600260076000856001600160a01b03166001600160a01b031681526020019081526020016000206000846001600160a01b03166001600160a01b031681526020019081526020016000206000866001600160a01b03166001600160a01b031681526020019081526020016000206000896001600160a01b03166001600160a01b031681526020019081526020016000206000836001600160a01b03166001600160a01b031681526020019081526020016000206000876001600160a01b03166001600160a01b0316815260200190815260200160002060000160046101000a81548160ff021916908360188111156200347957fe5b02179055506001600160a01b0383811660009081526007602081815260408084208786168086529083528185208a87168087529084528286208e8816808852908552838720898916885285528387208d891680895290865284882088805260019081018752858920805464ffff00000019908116630a0000001761ffff60281b19908116651e000000000017909255918a52868a20805490921663050000001716651400000000001790556002808952858920805466ffffffff000000191665030000000000179055938852958552838720918752908452828620948652938352818520938552928252808420948e16845293815283832090529190208054600361ffff199091161763ffff00001916620b00001780825560ff60201b19166401000000008302179055506001600160a01b0382811660008181526007602081815260408084208a8716855282528084208b8716855282528084208d8716855282528084208f8716808652908352818520835281852085805260019081018452828620805464ffff00000019908116630a00000090811761ffff60281b1990811665140000000000908117909455848a52868a2080548416831782166528000000000017905560028a52868a208054909316909117169091179055968d168552928252808420948452938152838320815283832091835290815282822081528282209052208054600361ffff199091161763ffff00001916620c00001780825560ff60201b19166401000000008302179055506001600160a01b0386811660008181526007602081815260408084208887168552825280842082528084208f87168086529083528185208352818520835281852085805260019081018452828620805464ffff0000001990811663020000001761ffff60281b19908116650500000000001790925591875283872080548316630a0000001782166528000000000017905560028088528488208054630100000094169390931790911665020000000000179091558f881686529383528185208e881686528352818520958552948252808420958b168452948152848320938352928352838220909252919091208054600361ffff199091161763ffff00001916620d00001780825560ff60201b19166401000000008302179055506001600160a01b0388811660009081526007602081815260408084208c8616855282528084208b8616855282528084208a8616855282528084208e8616808652908352818520835281852085805260019081018452828620805464ffff00000019908116630a0000001761ffff60281b19908116651400000000001790925591875283872080546301000000908416811783166503000000000017909155600288528488208054909316171665040000000000179055868616855292825280842087861685528252808420948816845293815283832081528383209183529081528282209052208054600361ffff199091161763ffff00001916620e0000178082556009919060ff60201b19166401000000008302179055506001600160a01b039081166000908152600760209081526040808320948416835293815283822094831682529384528281208452828120999091168152978252808820825280882088805260019081019092528088208054630100000064ffff00000019918216811761ffff60281b1990811665030000000000908117909455948b52838b20805483168217861690931790925560028a5291909820805490911690971716651e0000000000179095555062003b5f98505050505050505050565b3390565b828054600181600116156101000203166002900490600052602060002090601f016020900481019282601f10620039e857805160ff191683800117855562003a18565b8280016001018555821562003a18579182015b8281111562003a18578251825591602001919060010190620039fb565b5062003a2692915062003a2a565b5090565b5b8082111562003a26576000815560010162003a2b565b600080600080600060a0868803121562003a59578081fd5b855162003a668162003b46565b8095505060208087015162003a7b8162003b46565b6040880151606089015191965094506001600160401b038082111562003a9f578384fd5b818901915089601f83011262003ab3578384fd5b81518181111562003ac2578485fd5b604051601f8201601f191681018501838111828210171562003ae2578687fd5b60405281815283820185018c101562003af9578586fd5b8592505b8183101562003b1c578383018501518184018601529184019162003afd565b8183111562003b2d57858583830101525b8096505050505050608086015190509295509295909350565b6001600160a01b038116811462003b5c57600080fd5b50565b6126bf8062003b6f6000396000f3fe608060405234801561001057600080fd5b506004361061018d5760003560e01c8063807f82f3116100e3578063b4b15b431161008c578063e68958da11610066578063e68958da14610304578063f2fde38b14610317578063f667526a1461032a5761018d565b8063b4b15b43146102bc578063c48c4472146102cf578063d7113e51146102f15761018d565b80639fd53f2b116100bd5780639fd53f2b1461028e578063af8f414e14610296578063b3085c16146102a95761018d565b8063807f82f3146102535780638da5cb5b14610273578063988b280c1461027b5761018d565b80634ea3871a11610145578063676c0d771161011f578063676c0d7714610230578063715018a6146102435780637ff9b5961461024b5761018d565b80634ea3871a1461020057806354fd4d501461021357806361e604dd146102285761018d565b80633fc017bf116101765780633fc017bf146101ba578063430bf08a146101e3578063498a4c2d146101eb5761018d565b80630913348f1461019257806324173597146101a7575b600080fd5b6101a56101a0366004611ecb565b61033d565b005b6101a56101b5366004612001565b61039c565b6101cd6101c8366004612031565b6103ff565b6040516101da919061229a565b60405180910390f35b6101cd61041d565b6101f3610431565b6040516101da9190612607565b6101a561020e366004611e93565b610437565b61021b610489565b6040516101da9190612610565b6101cd61048e565b6101a561023e366004612001565b61049d565b6101a56104e1565b6101f361056a565b610266610261366004611f66565b610570565b6040516101da91906125cd565b6101cd610586565b6101cd610289366004612031565b610595565b6101cd6105b0565b6101a56102a4366004611c73565b6105bf565b6101a56102b7366004611dac565b6109e8565b6101a56102ca366004611f82565b610b00565b6102e26102dd366004611bf2565b610b90565b6040516101da939291906125dc565b6101a56102ff366004611d08565b610be7565b6101a561031236600461204c565b610cc0565b6101a5610325366004611bd7565b610df5565b6101a5610338366004612001565b610eb5565b610345610f15565b6001600160a01b0316610356610586565b6001600160a01b0316146103855760405162461bcd60e51b815260040161037c906124f3565b60405180910390fd5b8051610398906005906020840190611adc565b5050565b6103a4610f15565b6001600160a01b03166103b5610586565b6001600160a01b0316146103db5760405162461bcd60e51b815260040161037c906124f3565b4381116103fa5760405162461bcd60e51b815260040161037c906124bc565b600355565b60ff166000908152600b60205260409020546001600160a01b031690565b60095461010090046001600160a01b031681565b60035481565b61043f610f15565b6001600160a01b0316610450610586565b6001600160a01b0316146104765760405162461bcd60e51b815260040161037c906124f3565b6009805460ff1916911515919091179055565b600381565b6001546001600160a01b031681565b6104a5610f15565b6001600160a01b03166104b6610586565b6001600160a01b0316146104dc5760405162461bcd60e51b815260040161037c906124f3565b600455565b6104e9610f15565b6001600160a01b03166104fa610586565b6001600160a01b0316146105205760405162461bcd60e51b815260040161037c906124f3565b600080546040516001600160a01b03909116907f8be0079c531659141344cd1fd0a4f28419497f9722a3daafe3b4186f6b6457e0908390a3600080546001600160a01b0319169055565b60045481565b60086020526000908152604090205461ffff1681565b6000546001600160a01b031690565b600b602052600090815260409020546001600160a01b031681565b6002546001600160a01b031681565b60095460ff1615156001146105e65760405162461bcd60e51b815260040161037c90612528565b60006105f0610f15565b6001600160a01b0389811660009081526007602090815260408083208c8516845282528083208b8516845282528083208a8516845282528083208985168452825280832093881683529290522080549192509062010000900461ffff166106695760405162461bcd60e51b815260040161037c90612337565b600354431161068a5760405162461bcd60e51b815260040161037c9061255f565b600454156106bc576009546004546002546106bc926001600160a01b0391821692869261010090920490911690610f19565b6001600160a01b038916156106f5576009546106f5906001600160a01b038b811691859161010090910416670de0b6b3a7640000610f19565b6001600160a01b0388161561072e5760095461072e906001600160a01b038a811691859161010090910416670de0b6b3a7640000610f19565b6001600160a01b0387161561076757600954610767906001600160a01b0389811691859161010090910416670de0b6b3a7640000610f19565b6001600160a01b038616156107a0576009546107a0906001600160a01b0388811691859161010090910416670de0b6b3a7640000610f19565b6001600160a01b038516156107d9576009546107d9906001600160a01b0387811691859161010090910416670de0b6b3a7640000610f19565b6001600160a01b0384161561081257600954610812906001600160a01b0386811691859161010090910416670de0b6b3a7640000610f19565b805462010000900461ffff166000908152600660209081526040918290208054835160026101006001841615026000190190921691909104601f810184900484028201840190945283815260609390928301828280156108b35780601f10610888576101008083540402835291602001916108b3565b820191906000526020600020905b81548152906001019060200180831161089657829003601f168201915b5050855493945050506201000090910461ffff16905060006108d58487610f9e565b6001546040517fcf0504740000000000000000000000000000000000000000000000000000000081529192506000916001600160a01b039091169063cf0504749061092a9089908890889088906004016122d2565b602060405180830381600087803b15801561094457600080fd5b505af1158015610958573d6000803e3d6000fd5b505050506040513d601f19601f8201168201806040525081019061097c9190612019565b905081811461099d5760405162461bcd60e51b815260040161037c90612428565b8261ffff1681876001600160a01b03167fbc6001cfe06d9841f1d11a60a0468bcdcb5552dc7d2c4d248bdeccc60ed1a97e60405160405180910390a450505050505050505050505050565b6109f0610f15565b6001600160a01b0316610a01610586565b6001600160a01b031614610a275760405162461bcd60e51b815260040161037c906124f3565b6001600160a01b039b8c1660009081526007602090815260408083209d8f1683529c81528c82209b8e1682529a8b528b8120998d168152988a528a8920978c16895296895289882095909a16875293875287862060ff938416875260010190965295909320805460ff19169584169590951762ffff00191661010061ffff958616021764ffff00000019166301000000918516919091021766ffff000000000019166501000000000093909516929092029390931767ff0000000000000019166701000000000000009390911692909202919091179055565b610b08610f15565b6001600160a01b0316610b19610586565b6001600160a01b031614610b3f5760405162461bcd60e51b815260040161037c906124f3565b60058282604051602001610b5593929190612161565b60408051601f1981840301815291815261ffff85166000908152600660209081529190208251610b8a93919290910190611adc565b50505050565b600760209081526000968752604080882082529587528587208152938652848620845291855283852083528452828420909152825290205461ffff8082169162010000810490911690640100000000900460ff1683565b610bef610f15565b6001600160a01b0316610c00610586565b6001600160a01b031614610c265760405162461bcd60e51b815260040161037c906124f3565b6001600160a01b0388811660009081526007602090815260408083208b8516845282528083208a85168452825280832089851684528252808320888516845282528083209387168352929052208054600361ffff199091161763ffff000019166201000061ffff8516021780825582919064ff000000001916640100000000836018811115610cb157fe5b02179055505050505050505050565b610cc8610f15565b6001600160a01b0316610cd9610586565b6001600160a01b031614610cff5760405162461bcd60e51b815260040161037c906124f3565b6001600160a01b03871615610d3a5760ff88166000908152600b6020526040902080546001600160a01b0319166001600160a01b0389161790555b6001600160a01b03851615610d755760ff86166000908152600b6020526040902080546001600160a01b0319166001600160a01b0387161790555b6001600160a01b03831615610db05760ff84166000908152600b6020526040902080546001600160a01b0319166001600160a01b0385161790555b6001600160a01b03811615610deb5760ff82166000908152600b6020526040902080546001600160a01b0319166001600160a01b0383161790555b5050505050505050565b610dfd610f15565b6001600160a01b0316610e0e610586565b6001600160a01b031614610e345760405162461bcd60e51b815260040161037c906124f3565b6001600160a01b038116610e5a5760405162461bcd60e51b815260040161037c906123cb565b600080546040516001600160a01b03808516939216917f8be0079c531659141344cd1fd0a4f28419497f9722a3daafe3b4186f6b6457e091a3600080546001600160a01b0319166001600160a01b0392909216919091179055565b610ebd610f15565b6001600160a01b0316610ece610586565b6001600160a01b031614610ef45760405162461bcd60e51b815260040161037c906124f3565b610f12610eff610f15565b6002546001600160a01b031690836115a8565b50565b3390565b610b8a846323b872dd60e01b858585604051602401610f3a939291906122ae565b60408051601f198184030181529190526020810180517bffffffffffffffffffffffffffffffffffffffffffffffffffffffff167fffffffff00000000000000000000000000000000000000000000000000000000909316929092179091526115cc565b60006006600a54118015610fbc57506006600a5481610fb957fe5b06155b610fcb57600a54600201610fd2565b6002600a54035b600a556040805181815260608181018352600092918260208201818036833701905050905060005b828410156114f75761100a611b5a565b5060ff80821660009081526001890160209081526040808320815160a0810183529054808616825261ffff6101008204811694830194909452630100000081048416928201839052650100000000008104909316606082018190526701000000000000009093049094166080850152919061108657600061108c565b82606001515b61ffff16905060008183146110ba57600a8054600101908190556110b3908484039061165b565b83016110bc565b825b9050836000015160300160f81b8689815181106110d557fe5b60200101906001600160f81b031916908160001a90535083516001989098019760ff16600214156111f75786886006011061111357505050506114f7565b606061113261112b866020015161ffff1660066116a6565b6003611801565b90508060008151811061114157fe5b602001015160f81c60f81b878a8151811061115857fe5b60200101906001600160f81b031916908160001a9053508060018151811061117c57fe5b602001015160f81c60f81b878a6001018151811061119657fe5b60200101906001600160f81b031916908160001a905350806002815181106111ba57fe5b602001015160f81c60f81b878a600201815181106111d457fe5b60200101906001600160f81b031916908160001a9053506003890198505061120a565b86886003011061120a57505050506114f7565b8061129257600360fc1b86898151811061122057fe5b60200101906001600160f81b031916908160001a905350600360fc1b86896001018151811061124b57fe5b60200101906001600160f81b031916908160001a905350600360fc1b86896002018151811061127657fe5b60200101906001600160f81b031916908160001a9053506114e4565b806064141561130257603160f81b8689815181106112ac57fe5b60200101906001600160f81b031916908160001a905350600360fc1b8689600101815181106112d757fe5b60200101906001600160f81b031916908160001a905350600360fc1b86896001018151811061127657fe5b60408051600380825281830190925282916060919060208201818036833701905050905060005b821561136f578151600a808504946001840193919006916030830160f81b918591811061135257fe5b60200101906001600160f81b031916908160001a90535050611329565b6063841115611434578160028151811061138557fe5b602001015160f81c60f81b898c8151811061139c57fe5b60200101906001600160f81b031916908160001a905350816001815181106113c057fe5b602001015160f81c60f81b898c600101815181106113da57fe5b60200101906001600160f81b031916908160001a905350816000815181106113fe57fe5b602001015160f81c60f81b898c6002018151811061141857fe5b60200101906001600160f81b031916908160001a9053506114e0565b600984111561144e57600360fc1b898c8151811061139c57fe5b600360fc1b898c8151811061145f57fe5b60200101906001600160f81b031916908160001a905350600360fc1b898c6001018151811061148a57fe5b60200101906001600160f81b031916908160001a905350816000815181106114ae57fe5b602001015160f81c60f81b898c600201815181106114c857fe5b60200101906001600160f81b031916908160001a9053505b5050505b5050506003949094019350600101610ffa565b865460609061151c906115159062010000900461ffff1660066116a6565b6005611801565b88549091506060906115509061154990640100000000900460ff16601881111561154257fe5b60036116a6565b6002611801565b905083606061156761112b61ffff8c16600a6116a6565b90506115978484848460405160200161158394939291906121da565b60405160208183030381529060405261189d565b985050505050505050505b92915050565b6115c78363a9059cbb60e01b8484604051602401610f3a92919061230b565b505050565b6060611621826040518060400160405280602081526020017f5361666542455032303a206c6f772d6c6576656c2063616c6c206661696c6564815250856001600160a01b031661191f9092919063ffffffff16565b8051909150156115c7578080602001905181019061163f9190611eaf565b6115c75760405162461bcd60e51b815260040161037c9061236e565b6000600182019150826001014244338560405160200161167e949392919061226d565b6040516020818303038152906040528051906020012060001c8161169e57fe5b069392505050565b6060826116cb57506040805180820190915260018152600360fc1b60208201526115a2565b60608260010167ffffffffffffffff811180156116e757600080fd5b506040519080825280601f01601f191660200182016040528015611712576020820181803683370190505b50905060005b841561175e578151600a808704966001840193919006916030830160f81b918591811061174157fe5b60200101906001600160f81b031916908160001a90535050611718565b60608167ffffffffffffffff8111801561177757600080fd5b506040519080825280601f01601f1916602001820160405280156117a2576020820181803683370190505b50905060005b828110156117f75783600182850303815181106117c157fe5b602001015160f81c60f81b8282815181106117d857fe5b60200101906001600160f81b031916908160001a9053506001016117a8565b5095945050505050565b815160609060ff8316811061181957839150506115a2565b8260ff1681600901101561182c57600080fd5b60408051808201909152600981527f30303030303030303000000000000000000000000000000000000000000000006020820152611872600060ff861684900383611938565b85604051602001611884929190612132565b6040516020818303038152906040529250505092915050565b600080805b83518110156119185760308482815181106118b957fe5b016020015160f81c108015906118e3575060398482815181106118d857fe5b016020015160f81c11155b156119105760308482815181106118f657fe5b602001015160f81c60f81b60f81c0360ff1682600a020191505b6001016118a2565b5092915050565b606061192e84846000856119dc565b90505b9392505050565b60608084840367ffffffffffffffff8111801561195457600080fd5b506040519080825280601f01601f19166020018201604052801561197f576020820181803683370190505b50905060005b8585038110156119d357838682018151811061199d57fe5b602001015160f81c60f81b8282815181106119b457fe5b60200101906001600160f81b031916908160001a905350600101611985565b50949350505050565b6060824710156119fe5760405162461bcd60e51b815260040161037c9061245f565b611a0785611a9d565b611a235760405162461bcd60e51b815260040161037c90612596565b60006060866001600160a01b03168587604051611a409190612116565b60006040518083038185875af1925050503d8060008114611a7d576040519150601f19603f3d011682016040523d82523d6000602084013e611a82565b606091505b5091509150611a92828286611aa3565b979650505050505050565b3b151590565b60608315611ab2575081611931565b825115611ac25782518084602001fd5b8160405162461bcd60e51b815260040161037c9190612324565b828054600181600116156101000203166002900490600052602060002090601f016020900481019282601f10611b1d57805160ff1916838001178555611b4a565b82800160010185558215611b4a579182015b82811115611b4a578251825591602001919060010190611b2f565b50611b56929150611b88565b5090565b6040805160a08101825260008082526020820181905291810182905260608101829052608081019190915290565b5b80821115611b565760008155600101611b89565b80356001600160a01b03811681146115a257600080fd5b803561ffff811681146115a257600080fd5b803560ff811681146115a257600080fd5b600060208284031215611be8578081fd5b6119318383611b9d565b60008060008060008060c08789031215611c0a578182fd5b8635611c1581612656565b95506020870135611c2581612656565b94506040870135611c3581612656565b93506060870135611c4581612656565b92506080870135611c5581612656565b915060a0870135611c6581612656565b809150509295509295509295565b600080600080600080600060e0888a031215611c8d578081fd5b8735611c9881612656565b96506020880135611ca881612656565b95506040880135611cb881612656565b94506060880135611cc881612656565b93506080880135611cd881612656565b925060a0880135611ce881612656565b915060c0880135611cf881612679565b8091505092959891949750929550565b600080600080600080600080610100898b031215611d24578081fd5b611d2e8a8a611b9d565b9750611d3d8a60208b01611b9d565b9650611d4c8a60408b01611b9d565b9550611d5b8a60608b01611b9d565b9450611d6a8a60808b01611b9d565b9350611d798a60a08b01611b9d565b9250611d888a60c08b01611bb4565b915060e089013560198110611d9b578182fd5b809150509295985092959890939650565b6000806000806000806000806000806000806101808d8f031215611dce578384fd5b611dd88e8e611b9d565b9b50611de78e60208f01611b9d565b9a50611df68e60408f01611b9d565b9950611e058e60608f01611b9d565b9850611e148e60808f01611b9d565b9750611e238e60a08f01611b9d565b9650611e328e60c08f01611bc6565b9550611e418e60e08f01611bc6565b9450611e518e6101008f01611bb4565b9350611e618e6101208f01611bb4565b9250611e718e6101408f01611bb4565b9150611e818e6101608f01611bc6565b90509295989b509295989b509295989b565b600060208284031215611ea4578081fd5b81356119318161266b565b600060208284031215611ec0578081fd5b81516119318161266b565b600060208284031215611edc578081fd5b813567ffffffffffffffff80821115611ef3578283fd5b818401915084601f830112611f06578283fd5b813581811115611f14578384fd5b604051601f8201601f191681016020018381118282101715611f34578586fd5b604052818152838201602001871015611f4b578485fd5b611f5c82602083016020870161261e565b9695505050505050565b600060208284031215611f77578081fd5b813561193181612679565b600080600060408486031215611f96578081fd5b611fa08585611bb4565b9250602084013567ffffffffffffffff80821115611fbc578283fd5b818601915086601f830112611fcf578283fd5b813581811115611fdd578384fd5b876020828501011115611fee578384fd5b6020830194508093505050509250925092565b600060208284031215612012578081fd5b5035919050565b60006020828403121561202a578081fd5b5051919050565b600060208284031215612042578081fd5b6119318383611bc6565b600080600080600080600080610100898b031215612068578182fd5b6120728a8a611bc6565b97506120818a60208b01611b9d565b96506120908a60408b01611bc6565b955061209f8a60608b01611b9d565b94506120ae8a60808b01611bc6565b93506120bd8a60a08b01611b9d565b92506120cc8a60c08b01611bc6565b91506120db8a60e08b01611b9d565b90509295985092959890939650565b6000815180845261210281602086016020860161262a565b601f01601f19169290920160200192915050565b6000825161212881846020870161262a565b9190910192915050565b6000835161214481846020880161262a565b83519083019061215881836020880161262a565b01949350505050565b60008085546001808216600081146121805760018114612197576121c6565b60ff198316865260028304607f16860193506121c6565b600283048986526020808720875b838110156121be5781548a8201529085019082016121a5565b505050860193505b505050838582379092019182525092915050565b6000603160f81b82527f30303200000000000000000000000000000000000000000000000000000000006001830152855161221c816004850160208a0161262a565b855190830190612233816004840160208a0161262a565b855191019061224981600484016020890161262a565b845191019061225f81600484016020880161262a565b016004019695505050505050565b938452602084019290925260601b6bffffffffffffffffffffffff19166040830152605482015260740190565b6001600160a01b0391909116815260200190565b6001600160a01b039384168152919092166020820152604081019190915260600190565b60006001600160a01b0386168252608060208301526122f460808301866120ea565b61ffff949094166040830152506060015292915050565b6001600160a01b03929092168252602082015260400190565b60006020825261193160208301846120ea565b6020808252600e908201527f556e6b6e6f776e20726563697065000000000000000000000000000000000000604082015260600190565b6020808252602a908201527f5361666542455032303a204245503230206f7065726174696f6e20646964206e60408201527f6f74207375636365656400000000000000000000000000000000000000000000606082015260800190565b60208082526026908201527f4f776e61626c653a206e6577206f776e657220697320746865207a65726f206160408201527f6464726573730000000000000000000000000000000000000000000000000000606082015260800190565b60208082526016908201527f4e6f74207375726520776861742068617070656e656400000000000000000000604082015260600190565b60208082526026908201527f416464726573733a20696e73756666696369656e742062616c616e636520666f60408201527f722063616c6c0000000000000000000000000000000000000000000000000000606082015260800190565b60208082526009908201527f546f6f2073686f72740000000000000000000000000000000000000000000000604082015260600190565b6020808252818101527f4f776e61626c653a2063616c6c6572206973206e6f7420746865206f776e6572604082015260600190565b60208082526010908201527f4d696e74696e672064697361626c656400000000000000000000000000000000604082015260600190565b60208082526009908201527f546f6f206561726c790000000000000000000000000000000000000000000000604082015260600190565b6020808252601d908201527f416464726573733a2063616c6c20746f206e6f6e2d636f6e7472616374000000604082015260600190565b61ffff91909116815260200190565b61ffff84811682528316602082015260608101601983106125f957fe5b826040830152949350505050565b90815260200190565b60ff91909116815260200190565b82818337506000910152565b60005b8381101561264557818101518382015260200161262d565b83811115610b8a5750506000910152565b6001600160a01b0381168114610f1257600080fd5b8015158114610f1257600080fd5b61ffff81168114610f1257600080fdfea2646970667358221220514fb3d2ac1bc373f472c68f88d32b8e549db3e27e7b80796777cc324043c74964736f6c634300060c0033",
  "linkReferences": {},
  "deployedLinkReferences": {}
}