{
  "_format": "hh-sol-artifact-1",
  "contractName": "ArcaneItemLibraryV2",
  "sourceName": "src/ArcaneItemLibraryV2.sol",
  "abi": [
    {
      "inputs": [
        {
          "internalType": "uint256",
          "name": "_tokenId",
          "type": "uint256"
        }
      ],
      "name": "getItem",
      "outputs": [
        {
          "components": [
            {
              "internalType": "uint16",
              "name": "version",
              "type": "uint16"
            },
            {
              "internalType": "uint16",
              "name": "itemId",
              "type": "uint16"
            },
            {
              "internalType": "enum ArcaneItemLibraryV2.ArcaneItemType",
              "name": "itemType",
              "type": "ArcaneItemLibraryV2.ArcaneItemType"
            },
            {
              "components": [
                {
                  "internalType": "uint8",
                  "name": "variant",
                  "type": "uint8"
                },
                {
                  "internalType": "uint16",
                  "name": "attributeId",
                  "type": "uint16"
                },
                {
                  "internalType": "uint16",
                  "name": "value",
                  "type": "uint16"
                }
              ],
              "internalType": "struct ArcaneItemLibraryV2.ArcaneItemModifier[]",
              "name": "mods",
              "type": "tuple[]"
            }
          ],
          "internalType": "struct ArcaneItemLibraryV2.ArcaneItem",
          "name": "",
          "type": "tuple"
        }
      ],
      "stateMutability": "view",
      "type": "function"
    },
    {
      "inputs": [
        {
          "internalType": "uint256",
          "name": "begin",
          "type": "uint256"
        },
        {
          "internalType": "uint256",
          "name": "end",
          "type": "uint256"
        },
        {
          "internalType": "string",
          "name": "text",
          "type": "string"
        }
      ],
      "name": "getSlice",
      "outputs": [
        {
          "internalType": "string",
          "name": "",
          "type": "string"
        }
      ],
      "stateMutability": "pure",
      "type": "function"
    }
  ],
  "bytecode": "0x61147e610026600b82828239805160001a60731461001957fe5b30600052607381538281f3fe73000000000000000000000000000000000000000030146080604052600436106100405760003560e01c80633129e773146100455780637f60b20a1461006e575b600080fd5b6100586100533660046111a8565b61008e565b6040516100659190611368565b60405180910390f35b61008161007c3660046111c0565b610c68565b60405161006591906112d2565b610096611162565b6100d56040518060400160405280601781526020017f5b4974656d4c6962726172795d20546f6b656e2049443a00000000000000000081525083610d0c565b60606100e28360c8610d6e565b905060006100fb6100f66001600485610c68565b610ee7565b9050600061010f6100f66004600986610c68565b90506101536040518060400160405280601681526020017f5b4974656d4c6962726172795d2056657273696f6e3a000000000000000000008152508360ff16610d0c565b6101966040518060400160405280601181526020017f5b4974656d4c6962726172795d2049443a0000000000000000000000000000008152508261ffff16610d0c565b6000606060008460ff16600114156101b0575060096101c0565b8460ff16600214156101c05750600b5b8361ffff1660011415610400576040805160038082526080820190925290816020015b6101eb611188565b8152602001906001900390816101e35790505091506001925060405180606001604052806102206100f684856001018b610c68565b60ff168152602001600161ffff1681526020016102476100f684600101856004018b610c68565b61ffff168152508260008151811061025b57fe5b60200260200101819052506102b7604051806040016040528060138152602001722da4ba32b6a634b13930b93cae9026b7b2189d60691b815250836000815181106102a257fe5b60200260200101516040015161ffff16610d0c565b60405180606001604052806102d66100f684600401856005018b610c68565b60ff168152600260208201526040016102f96100f660058501600886018b610c68565b61ffff168152508260018151811061030d57fe5b6020026020010181905250610354604051806040016040528060138152602001722da4ba32b6a634b13930b93cae9026b7b2191d60691b815250836001815181106102a257fe5b60405180606001604052806103736100f684600801856009018b610c68565b60ff168152600360208201526040016103966100f660098501600c86018b610c68565b61ffff16815250826002815181106103aa57fe5b60200260200101819052506103fb6040518060400160405280601381526020017f5b4974656d4c6962726172795d204d6f64333a00000000000000000000000000815250836002815181106102a257fe5b610c2b565b8361ffff16600214156105c1576040805160038082526080820190925290816020015b61042b611188565b8152602001906001900390816104235790505091506001925060405180606001604052806104606100f684856001018b610c68565b60ff168152602001600161ffff1681526020016104876100f684600101856004018b610c68565b61ffff168152508260008151811061049b57fe5b60200260200101819052506104e2604051806040016040528060138152602001722da4ba32b6a634b13930b93cae9026b7b2189d60691b815250836000815181106102a257fe5b60405180606001604052806105016100f684600401856005018b610c68565b60ff168152600460208201526040016105246100f660058501600886018b610c68565b61ffff168152508260018151811061053857fe5b602002602001018190525061057f604051806040016040528060138152602001722da4ba32b6a634b13930b93cae9026b7b2191d60691b815250836001815181106102a257fe5b604051806060016040528061059e6100f684600801856009018b610c68565b60ff168152600560208201526040016103966100f660098501600c86018b610c68565b8361ffff1660031415610782576040805160038082526080820190925290816020015b6105ec611188565b8152602001906001900390816105e45790505091506005925060405180606001604052806106216100f684856001018b610c68565b60ff168152602001600161ffff1681526020016106486100f684600101856004018b610c68565b61ffff168152508260008151811061065c57fe5b60200260200101819052506106a3604051806040016040528060138152602001722da4ba32b6a634b13930b93cae9026b7b2189d60691b815250836000815181106102a257fe5b60405180606001604052806106c26100f684600401856005018b610c68565b60ff168152600660208201526040016106e56100f660058501600886018b610c68565b61ffff16815250826001815181106106f957fe5b6020026020010181905250610740604051806040016040528060138152602001722da4ba32b6a634b13930b93cae9026b7b2191d60691b815250836001815181106102a257fe5b604051806060016040528061075f6100f684600801856009018b610c68565b60ff168152600760208201526040016103966100f660098501600c86018b610c68565b8361ffff1660041415610901576040805160028082526060820190925290816020015b6107ad611188565b8152602001906001900390816107a55790505091506012925060405180606001604052806107e26100f684856001018b610c68565b60ff168152602001600161ffff1681526020016108096100f684600101856004018b610c68565b61ffff168152508260008151811061081d57fe5b6020026020010181905250610864604051806040016040528060138152602001722da4ba32b6a634b13930b93cae9026b7b2189d60691b815250836000815181106102a257fe5b60405180606001604052806108836100f684600401856005018b610c68565b60ff168152600260208201526040016108a66100f660058501600886018b610c68565b61ffff16815250826001815181106108ba57fe5b60200260200101819052506103fb604051806040016040528060138152602001722da4ba32b6a634b13930b93cae9026b7b2191d60691b815250836001815181106102a257fe5b6109116100f66009600b89610c68565b60ff16601881111561091f57fe5b925061096e6040518060400160405280601381526020017f5b4974656d4c6962726172795d20547970653a0000000000000000000000000081525084601881111561096657fe5b60ff16610d0c565b855160408051600d8082526101c082019092529091600419019060009083816020015b610999611188565b8152602001906001900390816109915790505094505b81841080156109bd57508281105b15610c275760006109d56100f686876001018d610c68565b90508060ff1660021415610b0f57828560070111156109f45750610c27565b610a39604051806040016040528060128152602001712da4ba32b6a634b13930b93cae9026b7b21d60711b81525083610a3488600101896007018f610c68565b610ef4565b610a438584610f59565b6000610a596100f687600101886004018e610c68565b90506000610a716100f688600401896007018f610c68565b905060405180606001604052808460ff1681526020018361ffff1681526020018261ffff16815250888581518110610aa557fe5b60200260200101819052508380600101945050600787019650610af2604051806040016040528060128152602001712da4ba32b6a634b13930b93cae9026b7b21d60711b81525085610d0c565b610b088261ffff168460ff168361ffff16610fb7565b5050610c21565b60ff81161580610b2257508060ff166001145b15610c215782856004011115610b385750610c27565b610b78604051806040016040528060128152602001712da4ba32b6a634b13930b93cae9026b7b21d60711b81525083610a3488600101896004018f610c68565b610b828584610f59565b6000610b986100f687600101886004018e610c68565b905060405180606001604052808360ff168152602001600061ffff1681526020018261ffff16815250878481518110610bcd57fe5b60200260200101819052508280600101935050600486019550610c1f604051806040016040528060128152602001712da4ba32b6a634b13930b93cae9026b7b21d60711b815250848361ffff16611017565b505b506109af565b5050505b6040805160808101825260ff8716815261ffff86166020820152908101846018811115610c5457fe5b815260200192909252509695505050505050565b60608084840367ffffffffffffffff81118015610c8457600080fd5b506040519080825280601f01601f191660200182016040528015610caf576020820181803683370190505b50905060005b858503811015610d03578386820181518110610ccd57fe5b602001015160f81c60f81b828281518110610ce457fe5b60200101906001600160f81b031916908160001a905350600101610cb5565b50949350505050565b610d6a8282604051602401610d229291906112ec565b60408051601f198184030181529190526020810180516001600160e01b03167f9710a9d000000000000000000000000000000000000000000000000000000000179052611073565b5050565b606082610daf575060408051808201909152600181527f30000000000000000000000000000000000000000000000000000000000000006020820152610ee1565b60608260010167ffffffffffffffff81118015610dcb57600080fd5b506040519080825280601f01601f191660200182016040528015610df6576020820181803683370190505b50905060005b8415610e42578151600a808704966001840193919006916030830160f81b9185918110610e2557fe5b60200101906001600160f81b031916908160001a90535050610dfc565b60608167ffffffffffffffff81118015610e5b57600080fd5b506040519080825280601f01601f191660200182016040528015610e86576020820181803683370190505b50905060005b82811015610edb578360018285030381518110610ea557fe5b602001015160f81c60f81b828281518110610ebc57fe5b60200101906001600160f81b031916908160001a905350600101610e8c565b50925050505b92915050565b6000610ee1826000611094565b610f54838383604051602401610f0c9392919061130e565b60408051601f198184030181529190526020810180516001600160e01b03167fa3f5c73900000000000000000000000000000000000000000000000000000000179052611073565b505050565b610d6a8282604051602401610f6f9291906113f1565b60408051601f198184030181529190526020810180516001600160e01b03167f6c0f698000000000000000000000000000000000000000000000000000000000179052611073565b610f54838383604051602401610fcf939291906113ff565b60408051601f198184030181529190526020810180516001600160e01b03167fe7820a7400000000000000000000000000000000000000000000000000000000179052611073565b610f5483838360405160240161102f93929190611343565b60408051601f198184030181529190526020810180516001600160e01b03167f969cdd03000000000000000000000000000000000000000000000000000000001790525b80516a636f6e736f6c652e6c6f67602083016000808483855afa5050505050565b6000828180805b835181101561114a5760308482815181106110b257fe5b016020015160f81c108015906110dc575060398482815181106110d157fe5b016020015160f81c11155b156111205781156110f957856110f15761114a565b600019909501945b600a83029250603084828151811061110d57fe5b016020015160f81c039290920191611142565b83818151811061112c57fe5b60209101015160f81c602e141561114257600191505b60010161109b565b508415610d035784600a0a8202915050949350505050565b604080516080810182526000808252602082018190529181019190915260608082015290565b604080516060810182526000808252602082018190529181019190915290565b6000602082840312156111b9578081fd5b5035919050565b6000806000606084860312156111d4578182fd5b8335925060208401359150604084013567ffffffffffffffff808211156111f9578283fd5b818601915086601f83011261120c578283fd5b81358181111561121a578384fd5b61122d601f8201601f1916602001611415565b9150808252876020828501011115611243578384fd5b61125481602084016020860161143c565b5080925050509250925092565b60008151808452815b818110156112865760208185018101518683018201520161126a565b818111156112975782602083870101525b50601f01601f19169290920160200192915050565b805160ff16825260208082015161ffff9081169184019190915260409182015116910152565b6000602082526112e56020830184611261565b9392505050565b6000604082526112ff6040830185611261565b90508260208301529392505050565b6000606082526113216060830186611261565b84602084015282810360408401526113398185611261565b9695505050505050565b6000606082526113566060830186611261565b60208301949094525060400152919050565b6000602080835260a0830161ffff8086511683860152808387015116604086015250604085015160606019821061139b57fe5b858101919091528581015160808087015280519283905283019184919060c08701905b808410156113e5576113d18286516112ac565b9385019360019390930192908201906113be565b50979650505050505050565b918252602082015260400190565b9283526020830191909152604082015260600190565b60405181810167ffffffffffffffff8111828210171561143457600080fd5b604052919050565b8281833750600091015256fea264697066735822122006276a9d01551b1ae3029fc952402a151b6f16d24758c52fbb8f8b64b4dcde8664736f6c634300060c0033",
  "linkReferences": {},
  "deployedLinkReferences": {}
}