{
  "_format": "hh-sol-artifact-1",
  "contractName": "ArcaneTraderV1",
  "sourceName": "src/ArcaneTraderV1.sol",
  "abi": [
    {
      "inputs": [
        {
          "internalType": "address",
          "name": "_itemsAddress",
          "type": "address"
        }
      ],
      "stateMutability": "nonpayable",
      "type": "constructor"
    },
    {
      "anonymous": false,
      "inputs": [
        {
          "indexed": true,
          "internalType": "address",
          "name": "seller",
          "type": "address"
        },
        {
          "indexed": true,
          "internalType": "address",
          "name": "buyer",
          "type": "address"
        },
        {
          "indexed": false,
          "internalType": "uint256",
          "name": "tokenId",
          "type": "uint256"
        },
        {
          "indexed": false,
          "internalType": "uint256",
          "name": "price",
          "type": "uint256"
        }
      ],
      "name": "Buy",
      "type": "event"
    },
    {
      "anonymous": false,
      "inputs": [
        {
          "indexed": true,
          "internalType": "address",
          "name": "seller",
          "type": "address"
        },
        {
          "indexed": false,
          "internalType": "uint256",
          "name": "tokenId",
          "type": "uint256"
        }
      ],
      "name": "Delist",
      "type": "event"
    },
    {
      "anonymous": false,
      "inputs": [
        {
          "indexed": true,
          "internalType": "address",
          "name": "seller",
          "type": "address"
        },
        {
          "indexed": true,
          "internalType": "address",
          "name": "buyer",
          "type": "address"
        },
        {
          "indexed": false,
          "internalType": "uint256",
          "name": "tokenId",
          "type": "uint256"
        },
        {
          "indexed": false,
          "internalType": "uint256",
          "name": "price",
          "type": "uint256"
        }
      ],
      "name": "List",
      "type": "event"
    },
    {
      "anonymous": false,
      "inputs": [
        {
          "indexed": true,
          "internalType": "address",
          "name": "user",
          "type": "address"
        },
        {
          "indexed": true,
          "internalType": "address",
          "name": "seller",
          "type": "address"
        },
        {
          "indexed": false,
          "internalType": "uint256",
          "name": "tokenId",
          "type": "uint256"
        }
      ],
      "name": "Recover",
      "type": "event"
    },
    {
      "anonymous": false,
      "inputs": [
        {
          "indexed": true,
          "internalType": "bytes32",
          "name": "role",
          "type": "bytes32"
        },
        {
          "indexed": true,
          "internalType": "bytes32",
          "name": "previousAdminRole",
          "type": "bytes32"
        },
        {
          "indexed": true,
          "internalType": "bytes32",
          "name": "newAdminRole",
          "type": "bytes32"
        }
      ],
      "name": "RoleAdminChanged",
      "type": "event"
    },
    {
      "anonymous": false,
      "inputs": [
        {
          "indexed": true,
          "internalType": "bytes32",
          "name": "role",
          "type": "bytes32"
        },
        {
          "indexed": true,
          "internalType": "address",
          "name": "account",
          "type": "address"
        },
        {
          "indexed": true,
          "internalType": "address",
          "name": "sender",
          "type": "address"
        }
      ],
      "name": "RoleGranted",
      "type": "event"
    },
    {
      "anonymous": false,
      "inputs": [
        {
          "indexed": true,
          "internalType": "bytes32",
          "name": "role",
          "type": "bytes32"
        },
        {
          "indexed": true,
          "internalType": "address",
          "name": "account",
          "type": "address"
        },
        {
          "indexed": true,
          "internalType": "address",
          "name": "sender",
          "type": "address"
        }
      ],
      "name": "RoleRevoked",
      "type": "event"
    },
    {
      "anonymous": false,
      "inputs": [
        {
          "indexed": true,
          "internalType": "address",
          "name": "seller",
          "type": "address"
        },
        {
          "indexed": true,
          "internalType": "address",
          "name": "buyer",
          "type": "address"
        },
        {
          "indexed": false,
          "internalType": "uint256",
          "name": "tokenId",
          "type": "uint256"
        },
        {
          "indexed": false,
          "internalType": "uint256",
          "name": "price",
          "type": "uint256"
        }
      ],
      "name": "Update",
      "type": "event"
    },
    {
      "inputs": [],
      "name": "DEFAULT_ADMIN_ROLE",
      "outputs": [
        {
          "internalType": "bytes32",
          "name": "",
          "type": "bytes32"
        }
      ],
      "stateMutability": "view",
      "type": "function"
    },
    {
      "inputs": [],
      "name": "NFT_ROLE",
      "outputs": [
        {
          "internalType": "bytes32",
          "name": "",
          "type": "bytes32"
        }
      ],
      "stateMutability": "view",
      "type": "function"
    },
    {
      "inputs": [
        {
          "internalType": "address payable",
          "name": "_seller",
          "type": "address"
        },
        {
          "internalType": "uint256",
          "name": "_tokenId",
          "type": "uint256"
        }
      ],
      "name": "buy",
      "outputs": [],
      "stateMutability": "payable",
      "type": "function"
    },
    {
      "inputs": [
        {
          "internalType": "uint256",
          "name": "_tokenId",
          "type": "uint256"
        }
      ],
      "name": "delist",
      "outputs": [],
      "stateMutability": "nonpayable",
      "type": "function"
    },
    {
      "inputs": [
        {
          "internalType": "bytes32",
          "name": "role",
          "type": "bytes32"
        }
      ],
      "name": "getRoleAdmin",
      "outputs": [
        {
          "internalType": "bytes32",
          "name": "",
          "type": "bytes32"
        }
      ],
      "stateMutability": "view",
      "type": "function"
    },
    {
      "inputs": [
        {
          "internalType": "bytes32",
          "name": "role",
          "type": "bytes32"
        },
        {
          "internalType": "uint256",
          "name": "index",
          "type": "uint256"
        }
      ],
      "name": "getRoleMember",
      "outputs": [
        {
          "internalType": "address",
          "name": "",
          "type": "address"
        }
      ],
      "stateMutability": "view",
      "type": "function"
    },
    {
      "inputs": [
        {
          "internalType": "bytes32",
          "name": "role",
          "type": "bytes32"
        }
      ],
      "name": "getRoleMemberCount",
      "outputs": [
        {
          "internalType": "uint256",
          "name": "",
          "type": "uint256"
        }
      ],
      "stateMutability": "view",
      "type": "function"
    },
    {
      "inputs": [
        {
          "internalType": "bytes32",
          "name": "role",
          "type": "bytes32"
        },
        {
          "internalType": "address",
          "name": "account",
          "type": "address"
        }
      ],
      "name": "grantRole",
      "outputs": [],
      "stateMutability": "nonpayable",
      "type": "function"
    },
    {
      "inputs": [
        {
          "internalType": "bytes32",
          "name": "role",
          "type": "bytes32"
        },
        {
          "internalType": "address",
          "name": "account",
          "type": "address"
        }
      ],
      "name": "hasRole",
      "outputs": [
        {
          "internalType": "bool",
          "name": "",
          "type": "bool"
        }
      ],
      "stateMutability": "view",
      "type": "function"
    },
    {
      "inputs": [],
      "name": "isEnabled",
      "outputs": [
        {
          "internalType": "bool",
          "name": "",
          "type": "bool"
        }
      ],
      "stateMutability": "view",
      "type": "function"
    },
    {
      "inputs": [],
      "name": "itemsAddress",
      "outputs": [
        {
          "internalType": "address",
          "name": "",
          "type": "address"
        }
      ],
      "stateMutability": "view",
      "type": "function"
    },
    {
      "inputs": [
        {
          "internalType": "address",
          "name": "_buyer",
          "type": "address"
        },
        {
          "internalType": "uint256",
          "name": "_tokenId",
          "type": "uint256"
        },
        {
          "internalType": "uint256",
          "name": "_price",
          "type": "uint256"
        }
      ],
      "name": "list",
      "outputs": [],
      "stateMutability": "nonpayable",
      "type": "function"
    },
    {
      "inputs": [
        {
          "internalType": "address",
          "name": "",
          "type": "address"
        },
        {
          "internalType": "address",
          "name": "",
          "type": "address"
        },
        {
          "internalType": "uint256",
          "name": "",
          "type": "uint256"
        },
        {
          "internalType": "bytes",
          "name": "",
          "type": "bytes"
        }
      ],
      "name": "onERC721Received",
      "outputs": [
        {
          "internalType": "bytes4",
          "name": "",
          "type": "bytes4"
        }
      ],
      "stateMutability": "nonpayable",
      "type": "function"
    },
    {
      "inputs": [
        {
          "internalType": "address",
          "name": "_seller",
          "type": "address"
        },
        {
          "internalType": "uint256",
          "name": "_tokenId",
          "type": "uint256"
        }
      ],
      "name": "recover",
      "outputs": [],
      "stateMutability": "nonpayable",
      "type": "function"
    },
    {
      "inputs": [
        {
          "internalType": "bytes32",
          "name": "role",
          "type": "bytes32"
        },
        {
          "internalType": "address",
          "name": "account",
          "type": "address"
        }
      ],
      "name": "renounceRole",
      "outputs": [],
      "stateMutability": "nonpayable",
      "type": "function"
    },
    {
      "inputs": [
        {
          "internalType": "bytes32",
          "name": "role",
          "type": "bytes32"
        },
        {
          "internalType": "address",
          "name": "account",
          "type": "address"
        }
      ],
      "name": "revokeRole",
      "outputs": [],
      "stateMutability": "nonpayable",
      "type": "function"
    },
    {
      "inputs": [
        {
          "internalType": "bool",
          "name": "_enabled",
          "type": "bool"
        }
      ],
      "name": "setEnabled",
      "outputs": [],
      "stateMutability": "nonpayable",
      "type": "function"
    },
    {
      "inputs": [
        {
          "internalType": "address",
          "name": "_userAddress",
          "type": "address"
        },
        {
          "internalType": "uint256",
          "name": "_tokenId",
          "type": "uint256"
        }
      ],
      "name": "store",
      "outputs": [],
      "stateMutability": "nonpayable",
      "type": "function"
    },
    {
      "inputs": [
        {
          "internalType": "address",
          "name": "",
          "type": "address"
        },
        {
          "internalType": "uint256",
          "name": "",
          "type": "uint256"
        }
      ],
      "name": "tradeBuyer",
      "outputs": [
        {
          "internalType": "address",
          "name": "",
          "type": "address"
        }
      ],
      "stateMutability": "view",
      "type": "function"
    },
    {
      "inputs": [
        {
          "internalType": "address",
          "name": "",
          "type": "address"
        },
        {
          "internalType": "uint256",
          "name": "",
          "type": "uint256"
        }
      ],
      "name": "tradePrice",
      "outputs": [
        {
          "internalType": "uint256",
          "name": "",
          "type": "uint256"
        }
      ],
      "stateMutability": "view",
      "type": "function"
    },
    {
      "inputs": [
        {
          "internalType": "address",
          "name": "_userAddress",
          "type": "address"
        },
        {
          "internalType": "uint256",
          "name": "_tokenId",
          "type": "uint256"
        }
      ],
      "name": "unstore",
      "outputs": [],
      "stateMutability": "nonpayable",
      "type": "function"
    },
    {
      "inputs": [
        {
          "internalType": "address",
          "name": "_buyer",
          "type": "address"
        },
        {
          "internalType": "uint256",
          "name": "_tokenId",
          "type": "uint256"
        },
        {
          "internalType": "uint256",
          "name": "_price",
          "type": "uint256"
        }
      ],
      "name": "update",
      "outputs": [],
      "stateMutability": "nonpayable",
      "type": "function"
    }
  ],
  "bytecode": "0x60806040526002805460ff60a01b1916600160a01b1790553480156200002457600080fd5b506040516200273638038062002736833981810160405260208110156200004a57600080fd5b505160018055600280546001600160a01b0319166001600160a01b0383161790556200008160006200007b62000088565b6200008c565b506200019c565b3390565b6200009882826200009c565b5050565b600082815260208181526040909120620000c191839062001d4c62000115821b17901c565b156200009857620000d162000088565b6001600160a01b0316816001600160a01b0316837f2f8788117e7eff1d82e926ec794901d17c78024a50270940304540a733656f0d60405160405180910390a45050565b60006200012c836001600160a01b03841662000135565b90505b92915050565b600062000143838362000184565b6200017b575081546001818101845560008481526020808220909301849055845484825282860190935260409020919091556200012f565b5060006200012f565b60009081526001919091016020526040902054151590565b61258a80620001ac6000396000f3fe6080604052600436106101755760003560e01c8063964bc33f116100cb578063cce7ec131161007f578063dda342bb11610059578063dda342bb14610612578063ddf0d7ed14610651578063f684f33c1461068a57610175565b8063cce7ec131461056e578063d09b6d431461059a578063d547741f146105d957610175565b8063a271ced2116100b0578063a271ced2146104f6578063c1f57bdb1461052f578063ca15c8731461054457610175565b8063964bc33f146104b7578063a217fddf146104e157610175565b80635705ae431161012d5780637eacaa66116101075780637eacaa66146104155780639010d07c1461044e57806391d148541461047e57610175565b80635705ae431461035e5780635c8d3e1d146103975780636aa633b6146103ec57610175565b80632f2ff15d1161015e5780632f2ff15d146102be578063328d8f72146102f957806336568abe1461032557610175565b8063150b7a021461017a578063248a9ca314610282575b600080fd5b34801561018657600080fd5b5061024d6004803603608081101561019d57600080fd5b6001600160a01b038235811692602081013590911691604082013591908101906080810160608201356401000000008111156101d857600080fd5b8201836020820111156101ea57600080fd5b8035906020019184600183028401116401000000008311171561020c57600080fd5b91908080601f01602080910402602001604051908101604052809392919081815260200183838082843760009201919091525092955061069f945050505050565b604080517fffffffff000000000000000000000000000000000000000000000000000000009092168252519081900360200190f35b34801561028e57600080fd5b506102ac600480360360208110156102a557600080fd5b50356106c8565b60408051918252519081900360200190f35b3480156102ca57600080fd5b506102f7600480360360408110156102e157600080fd5b50803590602001356001600160a01b03166106dd565b005b34801561030557600080fd5b506102f76004803603602081101561031c57600080fd5b50351515610749565b34801561033157600080fd5b506102f76004803603604081101561034857600080fd5b50803590602001356001600160a01b03166107cc565b34801561036a57600080fd5b506102f76004803603604081101561038157600080fd5b506001600160a01b03813516906020013561082d565b3480156103a357600080fd5b506103d0600480360360408110156103ba57600080fd5b506001600160a01b038135169060200135610a02565b604080516001600160a01b039092168252519081900360200190f35b3480156103f857600080fd5b50610401610a28565b604080519115158252519081900360200190f35b34801561042157600080fd5b506102ac6004803603604081101561043857600080fd5b506001600160a01b038135169060200135610a38565b34801561045a57600080fd5b506103d06004803603604081101561047157600080fd5b5080359060200135610a55565b34801561048a57600080fd5b50610401600480360360408110156104a157600080fd5b50803590602001356001600160a01b0316610a76565b3480156104c357600080fd5b506102f7600480360360208110156104da57600080fd5b5035610a8e565b3480156104ed57600080fd5b506102ac610d08565b34801561050257600080fd5b506102f76004803603604081101561051957600080fd5b506001600160a01b038135169060200135610d0d565b34801561053b57600080fd5b506103d0610df4565b34801561055057600080fd5b506102ac6004803603602081101561056757600080fd5b5035610e03565b6102f76004803603604081101561058457600080fd5b506001600160a01b038135169060200135610e1a565b3480156105a657600080fd5b506102f7600480360360608110156105bd57600080fd5b506001600160a01b0381351690602081013590604001356113db565b3480156105e557600080fd5b506102f7600480360360408110156105fc57600080fd5b50803590602001356001600160a01b03166115b2565b34801561061e57600080fd5b506102f76004803603606081101561063557600080fd5b506001600160a01b03813516906020810135906040013561160b565b34801561065d57600080fd5b506102f76004803603604081101561067457600080fd5b506001600160a01b038135169060200135611c5e565b34801561069657600080fd5b506102ac611d28565b7f150b7a0200000000000000000000000000000000000000000000000000000000949350505050565b60009081526020819052604090206002015490565b600082815260208190526040902060020154610700906106fb611d61565b610a76565b61073b5760405162461bcd60e51b815260040180806020018281038252602f8152602001806124c7602f913960400191505060405180910390fd5b6107458282611d65565b5050565b61075660006106fb611d61565b610793576040805162461bcd60e51b81526020600482015260096024820152682737ba1037bbb732b960b91b604482015290519081900360640190fd5b60028054911515600160a01b027fffffffffffffffffffffff00ffffffffffffffffffffffffffffffffffffffff909216919091179055565b6107d4611d61565b6001600160a01b0316816001600160a01b0316146108235760405162461bcd60e51b815260040180806020018281038252602f815260200180612526602f913960400191505060405180910390fd5b6107458282611dce565b61083a60006106fb611d61565b610877576040805162461bcd60e51b81526020600482015260096024820152682737ba1037bbb732b960b91b604482015290519081900360640190fd5b6001600160a01b03828116600090815260036020908152604080832085845290915290205416156108e4576040805162461bcd60e51b8152602060048201526012602482015271151c98591948191bd95cdb9d08195e1a5cdd60721b604482015290519081900360640190fd5b6001600160a01b038083166000818152600360209081526040808320868452825280832080546001600160a01b03191690559282526004815282822085835290529081205560025416806342842e0e3061093c611d61565b856040518463ffffffff1660e01b815260040180846001600160a01b03168152602001836001600160a01b031681526020018281526020019350505050600060405180830381600087803b15801561099357600080fd5b505af11580156109a7573d6000803e3d6000fd5b50505050826001600160a01b03166109bd611d61565b6001600160a01b03167ff6891c84a6c6af32a6d052172a8acc4c631b1d5057ffa2bc1da268b6938ea2da846040518082815260200191505060405180910390a3505050565b60036020908152600092835260408084209091529082529020546001600160a01b031681565b600254600160a01b900460ff1681565b600460209081526000928352604080842090915290825290205481565b6000828152602081905260408120610a6d9083611e37565b90505b92915050565b6000828152602081905260408120610a6d9083611e43565b600254600160a01b900460ff16610ade576040805162461bcd60e51b815260206004820152600f60248201526e141d589b1a58c8191a5cd8589b1959608a1b604482015290519081900360640190fd5b60026001541415610b36576040805162461bcd60e51b815260206004820152601f60248201527f5265656e7472616e637947756172643a207265656e7472616e742063616c6c00604482015290519081900360640190fd5b60026001556000610b45611d61565b9050610b746040518060400160405280600c81526020016b19195b1a5cdd0a0a48195b9960a21b815250611e58565b6001600160a01b03818116600090815260036020908152604080832086845290915290205416610be0576040805162461bcd60e51b8152602060048201526012602482015271151c98591948191bd95cdb9d08195e1a5cdd60721b604482015290519081900360640190fd5b6001600160a01b038082166000818152600360209081526040808320878452825280832080546001600160a01b031916905583835260048083528184208885529092528083208390556002548151632142170760e11b8152309381019390935260248301949094526044820187905251929093169283926342842e0e9260648084019391929182900301818387803b158015610c7b57600080fd5b505af1158015610c8f573d6000803e3d6000fd5b50505050610cc06040518060400160405280600c81526020016b19195b1a5cdd0a0a48195b9960a21b815250611e58565b6040805184815290516001600160a01b038416917f8fcc1d45240b67aa8f5859c01c295e240be99a9d5e4c11873bb82cf40be7533c919081900360200190a250506001805550565b600081565b610d397f8736816fdbcc15d6cc3f6dcf60e42b0ef33eb02281d312c807a38b4ad09190c06106fb611d61565b610d79576040805162461bcd60e51b815260206004820152600c60248201526b4e6f74204e465420726f6c6560a01b604482015290519081900360640190fd5b60025460408051632142170760e11b81526001600160a01b038581166004830152306024830152604482018590529151919092169182916342842e0e9160648082019260009290919082900301818387803b158015610dd757600080fd5b505af1158015610deb573d6000803e3d6000fd5b50505050505050565b6002546001600160a01b031681565b6000818152602081905260408120610a7090611f1a565b600254600160a01b900460ff16610e6a576040805162461bcd60e51b815260206004820152600f60248201526e141d589b1a58c8191a5cd8589b1959608a1b604482015290519081900360640190fd5b60026001541415610ec2576040805162461bcd60e51b815260206004820152601f60248201527f5265656e7472616e637947756172643a207265656e7472616e742063616c6c00604482015290519081900360640190fd5b60026001556001600160a01b03808316600081815260036020908152604080832086845282528083205493835260048252808320868452825291829020548251808401909352600b83527f6275792829207374617274000000000000000000000000000000000000000000918301919091523493929092169190610f4590611e58565b610f6c60405180604001604052806005815260200164213abcb2b960d91b81525083611f25565b610f946040518060400160405280600681526020016529b2b63632b960d11b81525086611f25565b610fbb60405180604001604052806005815260200164507269636560d81b81525082611ff5565b610ffa6040518060400160405280600681526020017f416d6f756e74000000000000000000000000000000000000000000000000000081525084611ff5565b61102460405180604001604052806008815260200167151bdad95b88125160c21b81525085611ff5565b6001600160a01b03821661dead14806110555750611040611d61565b6001600160a01b0316826001600160a01b0316145b6110a6576040805162461bcd60e51b815260206004820152601160248201527f4e6f7420612076616c6964206275796572000000000000000000000000000000604482015290519081900360640190fd5b808310156110fb576040805162461bcd60e51b815260206004820152600a60248201527f4e6f7420656e6f75676800000000000000000000000000000000000000000000604482015290519081900360640190fd5b6001600160a01b038086166000818152600360209081526040808320898452825280832080546001600160a01b03191690559282526004815282822088835290529081205560025416806342842e0e30611153611d61565b886040518463ffffffff1660e01b815260040180846001600160a01b03168152602001836001600160a01b031681526020018281526020019350505050600060405180830381600087803b1580156111aa57600080fd5b505af11580156111be573d6000803e3d6000fd5b505050506112386040518060400160405280600781526020017f53656e64696e6700000000000000000000000000000000000000000000000000815250856040518060400160405280600281526020017f746f000000000000000000000000000000000000000000000000000000000000815250896120bc565b604080516000808252602082019092526001600160a01b0388169034906040518082805190602001908083835b602083106112845780518252601f199092019160209182019101611265565b6001836020036101000a03801982511681845116808217855250505050505090500191505060006040518083038185875af1925050503d80600081146112e6576040519150601f19603f3d011682016040523d82523d6000602084013e6112eb565b606091505b5050905080611341576040805162461bcd60e51b815260206004820152600e60248201527f4661696c656420746f2073656e64000000000000000000000000000000000000604482015290519081900360640190fd5b61137f6040518060400160405280600981526020017f627579282920656e640000000000000000000000000000000000000000000000815250611e58565b611387611d61565b604080518881526020810186905281516001600160a01b03938416938b16927f89f5adc174562e07c9c9b1cae7109bbecb21cf9d1b2847e550042b8653c54a0e928290030190a35050600180555050505050565b600254600160a01b900460ff1661142b576040805162461bcd60e51b815260206004820152600f60248201526e141d589b1a58c8191a5cd8589b1959608a1b604482015290519081900360640190fd5b60026001541415611483576040805162461bcd60e51b815260206004820152601f60248201527f5265656e7472616e637947756172643a207265656e7472616e742063616c6c00604482015290519081900360640190fd5b60026001556000611492611d61565b6001600160a01b03808216600090815260036020908152604080832088845290915290205491925016611501576040805162461bcd60e51b8152602060048201526012602482015271151c98591948191bd95cdb9d08195e1a5cdd60721b604482015290519081900360640190fd5b6001600160a01b03841615611516578361151a565b61dead5b6001600160a01b038281166000818152600360209081526040808320898452825280832080546001600160a01b0319169686169690961790955582825260048152848220888352815290849020869055835187815290810186905283519288169391927fb7f0ca7cd5b24651672216886135b99ff40342bcf549009a4c6fc74f059fb9a0929181900390910190a35050600180555050565b6000828152602081905260409020600201546115d0906106fb611d61565b6108235760405162461bcd60e51b81526004018080602001828103825260308152602001806124f66030913960400191505060405180910390fd5b600254600160a01b900460ff1661165b576040805162461bcd60e51b815260206004820152600f60248201526e141d589b1a58c8191a5cd8589b1959608a1b604482015290519081900360640190fd5b600260015414156116b3576040805162461bcd60e51b815260206004820152601f60248201527f5265656e7472616e637947756172643a207265656e7472616e742063616c6c00604482015290519081900360640190fd5b600260015560006116c2611d61565b60025460408051808201909152600c81527f6c6973742829207374617274000000000000000000000000000000000000000060208201529192506001600160a01b03169061170f90611e58565b61173660405180604001604052806005815260200164213abcb2b960d91b81525086611f25565b61175e6040518060400160405280600681526020016529b2b63632b960d11b81525083611f25565b61178560405180604001604052806005815260200164507269636560d81b81525084611ff5565b6117af60405180604001604052806008815260200167151bdad95b88125160c21b81525085611ff5565b61185d6040518060400160405280600681526020017f4f776e65723f0000000000000000000000000000000000000000000000000000815250826001600160a01b0316636352211e876040518263ffffffff1660e01b81526004018082815260200191505060206040518083038186803b15801561182c57600080fd5b505afa158015611840573d6000803e3d6000fd5b505050506040513d602081101561185657600080fd5b5051611f25565b604080518082018252600981527f4578697374696e673f00000000000000000000000000000000000000000000006020808301919091526001600160a01b038086166000818152600384528581208a8252845285812054918152600484528581208a825290935293909120546118d69390911690612201565b806001600160a01b0316636352211e856040518263ffffffff1660e01b81526004018082815260200191505060206040518083038186803b15801561191a57600080fd5b505afa15801561192e573d6000803e3d6000fd5b505050506040513d602081101561194457600080fd5b50516001600160a01b038381169116146119a5576040805162461bcd60e51b815260206004820152601b60248201527f4f6e6c79204e4654206f776e65722063616e207472616e736665720000000000604482015290519081900360640190fd5b6001600160a01b0382811660009081526003602090815260408083208884529091529020541615611a0c576040805162461bcd60e51b815260206004820152600c60248201526b54726164652065786973747360a01b604482015290519081900360640190fd5b6001600160a01b038216600090815260046020908152604080832087845290915290205415611a71576040805162461bcd60e51b815260206004820152600c60248201526b54726164652065786973747360a01b604482015290519081900360640190fd5b6001600160a01b03851615611a865784611a8a565b61dead5b6001600160a01b0383811660008181526003602090815260408083208a8452825280832080546001600160a01b03191696909516959095179093559081526004825282812087825282528290208590558151808301909252601682527f6c6973742829206265666f7265207472616e736665720000000000000000000090820152611b1490611e58565b60408051632142170760e11b81526001600160a01b038481166004830152306024830152604482018790529151918316916342842e0e9160648082019260009290919082900301818387803b158015611b6c57600080fd5b505af1158015611b80573d6000803e3d6000fd5b50505050611bc26040518060400160405280601581526020017f6c6973742829206166746572207472616e736665720000000000000000000000815250611e58565b611c006040518060400160405280600a81526020017f6c697374282920656e6400000000000000000000000000000000000000000000815250611e58565b846001600160a01b0316826001600160a01b03167fedbdf022944a3291f4b30148903a84720506f48e10478ec5812e5caf30e1fab08686604051808381526020018281526020019250505060405180910390a3505060018055505050565b611c8a7f8736816fdbcc15d6cc3f6dcf60e42b0ef33eb02281d312c807a38b4ad09190c06106fb611d61565b611cca576040805162461bcd60e51b815260206004820152600c60248201526b4e6f74204e465420726f6c6560a01b604482015290519081900360640190fd5b60025460408051632142170760e11b81523060048201526001600160a01b038581166024830152604482018590529151919092169182916342842e0e9160648082019260009290919082900301818387803b158015610dd757600080fd5b7f8736816fdbcc15d6cc3f6dcf60e42b0ef33eb02281d312c807a38b4ad09190c081565b6000610a6d836001600160a01b0384166122de565b3390565b6000828152602081905260409020611d7d9082611d4c565b1561074557611d8a611d61565b6001600160a01b0316816001600160a01b0316837f2f8788117e7eff1d82e926ec794901d17c78024a50270940304540a733656f0d60405160405180910390a45050565b6000828152602081905260409020611de69082612328565b1561074557611df3611d61565b6001600160a01b0316816001600160a01b0316837ff6391f5c32d9c69d2a47ea670b442974b53935d1edc7fd64eb21e047a839171b60405160405180910390a45050565b6000610a6d838361233d565b6000610a6d836001600160a01b0384166123a1565b611f17816040516024018080602001828103825283818151815260200191508051906020019080838360005b83811015611e9c578181015183820152602001611e84565b50505050905090810190601f168015611ec95780820380516001836020036101000a031916815260200191505b5060408051601f198184030181529190526020810180516001600160e01b03167f41304fac0000000000000000000000000000000000000000000000000000000017905292506123b9915050565b50565b6000610a70826123da565b61074582826040516024018080602001836001600160a01b03168152602001828103825284818151815260200191508051906020019080838360005b83811015611f79578181015183820152602001611f61565b50505050905090810190601f168015611fa65780820380516001836020036101000a031916815260200191505b5060408051601f198184030181529190526020810180516001600160e01b03167f319af3330000000000000000000000000000000000000000000000000000000017905293506123b992505050565b61074582826040516024018080602001838152602001828103825284818151815260200191508051906020019080838360005b83811015612040578181015183820152602001612028565b50505050905090810190601f16801561206d5780820380516001836020036101000a031916815260200191505b5060408051601f198184030181529190526020810180516001600160e01b03167f9710a9d00000000000000000000000000000000000000000000000000000000017905293506123b992505050565b6121fb84848484604051602401808060200185815260200180602001846001600160a01b03168152602001838103835287818151815260200191508051906020019080838360005b8381101561211c578181015183820152602001612104565b50505050905090810190601f1680156121495780820380516001836020036101000a031916815260200191505b50838103825285518152855160209182019187019080838360005b8381101561217c578181015183820152602001612164565b50505050905090810190601f1680156121a95780820380516001836020036101000a031916815260200191505b5060408051601f198184030181529190526020810180516001600160e01b03167fbb7235e90000000000000000000000000000000000000000000000000000000017905296506123b995505050505050565b50505050565b6122d98383836040516024018080602001846001600160a01b03168152602001838152602001828103825285818151815260200191508051906020019080838360005b8381101561225c578181015183820152602001612244565b50505050905090810190601f1680156122895780820380516001836020036101000a031916815260200191505b5060408051601f198184030181529190526020810180516001600160e01b03167f07c812170000000000000000000000000000000000000000000000000000000017905294506123b99350505050565b505050565b60006122ea83836123a1565b61232057508154600181810184556000848152602080822090930184905584548482528286019093526040902091909155610a70565b506000610a70565b6000610a6d836001600160a01b0384166123de565b8154600090821061237f5760405162461bcd60e51b81526004018080602001828103825260228152602001806124a56022913960400191505060405180910390fd5b82600001828154811061238e57fe5b9060005260206000200154905092915050565b60009081526001919091016020526040902054151590565b80516a636f6e736f6c652e6c6f67602083016000808483855afa5050505050565b5490565b6000818152600183016020526040812054801561249a578354600019808301919081019060009087908390811061241157fe5b906000526020600020015490508087600001848154811061242e57fe5b60009182526020808320909101929092558281526001898101909252604090209084019055865487908061245e57fe5b60019003818190600052602060002001600090559055866001016000878152602001908152602001600020600090556001945050505050610a70565b6000915050610a7056fe456e756d657261626c655365743a20696e646578206f7574206f6620626f756e6473416363657373436f6e74726f6c3a2073656e646572206d75737420626520616e2061646d696e20746f206772616e74416363657373436f6e74726f6c3a2073656e646572206d75737420626520616e2061646d696e20746f207265766f6b65416363657373436f6e74726f6c3a2063616e206f6e6c792072656e6f756e636520726f6c657320666f722073656c66a26469706673582212206ddb99b4258946f4c412ff250feb8988e7c51207c49a347d982b8eb806e35e3064736f6c634300060c0033",
  "linkReferences": {},
  "deployedLinkReferences": {}
}