{
  "_format": "hh-sol-artifact-1",
  "contractName": "ArcaneBarracksV2",
  "sourceName": "src/ArcaneBarracksV2.sol",
  "abi": [
    {
      "inputs": [
        {
          "internalType": "address",
          "name": "_itemsAddress",
          "type": "address"
        },
        {
          "internalType": "address",
          "name": "_itemStorageAddress",
          "type": "address"
        },
        {
          "internalType": "address",
          "name": "_itemMintingStationAddress",
          "type": "address"
        },
        {
          "internalType": "address",
          "name": "_charactersAddress",
          "type": "address"
        },
        {
          "internalType": "address",
          "name": "_profileAddress",
          "type": "address"
        },
        {
          "internalType": "uint256",
          "name": "_tokenPrice",
          "type": "uint256"
        }
      ],
      "stateMutability": "nonpayable",
      "type": "constructor"
    },
    {
      "anonymous": false,
      "inputs": [
        {
          "indexed": true,
          "internalType": "address",
          "name": "user",
          "type": "address"
        },
        {
          "indexed": false,
          "internalType": "uint256",
          "name": "amount",
          "type": "uint256"
        }
      ],
      "name": "ActionBonus",
      "type": "event"
    },
    {
      "anonymous": false,
      "inputs": [
        {
          "indexed": true,
          "internalType": "address",
          "name": "user",
          "type": "address"
        },
        {
          "indexed": false,
          "internalType": "uint256",
          "name": "amount",
          "type": "uint256"
        }
      ],
      "name": "ActionBurn",
      "type": "event"
    },
    {
      "anonymous": false,
      "inputs": [
        {
          "indexed": true,
          "internalType": "address",
          "name": "user",
          "type": "address"
        },
        {
          "indexed": true,
          "internalType": "address",
          "name": "token",
          "type": "address"
        },
        {
          "indexed": false,
          "internalType": "uint256",
          "name": "amount",
          "type": "uint256"
        }
      ],
      "name": "ActionFee",
      "type": "event"
    },
    {
      "anonymous": false,
      "inputs": [
        {
          "indexed": true,
          "internalType": "address",
          "name": "user",
          "type": "address"
        },
        {
          "indexed": false,
          "internalType": "uint256",
          "name": "amount",
          "type": "uint256"
        }
      ],
      "name": "ActionHiddenPool",
      "type": "event"
    },
    {
      "anonymous": false,
      "inputs": [
        {
          "indexed": true,
          "internalType": "address",
          "name": "user",
          "type": "address"
        },
        {
          "indexed": true,
          "internalType": "uint256",
          "name": "tokenId",
          "type": "uint256"
        },
        {
          "indexed": true,
          "internalType": "uint16",
          "name": "itemId",
          "type": "uint16"
        }
      ],
      "name": "Equip",
      "type": "event"
    },
    {
      "anonymous": false,
      "inputs": [
        {
          "indexed": true,
          "internalType": "address",
          "name": "previousOwner",
          "type": "address"
        },
        {
          "indexed": true,
          "internalType": "address",
          "name": "newOwner",
          "type": "address"
        }
      ],
      "name": "OwnershipTransferred",
      "type": "event"
    },
    {
      "anonymous": false,
      "inputs": [
        {
          "indexed": true,
          "internalType": "address",
          "name": "user",
          "type": "address"
        },
        {
          "indexed": true,
          "internalType": "uint256",
          "name": "tokenId",
          "type": "uint256"
        },
        {
          "indexed": true,
          "internalType": "uint16",
          "name": "itemId",
          "type": "uint16"
        }
      ],
      "name": "Unequip",
      "type": "event"
    },
    {
      "inputs": [],
      "name": "barracksV1Address",
      "outputs": [
        {
          "internalType": "address",
          "name": "",
          "type": "address"
        }
      ],
      "stateMutability": "view",
      "type": "function"
    },
    {
      "inputs": [],
      "name": "charactersAddress",
      "outputs": [
        {
          "internalType": "address",
          "name": "",
          "type": "address"
        }
      ],
      "stateMutability": "view",
      "type": "function"
    },
    {
      "inputs": [
        {
          "internalType": "uint256",
          "name": "_amount",
          "type": "uint256"
        }
      ],
      "name": "claimFee",
      "outputs": [],
      "stateMutability": "nonpayable",
      "type": "function"
    },
    {
      "inputs": [],
      "name": "claimRewards",
      "outputs": [],
      "stateMutability": "nonpayable",
      "type": "function"
    },
    {
      "inputs": [
        {
          "internalType": "uint256",
          "name": "_tokenId",
          "type": "uint256"
        }
      ],
      "name": "getItem",
      "outputs": [
        {
          "components": [
            {
              "internalType": "uint16",
              "name": "version",
              "type": "uint16"
            },
            {
              "internalType": "uint16",
              "name": "itemId",
              "type": "uint16"
            },
            {
              "internalType": "enum ArcaneItemLibraryV2.ArcaneItemType",
              "name": "itemType",
              "type": "uint8"
            },
            {
              "components": [
                {
                  "internalType": "uint8",
                  "name": "variant",
                  "type": "uint8"
                },
                {
                  "internalType": "uint16",
                  "name": "attributeId",
                  "type": "uint16"
                },
                {
                  "internalType": "uint16",
                  "name": "value",
                  "type": "uint16"
                }
              ],
              "internalType": "struct ArcaneItemLibraryV2.ArcaneItemModifier[]",
              "name": "mods",
              "type": "tuple[]"
            }
          ],
          "internalType": "struct ArcaneItemLibraryV2.ArcaneItem",
          "name": "",
          "type": "tuple"
        }
      ],
      "stateMutability": "view",
      "type": "function"
    },
    {
      "inputs": [
        {
          "internalType": "uint8",
          "name": "_id",
          "type": "uint8"
        }
      ],
      "name": "getRune",
      "outputs": [
        {
          "internalType": "address",
          "name": "",
          "type": "address"
        }
      ],
      "stateMutability": "view",
      "type": "function"
    },
    {
      "inputs": [
        {
          "internalType": "address",
          "name": "",
          "type": "address"
        },
        {
          "internalType": "address",
          "name": "",
          "type": "address"
        }
      ],
      "name": "hasAbolishedFees",
      "outputs": [
        {
          "internalType": "bool",
          "name": "",
          "type": "bool"
        }
      ],
      "stateMutability": "view",
      "type": "function"
    },
    {
      "inputs": [
        {
          "internalType": "address",
          "name": "",
          "type": "address"
        },
        {
          "internalType": "address",
          "name": "",
          "type": "address"
        }
      ],
      "name": "hasAcquiredHarvestDelay",
      "outputs": [
        {
          "internalType": "bool",
          "name": "",
          "type": "bool"
        }
      ],
      "stateMutability": "view",
      "type": "function"
    },
    {
      "inputs": [
        {
          "internalType": "address",
          "name": "",
          "type": "address"
        },
        {
          "internalType": "address",
          "name": "",
          "type": "address"
        }
      ],
      "name": "hasClaimedShard",
      "outputs": [
        {
          "internalType": "bool",
          "name": "",
          "type": "bool"
        }
      ],
      "stateMutability": "view",
      "type": "function"
    },
    {
      "inputs": [
        {
          "internalType": "address",
          "name": "",
          "type": "address"
        },
        {
          "internalType": "address",
          "name": "",
          "type": "address"
        }
      ],
      "name": "hasCreatedRandomRuneword",
      "outputs": [
        {
          "internalType": "bool",
          "name": "",
          "type": "bool"
        }
      ],
      "stateMutability": "view",
      "type": "function"
    },
    {
      "inputs": [
        {
          "internalType": "address",
          "name": "",
          "type": "address"
        },
        {
          "internalType": "address",
          "name": "",
          "type": "address"
        }
      ],
      "name": "hasFoundGuildToken",
      "outputs": [
        {
          "internalType": "bool",
          "name": "",
          "type": "bool"
        }
      ],
      "stateMutability": "view",
      "type": "function"
    },
    {
      "inputs": [
        {
          "internalType": "address",
          "name": "",
          "type": "address"
        },
        {
          "internalType": "address",
          "name": "",
          "type": "address"
        }
      ],
      "name": "hasUnlockedHiddenPool",
      "outputs": [
        {
          "internalType": "bool",
          "name": "",
          "type": "bool"
        }
      ],
      "stateMutability": "view",
      "type": "function"
    },
    {
      "inputs": [],
      "name": "hiddenPoolPid",
      "outputs": [
        {
          "internalType": "uint256",
          "name": "",
          "type": "uint256"
        }
      ],
      "stateMutability": "view",
      "type": "function"
    },
    {
      "inputs": [],
      "name": "itemMintingStationAddress",
      "outputs": [
        {
          "internalType": "address",
          "name": "",
          "type": "address"
        }
      ],
      "stateMutability": "view",
      "type": "function"
    },
    {
      "inputs": [],
      "name": "itemStorageAddress",
      "outputs": [
        {
          "internalType": "address",
          "name": "",
          "type": "address"
        }
      ],
      "stateMutability": "view",
      "type": "function"
    },
    {
      "inputs": [],
      "name": "itemsAddress",
      "outputs": [
        {
          "internalType": "address",
          "name": "",
          "type": "address"
        }
      ],
      "stateMutability": "view",
      "type": "function"
    },
    {
      "inputs": [],
      "name": "mintingEnabled",
      "outputs": [
        {
          "internalType": "bool",
          "name": "",
          "type": "bool"
        }
      ],
      "stateMutability": "view",
      "type": "function"
    },
    {
      "inputs": [
        {
          "internalType": "uint256",
          "name": "_pid",
          "type": "uint256"
        },
        {
          "internalType": "uint256",
          "name": "_pending",
          "type": "uint256"
        },
        {
          "internalType": "address",
          "name": "_userAddress",
          "type": "address"
        },
        {
          "internalType": "address",
          "name": "_rewardToken",
          "type": "address"
        },
        {
          "internalType": "uint256",
          "name": "_amount",
          "type": "uint256"
        }
      ],
      "name": "onDeposit",
      "outputs": [],
      "stateMutability": "nonpayable",
      "type": "function"
    },
    {
      "inputs": [
        {
          "internalType": "uint256",
          "name": "_pid",
          "type": "uint256"
        },
        {
          "internalType": "uint256",
          "name": "_pending",
          "type": "uint256"
        },
        {
          "internalType": "address",
          "name": "_userAddress",
          "type": "address"
        },
        {
          "internalType": "address",
          "name": "_rewardToken",
          "type": "address"
        }
      ],
      "name": "onDepositHarvest",
      "outputs": [
        {
          "internalType": "uint256",
          "name": "",
          "type": "uint256"
        }
      ],
      "stateMutability": "nonpayable",
      "type": "function"
    },
    {
      "inputs": [
        {
          "internalType": "uint256",
          "name": "_pid",
          "type": "uint256"
        },
        {
          "internalType": "uint256",
          "name": "_pending",
          "type": "uint256"
        },
        {
          "internalType": "address",
          "name": "_userAddress",
          "type": "address"
        },
        {
          "internalType": "address",
          "name": "_rewardToken",
          "type": "address"
        },
        {
          "internalType": "uint256",
          "name": "_actionId",
          "type": "uint256"
        }
      ],
      "name": "onHarvestIteration",
      "outputs": [
        {
          "internalType": "uint256",
          "name": "",
          "type": "uint256"
        }
      ],
      "stateMutability": "nonpayable",
      "type": "function"
    },
    {
      "inputs": [
        {
          "internalType": "uint256",
          "name": "_pid",
          "type": "uint256"
        },
        {
          "internalType": "address",
          "name": "_runeReward",
          "type": "address"
        },
        {
          "internalType": "uint256",
          "name": "_runeRewardAmount",
          "type": "uint256"
        },
        {
          "internalType": "uint256",
          "name": "_perShare",
          "type": "uint256"
        }
      ],
      "name": "onUpdatePool",
      "outputs": [],
      "stateMutability": "nonpayable",
      "type": "function"
    },
    {
      "inputs": [
        {
          "internalType": "uint256",
          "name": "_pid",
          "type": "uint256"
        },
        {
          "internalType": "uint256",
          "name": "_pending",
          "type": "uint256"
        },
        {
          "internalType": "address",
          "name": "_userAddress",
          "type": "address"
        },
        {
          "internalType": "address",
          "name": "_rewardToken",
          "type": "address"
        },
        {
          "internalType": "uint256",
          "name": "_amount",
          "type": "uint256"
        }
      ],
      "name": "onWithdraw",
      "outputs": [],
      "stateMutability": "nonpayable",
      "type": "function"
    },
    {
      "inputs": [
        {
          "internalType": "uint256",
          "name": "_pid",
          "type": "uint256"
        },
        {
          "internalType": "uint256",
          "name": "_pending",
          "type": "uint256"
        },
        {
          "internalType": "address",
          "name": "_userAddress",
          "type": "address"
        },
        {
          "internalType": "address",
          "name": "_rewardToken",
          "type": "address"
        }
      ],
      "name": "onWithdrawHarvest",
      "outputs": [
        {
          "internalType": "uint256",
          "name": "",
          "type": "uint256"
        }
      ],
      "stateMutability": "nonpayable",
      "type": "function"
    },
    {
      "inputs": [],
      "name": "owner",
      "outputs": [
        {
          "internalType": "address",
          "name": "",
          "type": "address"
        }
      ],
      "stateMutability": "view",
      "type": "function"
    },
    {
      "inputs": [],
      "name": "profileAddress",
      "outputs": [
        {
          "internalType": "address",
          "name": "",
          "type": "address"
        }
      ],
      "stateMutability": "view",
      "type": "function"
    },
    {
      "inputs": [],
      "name": "raidAddress",
      "outputs": [
        {
          "internalType": "address",
          "name": "",
          "type": "address"
        }
      ],
      "stateMutability": "view",
      "type": "function"
    },
    {
      "inputs": [],
      "name": "renounceOwnership",
      "outputs": [],
      "stateMutability": "nonpayable",
      "type": "function"
    },
    {
      "inputs": [],
      "name": "runeToken",
      "outputs": [
        {
          "internalType": "address",
          "name": "",
          "type": "address"
        }
      ],
      "stateMutability": "view",
      "type": "function"
    },
    {
      "inputs": [
        {
          "internalType": "uint8",
          "name": "",
          "type": "uint8"
        }
      ],
      "name": "runes",
      "outputs": [
        {
          "internalType": "address",
          "name": "",
          "type": "address"
        }
      ],
      "stateMutability": "view",
      "type": "function"
    },
    {
      "inputs": [
        {
          "internalType": "uint256",
          "name": "_pid",
          "type": "uint256"
        }
      ],
      "name": "setHiddenPoolPid",
      "outputs": [],
      "stateMutability": "nonpayable",
      "type": "function"
    },
    {
      "inputs": [
        {
          "internalType": "bool",
          "name": "_mintingEnabled",
          "type": "bool"
        }
      ],
      "name": "setMintingEnabled",
      "outputs": [],
      "stateMutability": "nonpayable",
      "type": "function"
    },
    {
      "inputs": [
        {
          "internalType": "address",
          "name": "_raid",
          "type": "address"
        }
      ],
      "name": "setRaid",
      "outputs": [],
      "stateMutability": "nonpayable",
      "type": "function"
    },
    {
      "inputs": [
        {
          "internalType": "uint8",
          "name": "_id",
          "type": "uint8"
        },
        {
          "internalType": "address",
          "name": "_address",
          "type": "address"
        }
      ],
      "name": "setRune",
      "outputs": [],
      "stateMutability": "nonpayable",
      "type": "function"
    },
    {
      "inputs": [
        {
          "internalType": "uint8",
          "name": "_rune1Index",
          "type": "uint8"
        },
        {
          "internalType": "address",
          "name": "_rune1Address",
          "type": "address"
        },
        {
          "internalType": "uint8",
          "name": "_rune2Index",
          "type": "uint8"
        },
        {
          "internalType": "address",
          "name": "_rune2Address",
          "type": "address"
        },
        {
          "internalType": "uint8",
          "name": "_rune3Index",
          "type": "uint8"
        },
        {
          "internalType": "address",
          "name": "_rune3Address",
          "type": "address"
        },
        {
          "internalType": "uint8",
          "name": "_rune4Index",
          "type": "uint8"
        },
        {
          "internalType": "address",
          "name": "_rune4Address",
          "type": "address"
        }
      ],
      "name": "setRuneAddresses",
      "outputs": [],
      "stateMutability": "nonpayable",
      "type": "function"
    },
    {
      "inputs": [],
      "name": "tokenPrice",
      "outputs": [
        {
          "internalType": "uint256",
          "name": "",
          "type": "uint256"
        }
      ],
      "stateMutability": "view",
      "type": "function"
    },
    {
      "inputs": [
        {
          "internalType": "address",
          "name": "newOwner",
          "type": "address"
        }
      ],
      "name": "transferOwnership",
      "outputs": [],
      "stateMutability": "nonpayable",
      "type": "function"
    },
    {
      "inputs": [
        {
          "internalType": "uint256",
          "name": "_newTokenPrice",
          "type": "uint256"
        }
      ],
      "name": "updateTokenPrice",
      "outputs": [],
      "stateMutability": "nonpayable",
      "type": "function"
    },
    {
      "inputs": [],
      "name": "vaultAddress",
      "outputs": [
        {
          "internalType": "address",
          "name": "",
          "type": "address"
        }
      ],
      "stateMutability": "view",
      "type": "function"
    }
  ],
  "bytecode": "0x6080604052600c805460ff191660011790556002600f553480156200002357600080fd5b5060405162002fc338038062002fc38339810160408190526200004691620002de565b600062000052620002da565b600080546001600160a01b0319166001600160a01b0383169081178255604051929350917f8be0079c531659141344cd1fd0a4f28419497f9722a3daafe3b4186f6b6457e0908290a35060018055600580546001600160a01b039788166001600160a01b031991821617909155600680549688169682169690961786556007805495881695821695909517909455600e556004805492861692841692909217909155600380549190941690821617909255600a805483167313008edcb0b1523f7c8891c5c9e196f5fd58509517905560088054831673602a27bbf954b6945534a84c8c88fb8ca9e92b7f17905560028054831673a9776b590bfc2f956711b3419910a5ec1f63153e179055600b6020527fdf7de25b7f1fd6d0b5205f0e18f1f35bd7b8d84cce336588d184533ce43a6f768054831673210c14fbecc2bd9b6231199470da12ad45f64d451790557f72c6bfb7988af3a1efa6568f02a999bc52252641c659d85961ca3d372b57d5cf8054831673e00b8109bcb70b1edeb4cf87914efc28050209951790557fa50eece07c7db1631545c0069bd8f5f54d5935e215d59097edf258a44ba916348054831673125a3e00a9a11317d4d95349e68ba0bc744addc41790557f64c15cc42be7899b001f818cf4433057002112c418d1d3a67cd5cb453051d33e8054831673ef4f66506aaaeeff6d10775ad6f994105d8f11b41790557febae6141bae5521e99e0a8d610356b0f501fea54980b59c84841db43ba7204f48054831673098afb73f809d8fe145363f802113e3825d7490c1790556000527f0387e9d1203691d8e3362a7e4c6723de358a4010d7f31ecbec3fbfc61d1c75fc8054909116735de72a6fca2144aa134650bbea92cc919244f05d1790556200037e565b3390565b60008060008060008060c08789031215620002f7578182fd5b8651620003048162000365565b6020880151909650620003178162000365565b60408801519095506200032a8162000365565b60608801519094506200033d8162000365565b6080880151909350620003508162000365565b8092505060a087015190509295509295509295565b6001600160a01b03811681146200037b57600080fd5b50565b612c35806200038e6000396000f3fe608060405234801561001057600080fd5b50600436106102925760003560e01c80639e6d966011610160578063d63bdd54116100d8578063f2fde38b1161008c578063f7dc8d2811610071578063f7dc8d28146104c2578063f9f7c7b6146104ca578063fa35651d146104dd57610292565b8063f2fde38b1461049c578063f667526a146104af57610292565b8063e68958da116100bd578063e68958da14610463578063ebc695eb14610476578063eec990811461048957610292565b8063d63bdd5414610448578063dbe653671461045b57610292565b8063ae6b16031161012f578063b8748e3111610114578063b8748e3114610425578063c1f57bdb14610438578063d55fa7471461044057610292565b8063ae6b16031461040a578063af14043e1461041d57610292565b80639e6d9660146103df5780639fd53f2b146103e75780639fd6db12146103ef578063aaf47d1a146103f757610292565b8063550928d21161020e578063825cb9c6116101c2578063905d11ca116101a7578063905d11ca146103b1578063934849f3146103c4578063988b280c146103cc57610292565b8063825cb9c6146102d35780638da5cb5b146103a957610292565b80636c167e03116101f35780636c167e0314610391578063715018a6146103995780637ff9b596146103a157610292565b8063550928d21461035e578063676c0d771461037e57610292565b8063372500ab11610265578063430bf08a1161024a578063430bf08a146103305780634ea3871a1461033857806352e3ac831461034b57610292565b8063372500ab146103085780633fc017bf1461031057610292565b80630fd21e96146102975780631aafb871146102c05780632688da6d146102d35780633129e773146102e8575b600080fd5b6102aa6102a5366004612278565b6104f0565b6040516102b791906126e1565b60405180910390f35b6102aa6102ce366004612278565b610510565b6102e66102e1366004612442565b610530565b005b6102fb6102f636600461238d565b61053f565b6040516102b79190612a82565b6102e66105d8565b61032361031e3660046124f1565b61065f565b6040516102b79190612663565b61032361067d565b6102e66103463660046122b0565b61068c565b6102aa610359366004612278565b6106de565b61037161036c3660046123f9565b6106fe565b6040516102b79190612b20565b6102e661038c36600461238d565b61071f565b610323610763565b6102e6610772565b6103716107fb565b610323610801565b6103716103bf3660046123f9565b610810565b610323610828565b6103236103da3660046124f1565b610837565b610323610852565b610323610861565b6102aa610870565b6102aa610405366004612278565b610879565b6102e661041836600461225c565b610899565b6103236108fa565b6102aa610433366004612278565b610909565b610323610929565b610323610938565b6102e66104563660046123bd565b610947565b610371610955565b6102e6610471366004612546565b61095b565b6102e6610484366004612529565b610a90565b6102e661049736600461238d565b610b02565b6102e66104aa36600461225c565b610b46565b6102e66104bd36600461238d565b610c06565b610323610c66565b6102aa6104d8366004612278565b610c75565b6103716104eb366004612442565b610c95565b601460209081526000928352604080842090915290825290205460ff1681565b601360209081526000928352604080842090915290825290205460ff1681565b610538610cb6565b5050505050565b61054761206c565b604051633129e77360e01b815273__$cc4a53c932f829c5fc834b450b71c23bdf$__90633129e7739061057e908590600401612b20565b60006040518083038186803b15801561059657600080fd5b505af41580156105aa573d6000803e3d6000fd5b505050506040513d6000823e601f3d908101601f191682016040526105d291908101906122e8565b92915050565b600260015414156106045760405162461bcd60e51b81526004016105fb90612a4b565b60405180910390fd5b6002600155610611612092565b60035461062e906001600160a01b0316610629610ce2565b610ce6565b90508060a00151151560011515146106585760405162461bcd60e51b81526004016105fb906129dd565b5060018055565b60ff166000908152600b60205260409020546001600160a01b031690565b6008546001600160a01b031681565b610694610ce2565b6001600160a01b03166106a5610801565b6001600160a01b0316146106cb5760405162461bcd60e51b81526004016105fb90612971565b600c805460ff1916911515919091179055565b601260209081526000928352604080842090915290825290205460ff1681565b6000610708610cb6565b610716600286868686610dc8565b95945050505050565b610727610ce2565b6001600160a01b0316610738610801565b6001600160a01b03161461075e5760405162461bcd60e51b81526004016105fb90612971565b600e55565b6003546001600160a01b031681565b61077a610ce2565b6001600160a01b031661078b610801565b6001600160a01b0316146107b15760405162461bcd60e51b81526004016105fb90612971565b600080546040516001600160a01b03909116907f8be0079c531659141344cd1fd0a4f28419497f9722a3daafe3b4186f6b6457e0908390a3600080546001600160a01b0319169055565b600e5481565b6000546001600160a01b031690565b600061081a610cb6565b610716600186868686610dc8565b6007546001600160a01b031681565b600b602052600090815260409020546001600160a01b031681565b600a546001600160a01b031681565b6002546001600160a01b031681565b600c5460ff1681565b601060209081526000928352604080842090915290825290205460ff1681565b6108a1610ce2565b6001600160a01b03166108b2610801565b6001600160a01b0316146108d85760405162461bcd60e51b81526004016105fb90612971565b600980546001600160a01b0319166001600160a01b0392909216919091179055565b6006546001600160a01b031681565b601160209081526000928352604080842090915290825290205460ff1681565b6005546001600160a01b031681565b6009546001600160a01b031681565b61094f610cb6565b50505050565b600f5481565b610963610ce2565b6001600160a01b0316610974610801565b6001600160a01b03161461099a5760405162461bcd60e51b81526004016105fb90612971565b6001600160a01b038716156109d55760ff88166000908152600b6020526040902080546001600160a01b0319166001600160a01b0389161790555b6001600160a01b03851615610a105760ff86166000908152600b6020526040902080546001600160a01b0319166001600160a01b0387161790555b6001600160a01b03831615610a4b5760ff84166000908152600b6020526040902080546001600160a01b0319166001600160a01b0385161790555b6001600160a01b03811615610a865760ff82166000908152600b6020526040902080546001600160a01b0319166001600160a01b0383161790555b5050505050505050565b610a98610ce2565b6001600160a01b0316610aa9610801565b6001600160a01b031614610acf5760405162461bcd60e51b81526004016105fb90612971565b60ff919091166000908152600b6020526040902080546001600160a01b0319166001600160a01b03909216919091179055565b610b0a610ce2565b6001600160a01b0316610b1b610801565b6001600160a01b031614610b415760405162461bcd60e51b81526004016105fb90612971565b600f55565b610b4e610ce2565b6001600160a01b0316610b5f610801565b6001600160a01b031614610b855760405162461bcd60e51b81526004016105fb90612971565b6001600160a01b038116610bab5760405162461bcd60e51b81526004016105fb9061277e565b600080546040516001600160a01b03808516939216917f8be0079c531659141344cd1fd0a4f28419497f9722a3daafe3b4186f6b6457e091a3600080546001600160a01b0319166001600160a01b0392909216919091179055565b610c0e610ce2565b6001600160a01b0316610c1f610801565b6001600160a01b031614610c455760405162461bcd60e51b81526004016105fb90612971565b610c63610c50610ce2565b6002546001600160a01b03169083611cc3565b50565b6004546001600160a01b031681565b601560209081526000928352604080842090915290825290205460ff1681565b6000610c9f610cb6565b610cac8287878787610dc8565b9695505050505050565b6009546001600160a01b03163314610ce05760405162461bcd60e51b81526004016105fb9061293a565b565b3390565b610cee612092565b600080600080600080886001600160a01b031663987ee156896040518263ffffffff1660e01b8152600401610d239190612663565b60c06040518083038186803b158015610d3b57600080fd5b505afa158015610d4f573d6000803e3d6000fd5b505050506040513d601f19601f82011682018060405250810190610d739190612493565b949a50929850909650945092509050610d8a612092565b506040805160c0810182529687526020870195909552938501929092526001600160a01b031660608401526080830152151560a08201529392505050565b6000610dd2612092565b600354610de8906001600160a01b031685610ce6565b60045460a08201519192506001600160a01b0316901515600114610e1e5760405162461bcd60e51b81526004016105fb906129dd565b600a546009546001600160a01b039182169116610e396120d3565b88815260808501516040517f87ff41130000000000000000000000000000000000000000000000000000000081526001600160a01b038616916387ff411391610e859190600401612b20565b60206040518083038186803b158015610e9d57600080fd5b505afa158015610eb1573d6000803e3d6000fd5b505050506040513d601f19601f82011682018060405250810190610ed5919061250d565b60ff1660808201526040808601516060830152517fc00ae8850000000000000000000000000000000000000000000000000000000081526001600160a01b0384169063c00ae88590610f2b908b90600401612663565b60206040518083038186803b158015610f4357600080fd5b505afa158015610f57573d6000803e3d6000fd5b505050506040513d601f19601f82011682018060405250810190610f7b919061250d565b60ff1660e0820190815260408051808201909152601781527f5b4261727261636b735d204974656d20436f756e743a2000000000000000000060208201529051610fc59190611d4b565b60e081015115611a4257600160c08201525b60148160c0015111611a4257826001600160a01b031663aaa65bfc898360c00151601481111561100357fe5b6040518363ffffffff1660e01b81526004016110209291906126a1565b60206040518083038186803b15801561103857600080fd5b505afa15801561104c573d6000803e3d6000fd5b505050506040513d601f19601f8201168201806040525081019061107091906123a5565b60a0820181905261108057611a32565b61108861206c565b60a0820151604051633129e77360e01b815273__$cc4a53c932f829c5fc834b450b71c23bdf$__91633129e773916110c39190600401612b20565b60006040518083038186803b1580156110db57600080fd5b505af41580156110ef573d6000803e3d6000fd5b505050506040513d6000823e601f3d908101601f1916820160405261111791908101906122e8565b90506111606040518060400160405280601481526020017f5b4261727261636b735d204974656d2049443a20000000000000000000000000815250826020015161ffff16611d4b565b6111a76040518060400160405280601981526020017f5b4261727261636b735d204974656d2056657273696f6e3a2000000000000000815250826000015161ffff16611d4b565b6111f86040518060400160405280601681526020017f5b4261727261636b735d204974656d20547970653a2000000000000000000000815250826040015160188111156111f057fe5b60ff16611d4b565b61120061214e565b60608201515161012084015260006101008401525b8261012001518361010001511015611a2f5761122f61214e565b82606001518461010001518151811061124457fe5b60200260200101519050806020015161ffff166001141561129157604081015184516112809160649161127a9161ffff16611dc2565b90611e03565b602085018051919091019052611a1c565b806020015161ffff16600214156112a757611a1c565b806020015161ffff1660031415611463576112ff6040518060400160405280601e81526020017f5b4261727261636b735d206861727665737446656550657263656e743a200000815250836040015161ffff16611d4b565b6113466040518060400160405280601c81526020017f5b4261727261636b735d2068617276657374466565546f6b656e3a2000000000815250826040015161ffff16611d4b565b604082015161ffff161561145e576040818101516000190160ff166000908152600b602052818120549184015186516001600160a01b03909316926113959160649161127a9161ffff16611dc2565b9050866001600160a01b0316632bcbcc10838f600860009054906101000a90046001600160a01b0316856040518563ffffffff1660e01b81526004016113de9493929190612677565b600060405180830381600087803b1580156113f857600080fd5b505af115801561140c573d6000803e3d6000fd5b50505050816001600160a01b03168d6001600160a01b03167fd8449057aba08c8471cc2df06e1191048c936b03fafe68ad13d26d90798c93d5836040516114539190612b20565b60405180910390a350505b611a1c565b806020015161ffff166004141561179d5761149e6040518060600160405280602c8152602001612bd4602c9139826040015161ffff16611d4b565b6004600d541180156114ba57506004600d54816114b757fe5b06155b6114c957600d546003016114d0565b6003600d54035b600101600d8190556114e490606490611e35565b61014085015260018e14806114f957508d6003145b1561145e57806040015161ffff168461014001511161175e57600954600f546040517f73309b960000000000000000000000000000000000000000000000000000000081526001600160a01b03909216916373309b969161155e918e90600401612b29565b600060405180830381600087803b15801561157857600080fd5b505af115801561158c573d6000803e3d6000fd5b5050600954600f5487516040517fd59f62a80000000000000000000000000000000000000000000000000000000081526001600160a01b03909316945063faa8e758935090916116439190859063d59f62a8906115ed908690600401612b20565b60206040518083038186803b15801561160557600080fd5b505afa158015611619573d6000803e3d6000fd5b505050506040513d601f19601f8201168201806040525081019061163d91906123a5565b90611e80565b6040518363ffffffff1660e01b8152600401611660929190612b40565b600060405180830381600087803b15801561167a57600080fd5b505af115801561168e573d6000803e3d6000fd5b5050600954600f546040517f216369b40000000000000000000000000000000000000000000000000000000081526001600160a01b03909216935063216369b492506116de918e90600401612b29565b600060405180830381600087803b1580156116f857600080fd5b505af115801561170c573d6000803e3d6000fd5b505050508a6001600160a01b03167f21d9757e72ed3c439ed21ea06df5c09b611c00fbab96ec3aa3b6e4852f83d145856000015160405161174d9190612b20565b60405180910390a26000845261145e565b826060015160028151811061176f57fe5b60200260200101516040015160640361ffff168461014001511061145e578351604085015260008452611a1c565b806020015161ffff16600514156117b357611a1c565b806020015161ffff166006141561183e5761180b6040518060400160405280601881526020017f5b4261727261636b735d20686172766573744275726e3a200000000000000000815250826040015161ffff16611d4b565b604081015184516118269160649161127a9161ffff16611dc2565b60408501805191909101908190528451038452611a1c565b806020015161ffff166007141561185457611a1c565b806020015161ffff16600814156118815760408101516101608501805161ffff9092169091019052611a1c565b806020015161ffff166009141561189757611a1c565b806020015161ffff16600a14156118ad57611a1c565b806020015161ffff16600b14156118c357611a1c565b806020015161ffff16600c14156118d957611a1c565b806020015161ffff16600d14156119065760408101516101a08501805161ffff9092169091019052611a1c565b806020015161ffff16600e141561191c57611a1c565b806020015161ffff16600f141561193257611a1c565b806020015161ffff166010141561194857611a1c565b806020015161ffff1660111415611966576001610180850152611a1c565b806020015161ffff166012141561198b57604081015161ffff166101c0850152611a1c565b806020015161ffff16601314156119a157611a1c565b806020015161ffff16601414156119dd578360600151816040015161ffff161461145e5760405162461bcd60e51b81526004016105fb906129a6565b806020015161ffff1660151415611a1c57836080015160ff16816040015161ffff161461145e5760405162461bcd60e51b81526004016105fb906128a6565b6101008401805160010190529050611215565b50505b60c0810180516001019052610fd7565b611a856040518060400160405280601181526020017f5b4261727261636b735d204275726e3a200000000000000000000000000000008152508260400151611d4b565b611ac86040518060400160405280601281526020017f5b4261727261636b735d20426f6e75733a2000000000000000000000000000008152508260200151611d4b565b611b0b6040518060400160405280601481526020017f5b4261727261636b735d2050656e64696e673a200000000000000000000000008152508260000151611d4b565b604081015115611bdd5760408082015190517fca6b6f5500000000000000000000000000000000000000000000000000000000815261dead916001600160a01b0385169163ca6b6f5591611b64918591906004016126c8565b600060405180830381600087803b158015611b7e57600080fd5b505af1158015611b92573d6000803e3d6000fd5b50505050886001600160a01b03167fbd6c81b22f61e66bb371451577d2d772376e4204095bdfd92ff6a48aa86837ef8360400151604051611bd39190612b20565b60405180910390a2505b602081015115611cb45760085460208201516040517f2bcbcc100000000000000000000000000000000000000000000000000000000081526001600160a01b0385811693632bcbcc1093611c3c938d93909216918e9190600401612677565b600060405180830381600087803b158015611c5657600080fd5b505af1158015611c6a573d6000803e3d6000fd5b50505050876001600160a01b03167f7203e7db7b790743c0d380a243aa1629267ec702b820d4413cc65f7d3e15ba888260200151604051611cab9190612b20565b60405180910390a25b519a9950505050505050505050565b611d468363a9059cbb60e01b8484604051602401611ce29291906126c8565b60408051601f198184030181529190526020810180517bffffffffffffffffffffffffffffffffffffffffffffffffffffffff167fffffffff0000000000000000000000000000000000000000000000000000000090931692909217909152611ea5565b505050565b611dbe8282604051602401611d619291906126ff565b60408051601f198184030181529190526020810180517bffffffffffffffffffffffffffffffffffffffffffffffffffffffff167f9710a9d000000000000000000000000000000000000000000000000000000000179052611f34565b5050565b600082611dd1575060006105d2565b82820282848281611dde57fe5b0414611dfc5760405162461bcd60e51b81526004016105fb906128dd565b9392505050565b6000808211611e245760405162461bcd60e51b81526004016105fb9061286f565b818381611e2d57fe5b049392505050565b60006001820191508260010142443385604051602001611e589493929190612636565b6040516020818303038152906040528051906020012060001c81611e7857fe5b069392505050565b600082820183811015611dfc5760405162461bcd60e51b81526004016105fb906127db565b6060611efa826040518060400160405280602081526020017f5361666542455032303a206c6f772d6c6576656c2063616c6c206661696c6564815250856001600160a01b0316611f559092919063ffffffff16565b805190915015611d465780806020019051810190611f1891906122cc565b611d465760405162461bcd60e51b81526004016105fb90612721565b80516a636f6e736f6c652e6c6f67602083016000808483855afa5050505050565b6060611f648484600085611f6c565b949350505050565b606082471015611f8e5760405162461bcd60e51b81526004016105fb90612812565b611f978561202d565b611fb35760405162461bcd60e51b81526004016105fb90612a14565b60006060866001600160a01b03168587604051611fd0919061261a565b60006040518083038185875af1925050503d806000811461200d576040519150601f19603f3d011682016040523d82523d6000602084013e612012565b606091505b5091509150612022828286612033565b979650505050505050565b3b151590565b60608315612042575081611dfc565b8251156120525782518084602001fd5b8160405162461bcd60e51b81526004016105fb91906126ec565b604080516080810182526000808252602082018190529181019190915260608082015290565b6040518060c0016040528060008152602001600081526020016000815260200160006001600160a01b03168152602001600081526020016000151581525090565b604051806101e0016040528060008152602001600081526020016000815260200160008152602001600060ff1681526020016000815260200160008152602001600081526020016000815260200160008152602001600081526020016000815260200160001515815260200160008152602001600081525090565b604080516060810182526000808252602082018190529181019190915290565b600082601f83011261217e578081fd5b815167ffffffffffffffff811115612194578182fd5b60206121a38182840201612b4e565b82815292508083018482016060808502870184018810156121c357600080fd5b60005b858110156121ea576121d889846121f6565b845292840192918101916001016121c6565b50505050505092915050565b600060608284031215612207578081fd5b6122116060612b4e565b9050815161221e81612bc4565b815261222d836020840161224a565b602082015261223f836040840161224a565b604082015292915050565b805161ffff811681146105d257600080fd5b60006020828403121561226d578081fd5b8135611dfc81612ba1565b6000806040838503121561228a578081fd5b823561229581612ba1565b915060208301356122a581612ba1565b809150509250929050565b6000602082840312156122c1578081fd5b8135611dfc81612bb6565b6000602082840312156122dd578081fd5b8151611dfc81612bb6565b6000602082840312156122f9578081fd5b815167ffffffffffffffff80821115612310578283fd5b9083019060808286031215612323578283fd5b61232d6080612b4e565b612337868461224a565b8152612346866020850161224a565b602082015260408301516019811061235c578485fd5b6040820152606083015182811115612372578485fd5b61237e8782860161216e565b60608301525095945050505050565b60006020828403121561239e578081fd5b5035919050565b6000602082840312156123b6578081fd5b5051919050565b600080600080608085870312156123d2578182fd5b8435935060208501356123e481612ba1565b93969395505050506040820135916060013590565b6000806000806080858703121561240e578384fd5b8435935060208501359250604085013561242781612ba1565b9150606085013561243781612ba1565b939692955090935050565b600080600080600060a08688031215612459578081fd5b8535945060208601359350604086013561247281612ba1565b9250606086013561248281612ba1565b949793965091946080013592915050565b60008060008060008060c087890312156124ab578384fd5b86519550602087015194506040870151935060608701516124cb81612ba1565b608088015160a089015191945092506124e381612bb6565b809150509295509295509295565b600060208284031215612502578081fd5b8135611dfc81612bc4565b60006020828403121561251e578081fd5b8151611dfc81612bc4565b6000806040838503121561253b578182fd5b823561229581612bc4565b600080600080600080600080610100898b031215612562578586fd5b883561256d81612bc4565b9750602089013561257d81612ba1565b9650604089013561258d81612bc4565b9550606089013561259d81612ba1565b945060808901356125ad81612bc4565b935060a08901356125bd81612ba1565b925060c08901356125cd81612bc4565b915060e08901356125dd81612ba1565b809150509295985092959890939650565b60008151808452612606816020860160208601612b75565b601f01601f19169290920160200192915050565b6000825161262c818460208701612b75565b9190910192915050565b938452602084019290925260601b6bffffffffffffffffffffffff19166040830152605482015260740190565b6001600160a01b0391909116815260200190565b6001600160a01b039485168152928416602084015292166040820152606081019190915260800190565b6001600160a01b038316815260408101601583106126bb57fe5b8260208301529392505050565b6001600160a01b03929092168252602082015260400190565b901515815260200190565b600060208252611dfc60208301846125ee565b60006040825261271260408301856125ee565b90508260208301529392505050565b6020808252602a908201527f5361666542455032303a204245503230206f7065726174696f6e20646964206e60408201527f6f74207375636365656400000000000000000000000000000000000000000000606082015260800190565b60208082526026908201527f4f776e61626c653a206e6577206f776e657220697320746865207a65726f206160408201527f6464726573730000000000000000000000000000000000000000000000000000606082015260800190565b6020808252601b908201527f536166654d6174683a206164646974696f6e206f766572666c6f770000000000604082015260600190565b60208082526026908201527f416464726573733a20696e73756666696369656e742062616c616e636520666f60408201527f722063616c6c0000000000000000000000000000000000000000000000000000606082015260800190565b6020808252601a908201527f536166654d6174683a206469766973696f6e206279207a65726f000000000000604082015260600190565b6020808252600b908201527f57726f6e6720636c617373000000000000000000000000000000000000000000604082015260600190565b60208082526021908201527f536166654d6174683a206d756c7469706c69636174696f6e206f766572666c6f60408201527f7700000000000000000000000000000000000000000000000000000000000000606082015260800190565b60208082526011908201527f4e6f74206f776e6572206f722063686566000000000000000000000000000000604082015260600190565b6020808252818101527f4f776e61626c653a2063616c6c6572206973206e6f7420746865206f776e6572604082015260600190565b6020808252600b908201527f57726f6e67206775696c64000000000000000000000000000000000000000000604082015260600190565b60208082526013908201527f55736572206d7573742062652061637469766500000000000000000000000000604082015260600190565b6020808252601d908201527f416464726573733a2063616c6c20746f206e6f6e2d636f6e7472616374000000604082015260600190565b6020808252601f908201527f5265656e7472616e637947756172643a207265656e7472616e742063616c6c00604082015260600190565b6000602080835260a0830161ffff808651168386015282860151604082821681880152808801519150606060198310612ab757fe5b878101929092528782015160808089015280519485905285019386929060c08901905b80851015612b12578651805160ff16835288810151871689840152840151861684830152958701956001949094019390820190612ada565b509998505050505050505050565b90815260200190565b9182526001600160a01b0316602082015260400190565b918252602082015260400190565b60405181810167ffffffffffffffff81118282101715612b6d57600080fd5b604052919050565b60005b83811015612b90578181015183820152602001612b78565b8381111561094f5750506000910152565b6001600160a01b0381168114610c6357600080fd5b8015158114610c6357600080fd5b60ff81168114610c6357600080fdfe5b4261727261636b735d206368616e6365546f53656e6448617276657374546f48696464656e506f6f6c3a20a2646970667358221220d5742d0e6c1f4fa3dc35086758ab4f0c489d13e1428ad708d67ea437b7153be064736f6c634300060c0033",
  "linkReferences": {
    "src/ArcaneItemLibraryV2.sol": {
      "ArcaneItemLibraryV2": [
        {
          "length": 20,
          "start": 2276
        },
        {
          "length": 20,
          "start": 5162
        }
      ]
    }
  },
  "deployedLinkReferences": {
    "src/ArcaneItemLibraryV2.sol": {
      "ArcaneItemLibraryV2": [
        {
          "length": 20,
          "start": 1366
        },
        {
          "length": 20,
          "start": 4252
        }
      ]
    }
  }
}