{
  "_format": "hh-sol-artifact-1",
  "contractName": "ArcaneBarracksFacetV1",
  "sourceName": "src/ArcaneBarracksFacetV1.sol",
  "abi": [
    {
      "anonymous": false,
      "inputs": [
        {
          "indexed": true,
          "internalType": "address",
          "name": "user",
          "type": "address"
        },
        {
          "indexed": false,
          "internalType": "uint256",
          "name": "amount",
          "type": "uint256"
        }
      ],
      "name": "ActionBonus",
      "type": "event"
    },
    {
      "anonymous": false,
      "inputs": [
        {
          "indexed": true,
          "internalType": "address",
          "name": "user",
          "type": "address"
        },
        {
          "indexed": false,
          "internalType": "uint256",
          "name": "amount",
          "type": "uint256"
        }
      ],
      "name": "ActionBurn",
      "type": "event"
    },
    {
      "anonymous": false,
      "inputs": [
        {
          "indexed": true,
          "internalType": "address",
          "name": "user",
          "type": "address"
        },
        {
          "indexed": true,
          "internalType": "address",
          "name": "token",
          "type": "address"
        },
        {
          "indexed": false,
          "internalType": "uint256",
          "name": "amount",
          "type": "uint256"
        }
      ],
      "name": "ActionFee",
      "type": "event"
    },
    {
      "anonymous": false,
      "inputs": [
        {
          "indexed": true,
          "internalType": "address",
          "name": "user",
          "type": "address"
        },
        {
          "indexed": false,
          "internalType": "uint256",
          "name": "amount",
          "type": "uint256"
        }
      ],
      "name": "ActionHiddenPool",
      "type": "event"
    },
    {
      "anonymous": false,
      "inputs": [
        {
          "indexed": true,
          "internalType": "address",
          "name": "user",
          "type": "address"
        },
        {
          "indexed": true,
          "internalType": "address",
          "name": "token",
          "type": "address"
        },
        {
          "indexed": false,
          "internalType": "uint256",
          "name": "amount",
          "type": "uint256"
        }
      ],
      "name": "ActionSwap",
      "type": "event"
    },
    {
      "anonymous": false,
      "inputs": [
        {
          "indexed": true,
          "internalType": "address",
          "name": "user",
          "type": "address"
        },
        {
          "indexed": true,
          "internalType": "uint256",
          "name": "tokenId",
          "type": "uint256"
        },
        {
          "indexed": true,
          "internalType": "uint16",
          "name": "itemId",
          "type": "uint16"
        }
      ],
      "name": "Equip",
      "type": "event"
    },
    {
      "anonymous": false,
      "inputs": [
        {
          "indexed": true,
          "internalType": "address",
          "name": "user",
          "type": "address"
        },
        {
          "indexed": true,
          "internalType": "uint256",
          "name": "tokenId",
          "type": "uint256"
        },
        {
          "indexed": true,
          "internalType": "uint16",
          "name": "itemId",
          "type": "uint16"
        }
      ],
      "name": "Unequip",
      "type": "event"
    },
    {
      "inputs": [],
      "name": "ArcaneBarracksFacetV1Init",
      "outputs": [],
      "stateMutability": "nonpayable",
      "type": "function"
    },
    {
      "inputs": [
        {
          "internalType": "uint256",
          "name": "_amount",
          "type": "uint256"
        }
      ],
      "name": "claimFee",
      "outputs": [],
      "stateMutability": "nonpayable",
      "type": "function"
    },
    {
      "inputs": [],
      "name": "claimRewards",
      "outputs": [],
      "stateMutability": "nonpayable",
      "type": "function"
    },
    {
      "inputs": [
        {
          "internalType": "enum ArcaneItemLibraryV2.ArcaneItemSlot",
          "name": "_slotId",
          "type": "uint8"
        },
        {
          "internalType": "uint256",
          "name": "_tokenId",
          "type": "uint256"
        }
      ],
      "name": "equip",
      "outputs": [],
      "stateMutability": "nonpayable",
      "type": "function"
    },
    {
      "inputs": [
        {
          "internalType": "address",
          "name": "_address",
          "type": "address"
        },
        {
          "internalType": "enum ArcaneItemLibraryV2.ArcaneItemSlot",
          "name": "_slotId",
          "type": "uint8"
        }
      ],
      "name": "getEquippedItem",
      "outputs": [
        {
          "internalType": "uint256",
          "name": "",
          "type": "uint256"
        }
      ],
      "stateMutability": "view",
      "type": "function"
    },
    {
      "inputs": [
        {
          "internalType": "uint256",
          "name": "_tokenId",
          "type": "uint256"
        }
      ],
      "name": "getItem",
      "outputs": [
        {
          "components": [
            {
              "internalType": "uint16",
              "name": "version",
              "type": "uint16"
            },
            {
              "internalType": "uint16",
              "name": "itemId",
              "type": "uint16"
            },
            {
              "internalType": "enum ArcaneItemLibraryV2.ArcaneItemType",
              "name": "itemType",
              "type": "uint8"
            },
            {
              "components": [
                {
                  "internalType": "uint8",
                  "name": "variant",
                  "type": "uint8"
                },
                {
                  "internalType": "uint16",
                  "name": "attributeId",
                  "type": "uint16"
                },
                {
                  "internalType": "uint16",
                  "name": "value",
                  "type": "uint16"
                }
              ],
              "internalType": "struct ArcaneItemLibraryV2.ArcaneItemModifier[]",
              "name": "mods",
              "type": "tuple[]"
            }
          ],
          "internalType": "struct ArcaneItemLibraryV2.ArcaneItem",
          "name": "",
          "type": "tuple"
        }
      ],
      "stateMutability": "view",
      "type": "function"
    },
    {
      "inputs": [
        {
          "internalType": "uint8",
          "name": "_id",
          "type": "uint8"
        }
      ],
      "name": "getRune",
      "outputs": [
        {
          "internalType": "address",
          "name": "",
          "type": "address"
        }
      ],
      "stateMutability": "view",
      "type": "function"
    },
    {
      "inputs": [],
      "name": "getVersion",
      "outputs": [
        {
          "internalType": "string",
          "name": "",
          "type": "string"
        }
      ],
      "stateMutability": "view",
      "type": "function"
    },
    {
      "inputs": [
        {
          "internalType": "uint256",
          "name": "_pid",
          "type": "uint256"
        },
        {
          "internalType": "uint256",
          "name": "_pending",
          "type": "uint256"
        },
        {
          "internalType": "address",
          "name": "_userAddress",
          "type": "address"
        },
        {
          "internalType": "address",
          "name": "_rewardToken",
          "type": "address"
        },
        {
          "internalType": "uint256",
          "name": "_amount",
          "type": "uint256"
        }
      ],
      "name": "onDeposit",
      "outputs": [],
      "stateMutability": "nonpayable",
      "type": "function"
    },
    {
      "inputs": [
        {
          "internalType": "uint256",
          "name": "_pid",
          "type": "uint256"
        },
        {
          "internalType": "uint256",
          "name": "_pending",
          "type": "uint256"
        },
        {
          "internalType": "address",
          "name": "_userAddress",
          "type": "address"
        },
        {
          "internalType": "address",
          "name": "_rewardToken",
          "type": "address"
        }
      ],
      "name": "onDepositHarvest",
      "outputs": [
        {
          "internalType": "uint256",
          "name": "",
          "type": "uint256"
        }
      ],
      "stateMutability": "nonpayable",
      "type": "function"
    },
    {
      "inputs": [
        {
          "internalType": "uint256",
          "name": "_pid",
          "type": "uint256"
        },
        {
          "internalType": "uint256",
          "name": "_pending",
          "type": "uint256"
        },
        {
          "internalType": "address",
          "name": "_userAddress",
          "type": "address"
        },
        {
          "internalType": "address",
          "name": "_rewardToken",
          "type": "address"
        },
        {
          "internalType": "uint256",
          "name": "_actionId",
          "type": "uint256"
        }
      ],
      "name": "onHarvestIteration",
      "outputs": [
        {
          "internalType": "uint256",
          "name": "",
          "type": "uint256"
        }
      ],
      "stateMutability": "nonpayable",
      "type": "function"
    },
    {
      "inputs": [
        {
          "internalType": "uint256",
          "name": "_pid",
          "type": "uint256"
        },
        {
          "internalType": "address",
          "name": "_runeReward",
          "type": "address"
        },
        {
          "internalType": "uint256",
          "name": "_runeRewardAmount",
          "type": "uint256"
        },
        {
          "internalType": "uint256",
          "name": "_perShare",
          "type": "uint256"
        }
      ],
      "name": "onUpdatePool",
      "outputs": [],
      "stateMutability": "view",
      "type": "function"
    },
    {
      "inputs": [
        {
          "internalType": "uint256",
          "name": "_pid",
          "type": "uint256"
        },
        {
          "internalType": "uint256",
          "name": "_pending",
          "type": "uint256"
        },
        {
          "internalType": "address",
          "name": "_userAddress",
          "type": "address"
        },
        {
          "internalType": "address",
          "name": "_rewardToken",
          "type": "address"
        },
        {
          "internalType": "uint256",
          "name": "_amount",
          "type": "uint256"
        }
      ],
      "name": "onWithdraw",
      "outputs": [],
      "stateMutability": "nonpayable",
      "type": "function"
    },
    {
      "inputs": [
        {
          "internalType": "uint256",
          "name": "_pid",
          "type": "uint256"
        },
        {
          "internalType": "uint256",
          "name": "_pending",
          "type": "uint256"
        },
        {
          "internalType": "address",
          "name": "_userAddress",
          "type": "address"
        },
        {
          "internalType": "address",
          "name": "_rewardToken",
          "type": "address"
        }
      ],
      "name": "onWithdrawHarvest",
      "outputs": [
        {
          "internalType": "uint256",
          "name": "",
          "type": "uint256"
        }
      ],
      "stateMutability": "nonpayable",
      "type": "function"
    },
    {
      "inputs": [
        {
          "internalType": "uint16",
          "name": "_attributeId",
          "type": "uint16"
        },
        {
          "internalType": "bool",
          "name": "_isAttributeEnabled",
          "type": "bool"
        }
      ],
      "name": "setAttributeEnabled",
      "outputs": [],
      "stateMutability": "nonpayable",
      "type": "function"
    },
    {
      "inputs": [
        {
          "internalType": "address",
          "name": "_address",
          "type": "address"
        }
      ],
      "name": "setBlacksmithAddress",
      "outputs": [],
      "stateMutability": "nonpayable",
      "type": "function"
    },
    {
      "inputs": [
        {
          "internalType": "uint256",
          "name": "_currentHiddenPoolId",
          "type": "uint256"
        }
      ],
      "name": "setCurrentHiddenPoolId",
      "outputs": [],
      "stateMutability": "nonpayable",
      "type": "function"
    },
    {
      "inputs": [
        {
          "internalType": "address",
          "name": "_rewardToken",
          "type": "address"
        },
        {
          "internalType": "uint256",
          "name": "_pid",
          "type": "uint256"
        }
      ],
      "name": "setHiddenPool",
      "outputs": [],
      "stateMutability": "nonpayable",
      "type": "function"
    },
    {
      "inputs": [
        {
          "internalType": "bool",
          "name": "_mintingEnabled",
          "type": "bool"
        }
      ],
      "name": "setMintingEnabled",
      "outputs": [],
      "stateMutability": "nonpayable",
      "type": "function"
    },
    {
      "inputs": [
        {
          "internalType": "address",
          "name": "_raid",
          "type": "address"
        }
      ],
      "name": "setRaid",
      "outputs": [],
      "stateMutability": "nonpayable",
      "type": "function"
    },
    {
      "inputs": [
        {
          "internalType": "uint8",
          "name": "_id",
          "type": "uint8"
        },
        {
          "internalType": "address",
          "name": "_address",
          "type": "address"
        }
      ],
      "name": "setRune",
      "outputs": [],
      "stateMutability": "nonpayable",
      "type": "function"
    },
    {
      "inputs": [
        {
          "internalType": "uint8",
          "name": "_rune1Index",
          "type": "uint8"
        },
        {
          "internalType": "address",
          "name": "_rune1Address",
          "type": "address"
        },
        {
          "internalType": "uint8",
          "name": "_rune2Index",
          "type": "uint8"
        },
        {
          "internalType": "address",
          "name": "_rune2Address",
          "type": "address"
        },
        {
          "internalType": "uint8",
          "name": "_rune3Index",
          "type": "uint8"
        },
        {
          "internalType": "address",
          "name": "_rune3Address",
          "type": "address"
        },
        {
          "internalType": "uint8",
          "name": "_rune4Index",
          "type": "uint8"
        },
        {
          "internalType": "address",
          "name": "_rune4Address",
          "type": "address"
        }
      ],
      "name": "setRuneAddresses",
      "outputs": [],
      "stateMutability": "nonpayable",
      "type": "function"
    },
    {
      "inputs": [
        {
          "internalType": "uint256",
          "name": "_runeCount",
          "type": "uint256"
        }
      ],
      "name": "setRuneCount",
      "outputs": [],
      "stateMutability": "nonpayable",
      "type": "function"
    },
    {
      "inputs": [
        {
          "internalType": "address",
          "name": "_address",
          "type": "address"
        }
      ],
      "name": "setVaultAddress",
      "outputs": [],
      "stateMutability": "nonpayable",
      "type": "function"
    },
    {
      "inputs": [
        {
          "internalType": "address",
          "name": "_itemsAddress",
          "type": "address"
        },
        {
          "internalType": "address",
          "name": "_itemStorageAddress",
          "type": "address"
        },
        {
          "internalType": "address",
          "name": "_charactersAddress",
          "type": "address"
        },
        {
          "internalType": "address",
          "name": "_profileAddress",
          "type": "address"
        },
        {
          "internalType": "address",
          "name": "_blacksmithAddress",
          "type": "address"
        },
        {
          "internalType": "uint256",
          "name": "_tokenPrice",
          "type": "uint256"
        }
      ],
      "name": "setup",
      "outputs": [],
      "stateMutability": "nonpayable",
      "type": "function"
    },
    {
      "inputs": [
        {
          "internalType": "enum ArcaneItemLibraryV2.ArcaneItemSlot",
          "name": "_slotId",
          "type": "uint8"
        },
        {
          "internalType": "uint256",
          "name": "_tokenId",
          "type": "uint256"
        }
      ],
      "name": "unequip",
      "outputs": [],
      "stateMutability": "nonpayable",
      "type": "function"
    },
    {
      "inputs": [
        {
          "internalType": "uint256",
          "name": "_newTokenPrice",
          "type": "uint256"
        }
      ],
      "name": "updateTokenPrice",
      "outputs": [],
      "stateMutability": "nonpayable",
      "type": "function"
    }
  ],
  "bytecode": "0x608060405234801561001057600080fd5b5060016000556158e780620000266000396000f3fe608060405234801561001057600080fd5b50600436106101495760003560e01c80630d8e6e2c1461014e5780631742d7d31461016c5780631811f7f41461018157806319cda701146101945780632688da6d146101a757806327d92ff3146101ba57806328bd9aa2146101cd5780633129e773146101e0578063372500ab146102005780633fc017bf146102085780633fc0e07a146102285780634ea3871a1461023b578063550928d21461024e578063676c0d771461026e5780637cc16c6614610281578063825cb9c61461029457806385535cc5146102a7578063905d11ca146102ba578063a1da4c73146102cd578063a7532fcf146102d5578063aaa65bfc146102e8578063ae6b1603146102fb578063d63bdd541461030e578063e68958da14610321578063ebc695eb14610334578063f667526a14610347578063fa35651d1461035a575b600080fd5b61015661036d565b60405161016391906150af565b60405180910390f35b61017f61017a366004614cbd565b61038c565b005b61017f61018f366004614dbf565b610ff8565b61017f6101a2366004614bae565b61108c565b61017f6101b5366004614e74565b61138b565b61017f6101c8366004614cbd565b6113aa565b61017f6101db366004614b76565b61163c565b6101f36101ee366004614dbf565b611723565b604051610163919061568d565b61017f6117be565b61021b610216366004614f23565b611864565b6040516101639190615058565b61017f610236366004614dbf565b611896565b61017f610249366004614c85565b61192a565b61026161025c366004614e2b565b6119ca565b604051610163919061572b565b61017f61027c366004614dbf565b6119ed565b61017f61028f366004614c5a565b611a81565b61017f6102a2366004614e74565b611b2c565b61017f6102b5366004614b76565b611b43565b6102616102c8366004614e2b565b611c25565b61017f611c3f565b61017f6102e3366004614d87565b611d6e565b6102616102f6366004614c26565b611e35565b61017f610309366004614b76565b611e88565b61017f61031c366004614def565b611f37565b61017f61032f366004614f88565b611f51565b61017f610342366004614f5b565b6120dc565b61017f610355366004614dbf565b61219e565b610261610368366004614e74565b612248565b604080518082019091526005815264312e302e3560d81b602082015290565b600260005414156103d2576040805162461bcd60e51b815260206004820152601f60248201526000805160206157bf833981519152604482015290519081900360640190fd5b600260009081556103e161227d565b60048101549091506000906103ff906001600160a01b0316336122a1565b90508060a00151151560011515146104325760405162461bcd60e51b8152600401610429906154fd565b60405180910390fd5b60028201546040516331a9108f60e11b81526001600160a01b03909116908190636352211e9061046690879060040161572b565b60206040518083038186803b15801561047e57600080fd5b505afa158015610492573d6000803e3d6000fd5b505050506040513d601f19601f820116820180604052508101906104b69190614b92565b6001600160a01b0316336001600160a01b0316146104e65760405162461bcd60e51b815260040161042990615202565b336000908152600b8401602052604081209086601481111561050457fe5b60ff168152602081019190915260400160002054156105355760405162461bcd60e51b815260040161042990615479565b604051633129e77360e01b815260009073__$cc4a53c932f829c5fc834b450b71c23bdf$__90633129e7739061056f90889060040161572b565b60006040518083038186803b15801561058757600080fd5b505af415801561059b573d6000803e3d6000fd5b505050506040513d6000823e601f3d908101601f191682016040526105c39190810190614cd8565b90506002816040015160188111156105d757fe5b141561060d5760018660148111156105eb57fe5b146106085760405162461bcd60e51b8152600401610429906153dd565b610ad9565b60018160400151601881111561061f57fe5b141561078457600186601481111561063357fe5b148061064a5750600286601481111561064857fe5b145b6106665760405162461bcd60e51b8152600401610429906152ab565b336000908152600b85016020526040812081600189601481111561068657fe5b14610692576001610695565b60025b60148111156106a057fe5b60ff1681526020810191909152604001600020549050801561077e57604051633129e77360e01b815260009073__$cc4a53c932f829c5fc834b450b71c23bdf$__90633129e773906106f690859060040161572b565b60006040518083038186803b15801561070e57600080fd5b505af4158015610722573d6000803e3d6000fd5b505050506040513d6000823e601f3d908101601f1916820160405261074a9190810190614cd8565b905060028160400151601881111561075e57fe5b141561077c5760405162461bcd60e51b815260040161042990615262565b505b50610ad9565b60038160400151601881111561079657fe5b14806107b157506004816040015160188111156107af57fe5b145b156107e15760028660148111156107c457fe5b146106085760405162461bcd60e51b815260040161042990615412565b6005816040015160188111156107f357fe5b141561082457600386601481111561080757fe5b146106085760405162461bcd60e51b81526004016104299061555a565b60078160400151601881111561083657fe5b141561086757600786601481111561084a57fe5b146106085760405162461bcd60e51b815260040161042990615102565b60068160400151601881111561087957fe5b14156108aa57600486601481111561088d57fe5b146106085760405162461bcd60e51b81526004016104299061552a565b6008816040015160188111156108bc57fe5b14156108ed5760068660148111156108d057fe5b146106085760405162461bcd60e51b8152600401610429906153a8565b6009816040015160188111156108ff57fe5b141561093057600986601481111561091357fe5b146106085760405162461bcd60e51b81526004016104299061565c565b600a8160400151601881111561094257fe5b141561097357600886601481111561095657fe5b146106085760405162461bcd60e51b815260040161042990615448565b600b8160400151601881111561098557fe5b14156109b657600c86601481111561099957fe5b146106085760405162461bcd60e51b8152600401610429906155f9565b600e816040015160188111156109c857fe5b1415610a2557600f8660148111156109dc57fe5b14806109f3575060108660148111156109f157fe5b145b80610a0957506011866014811115610a0757fe5b145b6106085760405162461bcd60e51b815260040161042990615629565b600c81604001516018811115610a3757fe5b1415610a7e57600d866014811115610a4b57fe5b1480610a625750600e866014811115610a6057fe5b145b6106085760405162461bcd60e51b815260040161042990615156565b600d81604001516018811115610a9057fe5b1415610ac1576005866014811115610aa457fe5b146106085760405162461bcd60e51b8152600401610429906154a8565b60405162461bcd60e51b8152600401610429906151db565b610ae16148a6565b604051633129e77360e01b815273__$cc4a53c932f829c5fc834b450b71c23bdf$__90633129e77390610b1890899060040161572b565b60006040518083038186803b158015610b3057600080fd5b505af4158015610b44573d6000803e3d6000fd5b505050506040513d6000823e601f3d908101601f19168201604052610b6c9190810190614cd8565b8160400181905250610bb66040518060400160405280601481526020017302da130b93930b1b5b9ae9024ba32b69024a21d160651b81525082604001516020015161ffff16612371565b604080518082018252601981527802da130b93930b1b5b9ae9024ba32b6902b32b939b4b7b71d1603d1b60208201529082015151610bf8919061ffff16612371565b610c466040518060400160405280601681526020017502da130b93930b1b5b9ae9024ba32b6902a3cb8329d160551b8152508260400151604001516018811115610c3e57fe5b60ff16612371565b60088501546001600160a01b031681526040810151606001515161028082015260006102608201525b8061028001518161026001511015610ee25780604001516060015181610260015181518110610c9a57fe5b6020908102919091018101516080830181905281015161ffff16600090815260138701909152604090205460ff1615610cd257610ed1565b80608001516020015161ffff1660191415610cf4576001610460820152610ed1565b80608001516020015161ffff16601b1415610dc55760808101516040015161ffff1615610dc05780600001516001600160a01b031663cc47e4966040518163ffffffff1660e01b815260040160206040518083038186803b158015610d5857600080fd5b505afa158015610d6c573d6000803e3d6000fd5b505050506040513d601f19601f82011682018060405250810190610d909190614b92565b336000908152601b87016020526040902080546001600160a01b0319166001600160a01b03929092169190911790555b610ed1565b80608001516020015161ffff1660091415610e175780600001516001600160a01b031663cc47e4966040518163ffffffff1660e01b815260040160206040518083038186803b158015610d5857600080fd5b80608001516020015161ffff16600a1415610ed15780600001516001600160a01b031663cc47e4966040518163ffffffff1660e01b815260040160206040518083038186803b158015610e6957600080fd5b505afa158015610e7d573d6000803e3d6000fd5b505050506040513d601f19601f82011682018060405250810190610ea19190614b92565b336000908152601a87016020526040902080546001600160a01b0319166001600160a01b03929092169190911790555b610260810180516001019052610c6f565b336000908152600b8601602052604081208791896014811115610f0157fe5b60ff9081168252602080830193909352604091820160009081209490945533808552600c8a0190935292819020805480851660010190941660ff199094169390931790925560038701549151637072e95960e11b81526001600160a01b03929092169163e0e5d2b291610f78918a9060040161506c565b600060405180830381600087803b158015610f9257600080fd5b505af1158015610fa6573d6000803e3d6000fd5b50505050816020015161ffff1686336001600160a01b03167f7d4d4607f618490ec85e393587c2b6ccaddf8d1054b2278c6ff55bfc858806f060405160405180910390a4505060016000555050505050565b60008051602061584f83398151915261103560405180604001604052806011815260200160008051602061582f8339815191528152503033612423565b61103f81336124eb565b60405180606001604052806022815260200161589060229139906110765760405162461bcd60e51b815260040161042991906150af565b50600061108161227d565b601201929092555050565b60008051602061584f8339815191526110c960405180604001604052806011815260200160008051602061582f8339815191528152503033612423565b6110d381336124eb565b604051806060016040528060228152602001615890602291399061110a5760405162461bcd60e51b815260040161042991906150af565b50600061111561227d565b600280820180546001600160a01b039b8c166001600160a01b0319918216179091556010830195909555600380830180549a8c169a87169a909a1790995560058083018054998c169987169990991790985560048083018054988c169887169890981790975560068083018054978c1697871697909717909655600a8083018054871661dead17905560078084018054881673602a27bbf954b6945534a84c8c88fb8ca9e92b7f17905560088085018054891673cfa857d6ec2f59b050d7296fbca8a91d061451f3179055600180860180548a1673a9776b590bfc2f956711b3419910a5ec1f63153e1790556000808052600d87016020908152604080832080548d1673210c14fbecc2bd9b6231199470da12ad45f64d4517905583835280832080548d1673e00b8109bcb70b1edeb4cf87914efc280502099517905596825286822080548c1673125a3e00a9a11317d4d95349e68ba0bc744addc41790559d815285812080548b1673ef4f66506aaaeeff6d10775ad6f994105d8f11b49081179091559b815285812080548b16909c17909b559a8a52838a208054891673098afb73f809d8fe145363f802113e3825d7490c17905597895282892080548816735de72a6fca2144aa134650bbea92cc919244f05d179055885281882080548716732f25dbd430cdbd1a6ec184c79c56c18918fcc97d179055958752808720805486167333bc7539d83c1adb95119a255134e7b584cd5c5917905560098752808720805490951673346c03fe8be489baaac5ce67e817ff11fb580f98178555600e8201959095559254909716845250601181019094529020602a908190556012830155600f909101805460ff1916909117905550565b611393612561565b6113a26003868686868661259d565b505050505050565b600260005414156113f0576040805162461bcd60e51b815260206004820152601f60248201526000805160206157bf833981519152604482015290519081900360640190fd5b600260009081556113ff61227d565b600481015490915060009061141d906001600160a01b0316336122a1565b90508060a00151151560011515146114475760405162461bcd60e51b8152600401610429906154fd565b336000908152600b830160205260408120849186601481111561146657fe5b60ff1660ff16815260200190815260200160002054146114985760405162461bcd60e51b815260040161042990615237565b604051633129e77360e01b815260009073__$cc4a53c932f829c5fc834b450b71c23bdf$__90633129e773906114d290879060040161572b565b60006040518083038186803b1580156114ea57600080fd5b505af41580156114fe573d6000803e3d6000fd5b505050506040513d6000823e601f3d908101601f191682016040526115269190810190614cd8565b336000908152600b850160205260408120919250908187601481111561154857fe5b60ff9081168252602080830193909352604091820160009081209490945533808552600c880190935292819020805460ff1981169085166000190190941693909317909255600385015491516392dfe36760e01b81526001600160a01b03909216916392dfe367916115be91889060040161506c565b600060405180830381600087803b1580156115d857600080fd5b505af11580156115ec573d6000803e3d6000fd5b50505050806020015161ffff1684336001600160a01b03167f8e29323119c8e859ebb0c8c9d973026002b1d95e109e0744554e944905030a6360405160405180910390a450506001600055505050565b60008051602061584f83398151915261167960405180604001604052806011815260200160008051602061582f8339815191528152503033612423565b61168381336124eb565b60405180606001604052806022815260200161589060229139906116ba5760405162461bcd60e51b815260040161042991906150af565b5060006116c561227d565b90506116fe6040518060400160405280601681526020017553657420626c61636b736d697468206164647265737360501b815250613d4b565b60060180546001600160a01b0319166001600160a01b03939093169290921790915550565b61172b6149fe565b604051633129e77360e01b815273__$cc4a53c932f829c5fc834b450b71c23bdf$__90633129e7739061176290859060040161572b565b60006040518083038186803b15801561177a57600080fd5b505af415801561178e573d6000803e3d6000fd5b505050506040513d6000823e601f3d908101601f191682016040526117b69190810190614cd8565b90505b919050565b60026000541415611804576040805162461bcd60e51b815260206004820152601f60248201526000805160206157bf833981519152604482015290519081900360640190fd5b6002600090815561181361227d565b6004810154909150600090611831906001600160a01b0316336122a1565b90508060a001511515600115151461185b5760405162461bcd60e51b8152600401610429906154fd565b50506001600055565b60008061186f61227d565b60ff84166000908152600d90910160205260409020546001600160a01b0316915050919050565b60008051602061584f8339815191526118d360405180604001604052806011815260200160008051602061582f8339815191528152503033612423565b6118dd81336124eb565b60405180606001604052806022815260200161589060229139906119145760405162461bcd60e51b815260040161042991906150af565b50600061191f61227d565b600e01929092555050565b60008051602061584f83398151915261196760405180604001604052806011815260200160008051602061582f8339815191528152503033612423565b61197181336124eb565b60405180606001604052806022815260200161589060229139906119a85760405162461bcd60e51b815260040161042991906150af565b5060006119b361227d565b600f01805460ff1916931515939093179092555050565b60006119d4612561565b6119e4600286868686600061259d565b95945050505050565b60008051602061584f833981519152611a2a60405180604001604052806011815260200160008051602061582f8339815191528152503033612423565b611a3481336124eb565b6040518060600160405280602281526020016158906022913990611a6b5760405162461bcd60e51b815260040161042991906150af565b506000611a7661227d565b601001929092555050565b60008051602061584f833981519152611abe60405180604001604052806011815260200160008051602061582f8339815191528152503033612423565b611ac881336124eb565b6040518060600160405280602281526020016158906022913990611aff5760405162461bcd60e51b815260040161042991906150af565b506000611b0a61227d565b6001600160a01b03909416600090815260119094016020525050604090912055565b611b34612561565b6113a26004868686868661259d565b60008051602061584f833981519152611b8060405180604001604052806011815260200160008051602061582f8339815191528152503033612423565b611b8a81336124eb565b6040518060600160405280602281526020016158906022913990611bc15760405162461bcd60e51b815260040161042991906150af565b506000611bcc61227d565b9050611c0060405180604001604052806011815260200170536574207661756c74206164647265737360781b815250613d4b565b60070180546001600160a01b0319166001600160a01b03939093169290921790915550565b6000611c2f612561565b6119e4600186868686600061259d565b60405180604001604052601581528060200174417263616e654261727261636b734661636574563160581b815250604051602001611c7d91906150af565b60405160208183030381529060405280519060200120611cc36040518060400160405280600d81526020016c496e697469616c697a61626c6560981b8152503033612423565b611ced7f30d41a597cac127d8249d31298b50e481ee82c3f4a49ff93c76a22735aa9f3ad336124eb565b611d095760405162461bcd60e51b8152600401610429906152ef565b6000611d13613df1565b60008381526020829052604090205490915060ff1615611d455760405162461bcd60e51b815260040161042990615335565b611d556326c7717d60e11b613e15565b600091825260205260409020805460ff19166001179055565b60008051602061584f833981519152611dab60405180604001604052806011815260200160008051602061582f8339815191528152503033612423565b611db581336124eb565b6040518060600160405280602281526020016158906022913990611dec5760405162461bcd60e51b815260040161042991906150af565b506000611df761227d565b905082611e05576001611e08565b60005b61ffff9094166000908152601390910160205260409020805493151560ff19909416939093179092555050565b600080611e4061227d565b6001600160a01b0385166000908152600b820160205260408120919250846014811115611e6957fe5b60ff1660ff168152602001908152602001600020549150505b92915050565b60008051602061584f833981519152611ec560405180604001604052806011815260200160008051602061582f8339815191528152503033612423565b611ecf81336124eb565b6040518060600160405280602281526020016158906022913990611f065760405162461bcd60e51b815260040161042991906150af565b506000611f1161227d565b60080180546001600160a01b0319166001600160a01b0394909416939093179092555050565b611f3f612561565b611f4b84848484613e4d565b50505050565b60008051602061584f833981519152611f8e60405180604001604052806011815260200160008051602061582f8339815191528152503033612423565b611f9881336124eb565b6040518060600160405280602281526020016158906022913990611fcf5760405162461bcd60e51b815260040161042991906150af565b506000611fda61227d565b90506001600160a01b038916156120195760ff8a166000908152600d82016020526040902080546001600160a01b0319166001600160a01b038b161790555b6001600160a01b038716156120565760ff88166000908152600d82016020526040902080546001600160a01b0319166001600160a01b0389161790555b6001600160a01b038516156120935760ff86166000908152600d82016020526040902080546001600160a01b0319166001600160a01b0387161790555b6001600160a01b038316156120d05760ff84166000908152600d82016020526040902080546001600160a01b0319166001600160a01b0385161790555b50505050505050505050565b60008051602061584f83398151915261211960405180604001604052806011815260200160008051602061582f8339815191528152503033612423565b61212381336124eb565b604051806060016040528060228152602001615890602291399061215a5760405162461bcd60e51b815260040161042991906150af565b50600061216561227d565b60ff949094166000908152600d9094016020525050604090912080546001600160a01b0319166001600160a01b03909216919091179055565b60008051602061584f8339815191526121db60405180604001604052806011815260200160008051602061582f8339815191528152503033612423565b6121e581336124eb565b604051806060016040528060228152602001615890602291399061221c5760405162461bcd60e51b815260040161042991906150af565b50600061222761227d565b6001810154909150612243906001600160a01b03163385613eab565b505050565b60008161029a141561225c575060006119e4565b612264612561565b6122738287878787600061259d565b9695505050505050565b7f964d579fcf738d582c7119d89738bf16e976bcbb8f13201b952ab6cecb758f9490565b6122a9614a24565b600080600080600080886001600160a01b031663987ee156896040518263ffffffff1660e01b81526004016122de9190615058565b60c06040518083038186803b1580156122f657600080fd5b505afa15801561230a573d6000803e3d6000fd5b505050506040513d601f19601f8201168201806040525081019061232e9190614ec5565b6040805160c0810182529687526020870195909552938501929092526001600160a01b031660608401526080830152151560a08201529998505050505050505050565b61241f82826040516024018080602001838152602001828103825284818151815260200191508051906020019080838360005b838110156123bc5781810151838201526020016123a4565b50505050905090810190601f1680156123e95780820380516001836020036101000a031916815260200191505b5060408051601f198184030181529190526020810180516001600160e01b03166309710a9d60e41b1790529350613efd92505050565b5050565b6122438383836040516024018080602001846001600160a01b03168152602001836001600160a01b03168152602001828103825285818151815260200191508051906020019080838360005b8381101561248757818101518382015260200161246f565b50505050905090810190601f1680156124b45780820380516001836020036101000a031916815260200191505b5060408051601f198184030181529190526020810180516001600160e01b03166307e763af60e51b1790529450613efd9350505050565b60006125366040518060400160405280600c81526020016b0a0cae4dae640d8cadccee8d60a31b8152508361251e613f1e565b60008781526020919091526040902060010154613f42565b61255a82612542613f1e565b60008681526020919091526040902060010190614001565b9392505050565b600061256b61227d565b60088101549091506001600160a01b0316331461259a5760405162461bcd60e51b815260040161042990615133565b50565b6000806125a861227d565b6004808201546040516350681a9360e11b81529293506001600160a01b03169163a0d03526916125da91899101615058565b60206040518083038186803b1580156125f257600080fd5b505afa158015612606573d6000803e3d6000fd5b505050506040513d601f19601f8201168201806040525081019061262a9190614ca1565b6126375785915050612273565b6004810154600090612652906001600160a01b0316876122a1565b905061265c6148a6565b60058301546001600160a01b039081166020830181905260a083018c905260088501549091168252610100820189905260e0820186905260c082018a905260808301516040516387ff411360e01b81526387ff4113916126be9160040161572b565b60206040518083038186803b1580156126d657600080fd5b505afa1580156126ea573d6000803e3d6000fd5b505050506040513d601f19601f8201168201806040525081019061270e9190614f3f565b60ff9081166101e08301526040808401516101c08401526001600160a01b03808a166000908152600c8701602090815290839020549093166102408501528881166101a085015283518251636623f24b60e11b8152925191169263cc47e4969260048082019391829003018186803b15801561278957600080fd5b505afa15801561279d573d6000803e3d6000fd5b505050506040513d601f19601f820116820180604052508101906127c19190614b92565b6001600160a01b039081166103408301526101a0820151166000908152601184016020908152604091829020546103a08401528151808301909252601682527502da130b93930b1b5b9ae9020b1ba34b7b71024a21d160551b9082015260a082015161282d9190612371565b6128676040518060400160405280601481526020017302da130b93930b1b5b9ae902837b7b61024a21d160651b8152508260c00151612371565b6128a16040518060400160405280601381526020017202da130b93930b1b5b9ae902932bbb0b9321d1606d1b815250826101a00151614016565b6128dc6040518060400160405280601481526020017302da130b93930b1b5b9ae902832b73234b7339d160651b815250826101000151612371565b6129156040518060400160405280601381526020017202da130b93930b1b5b9ae9020b6b7bab73a1d1606d1b8152508260e00151612371565b6129536040518060400160405280601781526020017602da130b93930b1b5b9ae9024ba32b69021b7bab73a1d1604d1b815250826102400151612371565b8060a00151600114801561296b575060008160e00151115b156129985782601201548160c0015114156129985760405162461bcd60e51b8152600401610429906155b6565b610240810151156131955760016102208201525b601481610220015111613195576001600160a01b0387166000908152600b84016020908152604080832061022085015160ff16845290915290205461020082018190526129f857613184565b610200810151604051633129e77360e01b815273__$cc4a53c932f829c5fc834b450b71c23bdf$__91633129e77391612a34919060040161572b565b60006040518083038186803b158015612a4c57600080fd5b505af4158015612a60573d6000803e3d6000fd5b505050506040513d6000823e601f3d908101601f19168201604052612a889190810190614cd8565b8160400181905250612ad26040518060400160405280601481526020017302da130b93930b1b5b9ae9024ba32b69024a21d160651b81525082604001516020015161ffff16612371565b604080518082018252601981527802da130b93930b1b5b9ae9024ba32b6902b32b939b4b7b71d1603d1b60208201529082015151612b14919061ffff16612371565b612b5a6040518060400160405280601681526020017502da130b93930b1b5b9ae9024ba32b6902a3cb8329d160551b8152508260400151604001516018811115610c3e57fe5b6040810151606001515161028082015260006102608201525b80610280015181610260015110156131845780604001516060015181610260015181518110612b9e57fe5b6020908102919091018101516080830181905281015161ffff16600090815260138501909152604090205460ff1615612bd657613173565b80608001516020015161ffff1660011415612c1257608081015160400151610120820151612c079161ffff166140cd565b610120820152613168565b80608001516020015161ffff1660021415612c2c57613168565b80608001516020015161ffff1660031415612cdb5760608101516040015161ffff1615612cd657608081015160409081015160ff166000908152600d850160205220546001600160a01b03166104008201526102c0810151612ccf90606490612cc390612c9a908390614125565b612cc96064612cc387606001516040015161ffff1688610100015161418290919063ffffffff16565b906141db565b90614182565b6104208201525b613168565b80608001516020015161ffff1660041415612d2d5760018054810190819055612d069060649061423f565b6102a0820181905260808201516040015161ffff1610612cd6576001610440820152613168565b80608001516020015161ffff1660051415612d805760018054810190819055612d589060649061423f565b6102a0820181905260808201516040015161ffff161115612cd6576064610160820152613168565b80608001516020015161ffff1660061415612dbc57608081015160400151610160820151612db19161ffff166140cd565b610160820152613168565b80608001516020015161ffff1660071415612dd657613168565b80608001516020015161ffff1660081415612e12576080810151604001516102c0820151612e079161ffff166140cd565b6102c0820152613168565b80608001516020015161ffff1660091415612e4f576001600160a01b038088166000908152601b8501602052604090205416610360820152613168565b80608001516020015161ffff16600a1415612e8c576001600160a01b038088166000908152601a8501602052604090205416610380820152613168565b80608001516020015161ffff16600b1415612f1757600e83015460018054810190819055612ebe91600019019061423f565b6102a0820181905260ff166000908152600d8401602052604090819020546001600160a01b03166103c083015260808201510151610100820151612f0c91606491612cc39161ffff16614182565b6103e0820152613168565b80608001516020015161ffff16600c1415612f3157613168565b80608001516020015161ffff16600d1415612f6d57608081015160400151610300820151612f629161ffff166140cd565b610300820152613168565b80608001516020015161ffff16600e1415612f8757613168565b80608001516020015161ffff16600d1415612fb857608081015160400151610300820151612f629161ffff166140cd565b80608001516020015161ffff16600e1415612fd257613168565b80608001516020015161ffff16600f1415612fec57613168565b80608001516020015161ffff166010141561300657613168565b80608001516020015161ffff16601114156130285760016102e0820152613168565b80608001516020015161ffff16601214156130555760808101516040015161ffff16610320820152613168565b80608001516020015161ffff166013141561306f57613168565b80608001516020015161ffff16601414156130b457806101c0015181608001516040015161ffff1614612cd65760405162461bcd60e51b8152600401610429906154d8565b80608001516020015161ffff16601514156130fc57806101e0015160ff1681608001516040015161ffff1614612cd65760405162461bcd60e51b815260040161042990615383565b80608001516020015161ffff166016141561311657613168565b80608001516020015161ffff166017141561313057613168565b80608001516020015161ffff166018141561314a57613168565b80608001516020015161ffff16601914156131685760016104608201525b608081015160608201525b610260810180516001019052612b73565b6102208101805160010190526129ac565b8061034001516001600160a01b03168161038001516001600160a01b031614156131ca57600061010082018190526101408201525b8060a0015160021415613213578061034001516001600160a01b03168161036001516001600160a01b031614156132135760405162461bcd60e51b8152600401610429906151a6565b600081610100015111801561322d57506000816101600151115b156133c5576132546064612cc383610160015184610100015161418290919063ffffffff16565b6101808201526101208101516101608201511115613279576000610120820152613295565b61016081015161012082015161328e91614125565b6101208201525b80610100015181610180015111156132bd5761010081018051610180830152600090526132d9565b6101808101516101008201516132d291614125565b6101008201525b8051600a84015461018083015160405163ca6b6f5560e01b81526001600160a01b039384169363ca6b6f55936133149391169160040161506c565b600060405180830381600087803b15801561332e57600080fd5b505af1158015613342573d6000803e3d6000fd5b5050505061337e6040518060400160405280601181526020017002da130b93930b1b5b9ae90213ab9371d1607d1b815250826101800151612371565b866001600160a01b03167fbd6c81b22f61e66bb371451577d2d772376e4204095bdfd92ff6a48aa86837ef8261018001516040516133bc919061572b565b60405180910390a25b60008161010001511180156133df57506000816103e00151115b1561350b576134226040518060400160405280601181526020017002da130b93930b1b5b9ae9029bbb0b81d1607d1b815250826103c00151836103e00151613f42565b6103e081015161010082015161343791614125565b61010082015280516103c082015160078501546103e08401516040516302bcbcc160e41b81526001600160a01b0394851694632bcbcc10946134839490939116918d9190600401615085565b600060405180830381600087803b15801561349d57600080fd5b505af11580156134b1573d6000803e3d6000fd5b50505050806103c001516001600160a01b0316876001600160a01b03167fdfe373e52db0b98b4ca79f63f3f066d7f01bdce95d5bcc91bd914cdd6a8bfb0c836103e00151604051613502919061572b565b60405180910390a35b6135466064612cc36064846102c0015111613537576102c084015161353290606490614125565b61353a565b60005b61042085015190614182565b6104208201526101008101511580159061356557506000816104200151115b156137ad576135c16040518060400160405280600f81526020016e2da130b93930b1b5b9ae902332b29d60891b8152508261042001516040518060400160405280600281526020016137b760f11b81525084610100015161428a565b6136086040518060400160405280600281526020016137b360f11b8152508261040001516040518060400160405280600481526020016366726f6d60e01b8152508a6143a7565b604080518082019091526002815261746f60f01b6020820152600784015461363991906001600160a01b0316614016565b8061042001518161040001516001600160a01b03166370a08231896040518263ffffffff1660e01b81526004016136709190615058565b60206040518083038186803b15801561368857600080fd5b505afa15801561369c573d6000803e3d6000fd5b505050506040513d601f19601f820116820180604052508101906136c09190614dd7565b10156136de5760405162461bcd60e51b81526004016104299061558a565b805161040082015160078501546104208401516040516302bcbcc160e41b81526001600160a01b0394851694632bcbcc10946137259490938e939290911691600401615085565b600060405180830381600087803b15801561373f57600080fd5b505af1158015613753573d6000803e3d6000fd5b505050508061040001516001600160a01b0316876001600160a01b03167fd8449057aba08c8471cc2df06e1191048c936b03fafe68ad13d26d90798c93d58361042001516040516137a4919061572b565b60405180910390a35b60008161010001511180156137c757506000816101200151115b15613994576137ee6064612cc383610120015184610100015161418290919063ffffffff16565b610140820190815260408051808201909152601281527102da130b93930b1b5b9ae902137b73ab99d160751b6020820152905161382b9190612371565b60078301546040516370a0823160e01b81526138b6916014916001600160a01b038a8116926370a08231926138669290911690600401615058565b60206040518083038186803b15801561387e57600080fd5b505afa158015613892573d6000803e3d6000fd5b505050506040513d601f19601f82011682018060405250810190612cc39190614dd7565b81610140015111156138da5760405162461bcd60e51b815260040161042990615188565b805160078401546101408301516040516302bcbcc160e41b81526001600160a01b0393841693632bcbcc109361391b938c9391909216918d91600401615085565b600060405180830381600087803b15801561393557600080fd5b505af1158015613949573d6000803e3d6000fd5b50505050866001600160a01b03167f7203e7db7b790743c0d380a243aa1629267ec702b820d4413cc65f7d3e15ba8882610140015160405161398b919061572b565b60405180910390a25b60008161010001511180156139ab57508061044001515b80156139c05750806103a001518160c0015114155b80156139d057506103a081015115155b15613cfe57613a206040518060400160405280601881526020017702da130b93930b1b5b9ae902434b23232b7102837b7b61d160451b815250826103a00151836101a001518461010001516144d6565b61010081018051600090915281516103a08301516101a08401516040516339984dcb60e11b81526001600160a01b03909316926373309b9692613a67929091600401615734565b600060405180830381600087803b158015613a8157600080fd5b505af1158015613a95573d6000803e3d6000fd5b505083516103a08501516101a0860151604051630858da6d60e21b81526001600160a01b03909316945063216369b49350613ad292600401615734565b600060405180830381600087803b158015613aec57600080fd5b505af1158015613b00573d6000803e3d6000fd5b505083516103a0850151604051630ee198ed60e21b81526001600160a01b039092169350633b8663b49250613b3b9161029a9060040161574b565b600060405180830381600087803b158015613b5557600080fd5b505af1158015613b69573d6000803e3d6000fd5b505083516103a0850151604051631ab3ec5560e31b81526001600160a01b03909216935063faa8e758925090613c07908590859063d59f62a890613bb190869060040161572b565b60206040518083038186803b158015613bc957600080fd5b505afa158015613bdd573d6000803e3d6000fd5b505050506040513d601f19601f82011682018060405250810190613c019190614dd7565b906140cd565b6040518363ffffffff1660e01b8152600401613c2492919061574b565b600060405180830381600087803b158015613c3e57600080fd5b505af1158015613c52573d6000803e3d6000fd5b505083516103a0850151604051634e18d60760e01b81526001600160a01b039092169350634e18d6079250613c899160040161572b565b600060405180830381600087803b158015613ca357600080fd5b505af1158015613cb7573d6000803e3d6000fd5b50505050876001600160a01b03167f21d9757e72ed3c439ed21ea06df5c09b611c00fbab96ec3aa3b6e4852f83d14582604051613cf4919061572b565b60405180910390a2505b613d396040518060400160405280601481526020017302da130b93930b1b5b9ae902832b73234b7339d160651b815250826101000151612371565b61010001519998505050505050505050565b61259a816040516024018080602001828103825283818151815260200191508051906020019080838360005b83811015613d8f578181015183820152602001613d77565b50505050905090810190601f168015613dbc5780820380516001836020036101000a031916815260200191505b5060408051601f198184030181529190526020810180516001600160e01b031663104c13eb60e21b1790529250613efd915050565b7f60ef52de389e031aa1a263683d661bb1f0f0067690cd1478d8147cb8d16fd36590565b6001613e1f61459d565b6001600160e01b03199290921660009081526020929092526040909120805460ff1916911515919091179055565b60408051602481018690526001600160a01b03851660448201526064810184905260848082018490528251808303909101815260a49091019091526020810180516001600160e01b03166332a68fad60e21b179052611f4b90613efd565b604080516001600160a01b038416602482015260448082018490528251808303909101815260649091019091526020810180516001600160e01b031663a9059cbb60e01b1790526122439084906145c1565b80516a636f6e736f6c652e6c6f67602083016000808483855afa5050505050565b7f7d6de791bb70f9ece89640b24ba3c85333862281f6bbed3e116f205cc39fe8dd90565b6122438383836040516024018080602001846001600160a01b03168152602001838152602001828103825285818151815260200191508051906020019080838360005b83811015613f9d578181015183820152602001613f85565b50505050905090810190601f168015613fca5780820380516001836020036101000a031916815260200191505b5060408051601f198184030181529190526020810180516001600160e01b03166307c8121760e01b1790529450613efd9350505050565b600061255a836001600160a01b038416614672565b61241f82826040516024018080602001836001600160a01b03168152602001828103825284818151815260200191508051906020019080838360005b8381101561406a578181015183820152602001614052565b50505050905090810190601f1680156140975780820380516001836020036101000a031916815260200191505b5060408051601f198184030181529190526020810180516001600160e01b031663319af33360e01b1790529350613efd92505050565b60008282018381101561255a576040805162461bcd60e51b815260206004820152601b60248201527a536166654d6174683a206164646974696f6e206f766572666c6f7760281b604482015290519081900360640190fd5b60008282111561417c576040805162461bcd60e51b815260206004820152601e60248201527f536166654d6174683a207375627472616374696f6e206f766572666c6f770000604482015290519081900360640190fd5b50900390565b60008261419157506000611e82565b8282028284828161419e57fe5b041461255a5760405162461bcd60e51b815260040180806020018281038252602181526020018061586f6021913960400191505060405180910390fd5b600080821161422e576040805162461bcd60e51b815260206004820152601a602482015279536166654d6174683a206469766973696f6e206279207a65726f60301b604482015290519081900360640190fd5b81838161423757fe5b049392505050565b600060018201915082600101424433856040516020016142629493929190615030565b6040516020818303038152906040528051906020012060001c8161428257fe5b069392505050565b611f4b84848484604051602401808060200185815260200180602001848152602001838103835287818151815260200191508051906020019080838360005b838110156142e15781810151838201526020016142c9565b50505050905090810190601f16801561430e5780820380516001836020036101000a031916815260200191505b50838103825285518152855160209182019187019080838360005b83811015614341578181015183820152602001614329565b50505050905090810190601f16801561436e5780820380516001836020036101000a031916815260200191505b5060408051601f198184030181529190526020810180516001600160e01b031663a0c4b22560e01b1790529650613efd95505050505050565b611f4b848484846040516024018080602001856001600160a01b0316815260200180602001846001600160a01b03168152602001838103835287818151815260200191508051906020019080838360005b838110156144105781810151838201526020016143f8565b50505050905090810190601f16801561443d5780820380516001836020036101000a031916815260200191505b50838103825285518152855160209182019187019080838360005b83811015614470578181015183820152602001614458565b50505050905090810190601f16801561449d5780820380516001836020036101000a031916815260200191505b5060408051601f198184030181529190526020810180516001600160e01b031663aabc9a3160e01b1790529650613efd95505050505050565b611f4b848484846040516024018080602001858152602001846001600160a01b03168152602001838152602001828103825286818151815260200191508051906020019080838360005b83811015614538578181015183820152602001614520565b50505050905090810190601f1680156145655780820380516001836020036101000a031916815260200191505b5060408051601f198184030181529190526020810180516001600160e01b0316632c24bd7f60e11b1790529550613efd945050505050565b7fcc9a06305c1a07451b0ef978f05c89b3ed55594bfd8ab1fa71a1c8bb75377afc90565b6000614616826040518060400160405280602081526020017f5361666542455032303a206c6f772d6c6576656c2063616c6c206661696c6564815250856001600160a01b031661468a9092919063ffffffff16565b8051909150156122435780806020019051602081101561463557600080fd5b50516122435760405162461bcd60e51b815260040180806020018281038252602a8152602001806157df602a913960400191505060405180910390fd5b60009081526001919091016020526040902054151590565b606061469984846000856146a1565b949350505050565b6060824710156146e25760405162461bcd60e51b81526004018080602001828103825260268152602001806158096026913960400191505060405180910390fd5b6146eb856147fc565b61473c576040805162461bcd60e51b815260206004820152601d60248201527f416464726573733a2063616c6c20746f206e6f6e2d636f6e7472616374000000604482015290519081900360640190fd5b600080866001600160a01b031685876040518082805190602001908083835b6020831061477a5780518252601f19909201916020918201910161475b565b6001836020036101000a03801982511681845116808217855250505050505090500191505060006040518083038185875af1925050503d80600081146147dc576040519150601f19603f3d011682016040523d82523d6000602084013e6147e1565b606091505b50915091506147f1828286614802565b979650505050505050565b3b151590565b6060831561481157508161255a565b8251156148215782518084602001fd5b8160405162461bcd60e51b81526004018080602001828103825283818151815260200191508051906020019080838360005b8381101561486b578181015183820152602001614853565b50505050905090810190601f1680156148985780820380516001836020036101000a031916815260200191505b509250505060405180910390fd5b6040805161048081018252600080825260208201529081016148c66149fe565b81526020016148d3614a65565b81526020016148e0614a65565b8152602001600081526020016000815260200160008152602001600081526020016000815260200160008152602001600081526020016000815260200160006001600160a01b0316815260200160008152602001600060ff16815260200160008152602001600081526020016000815260200160008152602001600081526020016000815260200160008152602001600015158152602001600081526020016000815260200160006001600160a01b0316815260200160006001600160a01b0316815260200160006001600160a01b031681526020016000815260200160006001600160a01b031681526020016000815260200160006001600160a01b03168152602001600081526020016000151581526020016000151581525090565b604080516080810182526000808252602082018190529181019190915260608082015290565b6040518060c0016040528060008152602001600081526020016000815260200160006001600160a01b03168152602001600081526020016000151581525090565b604080516060810182526000808252602082018190529181019190915290565b600082601f830112614a95578081fd5b815160206001600160401b0380831115614aab57fe5b614ab88283850201615759565b838152828101908684016060808702890186018a1015614ad6578788fd5b875b87811015614b495781838c031215614aee578889fd5b604080518381018181108982111715614b0357fe5b82528451614b10816157af565b815284890151614b1f8161579f565b818a015284820151614b308161579f565b9181019190915285529386019391810191600101614ad8565b50919998505050505050505050565b8035601581106117b957600080fd5b8051601981106117b957600080fd5b600060208284031215614b87578081fd5b813561255a8161577c565b600060208284031215614ba3578081fd5b815161255a8161577c565b60008060008060008060c08789031215614bc6578182fd5b8635614bd18161577c565b95506020870135614be18161577c565b94506040870135614bf18161577c565b93506060870135614c018161577c565b92506080870135614c118161577c565b8092505060a087013590509295509295509295565b60008060408385031215614c38578182fd5b8235614c438161577c565b9150614c5160208401614b58565b90509250929050565b60008060408385031215614c6c578182fd5b8235614c778161577c565b946020939093013593505050565b600060208284031215614c96578081fd5b813561255a81615791565b600060208284031215614cb2578081fd5b815161255a81615791565b60008060408385031215614ccf578182fd5b614c7783614b58565b600060208284031215614ce9578081fd5b81516001600160401b0380821115614cff578283fd5b9083019060808286031215614d12578283fd5b604051608081018181108382111715614d2757fe5b6040528251614d358161579f565b81526020830151614d458161579f565b6020820152614d5660408401614b67565b6040820152606083015182811115614d6c578485fd5b614d7887828601614a85565b60608301525095945050505050565b60008060408385031215614d99578081fd5b8235614da48161579f565b91506020830135614db481615791565b809150509250929050565b600060208284031215614dd0578081fd5b5035919050565b600060208284031215614de8578081fd5b5051919050565b60008060008060808587031215614e04578182fd5b843593506020850135614e168161577c565b93969395505050506040820135916060013590565b60008060008060808587031215614e40578182fd5b84359350602085013592506040850135614e598161577c565b91506060850135614e698161577c565b939692955090935050565b600080600080600060a08688031215614e8b578283fd5b85359450602086013593506040860135614ea48161577c565b92506060860135614eb48161577c565b949793965091946080013592915050565b60008060008060008060c08789031215614edd578384fd5b8651955060208701519450604087015193506060870151614efd8161577c565b608088015160a08901519194509250614f1581615791565b809150509295509295509295565b600060208284031215614f34578081fd5b813561255a816157af565b600060208284031215614f50578081fd5b815161255a816157af565b60008060408385031215614f6d578182fd5b8235614f78816157af565b91506020830135614db48161577c565b600080600080600080600080610100898b031215614fa4578586fd5b8835614faf816157af565b97506020890135614fbf8161577c565b96506040890135614fcf816157af565b95506060890135614fdf8161577c565b94506080890135614fef816157af565b935060a0890135614fff8161577c565b925060c089013561500f816157af565b915060e089013561501f8161577c565b809150509295985092959890939650565b938452602084019290925260601b6001600160601b0319166040830152605482015260740190565b6001600160a01b0391909116815260200190565b6001600160a01b03929092168252602082015260400190565b6001600160a01b039485168152928416602084015292166040820152606081019190915260800190565b6000602080835283518082850152825b818110156150db578581018301518582016040015282016150bf565b818111156150ec5783604083870101525b50601f01601f1916929092016040019392505050565b60208082526017908201527610d85b881bdb9b1e48195c5d5a5c081bdb8818da195cdd604a1b604082015260600190565b60208082526009908201526813db9b1e481c985a5960ba1b604082015260600190565b60208082526018908201527721b0b71037b7363c9032b8bab4b81037b7103334b733b2b960411b604082015260600190565b602080825260049082015263229b1b1b60e11b604082015260600190565b6020808252818101527f556e7374616b65206c6f636b656420756e74696c206e65787420726577617264604082015260600190565b6020808252600d908201526c0496e76616c696420657175697609c1b604082015260600190565b6020808252601b908201527a27b7363c9027232a1037bbb732b91031b0b7103932b3b4b9ba32b960291b604082015260600190565b602080825260119082015270125d195b481b9bdd08195c5d5a5c1c1959607a1b604082015260600190565b60208082526029908201527f43616e742065717569702061206f6e652068616e6465722077697468206120746040820152683bb7903430b73232b960b91b606082015260800190565b60208082526024908201527f43616e206f6e6c7920657175697020696e206c656674206f72207269676874206040820152631a185b9960e21b606082015260800190565b60208082526026908201527f496e697469616c697a61626c653a20496e73756666696369656e74207065726d60408201526534b9b9b4b7b760d11b606082015260800190565b6020808252602e908201527f496e697469616c697a61626c653a20436f6e747261637420697320616c72656160408201526d191e481a5b9a5d1a585b1a5e995960921b606082015260800190565b6020808252600b908201526a57726f6e6720636c61737360a81b604082015260600190565b6020808252601b908201527a43616e206f6e6c79206571756970206f6e2073686f756c6465727360281b604082015260600190565b6020808252601b908201527a10d85b881bdb9b1e48195c5d5a5c081a5b881b19599d081a185b99602a1b604082015260600190565b6020808252601c908201527b10d85b881bdb9b1e48195c5d5a5c081a5b881c9a59da1d081a185b9960221b604082015260600190565b60208082526017908201527610d85b881bdb9b1e48195c5d5a5c081bdb881dd85a5cdd604a1b604082015260600190565b60208082526015908201527414db1bdd08185b1c9958591e48195c5d5a5c1c1959605a1b604082015260600190565b60208082526016908201527543616e206f6e6c79206571756970206f6e206e65636b60501b604082015260600190565b6020808252600b908201526a15dc9bdb99c819dd5a5b1960aa1b604082015260600190565b60208082526013908201527255736572206d7573742062652061637469766560681b604082015260600190565b60208082526016908201527543616e206f6e6c79206571756970206f6e20626f647960501b604082015260600190565b60208082526016908201527510d85b881bdb9b1e48195c5d5a5c081bdb881a19585960521b604082015260600190565b6020808252601290820152714e6f7420656e6f75676820666f722066656560701b604082015260600190565b60208082526023908201527f4e6f206465706f7369747320746f2068696464656e20706f6f6c206469726563604082015262746c7960e81b606082015260800190565b60208082526016908201527510d85b881bdb9b1e48195c5d5a5c081bdb881999595d60521b604082015260600190565b60208082526019908201527810d85b881bdb9b1e48195c5d5a5c081bdb881d1c9a5b9ad95d603a1b604082015260600190565b60208082526017908201527643616e206f6e6c79206571756970206f6e2068616e647360481b604082015260600190565b6000602080835260a0830161ffff8086511683860152828601516040828216818801528088015191506060601983106156c257fe5b878101929092528782015160808089015280519485905285019386929060c08901905b8085101561571d578651805160ff168352888101518716898401528401518616848301529587019560019490940193908201906156e5565b509998505050505050505050565b90815260200190565b9182526001600160a01b0316602082015260400190565b918252602082015260400190565b6040518181016001600160401b038111828210171561577457fe5b604052919050565b6001600160a01b038116811461259a57600080fd5b801515811461259a57600080fd5b61ffff8116811461259a57600080fd5b60ff8116811461259a57600080fdfe5265656e7472616e637947756172643a207265656e7472616e742063616c6c005361666542455032303a204245503230206f7065726174696f6e20646964206e6f742073756363656564416464726573733a20696e73756666696369656e742062616c616e636520666f722063616c6c5065726d61626c652077697468526f6c6500000000000000000000000000000051b355059847d158e68950419dbcd54fad00bdfd0634c2515a5c533288c7f0a2536166654d6174683a206d756c7469706c69636174696f6e206f766572666c6f775065726d61626c653a20496e73756666696369656e74207065726d697373696f6e73a26469706673582212204fedd31aa25d647d72e9dfe1eb66bdf64494ca49955b8dffb916cabdf6efcc8864736f6c63430007060033",
  "linkReferences": {
    "src/ArcaneItemLibraryV2.sol": {
      "ArcaneItemLibraryV2": [
        {
          "length": 20,
          "start": 1389
        },
        {
          "length": 20,
          "start": 1780
        },
        {
          "length": 20,
          "start": 2838
        },
        {
          "length": 20,
          "start": 5328
        },
        {
          "length": 20,
          "start": 5984
        },
        {
          "length": 20,
          "start": 10803
        }
      ]
    }
  },
  "deployedLinkReferences": {
    "src/ArcaneItemLibraryV2.sol": {
      "ArcaneItemLibraryV2": [
        {
          "length": 20,
          "start": 1351
        },
        {
          "length": 20,
          "start": 1742
        },
        {
          "length": 20,
          "start": 2800
        },
        {
          "length": 20,
          "start": 5290
        },
        {
          "length": 20,
          "start": 5946
        },
        {
          "length": 20,
          "start": 10765
        }
      ]
    }
  }
}