{
  "_format": "hh-sol-artifact-1",
  "contractName": "RuneCubeV1",
  "sourceName": "src/RuneCubeV1.sol",
  "abi": [
    {
      "anonymous": false,
      "inputs": [
        {
          "indexed": true,
          "internalType": "address",
          "name": "user",
          "type": "address"
        },
        {
          "indexed": false,
          "internalType": "uint256",
          "name": "totalClaim",
          "type": "uint256"
        },
        {
          "indexed": false,
          "internalType": "uint256[]",
          "name": "lorekeepers",
          "type": "uint256[]"
        }
      ],
      "name": "ClaimedShards",
      "type": "event"
    },
    {
      "anonymous": false,
      "inputs": [
        {
          "indexed": true,
          "internalType": "address",
          "name": "user",
          "type": "address"
        },
        {
          "indexed": true,
          "internalType": "uint256",
          "name": "nonce",
          "type": "uint256"
        },
        {
          "indexed": false,
          "internalType": "string",
          "name": "requestId",
          "type": "string"
        }
      ],
      "name": "Disenchanted",
      "type": "event"
    },
    {
      "anonymous": false,
      "inputs": [
        {
          "indexed": true,
          "internalType": "bytes32",
          "name": "role",
          "type": "bytes32"
        },
        {
          "indexed": true,
          "internalType": "bytes32",
          "name": "previousAdminRole",
          "type": "bytes32"
        },
        {
          "indexed": true,
          "internalType": "bytes32",
          "name": "newAdminRole",
          "type": "bytes32"
        }
      ],
      "name": "RoleAdminChanged",
      "type": "event"
    },
    {
      "anonymous": false,
      "inputs": [
        {
          "indexed": true,
          "internalType": "bytes32",
          "name": "role",
          "type": "bytes32"
        },
        {
          "indexed": true,
          "internalType": "address",
          "name": "account",
          "type": "address"
        },
        {
          "indexed": true,
          "internalType": "address",
          "name": "sender",
          "type": "address"
        }
      ],
      "name": "RoleGranted",
      "type": "event"
    },
    {
      "anonymous": false,
      "inputs": [
        {
          "indexed": true,
          "internalType": "bytes32",
          "name": "role",
          "type": "bytes32"
        },
        {
          "indexed": true,
          "internalType": "address",
          "name": "account",
          "type": "address"
        },
        {
          "indexed": true,
          "internalType": "address",
          "name": "sender",
          "type": "address"
        }
      ],
      "name": "RoleRevoked",
      "type": "event"
    },
    {
      "anonymous": false,
      "inputs": [
        {
          "indexed": true,
          "internalType": "address",
          "name": "user",
          "type": "address"
        },
        {
          "indexed": true,
          "internalType": "uint256",
          "name": "nonce",
          "type": "uint256"
        },
        {
          "indexed": false,
          "internalType": "string",
          "name": "requestId",
          "type": "string"
        }
      ],
      "name": "Transmuted",
      "type": "event"
    },
    {
      "anonymous": false,
      "inputs": [
        {
          "indexed": true,
          "internalType": "address",
          "name": "user",
          "type": "address"
        },
        {
          "indexed": false,
          "internalType": "uint256[]",
          "name": "tokens",
          "type": "uint256[]"
        }
      ],
      "name": "Upgraded",
      "type": "event"
    },
    {
      "inputs": [],
      "name": "DEFAULT_ADMIN_ROLE",
      "outputs": [
        {
          "internalType": "bytes32",
          "name": "",
          "type": "bytes32"
        }
      ],
      "stateMutability": "view",
      "type": "function"
    },
    {
      "inputs": [],
      "name": "DEV_ROLE",
      "outputs": [
        {
          "internalType": "bytes32",
          "name": "",
          "type": "bytes32"
        }
      ],
      "stateMutability": "view",
      "type": "function"
    },
    {
      "inputs": [],
      "name": "RAID_MASTER_ROLE",
      "outputs": [
        {
          "internalType": "bytes32",
          "name": "",
          "type": "bytes32"
        }
      ],
      "stateMutability": "view",
      "type": "function"
    },
    {
      "inputs": [
        {
          "internalType": "address",
          "name": "blocked",
          "type": "address"
        }
      ],
      "name": "blockAddress",
      "outputs": [],
      "stateMutability": "nonpayable",
      "type": "function"
    },
    {
      "inputs": [
        {
          "internalType": "uint256[]",
          "name": "lorekeepers",
          "type": "uint256[]"
        }
      ],
      "name": "claimWorldstoneShards",
      "outputs": [],
      "stateMutability": "nonpayable",
      "type": "function"
    },
    {
      "inputs": [
        {
          "components": [
            {
              "internalType": "uint256[]",
              "name": "disenchantTokenIds",
              "type": "uint256[]"
            },
            {
              "internalType": "address",
              "name": "dustToken",
              "type": "address"
            },
            {
              "internalType": "uint256",
              "name": "dustAmount",
              "type": "uint256"
            },
            {
              "internalType": "address",
              "name": "purportedSigner",
              "type": "address"
            },
            {
              "internalType": "address",
              "name": "user",
              "type": "address"
            },
            {
              "internalType": "uint256",
              "name": "nonce",
              "type": "uint256"
            },
            {
              "internalType": "uint256",
              "name": "expiry",
              "type": "uint256"
            },
            {
              "internalType": "string",
              "name": "requestId",
              "type": "string"
            }
          ],
          "internalType": "struct RuneCubeV1.DisenchantData",
          "name": "data",
          "type": "tuple"
        },
        {
          "internalType": "bytes",
          "name": "signature",
          "type": "bytes"
        }
      ],
      "name": "disenchant",
      "outputs": [],
      "stateMutability": "nonpayable",
      "type": "function"
    },
    {
      "inputs": [
        {
          "internalType": "address",
          "name": "for_",
          "type": "address"
        }
      ],
      "name": "getNextNoncesAndExpiry",
      "outputs": [
        {
          "internalType": "uint256",
          "name": "nextDisenchantNonce",
          "type": "uint256"
        },
        {
          "internalType": "uint256",
          "name": "nextTransmuteNonce",
          "type": "uint256"
        },
        {
          "internalType": "uint256",
          "name": "expiry",
          "type": "uint256"
        }
      ],
      "stateMutability": "view",
      "type": "function"
    },
    {
      "inputs": [
        {
          "internalType": "bytes32",
          "name": "role",
          "type": "bytes32"
        }
      ],
      "name": "getRoleAdmin",
      "outputs": [
        {
          "internalType": "bytes32",
          "name": "",
          "type": "bytes32"
        }
      ],
      "stateMutability": "view",
      "type": "function"
    },
    {
      "inputs": [
        {
          "internalType": "uint256[]",
          "name": "lorekeepers",
          "type": "uint256[]"
        }
      ],
      "name": "getShardsClaimable",
      "outputs": [
        {
          "internalType": "uint256[]",
          "name": "shardsClaimable_",
          "type": "uint256[]"
        }
      ],
      "stateMutability": "view",
      "type": "function"
    },
    {
      "inputs": [
        {
          "internalType": "uint256",
          "name": "lorekeeper",
          "type": "uint256"
        }
      ],
      "name": "getShardsClaimable",
      "outputs": [
        {
          "internalType": "uint256",
          "name": "shardsClaimable_",
          "type": "uint256"
        }
      ],
      "stateMutability": "view",
      "type": "function"
    },
    {
      "inputs": [],
      "name": "getShardsClaimablePerLorekeeper",
      "outputs": [
        {
          "internalType": "uint256",
          "name": "shardsClaimablePerLorekeeper",
          "type": "uint256"
        }
      ],
      "stateMutability": "view",
      "type": "function"
    },
    {
      "inputs": [
        {
          "internalType": "uint256[]",
          "name": "lorekeepers",
          "type": "uint256[]"
        }
      ],
      "name": "getShardsClaimed",
      "outputs": [
        {
          "internalType": "uint256[]",
          "name": "shardsClaimed_",
          "type": "uint256[]"
        }
      ],
      "stateMutability": "view",
      "type": "function"
    },
    {
      "inputs": [
        {
          "internalType": "uint256",
          "name": "lorekeeper",
          "type": "uint256"
        }
      ],
      "name": "getShardsClaimed",
      "outputs": [
        {
          "internalType": "uint256",
          "name": "shardsClaimed_",
          "type": "uint256"
        }
      ],
      "stateMutability": "view",
      "type": "function"
    },
    {
      "inputs": [
        {
          "internalType": "uint256[]",
          "name": "lorekeepers",
          "type": "uint256[]"
        }
      ],
      "name": "getTotalShardsClaimable",
      "outputs": [
        {
          "internalType": "uint256",
          "name": "shardsClaimable_",
          "type": "uint256"
        }
      ],
      "stateMutability": "view",
      "type": "function"
    },
    {
      "inputs": [
        {
          "internalType": "uint256[]",
          "name": "lorekeepers",
          "type": "uint256[]"
        }
      ],
      "name": "getTotalShardsClaimed",
      "outputs": [
        {
          "internalType": "uint256",
          "name": "shardsClaimed_",
          "type": "uint256"
        }
      ],
      "stateMutability": "view",
      "type": "function"
    },
    {
      "inputs": [],
      "name": "getWorldstoneShardTemplate",
      "outputs": [
        {
          "internalType": "uint256",
          "name": "",
          "type": "uint256"
        }
      ],
      "stateMutability": "view",
      "type": "function"
    },
    {
      "inputs": [
        {
          "internalType": "bytes32",
          "name": "role",
          "type": "bytes32"
        },
        {
          "internalType": "address",
          "name": "account",
          "type": "address"
        }
      ],
      "name": "grantRole",
      "outputs": [],
      "stateMutability": "nonpayable",
      "type": "function"
    },
    {
      "inputs": [
        {
          "internalType": "bytes32",
          "name": "role",
          "type": "bytes32"
        },
        {
          "internalType": "address",
          "name": "account",
          "type": "address"
        }
      ],
      "name": "hasRole",
      "outputs": [
        {
          "internalType": "bool",
          "name": "",
          "type": "bool"
        }
      ],
      "stateMutability": "view",
      "type": "function"
    },
    {
      "inputs": [
        {
          "internalType": "address",
          "name": "authorisedSigner_",
          "type": "address"
        },
        {
          "internalType": "contract IRuneBlacksmith",
          "name": "runeBlacksmith_",
          "type": "address"
        },
        {
          "internalType": "contract IArcaneItems",
          "name": "arcaneItems_",
          "type": "address"
        },
        {
          "internalType": "uint256",
          "name": "expirySeconds_",
          "type": "uint256"
        },
        {
          "internalType": "uint256",
          "name": "shardsClaimable_",
          "type": "uint256"
        },
        {
          "internalType": "address",
          "name": "defaultAdmin_",
          "type": "address"
        }
      ],
      "name": "initialize",
      "outputs": [],
      "stateMutability": "nonpayable",
      "type": "function"
    },
    {
      "inputs": [
        {
          "internalType": "address",
          "name": "_address",
          "type": "address"
        }
      ],
      "name": "isBlocked",
      "outputs": [
        {
          "internalType": "bool",
          "name": "blocked",
          "type": "bool"
        }
      ],
      "stateMutability": "view",
      "type": "function"
    },
    {
      "inputs": [
        {
          "internalType": "uint256",
          "name": "tokenId",
          "type": "uint256"
        }
      ],
      "name": "isLorekeeper",
      "outputs": [
        {
          "internalType": "bool",
          "name": "isLorekeeper_",
          "type": "bool"
        }
      ],
      "stateMutability": "view",
      "type": "function"
    },
    {
      "inputs": [
        {
          "internalType": "uint256",
          "name": "tokenId",
          "type": "uint256"
        },
        {
          "internalType": "uint256",
          "name": "itemId",
          "type": "uint256"
        }
      ],
      "name": "isRuneword",
      "outputs": [
        {
          "internalType": "bool",
          "name": "_isRuneword",
          "type": "bool"
        }
      ],
      "stateMutability": "view",
      "type": "function"
    },
    {
      "inputs": [
        {
          "internalType": "uint256",
          "name": "tokenId",
          "type": "uint256"
        }
      ],
      "name": "isShard",
      "outputs": [
        {
          "internalType": "bool",
          "name": "isShard_",
          "type": "bool"
        }
      ],
      "stateMutability": "view",
      "type": "function"
    },
    {
      "inputs": [],
      "name": "nextRaidStarted",
      "outputs": [],
      "stateMutability": "nonpayable",
      "type": "function"
    },
    {
      "inputs": [
        {
          "internalType": "uint256",
          "name": "newClaimableShards",
          "type": "uint256"
        }
      ],
      "name": "overrideClaimableShards",
      "outputs": [],
      "stateMutability": "nonpayable",
      "type": "function"
    },
    {
      "inputs": [
        {
          "internalType": "bytes32",
          "name": "role",
          "type": "bytes32"
        },
        {
          "internalType": "address",
          "name": "account",
          "type": "address"
        }
      ],
      "name": "renounceRole",
      "outputs": [],
      "stateMutability": "nonpayable",
      "type": "function"
    },
    {
      "inputs": [
        {
          "internalType": "address[]",
          "name": "tokens",
          "type": "address[]"
        },
        {
          "internalType": "uint256[]",
          "name": "amounts",
          "type": "uint256[]"
        },
        {
          "internalType": "address",
          "name": "to",
          "type": "address"
        }
      ],
      "name": "retrieveTokens",
      "outputs": [],
      "stateMutability": "nonpayable",
      "type": "function"
    },
    {
      "inputs": [
        {
          "internalType": "bytes32",
          "name": "role",
          "type": "bytes32"
        },
        {
          "internalType": "address",
          "name": "account",
          "type": "address"
        }
      ],
      "name": "revokeRole",
      "outputs": [],
      "stateMutability": "nonpayable",
      "type": "function"
    },
    {
      "inputs": [
        {
          "internalType": "address",
          "name": "_authorisedSigner",
          "type": "address"
        }
      ],
      "name": "setAuthorisedSigner",
      "outputs": [],
      "stateMutability": "nonpayable",
      "type": "function"
    },
    {
      "inputs": [
        {
          "internalType": "uint256",
          "name": "_expirySeconds",
          "type": "uint256"
        }
      ],
      "name": "setExpirySeconds",
      "outputs": [],
      "stateMutability": "nonpayable",
      "type": "function"
    },
    {
      "inputs": [
        {
          "internalType": "contract IRuneBlacksmith",
          "name": "_runeBlacksmith",
          "type": "address"
        }
      ],
      "name": "setRuneBlacksmith",
      "outputs": [],
      "stateMutability": "nonpayable",
      "type": "function"
    },
    {
      "inputs": [
        {
          "internalType": "bytes4",
          "name": "interfaceId",
          "type": "bytes4"
        }
      ],
      "name": "supportsInterface",
      "outputs": [
        {
          "internalType": "bool",
          "name": "",
          "type": "bool"
        }
      ],
      "stateMutability": "view",
      "type": "function"
    },
    {
      "inputs": [
        {
          "components": [
            {
              "internalType": "uint256",
              "name": "transmuteTokenId",
              "type": "uint256"
            },
            {
              "internalType": "uint256",
              "name": "worldstoneShardId",
              "type": "uint256"
            },
            {
              "internalType": "address",
              "name": "dustToken",
              "type": "address"
            },
            {
              "internalType": "uint256",
              "name": "dustAmount",
              "type": "uint256"
            },
            {
              "internalType": "uint256[100]",
              "name": "possibleTransmutes",
              "type": "uint256[100]"
            },
            {
              "internalType": "uint16",
              "name": "itemId",
              "type": "uint16"
            },
            {
              "internalType": "address",
              "name": "purportedSigner",
              "type": "address"
            },
            {
              "internalType": "address",
              "name": "user",
              "type": "address"
            },
            {
              "internalType": "uint256",
              "name": "nonce",
              "type": "uint256"
            },
            {
              "internalType": "uint256",
              "name": "expiry",
              "type": "uint256"
            },
            {
              "internalType": "string",
              "name": "requestId",
              "type": "string"
            }
          ],
          "internalType": "struct RuneCubeV1.TransmuteData",
          "name": "data",
          "type": "tuple"
        },
        {
          "internalType": "bytes",
          "name": "signature",
          "type": "bytes"
        }
      ],
      "name": "transmute",
      "outputs": [],
      "stateMutability": "nonpayable",
      "type": "function"
    },
    {
      "inputs": [
        {
          "components": [
            {
              "internalType": "uint256",
              "name": "transmuteTokenId",
              "type": "uint256"
            },
            {
              "internalType": "uint256",
              "name": "worldstoneShardId",
              "type": "uint256"
            },
            {
              "internalType": "address",
              "name": "dustToken",
              "type": "address"
            },
            {
              "internalType": "uint256",
              "name": "dustAmount",
              "type": "uint256"
            },
            {
              "internalType": "uint256[100]",
              "name": "possibleTransmutes",
              "type": "uint256[100]"
            },
            {
              "internalType": "uint16",
              "name": "itemId",
              "type": "uint16"
            },
            {
              "internalType": "address",
              "name": "purportedSigner",
              "type": "address"
            },
            {
              "internalType": "address",
              "name": "user",
              "type": "address"
            },
            {
              "internalType": "uint256",
              "name": "nonce",
              "type": "uint256"
            },
            {
              "internalType": "uint256",
              "name": "expiry",
              "type": "uint256"
            },
            {
              "internalType": "string",
              "name": "requestId",
              "type": "string"
            }
          ],
          "internalType": "struct RuneCubeV1.TransmuteData[]",
          "name": "data",
          "type": "tuple[]"
        },
        {
          "internalType": "bytes[]",
          "name": "signatures",
          "type": "bytes[]"
        }
      ],
      "name": "transmuteMultiple",
      "outputs": [],
      "stateMutability": "nonpayable",
      "type": "function"
    },
    {
      "inputs": [
        {
          "internalType": "address",
          "name": "unblocked",
          "type": "address"
        }
      ],
      "name": "unblockAddress",
      "outputs": [],
      "stateMutability": "nonpayable",
      "type": "function"
    },
    {
      "inputs": [
        {
          "internalType": "uint256[]",
          "name": "tokens",
          "type": "uint256[]"
        }
      ],
      "name": "upgrade",
      "outputs": [],
      "stateMutability": "nonpayable",
      "type": "function"
    }
  ],
  "bytecode": "0x608060405234801561001057600080fd5b50614d62806100206000396000f3fe608060405234801561001057600080fd5b506004361061025c5760003560e01c80635bff40e611610145578063a217fddf116100bd578063d1a186041161008c578063d547741f11610071578063d547741f1461053f578063fbac395114610552578063fcf0f0d31461056557600080fd5b8063d1a1860414610519578063d4506e771461052c57600080fd5b8063a217fddf146104e3578063aabb8abf146104eb578063ad2bb1b3146104f3578063c600897a1461050657600080fd5b80636cb699281161011457806391d14854116100f957806391d148541461048457806394f172f2146104bd57806395c07ca3146104d057600080fd5b80636cb699281461044a57806381e742c71461045d57600080fd5b80635bff40e6146103e35780635ee9d8bf146104115780636806ce901461042457806369c2b4911461043757600080fd5b80632f2ff15d116101d857806336568abe116101a757806344576c1e1161018c57806344576c1e146103aa5780634b636f72146103bd5780635badf422146103d057600080fd5b806336568abe146103845780633df12a501461039757600080fd5b80632f2ff15d1461034357806330d54ca014610356578063328951ad1461035e5780633519fe3a1461037157600080fd5b80630f8003561161022f578063248a9ca311610214578063248a9ca3146102ed57806329d2abde146103105780632e8716071461032357600080fd5b80630f800356146102c7578063186d9d88146102da57600080fd5b806301991cbd1461026157806301ffc9a7146102765780630c77b1241461029e5780630d0e9cbf146102bf575b600080fd5b61027461026f366004614294565b61058c565b005b6102896102843660046142b1565b61066a565b60405190151581526020015b60405180910390f35b6102b16102ac366004614320565b6106d3565b604051908152602001610295565b610274610723565b6102746102d5366004614320565b6107a4565b6102746102e8366004614294565b611424565b6102b16102fb366004614362565b60009081526099602052604090206001015490565b61027461031e36600461437b565b6114ef565b610336610331366004614320565b6115b0565b6040516102959190614422565b610274610351366004614435565b611650565b6102b161167b565b61033661036c366004614320565b6117f4565b61027461037f366004614294565b611888565b610274610392366004614435565b611961565b6102896103a5366004614465565b6119ed565b6102746103b83660046144c9565b611a6b565b6102746103cb36600461453b565b61216f565b6102746103de366004614362565b612303565b6103f66103f1366004614294565b6123c6565b60408051938452602084019290925290820152606001610295565b6102b161041f366004614362565b612403565b610289610432366004614362565b61240e565b610274610445366004614320565b61241b565b6102b1610458366004614362565b61271f565b6102b17fd96652d07e27f468ab9d0e9a1bc1214f842bae6f9ded3ecd8bcfbcec570b133181565b610289610492366004614435565b60009182526099602090815260408084206001600160a01b0393909316845291905290205460ff1690565b6102b16104cb366004614320565b61272a565b6102896104de366004614362565b61273d565b6102b1600081565b60d3546102b1565b610274610501366004614294565b61274a565b6102746105143660046145ab565b612818565b6102746105273660046145ed565b612823565b61027461053a366004614362565b6129b1565b61027461054d366004614435565b612a60565b610289610560366004614294565b612a86565b6102b17f51b355059847d158e68950419dbcd54fad00bdfd0634c2515a5c533288c7f0a281565b3360009081527f235d629dc802037ded8c61cb27fb29e40fa01b299719d8f991ffe20bdcc59f4f602052604090205460ff16806105f757503360009081527ff5af1598511ce11e9be00f19219bbd41b97c51699606bc8796daa8fc95c963b9602052604090205460ff165b61063b5760405162461bcd60e51b815260206004820152601060248201526f2737ba1030b236b4b71037b9103232bb60811b60448201526064015b60405180910390fd5b60cc805473ffffffffffffffffffffffffffffffffffffffff19166001600160a01b0392909216919091179055565b60006001600160e01b031982167f7965db0b0000000000000000000000000000000000000000000000000000000014806106cd57507f01ffc9a7000000000000000000000000000000000000000000000000000000006001600160e01b03198316145b92915050565b6000805b8281101561071c576107008484838181106106f4576106f4614671565b90506020020135612b4f565b61070a908361469d565b9150610715816146b5565b90506106d7565b5092915050565b3360009081527fbaa53ef0ae9b4865a86f3c696c819ca62c240d2226db8211cfcc6c2af124dca5602052604090205460ff1661078f5760405162461bcd60e51b815260206004820152600b60248201526a5065726d697373696f6e7360a81b6044820152606401610632565b60d36000815461079e906146b5565b90915550565b8060008167ffffffffffffffff8111156107c0576107c06146d0565b6040519080825280602002602001820160405280156107e9578160200160208202803683370190505b50905060008267ffffffffffffffff811115610807576108076146d0565b604051908082528060200260200182016040528015610830578160200160208202803683370190505b509050600061083d61167b565b905060008060005b868110156112bb57600089898381811061086157610861614671565b9050602002013590506000610a8e82604080517ff8f9cbfae6cc78fbefe7cdc3a1793dfcf4f0e8bbd8cec470b6a28a7a5a3e1efd81527ff5ecf1b3e9debc68e1d9cfabc5997135bfb7a7a3938b7b606b5b4b3f2f1f0ffe60208201527ff6e4ed9ff2d6b458eadcdf97bd91692de2d4da8fd2d0ac50c6ae9a8272523616818301527fc8c0b887b0a8a4489c948c7f847c6125746c645c544c444038302820181008ff60608201527ff7cae577eec2a03cf3bad76fb589591debb2dd67e0aa9834bea6925f6a4a2e0e60808201527fe39ed557db96902cd38ed14fad815115c786af479b7e8324736353433727170760a08201527fc976c13bb96e881cb166a933a55e490d9d56952b8d4e801485467d236242260660c08201527f753a6d1b65325d0c552a4d1345224105391a310b29122104190a11030902010060e08201526101008181019092527f01000000000000000000000000000000000000000000000000000000000000007e818283848586878898a8b8c8d8e8f929395969799a9b9d9e9faaeb6bedeeff70010000000000000000000000000000000068010000000000000000640100000000620100006010600460026000198c01908104179081041790810417888104179081041790810417908104179081041760019081019190910282900460ff03909201517f80000000000000000000000000000000000000000000000000000000000000008511909302920491909101016104d102600c1c600a81900a9091110190565b610a9990604e6146e6565b610aa490600a6147e1565b610aae90836147ed565b90506000610adb7e3899162693736ac531a5a58f1fbb4b746504382ca7e400000000000000000083614822565b90506000612710610b097c25179157c93ec73e23fa32aa4f9d3bda934d8ee6a0000000000000000085614822565b610b139190614836565b905080898681518110610b2857610b28614671565b602002602001019061ffff16908161ffff1681525050816103eb148015610b4f5750600381115b15610b925760405162461bcd60e51b8152602060048201526013602482015272151bdad95b881b9bdd081cdd5c1c1bdc9d1959606a1b6044820152606401610632565b60008160011415610bc457507fddbfc9eead3b5bde49e5723db88ef9f30dfabdf7c8f1c93131be000000000000610c95565b8160021415610bf457507fddbfca13c4ccb3a790d4c9608a1f7cf1c47ddc5fbef7195164d2000000000000610c95565b8160031415610c2457507fddbfca3a5830a88d5f65b25c857f6acfc2c1d6cd25918a3d1727000000000000610c95565b816004148015610c355750826103e9145b15610c575787610c44816146b5565b9850610c50908a61469d565b9050610c95565b60405162461bcd60e51b8152602060048201526013602482015272151bdad95b881b9bdd081cdd5c1c1bdc9d1959606a1b6044820152606401610632565b826103e91415610dcd5781600414610dc8576103e8610ccf7af316271c7fc3908a8bef464e3945ef7a25360a000000000000000086614822565b610cd99190614836565b610cfc90789f4f2726179a224501d762422c946590d910000000000000006147ed565b610d06908261469d565b90506103e8610d2f79063917877cec0556b21269d695bdcbf7a87aa00000000000000086614822565b610d399190614836565b610d5a9076010b46c6cdd6e3e0828f4db456ff0c8ea00000000000006147ed565b610d64908261469d565b905081600314610dc8576103e8610d937728c87cb5c89a2571ebfdcb54864ada834a0000000000000086614822565b610d9d9190614836565b610dbb907301c06a5ec5433c60ddaa16406f5a4000000000006147ed565b610dc5908261469d565b90505b61118e565b826103ea1415610ec1576103e8610dff7a026e4d30eccc3215dd8f3157d27e23acbdcfe6800000000000000086614822565b610e099190614836565b610e2c90789f4f2726179a224501d762422c946590d910000000000000006147ed565b610e36908261469d565b90506103e8610e5e780fee50b7025c36a0802f236d04753d5b48e80000000000000086614822565b610e689190614836565b610e899076010b46c6cdd6e3e0828f4db456ff0c8ea00000000000006147ed565b610e93908261469d565b905081600314610dc8576103e8610d93766867a5a867f103b2fffa5a71fba0e7b68000000000000086614822565b826103eb14610f085760405162461bcd60e51b8152602060048201526013602482015272151bdad95b881b9bdd081cdd5c1c1bdc9d1959606a1b6044820152606401610632565b6000600a610f327b097edd871cfda3a5697758bf0e3cbb5ac5741c64000000000000000087614822565b610f3c9190614836565b90508015610f825760405162461bcd60e51b8152602060048201526013602482015272151bdad95b881b9bdd081cdd5c1c1bdc9d1959606a1b6044820152606401610632565b600a610fa8793e3aeb4ae1383562f4b82261d969f7ac94ca400000000000000087614822565b610fb29190614836565b90508015610ff85760405162461bcd60e51b8152602060048201526013602482015272151bdad95b881b9bdd081cdd5c1c1bdc9d1959606a1b6044820152606401610632565b600a61101d780197d4df19d605767337e9f14d3eec8920e40000000000000087614822565b6110279190614836565b9050801561106d5760405162461bcd60e51b8152602060048201526013602482015272151bdad95b881b9bdd081cdd5c1c1bdc9d1959606a1b6044820152606401610632565b6103e86110957a026e4d30eccc3215dd8f3157d27e23acbdcfe6800000000000000087614822565b61109f9190614836565b6110c290789f4f2726179a224501d762422c946590d910000000000000006147ed565b6110cc908361469d565b91506103e86110f4780fee50b7025c36a0802f236d04753d5b48e80000000000000087614822565b6110fe9190614836565b61111f9076010b46c6cdd6e3e0828f4db456ff0c8ea00000000000006147ed565b611129908361469d565b91508260031461118c576103e8611157766867a5a867f103b2fffa5a71fba0e7b68000000000000087614822565b6111619190614836565b61117f907301c06a5ec5433c60ddaa16406f5a4000000000006147ed565b611189908361469d565b91505b505b611199601387614836565b6111e757604080514260208201526bffffffffffffffffffffffff193360601b1691810191909152605481018790526074016040516020818303038152906040528051906020012060001c96505b6111f36103e888614836565b6111fd908261469d565b905061120b6103e888614822565b9650808b878151811061122057611220614671565b602090810291909101015260cd546001600160a01b03166323b872dd336040516001600160e01b031960e084901b1681526001600160a01b03909116600482015261dead602482015260448101889052606401600060405180830381600087803b15801561128d57600080fd5b505af11580156112a1573d6000803e3d6000fd5b505050505050505050806112b4906146b5565b9050610845565b5060cc546001600160a01b031663942b10d03387876040518463ffffffff1660e01b81526004016112ee9392919061484a565b6000604051808303816000875af115801561130d573d6000803e3d6000fd5b505050506040513d6000823e601f3d908101601f1916820160405261133591908101906148b2565b945060005b85518110156113d65784818151811061135557611355614671565b602002602001015161ffff16600314156113c65760d260008a8a8481811061137f5761137f614671565b9050602002013581526020019081526020016000205460d260008884815181106113ab576113ab614671565b60200260200101518152602001908152602001600020819055505b6113cf816146b5565b905061133a565b50336001600160a01b03167f9d48a5a94a354cd73f0507924f0971eaa192b39ff53c4bc4bab0c7067d052a6589896040516114129291906149bf565b60405180910390a25050505050505050565b3360009081527f235d629dc802037ded8c61cb27fb29e40fa01b299719d8f991ffe20bdcc59f4f602052604090205460ff168061148f57503360009081527ff5af1598511ce11e9be00f19219bbd41b97c51699606bc8796daa8fc95c963b9602052604090205460ff165b6114ce5760405162461bcd60e51b815260206004820152601060248201526f2737ba1030b236b4b71037b9103232bb60811b6044820152606401610632565b6001600160a01b0316600090815260cf60205260409020805460ff19169055565b82811461153e5760405162461bcd60e51b815260206004820152600360248201527f45303500000000000000000000000000000000000000000000000000000000006044820152606401610632565b60005b838110156115a95761159985858381811061155e5761155e614671565b905060200281019061157091906149db565b84848481811061158257611582614671565b905060200281019061159491906149fc565b612bb9565b6115a2816146b5565b9050611541565b5050505050565b60608167ffffffffffffffff8111156115cb576115cb6146d0565b6040519080825280602002602001820160405280156115f4578160200160208202803683370190505b50905060005b8281101561071c5761162384848381811061161757611617614671565b905060200201356137e0565b82828151811061163557611635614671565b6020908102919091010152611649816146b5565b90506115fa565b60008281526099602052604090206001015461166c81336137f8565b6116768383613878565b505050565b60007f0237ad8b3e32533309f5773325086a5b6fc7ce44733b3f5cfb8e7571a2867000780197d4df19d605767337e9f14d3eec8920e4000000000000005b6000804233836116c8816146b5565b94506040516020016116ff9392919092835260609190911b6bffffffffffffffffffffffff19166020830152603482015260540190565b6040516020818303038152906040528051906020012060001c905060005b600881101561177657836117336103e884614836565b61173d91906147ed565b611747908661469d565b94506117556103e883614822565b91506117646298968085614822565b935061176f816146b5565b905061171d565b505060cd546040516354d3b76760e11b8152600481018590526001600160a01b03909116915063a9a76ece90602401602060405180830381865afa1580156117c2573d6000803e3d6000fd5b505050506040513d601f19601f820116820180604052508101906117e69190614a53565b61ffff166116b95750919050565b60608167ffffffffffffffff81111561180f5761180f6146d0565b604051908082528060200260200182016040528015611838578160200160208202803683370190505b50905060005b8281101561071c5761185b8484838181106106f4576106f4614671565b82828151811061186d5761186d614671565b6020908102919091010152611881816146b5565b905061183e565b3360009081527f235d629dc802037ded8c61cb27fb29e40fa01b299719d8f991ffe20bdcc59f4f602052604090205460ff16806118f357503360009081527ff5af1598511ce11e9be00f19219bbd41b97c51699606bc8796daa8fc95c963b9602052604090205460ff165b6119325760405162461bcd60e51b815260206004820152601060248201526f2737ba1030b236b4b71037b9103232bb60811b6044820152606401610632565b60cb805473ffffffffffffffffffffffffffffffffffffffff19166001600160a01b0392909216919091179055565b6001600160a01b03811633146119df5760405162461bcd60e51b815260206004820152602f60248201527f416363657373436f6e74726f6c3a2063616e206f6e6c792072656e6f756e636560448201527f20726f6c657320666f722073656c6600000000000000000000000000000000006064820152608401610632565b6119e9828261391a565b5050565b60cd546040516354d3b76760e11b81526004810184905260009183916001600160a01b039091169063a9a76ece90602401602060405180830381865afa158015611a3b573d6000803e3d6000fd5b505050506040513d601f19601f82011682018060405250810190611a5f9190614a53565b61ffff16149392505050565b60cb546001600160a01b0316611a876080850160608601614294565b6001600160a01b031614611ac35760405162461bcd60e51b815260206004820152600360248201526245303760e81b6044820152606401610632565b60cf6000611ad760a0860160808701614294565b6001600160a01b0316815260208101919091526040016000205460ff1615611b275760405162461bcd60e51b815260206004820152600360248201526208a60760eb1b6044820152606401610632565b6000611b3960a0850160808601614294565b6001600160a01b031614158015611b6a575061dead611b5e60a0850160808601614294565b6001600160a01b031614155b611b9c5760405162461bcd60e51b815260206004820152600360248201526245303960e81b6044820152606401610632565b33611bad60a0850160808601614294565b6001600160a01b031614611be95760405162461bcd60e51b815260206004820152600360248201526204531360ec1b6044820152606401610632565b60d06000611bfd60a0860160808701614294565b6001600160a01b03166001600160a01b03168152602001908152602001600020548360a0013514611c565760405162461bcd60e51b815260206004820152600360248201526245313160e81b6044820152606401610632565b428360c001351015611c905760405162461bcd60e51b815260206004820152600360248201526222989960e91b6044820152606401610632565b60cb54604080516020601f85018190048102820181019092528381526001600160a01b0390921691611e1b918590859081908401838280828437600092019190915250611e1592507f2d0d005d4bd4f278163c287e9e9328639b724b425c8ca762f201c18cc3f547029150611d0790508880614a70565b604051602001611d18929190614aba565b60405160208183030381529060405280519060200120886020016020810190611d419190614294565b60408a0135611d5660808c0160608d01614294565b611d6660a08d0160808e01614294565b8c60a001358d60c001358e8060e00190611d8091906149fc565b604051602001611d91929190614aff565b60408051808303601f1901815282825280516020918201209083019a909a528101979097526001600160a01b039586166060880152608087019490945291841660a086015290921660c084015260e0830191909152610100820152610120810191909152610140015b6040516020818303038152906040528051906020012061399d565b90613a06565b6001600160a01b031614611e575760405162461bcd60e51b815260206004820152600360248201526245313360e81b6044820152606401610632565b60d06000611e6b60a0860160808701614294565b6001600160a01b0316815260208101919091526040016000908120805491611e92836146b5565b919050555060005b611ea48480614a70565b905081101561206657611ebd60a0850160808601614294565b60cd546001600160a01b039182169116636352211e611edc8780614a70565b85818110611eec57611eec614671565b905060200201356040518263ffffffff1660e01b8152600401611f1191815260200190565b602060405180830381865afa158015611f2e573d6000803e3d6000fd5b505050506040513d601f19601f82011682018060405250810190611f529190614b0f565b6001600160a01b031614611fa85760405162461bcd60e51b815260206004820152600d60248201527f4e6f7420796f7572206974656d000000000000000000000000000000000000006044820152606401610632565b60cd546001600160a01b03166323b872dd611fc960a0870160808801614294565b61dead611fd68880614a70565b86818110611fe657611fe6614671565b6040516001600160e01b031960e088901b1681526001600160a01b03958616600482015294909316602485015250602090910201356044820152606401600060405180830381600087803b15801561203d57600080fd5b505af1158015612051573d6000803e3d6000fd5b505050508061205f906146b5565b9050611e9a565b506120776040840160208501614294565b6001600160a01b031663a9059cbb61209560a0860160808701614294565b604080516001600160e01b031960e085901b1681526001600160a01b03909216600483015286013560248201526044016020604051808303816000875af11580156120e4573d6000803e3d6000fd5b505050506040513d601f19601f820116820180604052508101906121089190614b2c565b5060a0830180359061211d9060808601614294565b6001600160a01b03167ffb99591633253b381922dc8a6acf324816fc90c91b044834ffbb3830dd31249361215460e08701876149fc565b604051612162929190614b4e565b60405180910390a3505050565b600054610100900460ff1680612188575060005460ff16155b6121eb5760405162461bcd60e51b815260206004820152602e60248201527f496e697469616c697a61626c653a20636f6e747261637420697320616c72656160448201526d191e481a5b9a5d1a585b1a5e995960921b6064820152608401610632565b600054610100900460ff1615801561220d576000805461ffff19166101011790555b6122816040518060400160405280600881526020017f52756e65437562650000000000000000000000000000000000000000000000008152506040518060400160405280600181526020017f3100000000000000000000000000000000000000000000000000000000000000815250613a2a565b612289613afb565b612294600083613bc6565b60cb80546001600160a01b03808a1673ffffffffffffffffffffffffffffffffffffffff199283161790925560cc805489841690831617905560cd80549288169290911691909117905560ce84905560d383905580156122fa576000805461ff00191690555b50505050505050565b3360009081527fbaa53ef0ae9b4865a86f3c696c819ca62c240d2226db8211cfcc6c2af124dca5602052604090205460ff1661236f5760405162461bcd60e51b815260206004820152600b60248201526a5065726d697373696f6e7360a81b6044820152606401610632565b60d3548110156123c15760405162461bcd60e51b815260206004820152600860248201527f5570206f6e6c79210000000000000000000000000000000000000000000000006044820152606401610632565b60d355565b6001600160a01b038116600090815260d0602090815260408083205460d190925282205460ce54919290916123fb904261469d565b929491935050565b60006106cd82612b4f565b60006106cd8260036119ed565b6000805b828110156125805760cd5433906001600160a01b0316636352211e86868581811061244c5761244c614671565b905060200201356040518263ffffffff1660e01b815260040161247191815260200190565b602060405180830381865afa15801561248e573d6000803e3d6000fd5b505050506040513d601f19601f820116820180604052508101906124b29190614b0f565b6001600160a01b0316146125085760405162461bcd60e51b815260206004820152601360248201527f4e6f7420796f7572204c6f72656b6565706572000000000000000000000000006044820152606401610632565b600061251f85858481811061161757611617614671565b90508060d2600087878681811061253857612538614671565b905060200201358152602001908152602001600020600082825461255c919061469d565b9091555061256c9050818461469d565b92505080612579906146b5565b905061241f565b506103e88111156125d35760405162461bcd60e51b815260206004820152600860248201527f546f6f206d616e790000000000000000000000000000000000000000000000006044820152606401610632565b60008167ffffffffffffffff8111156125ee576125ee6146d0565b604051908082528060200260200182016040528015612617578160200160208202803683370190505b509050600061262461167b565b905060005b8381101561266a578161263b816146b5565b925083828151811061264f5761264f614671565b6020908102919091010152612663816146b5565b9050612629565b5060cc546001600160a01b03166387f26d9833846040518363ffffffff1660e01b815260040161269b929190614b7d565b600060405180830381600087803b1580156126b557600080fd5b505af11580156126c9573d6000803e3d6000fd5b505050506126d43390565b6001600160a01b03167ff14e5ac2f14f028b4ea3f4f0190453dce7fbdacb83440db9357403aaaa337dfa84878760405161271093929190614b9f565b60405180910390a25050505050565b60006106cd826137e0565b60006127368383613bd0565b9392505050565b60006106cd8260046119ed565b3360009081527f235d629dc802037ded8c61cb27fb29e40fa01b299719d8f991ffe20bdcc59f4f602052604090205460ff16806127b557503360009081527ff5af1598511ce11e9be00f19219bbd41b97c51699606bc8796daa8fc95c963b9602052604090205460ff165b6127f45760405162461bcd60e51b815260206004820152601060248201526f2737ba1030b236b4b71037b9103232bb60811b6044820152606401610632565b6001600160a01b0316600090815260cf60205260409020805460ff19166001179055565b611676838383612bb9565b3360009081527f235d629dc802037ded8c61cb27fb29e40fa01b299719d8f991ffe20bdcc59f4f602052604090205460ff168061288e57503360009081527ff5af1598511ce11e9be00f19219bbd41b97c51699606bc8796daa8fc95c963b9602052604090205460ff165b6128cd5760405162461bcd60e51b815260206004820152601060248201526f2737ba1030b236b4b71037b9103232bb60811b6044820152606401610632565b60005b848110156129a9578585828181106128ea576128ea614671565b90506020020160208101906128ff9190614294565b6001600160a01b031663a9059cbb8386868581811061292057612920614671565b6040516001600160e01b031960e087901b1681526001600160a01b03909416600485015260200291909101356024830152506044016020604051808303816000875af1158015612974573d6000803e3d6000fd5b505050506040513d601f19601f820116820180604052508101906129989190614b2c565b506129a2816146b5565b90506128d0565b505050505050565b3360009081527f235d629dc802037ded8c61cb27fb29e40fa01b299719d8f991ffe20bdcc59f4f602052604090205460ff1680612a1c57503360009081527ff5af1598511ce11e9be00f19219bbd41b97c51699606bc8796daa8fc95c963b9602052604090205460ff165b612a5b5760405162461bcd60e51b815260206004820152601060248201526f2737ba1030b236b4b71037b9103232bb60811b6044820152606401610632565b60ce55565b600082815260996020526040902060010154612a7c81336137f8565b611676838361391a565b3360009081527f235d629dc802037ded8c61cb27fb29e40fa01b299719d8f991ffe20bdcc59f4f602052604081205460ff1680612af157503360009081527ff5af1598511ce11e9be00f19219bbd41b97c51699606bc8796daa8fc95c963b9602052604090205460ff165b612b305760405162461bcd60e51b815260206004820152601060248201526f2737ba1030b236b4b71037b9103232bb60811b6044820152606401610632565b506001600160a01b0316600090815260cf602052604090205460ff1690565b6000612b5a8261240e565b612ba65760405162461bcd60e51b815260206004820152601060248201527f4e6f742061204c6f72656b6565706572000000000000000000000000000000006044820152606401610632565b50600090815260d2602052604090205490565b60cb546001600160a01b0316612bd7610d408501610d208601614294565b6001600160a01b031614612c135760405162461bcd60e51b815260206004820152600360248201526245303760e81b6044820152606401610632565b60cf6000612c29610d608601610d408701614294565b6001600160a01b0316815260208101919091526040016000205460ff1615612c795760405162461bcd60e51b815260206004820152600360248201526208a60760eb1b6044820152606401610632565b6000612c8d610d608501610d408601614294565b6001600160a01b031614158015612cc0575061dead612cb4610d608501610d408601614294565b6001600160a01b031614155b612cf25760405162461bcd60e51b815260206004820152600360248201526245303960e81b6044820152606401610632565b33612d05610d608501610d408601614294565b6001600160a01b031614612d415760405162461bcd60e51b815260206004820152600360248201526204531360ec1b6044820152606401610632565b60d16000612d57610d608601610d408701614294565b6001600160a01b03166001600160a01b031681526020019081526020016000205483610d60013514612db15760405162461bcd60e51b815260206004820152600360248201526245313160e81b6044820152606401610632565b4283610d8001351015612dec5760405162461bcd60e51b815260206004820152600360248201526222989960e91b6044820152606401610632565b6000612f467f0d4c02830c8456f1707bcc6fc48bbcb1f3d91cd8df553f0932c159e56194163885356020870135612e296060890160408a01614294565b886060013589608001604051602001612e429190614bc2565b60408051601f198184030181529190528051602090910120612e6c610d208c01610d008d01614bd8565b612e7e610d408d01610d208e01614294565b612e90610d608e01610d408f01614294565b8d610d6001358e610d8001358f80610da00190612ead91906149fc565b604051602001612ebe929190614aff565b60408051601f1981840301815282825280516020918201209083019d909d5281019a909a5260608a01989098526001600160a01b0396871660808a015260a089019590955260c088019390935261ffff90911660e08701528316610100860152919091166101208401526101408301526101608201526101808101919091526101a001611dfa565b60cb54604080516020601f87018190048102820181019092528581529293506001600160a01b0390911691612f989186908690819084018382808284376000920191909152508693925050613a069050565b6001600160a01b031614612fd45760405162461bcd60e51b815260206004820152600360248201526245313360e81b6044820152606401610632565b60d16000612fea610d608701610d408801614294565b6001600160a01b0316815260208101919091526040016000908120805491613011836146b5565b9190505550613023846020013561273d565b61306f5760405162461bcd60e51b815260206004820152600360248201527f45313400000000000000000000000000000000000000000000000000000000006044820152606401610632565b613081610d608501610d408601614294565b60cd546040516331a9108f60e11b8152602087013560048201526001600160a01b039283169290911690636352211e90602401602060405180830381865afa1580156130d1573d6000803e3d6000fd5b505050506040513d601f19601f820116820180604052508101906130f59190614b0f565b6001600160a01b03161461314b5760405162461bcd60e51b815260206004820152600360248201527f45313500000000000000000000000000000000000000000000000000000000006044820152606401610632565b60cd546001600160a01b03166323b872dd61316e610d608701610d408801614294565b6040516001600160e01b031960e084901b1681526001600160a01b03909116600482015261dead602482015260208701356044820152606401600060405180830381600087803b1580156131c157600080fd5b505af11580156131d5573d6000803e3d6000fd5b506131ea925050506060850160408601614294565b6001600160a01b03166323b872dd61320a610d608701610d408801614294565b6040516001600160e01b031960e084901b1681526001600160a01b039091166004820152306024820152606087013560448201526064016020604051808303816000875af1158015613260573d6000803e3d6000fd5b505050506040513d601f19601f820116820180604052508101906132849190614b2c565b506000608085016064426132996001436146e6565b406080890160d160006132b4610d608d01610d408e01614294565b6001600160a01b03166001600160a01b03168152602001908152602001600020546040516020016132e89493929190614bf5565b6040516020818303038152906040528051906020012060001c61330b9190614836565b6064811061331b5761331b614671565b60200201359050613334610d608601610d408701614294565b60cd546040516331a9108f60e11b8152873560048201526001600160a01b039283169290911690636352211e90602401602060405180830381865afa158015613381573d6000803e3d6000fd5b505050506040513d601f19601f820116820180604052508101906133a59190614b0f565b6001600160a01b0316146133fb5760405162461bcd60e51b815260206004820152600360248201527f45313600000000000000000000000000000000000000000000000000000000006044820152606401610632565b843581141561351f5760cd546001600160a01b03166323b872dd613427610d608801610d408901614294565b60405160e083901b6001600160e01b03191681526001600160a01b03909116600482015230602482015287356044820152606401600060405180830381600087803b15801561347557600080fd5b505af1158015613489573d6000803e3d6000fd5b505060cd546001600160a01b031691506323b872dd9050306134b3610d608901610d408a01614294565b60405160e084901b6001600160e01b03191681526001600160a01b0392831660048201529116602482015287356044820152606401600060405180830381600087803b15801561350257600080fd5b505af1158015613516573d6000803e3d6000fd5b50505050613775565b60cd546001600160a01b03166323b872dd613542610d608801610d408901614294565b60405160e083901b6001600160e01b03191681526001600160a01b03909116600482015261dead602482015287356044820152606401600060405180830381600087803b15801561359257600080fd5b505af11580156135a6573d6000803e3d6000fd5b505050505b60cd546040516354d3b76760e11b8152600481018390526001600160a01b039091169063a9a76ece90602401602060405180830381865afa1580156135f4573d6000803e3d6000fd5b505050506040513d601f19601f820116820180604052508101906136189190614a53565b61ffff16156136aa57600a61362e606483614822565b6136389190614836565b6136439060646147ed565b600a61364f8184614822565b6136599190614836565b61366490600a6147ed565b61366f600a84614836565b613679919061469d565b613683919061469d565b6103e7141561369f576136986103e7826146e6565b90506135ab565b61369860018261469d565b60cc546001600160a01b031663cff965b06136cd610d608801610d408901614294565b836136e0610d208a01610d008b01614bd8565b6040516001600160e01b031960e086901b1681526001600160a01b039093166004840152602483019190915261ffff166044820152606401600060405180830381600087803b15801561373257600080fd5b505af1158015613746573d6000803e3d6000fd5b50505050613757856000013561240e565b15613775578435600090815260d26020526040808220548383529120555b610d60850180359061378b90610d408801614294565b6001600160a01b03167fe124dd718089810946da79c94eb449bc5e7383d92914fac4bb5dc59019e5afaa6137c3610da08901896149fc565b6040516137d1929190614b4e565b60405180910390a35050505050565b60006137eb82612b4f565b60d3546106cd91906146e6565b60008281526099602090815260408083206001600160a01b038516845290915290205460ff166119e957613836816001600160a01b03166014613c0d565b613841836020613c0d565b604051602001613852929190614c4b565b60408051601f198184030181529082905262461bcd60e51b825261063291600401614ccc565b60008281526099602090815260408083206001600160a01b038516845290915290205460ff166119e95760008281526099602090815260408083206001600160a01b03851684529091529020805460ff191660011790556138d63390565b6001600160a01b0316816001600160a01b0316837f2f8788117e7eff1d82e926ec794901d17c78024a50270940304540a733656f0d60405160405180910390a45050565b60008281526099602090815260408083206001600160a01b038516845290915290205460ff16156119e95760008281526099602090815260408083206001600160a01b0385168085529252808320805460ff1916905551339285917ff6391f5c32d9c69d2a47ea670b442974b53935d1edc7fd64eb21e047a839171b9190a45050565b60006106cd6139aa613dee565b836040517f19010000000000000000000000000000000000000000000000000000000000006020820152602281018390526042810182905260009060620160405160208183030381529060405280519060200120905092915050565b6000806000613a158585613e6e565b91509150613a2281613ede565b509392505050565b600054610100900460ff1680613a43575060005460ff16155b613aa65760405162461bcd60e51b815260206004820152602e60248201527f496e697469616c697a61626c653a20636f6e747261637420697320616c72656160448201526d191e481a5b9a5d1a585b1a5e995960921b6064820152608401610632565b600054610100900460ff16158015613ac8576000805461ffff19166101011790555b82516020808501919091208351918401919091206001919091556002558015611676576000805461ff0019169055505050565b600054610100900460ff1680613b14575060005460ff16155b613b775760405162461bcd60e51b815260206004820152602e60248201527f496e697469616c697a61626c653a20636f6e747261637420697320616c72656160448201526d191e481a5b9a5d1a585b1a5e995960921b6064820152608401610632565b600054610100900460ff16158015613b99576000805461ffff19166101011790555b613ba1614099565b613ba9614099565b613bb1614099565b8015613bc3576000805461ff00191690555b50565b6119e98282613878565b6000805b8281101561071c57613bf184848381811061161757611617614671565b613bfb908361469d565b9150613c06816146b5565b9050613bd4565b60606000613c1c8360026147ed565b613c2790600261469d565b67ffffffffffffffff811115613c3f57613c3f6146d0565b6040519080825280601f01601f191660200182016040528015613c69576020820181803683370190505b5090507f300000000000000000000000000000000000000000000000000000000000000081600081518110613ca057613ca0614671565b60200101906001600160f81b031916908160001a9053507f780000000000000000000000000000000000000000000000000000000000000081600181518110613ceb57613ceb614671565b60200101906001600160f81b031916908160001a9053506000613d0f8460026147ed565b613d1a90600161469d565b90505b6001811115613d9f577f303132333435363738396162636465660000000000000000000000000000000085600f1660108110613d5b57613d5b614671565b1a60f81b828281518110613d7157613d71614671565b60200101906001600160f81b031916908160001a90535060049490941c93613d9881614cff565b9050613d1d565b5083156127365760405162461bcd60e51b815260206004820181905260248201527f537472696e67733a20686578206c656e67746820696e73756666696369656e746044820152606401610632565b6000613e697f8b73c3c69bb8fe3d512ecc4cf759cc79239f7b179b0ffacaa9a75d522b39400f613e1d60015490565b6002546040805160208101859052908101839052606081018290524660808201523060a082015260009060c0016040516020818303038152906040528051906020012090509392505050565b905090565b600080825160411415613ea55760208301516040840151606085015160001a613e998782858561414a565b94509450505050613ed7565b825160401415613ecf5760208301516040840151613ec4868383614237565b935093505050613ed7565b506000905060025b9250929050565b6000816004811115613ef257613ef2614d16565b1415613efb5750565b6001816004811115613f0f57613f0f614d16565b1415613f5d5760405162461bcd60e51b815260206004820152601860248201527f45434453413a20696e76616c6964207369676e617475726500000000000000006044820152606401610632565b6002816004811115613f7157613f71614d16565b1415613fbf5760405162461bcd60e51b815260206004820152601f60248201527f45434453413a20696e76616c6964207369676e6174757265206c656e677468006044820152606401610632565b6003816004811115613fd357613fd3614d16565b141561402c5760405162461bcd60e51b815260206004820152602260248201527f45434453413a20696e76616c6964207369676e6174757265202773272076616c604482015261756560f01b6064820152608401610632565b600481600481111561404057614040614d16565b1415613bc35760405162461bcd60e51b815260206004820152602260248201527f45434453413a20696e76616c6964207369676e6174757265202776272076616c604482015261756560f01b6064820152608401610632565b600054610100900460ff16806140b2575060005460ff16155b6141155760405162461bcd60e51b815260206004820152602e60248201527f496e697469616c697a61626c653a20636f6e747261637420697320616c72656160448201526d191e481a5b9a5d1a585b1a5e995960921b6064820152608401610632565b600054610100900460ff16158015613bb1576000805461ffff19166101011790558015613bc3576000805461ff001916905550565b6000807f7fffffffffffffffffffffffffffffff5d576e7357a4501ddfe92f46681b20a0831115614181575060009050600361422e565b8460ff16601b1415801561419957508460ff16601c14155b156141aa575060009050600461422e565b6040805160008082526020820180845289905260ff881692820192909252606081018690526080810185905260019060a0016020604051602081039080840390855afa1580156141fe573d6000803e3d6000fd5b5050604051601f1901519150506001600160a01b0381166142275760006001925092505061422e565b9150600090505b94509492505050565b6000807f7fffffffffffffffffffffffffffffffffffffffffffffffffffffffffffffff831660ff84901c601b016142718782888561414a565b935093505050935093915050565b6001600160a01b0381168114613bc357600080fd5b6000602082840312156142a657600080fd5b81356127368161427f565b6000602082840312156142c357600080fd5b81356001600160e01b03198116811461273657600080fd5b60008083601f8401126142ed57600080fd5b50813567ffffffffffffffff81111561430557600080fd5b6020830191508360208260051b8501011115613ed757600080fd5b6000806020838503121561433357600080fd5b823567ffffffffffffffff81111561434a57600080fd5b614356858286016142db565b90969095509350505050565b60006020828403121561437457600080fd5b5035919050565b6000806000806040858703121561439157600080fd5b843567ffffffffffffffff808211156143a957600080fd5b6143b5888389016142db565b909650945060208701359150808211156143ce57600080fd5b506143db878288016142db565b95989497509550505050565b600081518084526020808501945080840160005b83811015614417578151875295820195908201906001016143fb565b509495945050505050565b60208152600061273660208301846143e7565b6000806040838503121561444857600080fd5b82359150602083013561445a8161427f565b809150509250929050565b6000806040838503121561447857600080fd5b50508035926020909101359150565b60008083601f84011261449957600080fd5b50813567ffffffffffffffff8111156144b157600080fd5b602083019150836020828501011115613ed757600080fd5b6000806000604084860312156144de57600080fd5b833567ffffffffffffffff808211156144f657600080fd5b90850190610100828803121561450b57600080fd5b9093506020850135908082111561452157600080fd5b5061452e86828701614487565b9497909650939450505050565b60008060008060008060c0878903121561455457600080fd5b863561455f8161427f565b9550602087013561456f8161427f565b9450604087013561457f8161427f565b9350606087013592506080870135915060a087013561459d8161427f565b809150509295509295509295565b6000806000604084860312156145c057600080fd5b833567ffffffffffffffff808211156145d857600080fd5b90850190610dc0828803121561450b57600080fd5b60008060008060006060868803121561460557600080fd5b853567ffffffffffffffff8082111561461d57600080fd5b61462989838a016142db565b9097509550602088013591508082111561464257600080fd5b5061464f888289016142db565b90945092505060408601356146638161427f565b809150509295509295909350565b634e487b7160e01b600052603260045260246000fd5b634e487b7160e01b600052601160045260246000fd5b600082198211156146b0576146b0614687565b500190565b60006000198214156146c9576146c9614687565b5060010190565b634e487b7160e01b600052604160045260246000fd5b6000828210156146f8576146f8614687565b500390565b600181815b8085111561473857816000190482111561471e5761471e614687565b8085161561472b57918102915b93841c9390800290614702565b509250929050565b60008261474f575060016106cd565b8161475c575060006106cd565b8160018114614772576002811461477c57614798565b60019150506106cd565b60ff84111561478d5761478d614687565b50506001821b6106cd565b5060208310610133831016604e8410600b84101617156147bb575081810a6106cd565b6147c583836146fd565b80600019048211156147d9576147d9614687565b029392505050565b60006127368383614740565b600081600019048311821515161561480757614807614687565b500290565b634e487b7160e01b600052601260045260246000fd5b6000826148315761483161480c565b500490565b6000826148455761484561480c565b500690565b6001600160a01b03841681526000602060608184015261486d60608401866143e7565b838103604085015284518082528286019183019060005b818110156148a457835161ffff1683529284019291840191600101614884565b509098975050505050505050565b600060208083850312156148c557600080fd5b825167ffffffffffffffff808211156148dd57600080fd5b818501915085601f8301126148f157600080fd5b815181811115614903576149036146d0565b8060051b604051601f19603f83011681018181108582111715614928576149286146d0565b60405291825284820192508381018501918883111561494657600080fd5b938501935b828510156149645784518452938501939285019261494b565b98975050505050505050565b81835260007f07ffffffffffffffffffffffffffffffffffffffffffffffffffffffffffffff8311156149a257600080fd5b8260051b8083602087013760009401602001938452509192915050565b6020815260006149d3602083018486614970565b949350505050565b60008235610dbe198336030181126149f257600080fd5b9190910192915050565b6000808335601e19843603018112614a1357600080fd5b83018035915067ffffffffffffffff821115614a2e57600080fd5b602001915036819003821315613ed757600080fd5b61ffff81168114613bc357600080fd5b600060208284031215614a6557600080fd5b815161273681614a43565b6000808335601e19843603018112614a8757600080fd5b83018035915067ffffffffffffffff821115614aa257600080fd5b6020019150600581901b3603821315613ed757600080fd5b60007f07ffffffffffffffffffffffffffffffffffffffffffffffffffffffffffffff831115614ae957600080fd5b8260051b80858437600092019182525092915050565b8183823760009101908152919050565b600060208284031215614b2157600080fd5b81516127368161427f565b600060208284031215614b3e57600080fd5b8151801515811461273657600080fd5b60208152816020820152818360408301376000818301604090810191909152601f909201601f19160101919050565b6001600160a01b03831681526040602082015260006149d360408301846143e7565b838152604060208201526000614bb9604083018486614970565b95945050505050565b6000610c80808484376000920191825250919050565b600060208284031215614bea57600080fd5b813561273681614a43565b848152836020820152610c80836040830137610cc0810191909152610ce0019392505050565b60005b83811015614c36578181015183820152602001614c1e565b83811115614c45576000848401525b50505050565b7f416363657373436f6e74726f6c3a206163636f756e7420000000000000000000815260008351614c83816017850160208801614c1b565b7f206973206d697373696e6720726f6c65200000000000000000000000000000006017918401918201528351614cc0816028840160208801614c1b565b01602801949350505050565b6020815260008251806020840152614ceb816040850160208701614c1b565b601f01601f19169190910160400192915050565b600081614d0e57614d0e614687565b506000190190565b634e487b7160e01b600052602160045260246000fdfea2646970667358221220bfbd9b95690f05b8a625725944f39809872aec2082e6c12da2c1e00983022d3d64736f6c634300080a0033",
  "linkReferences": {},
  "deployedLinkReferences": {}
}