{
    "_format": "hh-sol-artifact-1",
    "contractName": "RuneSenderV1",
    "sourceName": "src/RuneSenderV1.sol",
    "abi": [
        {
            "anonymous": false,
            "inputs": [
                {
                    "indexed": true,
                    "internalType": "address",
                    "name": "to",
                    "type": "address"
                },
                {
                    "indexed": true,
                    "internalType": "uint256",
                    "name": "nonce",
                    "type": "uint256"
                },
                {
                    "indexed": false,
                    "internalType": "string",
                    "name": "requestId",
                    "type": "string"
                }
            ],
            "name": "CraftedFromRewards",
            "type": "event"
        },
        {
            "anonymous": false,
            "inputs": [
                {
                    "indexed": true,
                    "internalType": "address",
                    "name": "to",
                    "type": "address"
                },
                {
                    "indexed": true,
                    "internalType": "uint256",
                    "name": "nonce",
                    "type": "uint256"
                },
                {
                    "indexed": false,
                    "internalType": "string",
                    "name": "requestId",
                    "type": "string"
                }
            ],
            "name": "RewardsSent",
            "type": "event"
        },
        {
            "anonymous": false,
            "inputs": [
                {
                    "indexed": true,
                    "internalType": "bytes32",
                    "name": "role",
                    "type": "bytes32"
                },
                {
                    "indexed": true,
                    "internalType": "bytes32",
                    "name": "previousAdminRole",
                    "type": "bytes32"
                },
                {
                    "indexed": true,
                    "internalType": "bytes32",
                    "name": "newAdminRole",
                    "type": "bytes32"
                }
            ],
            "name": "RoleAdminChanged",
            "type": "event"
        },
        {
            "anonymous": false,
            "inputs": [
                {
                    "indexed": true,
                    "internalType": "bytes32",
                    "name": "role",
                    "type": "bytes32"
                },
                {
                    "indexed": true,
                    "internalType": "address",
                    "name": "account",
                    "type": "address"
                },
                {
                    "indexed": true,
                    "internalType": "address",
                    "name": "sender",
                    "type": "address"
                }
            ],
            "name": "RoleGranted",
            "type": "event"
        },
        {
            "anonymous": false,
            "inputs": [
                {
                    "indexed": true,
                    "internalType": "bytes32",
                    "name": "role",
                    "type": "bytes32"
                },
                {
                    "indexed": true,
                    "internalType": "address",
                    "name": "account",
                    "type": "address"
                },
                {
                    "indexed": true,
                    "internalType": "address",
                    "name": "sender",
                    "type": "address"
                }
            ],
            "name": "RoleRevoked",
            "type": "event"
        },
        {
            "inputs": [],
            "name": "BULK_ROLE",
            "outputs": [
                {
                    "internalType": "bytes32",
                    "name": "",
                    "type": "bytes32"
                }
            ],
            "stateMutability": "view",
            "type": "function"
        },
        {
            "inputs": [],
            "name": "DEFAULT_ADMIN_ROLE",
            "outputs": [
                {
                    "internalType": "bytes32",
                    "name": "",
                    "type": "bytes32"
                }
            ],
            "stateMutability": "view",
            "type": "function"
        },
        {
            "inputs": [],
            "name": "DEV_ROLE",
            "outputs": [
                {
                    "internalType": "bytes32",
                    "name": "",
                    "type": "bytes32"
                }
            ],
            "stateMutability": "view",
            "type": "function"
        },
        {
            "inputs": [
                {
                    "internalType": "address",
                    "name": "blocked",
                    "type": "address"
                }
            ],
            "name": "blockAddress",
            "outputs": [],
            "stateMutability": "nonpayable",
            "type": "function"
        },
        {
            "inputs": [
                {
                    "internalType": "contract IERC20",
                    "name": "rune",
                    "type": "address"
                },
                {
                    "internalType": "address[]",
                    "name": "recipients",
                    "type": "address[]"
                },
                {
                    "internalType": "uint256[]",
                    "name": "amounts",
                    "type": "uint256[]"
                }
            ],
            "name": "bulkDistributeRunes",
            "outputs": [],
            "stateMutability": "nonpayable",
            "type": "function"
        },
        {
            "inputs": [
                {
                    "components": [
                        {
                            "internalType": "address[5]",
                            "name": "recipe",
                            "type": "address[5]"
                        },
                        {
                            "internalType": "uint16",
                            "name": "rand",
                            "type": "uint16"
                        },
                        {
                            "internalType": "uint256",
                            "name": "n",
                            "type": "uint256"
                        },
                        {
                            "internalType": "address",
                            "name": "purportedSigner",
                            "type": "address"
                        },
                        {
                            "internalType": "address",
                            "name": "to",
                            "type": "address"
                        },
                        {
                            "internalType": "uint256",
                            "name": "nonce",
                            "type": "uint256"
                        },
                        {
                            "internalType": "uint256",
                            "name": "expiry",
                            "type": "uint256"
                        },
                        {
                            "internalType": "string",
                            "name": "requestId",
                            "type": "string"
                        }
                    ],
                    "internalType": "struct RuneSenderV1.CraftData",
                    "name": "data",
                    "type": "tuple"
                },
                {
                    "internalType": "bytes",
                    "name": "signature",
                    "type": "bytes"
                }
            ],
            "name": "craftFromRewards",
            "outputs": [],
            "stateMutability": "nonpayable",
            "type": "function"
        },
        {
            "inputs": [
                {
                    "internalType": "address",
                    "name": "nonceFor",
                    "type": "address"
                }
            ],
            "name": "getNextNonceAndExpiry",
            "outputs": [
                {
                    "internalType": "uint256",
                    "name": "nextNonce",
                    "type": "uint256"
                },
                {
                    "internalType": "uint256",
                    "name": "expiry",
                    "type": "uint256"
                }
            ],
            "stateMutability": "view",
            "type": "function"
        },
        {
            "inputs": [
                {
                    "internalType": "bytes32",
                    "name": "role",
                    "type": "bytes32"
                }
            ],
            "name": "getRoleAdmin",
            "outputs": [
                {
                    "internalType": "bytes32",
                    "name": "",
                    "type": "bytes32"
                }
            ],
            "stateMutability": "view",
            "type": "function"
        },
        {
            "inputs": [
                {
                    "internalType": "bytes32",
                    "name": "role",
                    "type": "bytes32"
                },
                {
                    "internalType": "uint256",
                    "name": "index",
                    "type": "uint256"
                }
            ],
            "name": "getRoleMember",
            "outputs": [
                {
                    "internalType": "address",
                    "name": "",
                    "type": "address"
                }
            ],
            "stateMutability": "view",
            "type": "function"
        },
        {
            "inputs": [
                {
                    "internalType": "bytes32",
                    "name": "role",
                    "type": "bytes32"
                }
            ],
            "name": "getRoleMemberCount",
            "outputs": [
                {
                    "internalType": "uint256",
                    "name": "",
                    "type": "uint256"
                }
            ],
            "stateMutability": "view",
            "type": "function"
        },
        {
            "inputs": [
                {
                    "internalType": "bytes32",
                    "name": "role",
                    "type": "bytes32"
                },
                {
                    "internalType": "address",
                    "name": "account",
                    "type": "address"
                }
            ],
            "name": "grantRole",
            "outputs": [],
            "stateMutability": "nonpayable",
            "type": "function"
        },
        {
            "inputs": [
                {
                    "internalType": "bytes32",
                    "name": "role",
                    "type": "bytes32"
                },
                {
                    "internalType": "address",
                    "name": "account",
                    "type": "address"
                }
            ],
            "name": "hasRole",
            "outputs": [
                {
                    "internalType": "bool",
                    "name": "",
                    "type": "bool"
                }
            ],
            "stateMutability": "view",
            "type": "function"
        },
        {
            "inputs": [
                {
                    "internalType": "address",
                    "name": "authorisedSigner_",
                    "type": "address"
                },
                {
                    "internalType": "contract IRuneBlacksmith",
                    "name": "runeBlacksmith_",
                    "type": "address"
                },
                {
                    "internalType": "uint256",
                    "name": "expirySeconds_",
                    "type": "uint256"
                },
                {
                    "internalType": "address",
                    "name": "defaultAdmin_",
                    "type": "address"
                }
            ],
            "name": "initialize",
            "outputs": [],
            "stateMutability": "nonpayable",
            "type": "function"
        },
        {
            "inputs": [
                {
                    "internalType": "address",
                    "name": "_address",
                    "type": "address"
                }
            ],
            "name": "isBlocked",
            "outputs": [
                {
                    "internalType": "bool",
                    "name": "blocked",
                    "type": "bool"
                }
            ],
            "stateMutability": "view",
            "type": "function"
        },
        {
            "inputs": [
                {
                    "internalType": "bytes32",
                    "name": "role",
                    "type": "bytes32"
                },
                {
                    "internalType": "address",
                    "name": "account",
                    "type": "address"
                }
            ],
            "name": "renounceRole",
            "outputs": [],
            "stateMutability": "nonpayable",
            "type": "function"
        },
        {
            "inputs": [
                {
                    "internalType": "address[]",
                    "name": "tokens",
                    "type": "address[]"
                },
                {
                    "internalType": "uint256[]",
                    "name": "amounts",
                    "type": "uint256[]"
                },
                {
                    "internalType": "address",
                    "name": "to",
                    "type": "address"
                }
            ],
            "name": "retrieveTokens",
            "outputs": [],
            "stateMutability": "nonpayable",
            "type": "function"
        },
        {
            "inputs": [
                {
                    "internalType": "bytes32",
                    "name": "role",
                    "type": "bytes32"
                },
                {
                    "internalType": "address",
                    "name": "account",
                    "type": "address"
                }
            ],
            "name": "revokeRole",
            "outputs": [],
            "stateMutability": "nonpayable",
            "type": "function"
        },
        {
            "inputs": [
                {
                    "components": [
                        {
                            "internalType": "address[]",
                            "name": "tokenAddresses",
                            "type": "address[]"
                        },
                        {
                            "internalType": "uint256[]",
                            "name": "tokenAmounts",
                            "type": "uint256[]"
                        },
                        {
                            "internalType": "uint256[]",
                            "name": "tokenIds",
                            "type": "uint256[]"
                        },
                        {
                            "internalType": "uint16[]",
                            "name": "itemIds",
                            "type": "uint16[]"
                        },
                        {
                            "internalType": "address",
                            "name": "purportedSigner",
                            "type": "address"
                        },
                        {
                            "internalType": "address",
                            "name": "to",
                            "type": "address"
                        },
                        {
                            "internalType": "uint256",
                            "name": "nonce",
                            "type": "uint256"
                        },
                        {
                            "internalType": "uint256",
                            "name": "expiry",
                            "type": "uint256"
                        },
                        {
                            "internalType": "string",
                            "name": "requestId",
                            "type": "string"
                        }
                    ],
                    "internalType": "struct RuneSenderV1.RewardData",
                    "name": "data",
                    "type": "tuple"
                },
                {
                    "internalType": "bytes",
                    "name": "signature",
                    "type": "bytes"
                }
            ],
            "name": "sendRewards",
            "outputs": [],
            "stateMutability": "nonpayable",
            "type": "function"
        },
        {
            "inputs": [
                {
                    "internalType": "address",
                    "name": "_authorisedSigner",
                    "type": "address"
                }
            ],
            "name": "setAuthorisedSigner",
            "outputs": [],
            "stateMutability": "nonpayable",
            "type": "function"
        },
        {
            "inputs": [
                {
                    "internalType": "uint256",
                    "name": "_expirySeconds",
                    "type": "uint256"
                }
            ],
            "name": "setExpirySeconds",
            "outputs": [],
            "stateMutability": "nonpayable",
            "type": "function"
        },
        {
            "inputs": [
                {
                    "internalType": "contract IRuneBlacksmith",
                    "name": "_runeBlacksmith",
                    "type": "address"
                }
            ],
            "name": "setRuneBlacksmith",
            "outputs": [],
            "stateMutability": "nonpayable",
            "type": "function"
        },
        {
            "inputs": [
                {
                    "internalType": "address",
                    "name": "unblocked",
                    "type": "address"
                }
            ],
            "name": "unblockAddress",
            "outputs": [],
            "stateMutability": "nonpayable",
            "type": "function"
        }
    ],
    "bytecode": "0x608060405234801561001057600080fd5b50612a16806100206000396000f3fe608060405234801561001057600080fd5b50600436106101825760003560e01c806391d14854116100d8578063ca15c8731161008c578063d547741f11610066578063d547741f1461031a578063fbac39511461032d578063fcf0f0d31461034057610182565b8063ca15c873146102e1578063d1a18604146102f4578063d4506e771461030757610182565b8063a2e8e28c116100bd578063a2e8e28c146102a8578063ad2bb1b3146102bb578063be203094146102ce57610182565b806391d1485414610280578063a217fddf146102a057610182565b80633519fe3a1161013a5780634f387c94116101145780634f387c941461024557806363c4fb751461024d5780639010d07c1461026057610182565b80633519fe3a146101fe57806336568abe146102115780634be6d5971461022457610182565b8063248a9ca31161016b578063248a9ca3146101af5780632f2ff15d146101d857806333f4120d146101eb57610182565b806301991cbd14610187578063186d9d881461019c575b600080fd5b61019a610195366004612013565b610348565b005b61019a6101aa366004612013565b6103db565b6101c26101bd366004612129565b610457565b6040516101cf919061250b565b60405180910390f35b61019a6101e6366004612141565b61046f565b61019a6101f936600461227f565b6104d6565b61019a61020c366004612013565b610aed565b61019a61021f366004612141565b610b77565b610237610232366004612013565b610bd8565b6040516101cf92919061283d565b6101c2610bfc565b61019a61025b366004612191565b610c20565b61027361026e366004612170565b610d55565b6040516101cf91906123e4565b61029361028e366004612141565b610d76565b6040516101cf9190612500565b6101c2610d8e565b61019a6102b6366004612211565b610d93565b61019a6102c9366004612013565b6111b3565b61019a6102dc366004612036565b611232565b6101c26102ef366004612129565b6113a1565b61019a610302366004612088565b6113b8565b61019a610315366004612129565b6114d9565b61019a610328366004612141565b611539565b61029361033b366004612013565b611592565b6101c261160d565b610355600061028e611631565b8061038757506103877f51b355059847d158e68950419dbcd54fad00bdfd0634c2515a5c533288c7f0a261028e611631565b6103ac5760405162461bcd60e51b81526004016103a390612806565b60405180910390fd5b609a805473ffffffffffffffffffffffffffffffffffffffff19166001600160a01b0392909216919091179055565b6103e8600061028e611631565b8061041a575061041a7f51b355059847d158e68950419dbcd54fad00bdfd0634c2515a5c533288c7f0a261028e611631565b6104365760405162461bcd60e51b81526004016103a390612806565b6001600160a01b03166000908152609c60205260409020805460ff19169055565b6000818152606760205260409020600201545b919050565b60008281526067602052604090206002015461048d9061028e611631565b6104c85760405162461bcd60e51b815260040180806020018281038252602f815260200180612925602f913960400191505060405180910390fd5b6104d28282611635565b5050565b6104e3602084018461284b565b90506104ef848061284b565b90501461050e5760405162461bcd60e51b81526004016103a390612685565b61051b604084018461284b565b905061052a6060850185612892565b9050146105495760405162461bcd60e51b81526004016103a390612617565b6099546001600160a01b031661056560a0850160808601612013565b6001600160a01b03161461058b5760405162461bcd60e51b81526004016103a3906126bc565b609c600061059f60c0860160a08701612013565b6001600160a01b0316815260208101919091526040016000205460ff16156105d95760405162461bcd60e51b81526004016103a390612798565b60006105eb60c0850160a08601612013565b6001600160a01b03161415801561061c575061dead61061060c0850160a08601612013565b6001600160a01b031614155b6106385760405162461bcd60e51b81526004016103a3906125e0565b609d600061064c60c0860160a08701612013565b6001600160a01b03166001600160a01b03168152602001908152602001600020548360c001351461068f5760405162461bcd60e51b81526004016103a39061272a565b428360e0013510156106b35760405162461bcd60e51b81526004016103a3906127cf565b609954604080516020601f85018190048102820181019092528381526001600160a01b039092169161089391859085908190840183828082843760009201919091525061088d92507f500305764323fa003b3ede868f9657ab257840cd3e3e32140c53be888700451d915061072a9050888061284b565b60405160200161073b92919061231f565b60405160208183030381529060405280519060200120888060200190610761919061284b565b604051602001610772929190612391565b60405160208183030381529060405280519060200120898060400190610798919061284b565b6040516020016107a9929190612391565b60408051601f1981840301815291905280516020909101206107ce60608c018c612892565b6040516020016107df929190612361565b60408051601f19818403018152919052805160209091012061080760a08d0160808e01612013565b61081760c08e0160a08f01612013565b8d60c001358e60e001358f80610100019061083291906128a8565b6040516020016108439291906123d4565b604051602081830303815290604052805190602001206040516020016108729a99989796959493929190612514565b6040516020818303038152906040528051906020012061169e565b906116b1565b6001600160a01b0316146108b95760405162461bcd60e51b81526004016103a390612761565b609d60006108cd60c0860160a08701612013565b6001600160a01b0316815260208101919091526040016000908120805460010190555b6108fa848061284b565b90508110156109e05761090d848061284b565b8281811061091757fe5b905060200201602081019061092c9190612013565b6001600160a01b031663a9059cbb61094a60c0870160a08801612013565b610957602088018861284b565b8581811061096157fe5b905060200201356040518363ffffffff1660e01b81526004016109859291906124e7565b602060405180830381600087803b15801561099f57600080fd5b505af11580156109b3573d6000803e3d6000fd5b505050506040513d601f19601f820116820180604052508101906109d79190612109565b506001016108f0565b5060006109f0604085018561284b565b90501115610a8657609a546001600160a01b031663e994bdbc610a1960c0860160a08701612013565b610a26604087018761284b565b610a336060890189612892565b6040518663ffffffff1660e01b8152600401610a53959493929190612442565b600060405180830381600087803b158015610a6d57600080fd5b505af1158015610a81573d6000803e3d6000fd5b505050505b60c08301803590610a9a9060a08601612013565b6001600160a01b03167f8061d5586845e0eac611dee99a58e4a74b6f6280ba1b1b2d43152496800ad926610ad26101008701876128a8565b604051610ae09291906125b1565b60405180910390a3505050565b610afa600061028e611631565b80610b2c5750610b2c7f51b355059847d158e68950419dbcd54fad00bdfd0634c2515a5c533288c7f0a261028e611631565b610b485760405162461bcd60e51b81526004016103a390612806565b6099805473ffffffffffffffffffffffffffffffffffffffff19166001600160a01b0392909216919091179055565b610b7f611631565b6001600160a01b0316816001600160a01b031614610bce5760405162461bcd60e51b815260040180806020018281038252602f8152602001806129b2602f913960400191505060405180910390fd5b6104d282826116d5565b6001600160a01b03166000908152609d6020526040902054609b5490914290910190565b7faccf4522ca3a2bf845ea082c3e4e58d115c9175646f01184da2fe9a7ab695b9c81565b610c4c7faccf4522ca3a2bf845ea082c3e4e58d115c9175646f01184da2fe9a7ab695b9c61028e611631565b610c685760405162461bcd60e51b81526004016103a3906126f3565b828114610c875760405162461bcd60e51b81526004016103a39061264e565b60005b83811015610d4d57856001600160a01b031663a9059cbb868684818110610cad57fe5b9050602002016020810190610cc29190612013565b858585818110610cce57fe5b905060200201356040518363ffffffff1660e01b8152600401610cf29291906124e7565b602060405180830381600087803b158015610d0c57600080fd5b505af1158015610d20573d6000803e3d6000fd5b505050506040513d601f19601f82011682018060405250810190610d449190612109565b50600101610c8a565b505050505050565b6000828152606760205260408120610d6d908361173e565b90505b92915050565b6000828152606760205260408120610d6d908361174a565b600081565b6099546001600160a01b0316610db0610100850160e08601612013565b6001600160a01b031614610dd65760405162461bcd60e51b81526004016103a3906126bc565b609c6000610dec61012086016101008701612013565b6001600160a01b0316815260208101919091526040016000205460ff1615610e265760405162461bcd60e51b81526004016103a390612798565b6000610e3a61012085016101008601612013565b6001600160a01b031614158015610e6d575061dead610e6161012085016101008601612013565b6001600160a01b031614155b610e895760405162461bcd60e51b81526004016103a3906125e0565b609d6000610e9f61012086016101008701612013565b6001600160a01b03166001600160a01b031681526020019081526020016000205483610120013514610ee35760405162461bcd60e51b81526004016103a39061272a565b428361014001351015610f085760405162461bcd60e51b81526004016103a3906127cf565b609954604080516020601f85018190048102820181019092528381526001600160a01b03909216916110319185908590819084018382808284376000920191909152505060405161088d92507f03f4a8baf1be591c29f0bc17185f33b98e7a541239ef5b36eee321f98c923ccd9150610f859089906020016122d8565b60408051601f198184030181529190528051602090910120610fad60c08a0160a08b016122be565b60c08a0135610fc36101008c0160e08d01612013565b610fd56101208d016101008e01612013565b8c61012001358d61014001358e806101600190610ff291906128a8565b6040516020016110039291906123d4565b6040516020818303038152906040528051906020012060405160200161087299989796959493929190612565565b6001600160a01b0316146110575760405162461bcd60e51b81526004016103a390612761565b609d600061106d61012086016101008701612013565b6001600160a01b039081168252602080830193909352604090910160002080546001019055609a54169063c032aa8c906110a990860186612013565b6110b96040870160208801612013565b6110c96060880160408901612013565b6110d96080890160608a01612013565b6110e960a08a0160808b01612013565b6110f960c08b0160a08c016122be565b60c08b01356111106101208d016101008e01612013565b6040518963ffffffff1660e01b81526004016111339897969594939291906123f8565b600060405180830381600087803b15801561114d57600080fd5b505af1158015611161573d6000803e3d6000fd5b50505061012084018035915061117b906101008601612013565b6001600160a01b03167f0e5cf270e7d8e40d229a6d8569deee66f8fe42b8b374ce25270a72f2b1775742610ad26101608701876128a8565b6111c0600061028e611631565b806111f257506111f27f51b355059847d158e68950419dbcd54fad00bdfd0634c2515a5c533288c7f0a261028e611631565b61120e5760405162461bcd60e51b81526004016103a390612806565b6001600160a01b03166000908152609c60205260409020805460ff19166001179055565b600054610100900460ff168061124b575061124b61175f565b80611259575060005460ff16155b6112945760405162461bcd60e51b815260040180806020018281038252602e815260200180612984602e913960400191505060405180910390fd5b600054610100900460ff161580156112bf576000805460ff1961ff0019909116610100171660011790555b6113336040518060400160405280600a81526020017f52756e6553656e646572000000000000000000000000000000000000000000008152506040518060400160405280600181526020017f3100000000000000000000000000000000000000000000000000000000000000815250611770565b61133b611831565b6113466000836104c8565b609980546001600160a01b0380881673ffffffffffffffffffffffffffffffffffffffff1992831617909255609a805492871692909116919091179055609b839055801561139a576000805461ff00191690555b5050505050565b6000818152606760205260408120610d70906118e3565b6113c5600061028e611631565b806113f757506113f77f51b355059847d158e68950419dbcd54fad00bdfd0634c2515a5c533288c7f0a261028e611631565b6114135760405162461bcd60e51b81526004016103a390612806565b60005b84811015610d4d5785858281811061142a57fe5b905060200201602081019061143f9190612013565b6001600160a01b031663a9059cbb8386868581811061145a57fe5b905060200201356040518363ffffffff1660e01b815260040161147e9291906124e7565b602060405180830381600087803b15801561149857600080fd5b505af11580156114ac573d6000803e3d6000fd5b505050506040513d601f19601f820116820180604052508101906114d09190612109565b50600101611416565b6114e6600061028e611631565b8061151857506115187f51b355059847d158e68950419dbcd54fad00bdfd0634c2515a5c533288c7f0a261028e611631565b6115345760405162461bcd60e51b81526004016103a390612806565b609b55565b6000828152606760205260409020600201546115579061028e611631565b610bce5760405162461bcd60e51b81526004018080602001828103825260308152602001806129546030913960400191505060405180910390fd5b60006115a08161028e611631565b806115d257506115d27f51b355059847d158e68950419dbcd54fad00bdfd0634c2515a5c533288c7f0a261028e611631565b6115ee5760405162461bcd60e51b81526004016103a390612806565b506001600160a01b03166000908152609c602052604090205460ff1690565b7f51b355059847d158e68950419dbcd54fad00bdfd0634c2515a5c533288c7f0a281565b3390565b600082815260676020526040902061164d90826118ee565b156104d25761165a611631565b6001600160a01b0316816001600160a01b0316837f2f8788117e7eff1d82e926ec794901d17c78024a50270940304540a733656f0d60405160405180910390a45050565b6000610d706116ab611903565b83611943565b60008060006116c08585611999565b915091506116cd81611a09565b509392505050565b60008281526067602052604090206116ed9082611ba6565b156104d2576116fa611631565b6001600160a01b0316816001600160a01b0316837ff6391f5c32d9c69d2a47ea670b442974b53935d1edc7fd64eb21e047a839171b60405160405180910390a45050565b6000610d6d8383611bbb565b6000610d6d836001600160a01b038416611c1f565b600061176a30611c37565b15905090565b600054610100900460ff1680611789575061178961175f565b80611797575060005460ff16155b6117d25760405162461bcd60e51b815260040180806020018281038252602e815260200180612984602e913960400191505060405180910390fd5b600054610100900460ff161580156117fd576000805460ff1961ff0019909116610100171660011790555b8251602080850191909120835191840191909120600191909155600255801561182c576000805461ff00191690555b505050565b600054610100900460ff168061184a575061184a61175f565b80611858575060005460ff16155b6118935760405162461bcd60e51b815260040180806020018281038252602e815260200180612984602e913960400191505060405180910390fd5b600054610100900460ff161580156118be576000805460ff1961ff0019909116610100171660011790555b6118c6611c3d565b6118ce611c3d565b80156118e0576000805461ff00191690555b50565b6000610d7082611cdd565b6000610d6d836001600160a01b038416611ce1565b600061193e7f8b73c3c69bb8fe3d512ecc4cf759cc79239f7b179b0ffacaa9a75d522b39400f611931611d2b565b611939611d31565b611d37565b905090565b604080517f19010000000000000000000000000000000000000000000000000000000000006020808301919091526022820194909452604280820193909352815180820390930183526062019052805191012090565b6000808251604114156119d05760208301516040840151606085015160001a6119c487828585611d7c565b94509450505050611a02565b8251604014156119fa57602083015160408401516119ef868383611e71565b935093505050611a02565b506000905060025b9250929050565b6000816004811115611a1757fe5b1415611a22576118e0565b6001816004811115611a3057fe5b1415611a83576040805162461bcd60e51b815260206004820152600360248201527f4530310000000000000000000000000000000000000000000000000000000000604482015290519081900360640190fd5b6002816004811115611a9157fe5b1415611ae4576040805162461bcd60e51b815260206004820152600360248201527f4530320000000000000000000000000000000000000000000000000000000000604482015290519081900360640190fd5b6003816004811115611af257fe5b1415611b45576040805162461bcd60e51b815260206004820152600360248201527f4530330000000000000000000000000000000000000000000000000000000000604482015290519081900360640190fd5b6004816004811115611b5357fe5b14156118e0576040805162461bcd60e51b815260206004820152600360248201527f4530340000000000000000000000000000000000000000000000000000000000604482015290519081900360640190fd5b6000610d6d836001600160a01b038416611eb9565b81546000908210611bfd5760405162461bcd60e51b81526004018080602001828103825260228152602001806129036022913960400191505060405180910390fd5b826000018281548110611c0c57fe5b9060005260206000200154905092915050565b60009081526001919091016020526040902054151590565b3b151590565b600054610100900460ff1680611c565750611c5661175f565b80611c64575060005460ff16155b611c9f5760405162461bcd60e51b815260040180806020018281038252602e815260200180612984602e913960400191505060405180910390fd5b600054610100900460ff161580156118ce576000805460ff1961ff00199091166101001716600117905580156118e0576000805461ff001916905550565b5490565b6000611ced8383611c1f565b611d2357508154600181810184556000848152602080822090930184905584548482528286019093526040902091909155610d70565b506000610d70565b60015490565b60025490565b604080516020808201959095528082019390935260608301919091524660808301523060a0808401919091528151808403909101815260c09092019052805191012090565b6000807f7fffffffffffffffffffffffffffffff5d576e7357a4501ddfe92f46681b20a0831115611db35750600090506003611e68565b8460ff16601b14158015611dcb57508460ff16601c14155b15611ddc5750600090506004611e68565b600060018787878760405160008152602001604052604051808581526020018460ff1681526020018381526020018281526020019450505050506020604051602081039080840390855afa158015611e38573d6000803e3d6000fd5b5050604051601f1901519150506001600160a01b038116611e6157600060019250925050611e68565b9150600090505b94509492505050565b6000807f7fffffffffffffffffffffffffffffffffffffffffffffffffffffffffffffff831660ff84901c601b01611eab87828885611d7c565b935093505050935093915050565b60008181526001830160205260408120548015611f755783546000198083019190810190600090879083908110611eec57fe5b9060005260206000200154905080876000018481548110611f0957fe5b600091825260208083209091019290925582815260018981019092526040902090840190558654879080611f3957fe5b60019003818190600052602060002001600090559055866001016000878152602001908152602001600020600090556001945050505050610d70565b6000915050610d70565b60008083601f840112611f90578182fd5b50813567ffffffffffffffff811115611fa7578182fd5b6020830191508360208083028501011115611a0257600080fd5b60008083601f840112611fd2578182fd5b50813567ffffffffffffffff811115611fe9578182fd5b602083019150836020828501011115611a0257600080fd5b803561ffff8116811461046a57600080fd5b600060208284031215612024578081fd5b813561202f816128ed565b9392505050565b6000806000806080858703121561204b578283fd5b8435612056816128ed565b93506020850135612066816128ed565b925060408501359150606085013561207d816128ed565b939692955090935050565b60008060008060006060868803121561209f578081fd5b853567ffffffffffffffff808211156120b6578283fd5b6120c289838a01611f7f565b909750955060208801359150808211156120da578283fd5b506120e788828901611f7f565b90945092505060408601356120fb816128ed565b809150509295509295909350565b60006020828403121561211a578081fd5b8151801515811461202f578182fd5b60006020828403121561213a578081fd5b5035919050565b60008060408385031215612153578182fd5b823591506020830135612165816128ed565b809150509250929050565b60008060408385031215612182578182fd5b50508035926020909101359150565b6000806000806000606086880312156121a8578081fd5b85356121b3816128ed565b9450602086013567ffffffffffffffff808211156121cf578283fd5b6121db89838a01611f7f565b909650945060408801359150808211156121f3578283fd5b5061220088828901611f7f565b969995985093965092949392505050565b600080600060408486031215612225578283fd5b833567ffffffffffffffff8082111561223c578485fd5b908501906101808288031215612250578485fd5b90935060208501359080821115612265578384fd5b5061227286828701611fc1565b9497909650939450505050565b600080600060408486031215612293578283fd5b833567ffffffffffffffff808211156122aa578485fd5b908501906101208288031215612250578485fd5b6000602082840312156122cf578081fd5b610d6d82612001565b60008183825b60058110156123105781356122f2816128ed565b6001600160a01b0316835260209283019291909101906001016122de565b50505060a08201905092915050565b60008184825b85811015612356578135612338816128ed565b6001600160a01b031683526020928301929190910190600101612325565b509095945050505050565b60008184825b858110156123565761ffff61237b83612001565b1683526020928301929190910190600101612367565b60007f07ffffffffffffffffffffffffffffffffffffffffffffffffffffffffffffff8311156123bf578081fd5b60208302808584379190910190815292915050565b6000828483379101908152919050565b6001600160a01b0391909116815260200190565b6001600160a01b039889168152968816602088015294871660408701529286166060860152908516608085015261ffff1660a084015260c083015290911660e08201526101000190565b60006001600160a01b038716825260206060818401528560608401527f07ffffffffffffffffffffffffffffffffffffffffffffffffffffffffffffff86111561248a578182fd5b8086028088608086013783018381036080908101604086015281018590528590839060a0015b868210156124d95761ffff6124c484612001565b168152918301916001919091019083016124b0565b9a9950505050505050505050565b6001600160a01b03929092168252602082015260400190565b901515815260200190565b90815260200190565b998a5260208a01989098526040890196909652606088019490945260808701929092526001600160a01b0390811660a08701521660c085015260e08401526101008301526101208201526101400190565b988952602089019790975261ffff95909516604088015260608701939093526001600160a01b0391821660808701521660a085015260c084015260e08301526101008201526101200190565b60006020825282602083015282846040840137818301604090810191909152601f909201601f19160101919050565b60208082526003908201527f4530390000000000000000000000000000000000000000000000000000000000604082015260600190565b60208082526003908201527f4530360000000000000000000000000000000000000000000000000000000000604082015260600190565b6020808252600d908201527f4172726179206c656e6774687300000000000000000000000000000000000000604082015260600190565b60208082526003908201527f4530350000000000000000000000000000000000000000000000000000000000604082015260600190565b60208082526003908201527f4530370000000000000000000000000000000000000000000000000000000000604082015260600190565b6020808252600b908201527f5065726d697373696f6e73000000000000000000000000000000000000000000604082015260600190565b60208082526003908201527f4531310000000000000000000000000000000000000000000000000000000000604082015260600190565b60208082526003908201527f4531330000000000000000000000000000000000000000000000000000000000604082015260600190565b60208082526003908201527f4530380000000000000000000000000000000000000000000000000000000000604082015260600190565b60208082526003908201527f4531320000000000000000000000000000000000000000000000000000000000604082015260600190565b60208082526010908201527f4e6f742061646d696e206f722064657600000000000000000000000000000000604082015260600190565b918252602082015260400190565b6000808335601e19843603018112612861578283fd5b83018035915067ffffffffffffffff82111561287b578283fd5b6020908101925081023603821315611a0257600080fd5b6000808335601e19843603018112612861578182fd5b6000808335601e198436030181126128be578283fd5b83018035915067ffffffffffffffff8211156128d8578283fd5b602001915036819003821315611a0257600080fd5b6001600160a01b03811681146118e057600080fdfe456e756d657261626c655365743a20696e646578206f7574206f6620626f756e6473416363657373436f6e74726f6c3a2073656e646572206d75737420626520616e2061646d696e20746f206772616e74416363657373436f6e74726f6c3a2073656e646572206d75737420626520616e2061646d696e20746f207265766f6b65496e697469616c697a61626c653a20636f6e747261637420697320616c726561647920696e697469616c697a6564416363657373436f6e74726f6c3a2063616e206f6e6c792072656e6f756e636520726f6c657320666f722073656c66a2646970667358221220aa9bf311a29f7b92b51a8e95f9ebcd3beffe9e9aba1298906037df306723898f64736f6c63430007060033",
    "linkReferences": {},
    "deployedLinkReferences": {}
}