{
    "_format": "hh-sol-artifact-1",
    "contractName": "ArcaneRaidV1",
    "sourceName": "src/ArcaneRaidV1.sol",
    "abi": [
        {
            "inputs": [
                {
                    "internalType": "address",
                    "name": "_rune",
                    "type": "address"
                },
                {
                    "internalType": "address",
                    "name": "_devAddress",
                    "type": "address"
                },
                {
                    "internalType": "address",
                    "name": "_vaultAddress",
                    "type": "address"
                },
                {
                    "internalType": "address",
                    "name": "_charityAddress",
                    "type": "address"
                },
                {
                    "internalType": "address",
                    "name": "_voidAddress",
                    "type": "address"
                },
                {
                    "internalType": "uint256",
                    "name": "_runeEmission",
                    "type": "uint256"
                },
                {
                    "internalType": "uint256",
                    "name": "runeSstartBlock",
                    "type": "uint256"
                }
            ],
            "stateMutability": "nonpayable",
            "type": "constructor"
        },
        {
            "anonymous": false,
            "inputs": [
                {
                    "indexed": true,
                    "internalType": "address",
                    "name": "user",
                    "type": "address"
                },
                {
                    "indexed": true,
                    "internalType": "uint256",
                    "name": "pid",
                    "type": "uint256"
                },
                {
                    "indexed": false,
                    "internalType": "uint256",
                    "name": "amount",
                    "type": "uint256"
                }
            ],
            "name": "Deposit",
            "type": "event"
        },
        {
            "anonymous": false,
            "inputs": [
                {
                    "indexed": true,
                    "internalType": "address",
                    "name": "user",
                    "type": "address"
                },
                {
                    "indexed": true,
                    "internalType": "uint256",
                    "name": "pid",
                    "type": "uint256"
                },
                {
                    "indexed": false,
                    "internalType": "uint256",
                    "name": "amount",
                    "type": "uint256"
                }
            ],
            "name": "EmergencyWithdraw",
            "type": "event"
        },
        {
            "anonymous": false,
            "inputs": [
                {
                    "indexed": true,
                    "internalType": "bytes32",
                    "name": "role",
                    "type": "bytes32"
                },
                {
                    "indexed": true,
                    "internalType": "bytes32",
                    "name": "previousAdminRole",
                    "type": "bytes32"
                },
                {
                    "indexed": true,
                    "internalType": "bytes32",
                    "name": "newAdminRole",
                    "type": "bytes32"
                }
            ],
            "name": "RoleAdminChanged",
            "type": "event"
        },
        {
            "anonymous": false,
            "inputs": [
                {
                    "indexed": true,
                    "internalType": "bytes32",
                    "name": "role",
                    "type": "bytes32"
                },
                {
                    "indexed": true,
                    "internalType": "address",
                    "name": "account",
                    "type": "address"
                },
                {
                    "indexed": true,
                    "internalType": "address",
                    "name": "sender",
                    "type": "address"
                }
            ],
            "name": "RoleGranted",
            "type": "event"
        },
        {
            "anonymous": false,
            "inputs": [
                {
                    "indexed": true,
                    "internalType": "bytes32",
                    "name": "role",
                    "type": "bytes32"
                },
                {
                    "indexed": true,
                    "internalType": "address",
                    "name": "account",
                    "type": "address"
                },
                {
                    "indexed": true,
                    "internalType": "address",
                    "name": "sender",
                    "type": "address"
                }
            ],
            "name": "RoleRevoked",
            "type": "event"
        },
        {
            "anonymous": false,
            "inputs": [
                {
                    "indexed": true,
                    "internalType": "address",
                    "name": "user",
                    "type": "address"
                },
                {
                    "indexed": true,
                    "internalType": "uint256",
                    "name": "pid",
                    "type": "uint256"
                },
                {
                    "indexed": false,
                    "internalType": "uint256",
                    "name": "amount",
                    "type": "uint256"
                }
            ],
            "name": "Withdraw",
            "type": "event"
        },
        {
            "inputs": [],
            "name": "DEFAULT_ADMIN_ROLE",
            "outputs": [
                {
                    "internalType": "bytes32",
                    "name": "",
                    "type": "bytes32"
                }
            ],
            "stateMutability": "view",
            "type": "function"
        },
        {
            "inputs": [],
            "name": "MESSENGER_ROLE",
            "outputs": [
                {
                    "internalType": "bytes32",
                    "name": "",
                    "type": "bytes32"
                }
            ],
            "stateMutability": "view",
            "type": "function"
        },
        {
            "inputs": [
                {
                    "internalType": "uint256",
                    "name": "_allocPoint",
                    "type": "uint256"
                },
                {
                    "internalType": "contract IBEP20",
                    "name": "_lpToken",
                    "type": "address"
                },
                {
                    "internalType": "uint16",
                    "name": "_depositFeeBP",
                    "type": "uint16"
                },
                {
                    "internalType": "bool",
                    "name": "_withUpdate",
                    "type": "bool"
                }
            ],
            "name": "add",
            "outputs": [],
            "stateMutability": "nonpayable",
            "type": "function"
        },
        {
            "inputs": [],
            "name": "charityAddress",
            "outputs": [
                {
                    "internalType": "address",
                    "name": "",
                    "type": "address"
                }
            ],
            "stateMutability": "view",
            "type": "function"
        },
        {
            "inputs": [],
            "name": "charityDepositPercent",
            "outputs": [
                {
                    "internalType": "uint256",
                    "name": "",
                    "type": "uint256"
                }
            ],
            "stateMutability": "view",
            "type": "function"
        },
        {
            "inputs": [],
            "name": "charityMintPercent",
            "outputs": [
                {
                    "internalType": "uint256",
                    "name": "",
                    "type": "uint256"
                }
            ],
            "stateMutability": "view",
            "type": "function"
        },
        {
            "inputs": [],
            "name": "currentRune",
            "outputs": [
                {
                    "internalType": "address",
                    "name": "",
                    "type": "address"
                }
            ],
            "stateMutability": "view",
            "type": "function"
        },
        {
            "inputs": [
                {
                    "internalType": "uint256",
                    "name": "_pid",
                    "type": "uint256"
                },
                {
                    "internalType": "uint256",
                    "name": "_amount",
                    "type": "uint256"
                }
            ],
            "name": "deposit",
            "outputs": [],
            "stateMutability": "nonpayable",
            "type": "function"
        },
        {
            "inputs": [
                {
                    "internalType": "address",
                    "name": "_rune",
                    "type": "address"
                },
                {
                    "internalType": "uint256",
                    "name": "_pid",
                    "type": "uint256"
                },
                {
                    "internalType": "uint256",
                    "name": "_amount",
                    "type": "uint256"
                }
            ],
            "name": "depositSpecific",
            "outputs": [],
            "stateMutability": "nonpayable",
            "type": "function"
        },
        {
            "inputs": [],
            "name": "devAddress",
            "outputs": [
                {
                    "internalType": "address",
                    "name": "",
                    "type": "address"
                }
            ],
            "stateMutability": "view",
            "type": "function"
        },
        {
            "inputs": [],
            "name": "devDepositPercent",
            "outputs": [
                {
                    "internalType": "uint256",
                    "name": "",
                    "type": "uint256"
                }
            ],
            "stateMutability": "view",
            "type": "function"
        },
        {
            "inputs": [],
            "name": "devMintPercent",
            "outputs": [
                {
                    "internalType": "uint256",
                    "name": "",
                    "type": "uint256"
                }
            ],
            "stateMutability": "view",
            "type": "function"
        },
        {
            "inputs": [
                {
                    "internalType": "uint256",
                    "name": "_pid",
                    "type": "uint256"
                }
            ],
            "name": "emergencyWithdraw",
            "outputs": [],
            "stateMutability": "nonpayable",
            "type": "function"
        },
        {
            "inputs": [
                {
                    "internalType": "uint256",
                    "name": "_pid",
                    "type": "uint256"
                },
                {
                    "internalType": "address",
                    "name": "_rune",
                    "type": "address"
                }
            ],
            "name": "getPoolAccRunePerShare",
            "outputs": [
                {
                    "internalType": "uint256",
                    "name": "",
                    "type": "uint256"
                }
            ],
            "stateMutability": "view",
            "type": "function"
        },
        {
            "inputs": [
                {
                    "internalType": "bytes32",
                    "name": "role",
                    "type": "bytes32"
                }
            ],
            "name": "getRoleAdmin",
            "outputs": [
                {
                    "internalType": "bytes32",
                    "name": "",
                    "type": "bytes32"
                }
            ],
            "stateMutability": "view",
            "type": "function"
        },
        {
            "inputs": [
                {
                    "internalType": "bytes32",
                    "name": "role",
                    "type": "bytes32"
                },
                {
                    "internalType": "uint256",
                    "name": "index",
                    "type": "uint256"
                }
            ],
            "name": "getRoleMember",
            "outputs": [
                {
                    "internalType": "address",
                    "name": "",
                    "type": "address"
                }
            ],
            "stateMutability": "view",
            "type": "function"
        },
        {
            "inputs": [
                {
                    "internalType": "bytes32",
                    "name": "role",
                    "type": "bytes32"
                }
            ],
            "name": "getRoleMemberCount",
            "outputs": [
                {
                    "internalType": "uint256",
                    "name": "",
                    "type": "uint256"
                }
            ],
            "stateMutability": "view",
            "type": "function"
        },
        {
            "inputs": [
                {
                    "internalType": "uint256",
                    "name": "_pid",
                    "type": "uint256"
                }
            ],
            "name": "getUserAmount",
            "outputs": [
                {
                    "internalType": "uint256",
                    "name": "",
                    "type": "uint256"
                }
            ],
            "stateMutability": "view",
            "type": "function"
        },
        {
            "inputs": [
                {
                    "internalType": "bytes32",
                    "name": "role",
                    "type": "bytes32"
                },
                {
                    "internalType": "address",
                    "name": "account",
                    "type": "address"
                }
            ],
            "name": "grantRole",
            "outputs": [],
            "stateMutability": "nonpayable",
            "type": "function"
        },
        {
            "inputs": [],
            "name": "harvestAll",
            "outputs": [],
            "stateMutability": "nonpayable",
            "type": "function"
        },
        {
            "inputs": [],
            "name": "harvestAllEnabled",
            "outputs": [
                {
                    "internalType": "bool",
                    "name": "",
                    "type": "bool"
                }
            ],
            "stateMutability": "view",
            "type": "function"
        },
        {
            "inputs": [
                {
                    "components": [
                        {
                            "internalType": "address",
                            "name": "rune",
                            "type": "address"
                        },
                        {
                            "internalType": "uint256[]",
                            "name": "pools",
                            "type": "uint256[]"
                        }
                    ],
                    "internalType": "struct ArcaneRaidLibraryV1.HarvestMap[]",
                    "name": "_map",
                    "type": "tuple[]"
                }
            ],
            "name": "harvestMap",
            "outputs": [],
            "stateMutability": "nonpayable",
            "type": "function"
        },
        {
            "inputs": [],
            "name": "harvestMapEnabled",
            "outputs": [
                {
                    "internalType": "bool",
                    "name": "",
                    "type": "bool"
                }
            ],
            "stateMutability": "view",
            "type": "function"
        },
        {
            "inputs": [
                {
                    "internalType": "uint256",
                    "name": "_pid",
                    "type": "uint256"
                },
                {
                    "internalType": "address",
                    "name": "_rune",
                    "type": "address"
                },
                {
                    "internalType": "uint256",
                    "name": "_actionId",
                    "type": "uint256"
                }
            ],
            "name": "harvestSpecific",
            "outputs": [],
            "stateMutability": "nonpayable",
            "type": "function"
        },
        {
            "inputs": [
                {
                    "internalType": "uint256",
                    "name": "_pid",
                    "type": "uint256"
                },
                {
                    "internalType": "uint256",
                    "name": "_actionId",
                    "type": "uint256"
                }
            ],
            "name": "harvestSpecificPool",
            "outputs": [],
            "stateMutability": "nonpayable",
            "type": "function"
        },
        {
            "inputs": [],
            "name": "harvestUserAll",
            "outputs": [],
            "stateMutability": "nonpayable",
            "type": "function"
        },
        {
            "inputs": [
                {
                    "components": [
                        {
                            "internalType": "address",
                            "name": "rune",
                            "type": "address"
                        },
                        {
                            "internalType": "uint256[]",
                            "name": "pools",
                            "type": "uint256[]"
                        }
                    ],
                    "internalType": "struct ArcaneRaidLibraryV1.HarvestMap[]",
                    "name": "_map",
                    "type": "tuple[]"
                }
            ],
            "name": "harvestUserMap",
            "outputs": [],
            "stateMutability": "nonpayable",
            "type": "function"
        },
        {
            "inputs": [
                {
                    "internalType": "bytes32",
                    "name": "role",
                    "type": "bytes32"
                },
                {
                    "internalType": "address",
                    "name": "account",
                    "type": "address"
                }
            ],
            "name": "hasRole",
            "outputs": [
                {
                    "internalType": "bool",
                    "name": "",
                    "type": "bool"
                }
            ],
            "stateMutability": "view",
            "type": "function"
        },
        {
            "inputs": [],
            "name": "massUpdatePools",
            "outputs": [],
            "stateMutability": "nonpayable",
            "type": "function"
        },
        {
            "inputs": [],
            "name": "messenger",
            "outputs": [
                {
                    "internalType": "contract IArcaneMessengerV1",
                    "name": "",
                    "type": "address"
                }
            ],
            "stateMutability": "view",
            "type": "function"
        },
        {
            "inputs": [
                {
                    "internalType": "uint256",
                    "name": "_pid",
                    "type": "uint256"
                },
                {
                    "internalType": "address",
                    "name": "_user",
                    "type": "address"
                }
            ],
            "name": "pendingRune",
            "outputs": [
                {
                    "internalType": "uint256",
                    "name": "",
                    "type": "uint256"
                }
            ],
            "stateMutability": "view",
            "type": "function"
        },
        {
            "inputs": [
                {
                    "internalType": "address",
                    "name": "_rune",
                    "type": "address"
                },
                {
                    "internalType": "uint256",
                    "name": "_pid",
                    "type": "uint256"
                },
                {
                    "internalType": "address",
                    "name": "_user",
                    "type": "address"
                }
            ],
            "name": "pendingRune",
            "outputs": [
                {
                    "internalType": "uint256",
                    "name": "",
                    "type": "uint256"
                }
            ],
            "stateMutability": "view",
            "type": "function"
        },
        {
            "inputs": [
                {
                    "internalType": "address",
                    "name": "",
                    "type": "address"
                }
            ],
            "name": "poolExists",
            "outputs": [
                {
                    "internalType": "bool",
                    "name": "",
                    "type": "bool"
                }
            ],
            "stateMutability": "view",
            "type": "function"
        },
        {
            "inputs": [
                {
                    "internalType": "uint256",
                    "name": "",
                    "type": "uint256"
                }
            ],
            "name": "poolInfo",
            "outputs": [
                {
                    "internalType": "contract IBEP20",
                    "name": "lpToken",
                    "type": "address"
                },
                {
                    "internalType": "uint256",
                    "name": "allocPoint",
                    "type": "uint256"
                },
                {
                    "internalType": "uint16",
                    "name": "depositFeeBP",
                    "type": "uint16"
                }
            ],
            "stateMutability": "view",
            "type": "function"
        },
        {
            "inputs": [
                {
                    "internalType": "uint256",
                    "name": "",
                    "type": "uint256"
                }
            ],
            "name": "previousRunes",
            "outputs": [
                {
                    "internalType": "address",
                    "name": "",
                    "type": "address"
                }
            ],
            "stateMutability": "view",
            "type": "function"
        },
        {
            "inputs": [
                {
                    "internalType": "bytes32",
                    "name": "role",
                    "type": "bytes32"
                },
                {
                    "internalType": "address",
                    "name": "account",
                    "type": "address"
                }
            ],
            "name": "renounceRole",
            "outputs": [],
            "stateMutability": "nonpayable",
            "type": "function"
        },
        {
            "inputs": [
                {
                    "internalType": "bytes32",
                    "name": "role",
                    "type": "bytes32"
                },
                {
                    "internalType": "address",
                    "name": "account",
                    "type": "address"
                }
            ],
            "name": "revokeRole",
            "outputs": [],
            "stateMutability": "nonpayable",
            "type": "function"
        },
        {
            "inputs": [
                {
                    "internalType": "address",
                    "name": "",
                    "type": "address"
                }
            ],
            "name": "runeEmission",
            "outputs": [
                {
                    "internalType": "uint256",
                    "name": "",
                    "type": "uint256"
                }
            ],
            "stateMutability": "view",
            "type": "function"
        },
        {
            "inputs": [],
            "name": "runePerBlock",
            "outputs": [
                {
                    "internalType": "uint256",
                    "name": "",
                    "type": "uint256"
                }
            ],
            "stateMutability": "view",
            "type": "function"
        },
        {
            "inputs": [
                {
                    "internalType": "address",
                    "name": "",
                    "type": "address"
                }
            ],
            "name": "runeStartBlock",
            "outputs": [
                {
                    "internalType": "uint256",
                    "name": "",
                    "type": "uint256"
                }
            ],
            "stateMutability": "view",
            "type": "function"
        },
        {
            "inputs": [
                {
                    "internalType": "address",
                    "name": "_tokenAddress",
                    "type": "address"
                },
                {
                    "internalType": "address",
                    "name": "_from",
                    "type": "address"
                },
                {
                    "internalType": "address",
                    "name": "_to",
                    "type": "address"
                },
                {
                    "internalType": "uint256",
                    "name": "_amount",
                    "type": "uint256"
                }
            ],
            "name": "safeBepTransfer",
            "outputs": [],
            "stateMutability": "nonpayable",
            "type": "function"
        },
        {
            "inputs": [
                {
                    "internalType": "address",
                    "name": "_address",
                    "type": "address"
                },
                {
                    "internalType": "uint256",
                    "name": "_amount",
                    "type": "uint256"
                }
            ],
            "name": "safeRuneTransfer",
            "outputs": [],
            "stateMutability": "nonpayable",
            "type": "function"
        },
        {
            "inputs": [
                {
                    "internalType": "uint256",
                    "name": "_pid",
                    "type": "uint256"
                },
                {
                    "internalType": "uint256",
                    "name": "_allocPoint",
                    "type": "uint256"
                },
                {
                    "internalType": "uint16",
                    "name": "_depositFeeBP",
                    "type": "uint16"
                },
                {
                    "internalType": "bool",
                    "name": "_withUpdate",
                    "type": "bool"
                }
            ],
            "name": "set",
            "outputs": [],
            "stateMutability": "nonpayable",
            "type": "function"
        },
        {
            "inputs": [
                {
                    "internalType": "bool",
                    "name": "_harvestAllEnabled",
                    "type": "bool"
                },
                {
                    "internalType": "bool",
                    "name": "_harvestMapEnabled",
                    "type": "bool"
                }
            ],
            "name": "setHarvestFunctions",
            "outputs": [],
            "stateMutability": "nonpayable",
            "type": "function"
        },
        {
            "inputs": [
                {
                    "internalType": "address",
                    "name": "_vaultAddress",
                    "type": "address"
                },
                {
                    "internalType": "address",
                    "name": "_charityAddress",
                    "type": "address"
                },
                {
                    "internalType": "address",
                    "name": "_devAddress",
                    "type": "address"
                },
                {
                    "internalType": "uint256",
                    "name": "_vaultMintPercent",
                    "type": "uint256"
                },
                {
                    "internalType": "uint256",
                    "name": "_charityMintPercent",
                    "type": "uint256"
                },
                {
                    "internalType": "uint256",
                    "name": "_devMintPercent",
                    "type": "uint256"
                },
                {
                    "internalType": "uint256",
                    "name": "_vaultDepositPercent",
                    "type": "uint256"
                },
                {
                    "internalType": "uint256",
                    "name": "_charityDepositPercent",
                    "type": "uint256"
                },
                {
                    "internalType": "uint256",
                    "name": "_devDepositPercent",
                    "type": "uint256"
                }
            ],
            "name": "setInfo",
            "outputs": [],
            "stateMutability": "nonpayable",
            "type": "function"
        },
        {
            "inputs": [
                {
                    "internalType": "contract IArcaneMessengerV1",
                    "name": "_messenger",
                    "type": "address"
                }
            ],
            "name": "setMessenger",
            "outputs": [],
            "stateMutability": "nonpayable",
            "type": "function"
        },
        {
            "inputs": [
                {
                    "internalType": "uint256",
                    "name": "_pid",
                    "type": "uint256"
                },
                {
                    "internalType": "uint256",
                    "name": "_amount",
                    "type": "uint256"
                }
            ],
            "name": "setUserAmount",
            "outputs": [],
            "stateMutability": "nonpayable",
            "type": "function"
        },
        {
            "inputs": [
                {
                    "internalType": "uint256",
                    "name": "_pid",
                    "type": "uint256"
                },
                {
                    "internalType": "address",
                    "name": "_rune",
                    "type": "address"
                },
                {
                    "internalType": "uint256",
                    "name": "_rewardDebt",
                    "type": "uint256"
                }
            ],
            "name": "setUserRewardDebt",
            "outputs": [],
            "stateMutability": "nonpayable",
            "type": "function"
        },
        {
            "inputs": [],
            "name": "startBlock",
            "outputs": [
                {
                    "internalType": "uint256",
                    "name": "",
                    "type": "uint256"
                }
            ],
            "stateMutability": "view",
            "type": "function"
        },
        {
            "inputs": [
                {
                    "internalType": "address",
                    "name": "_rune",
                    "type": "address"
                },
                {
                    "internalType": "uint256",
                    "name": "runeSstartBlock",
                    "type": "uint256"
                }
            ],
            "name": "switchCurrentRune",
            "outputs": [],
            "stateMutability": "nonpayable",
            "type": "function"
        },
        {
            "inputs": [
                {
                    "internalType": "address",
                    "name": "_rune",
                    "type": "address"
                }
            ],
            "name": "throwRuneInVoid",
            "outputs": [],
            "stateMutability": "nonpayable",
            "type": "function"
        },
        {
            "inputs": [],
            "name": "totalAllocPoint",
            "outputs": [
                {
                    "internalType": "uint256",
                    "name": "",
                    "type": "uint256"
                }
            ],
            "stateMutability": "view",
            "type": "function"
        },
        {
            "inputs": [
                {
                    "internalType": "uint256",
                    "name": "_pid",
                    "type": "uint256"
                },
                {
                    "internalType": "uint256",
                    "name": "_rewardDebt",
                    "type": "uint256"
                }
            ],
            "name": "updateAllUserRewardDebt",
            "outputs": [],
            "stateMutability": "nonpayable",
            "type": "function"
        },
        {
            "inputs": [
                {
                    "internalType": "uint256",
                    "name": "_pid",
                    "type": "uint256"
                }
            ],
            "name": "updateAllUserRewardDebt",
            "outputs": [],
            "stateMutability": "nonpayable",
            "type": "function"
        },
        {
            "inputs": [
                {
                    "internalType": "uint256",
                    "name": "_runeEmission",
                    "type": "uint256"
                }
            ],
            "name": "updateEmissionRate",
            "outputs": [],
            "stateMutability": "nonpayable",
            "type": "function"
        },
        {
            "inputs": [
                {
                    "internalType": "address",
                    "name": "_rune",
                    "type": "address"
                },
                {
                    "internalType": "uint256",
                    "name": "_runeEmission",
                    "type": "uint256"
                }
            ],
            "name": "updateEmissionRate",
            "outputs": [],
            "stateMutability": "nonpayable",
            "type": "function"
        },
        {
            "inputs": [
                {
                    "internalType": "uint256",
                    "name": "_pid",
                    "type": "uint256"
                },
                {
                    "internalType": "address",
                    "name": "_rune",
                    "type": "address"
                }
            ],
            "name": "updatePool",
            "outputs": [],
            "stateMutability": "nonpayable",
            "type": "function"
        },
        {
            "inputs": [
                {
                    "internalType": "uint256",
                    "name": "_pid",
                    "type": "uint256"
                },
                {
                    "internalType": "address",
                    "name": "_rune",
                    "type": "address"
                }
            ],
            "name": "updateUserRewardDebt",
            "outputs": [],
            "stateMutability": "nonpayable",
            "type": "function"
        },
        {
            "inputs": [
                {
                    "internalType": "uint256",
                    "name": "_pid",
                    "type": "uint256"
                },
                {
                    "internalType": "uint256",
                    "name": "_rewardDebt",
                    "type": "uint256"
                }
            ],
            "name": "updateUserRewardDebt",
            "outputs": [],
            "stateMutability": "nonpayable",
            "type": "function"
        },
        {
            "inputs": [
                {
                    "internalType": "uint256",
                    "name": "",
                    "type": "uint256"
                },
                {
                    "internalType": "address",
                    "name": "",
                    "type": "address"
                }
            ],
            "name": "userInfo",
            "outputs": [
                {
                    "internalType": "uint256",
                    "name": "amount",
                    "type": "uint256"
                }
            ],
            "stateMutability": "view",
            "type": "function"
        },
        {
            "inputs": [],
            "name": "vaultAddress",
            "outputs": [
                {
                    "internalType": "address",
                    "name": "",
                    "type": "address"
                }
            ],
            "stateMutability": "view",
            "type": "function"
        },
        {
            "inputs": [],
            "name": "vaultDepositPercent",
            "outputs": [
                {
                    "internalType": "uint256",
                    "name": "",
                    "type": "uint256"
                }
            ],
            "stateMutability": "view",
            "type": "function"
        },
        {
            "inputs": [],
            "name": "vaultMintPercent",
            "outputs": [
                {
                    "internalType": "uint256",
                    "name": "",
                    "type": "uint256"
                }
            ],
            "stateMutability": "view",
            "type": "function"
        },
        {
            "inputs": [],
            "name": "voidAddress",
            "outputs": [
                {
                    "internalType": "address",
                    "name": "",
                    "type": "address"
                }
            ],
            "stateMutability": "view",
            "type": "function"
        },
        {
            "inputs": [
                {
                    "internalType": "uint256",
                    "name": "_pid",
                    "type": "uint256"
                },
                {
                    "internalType": "uint256",
                    "name": "_amount",
                    "type": "uint256"
                }
            ],
            "name": "withdraw",
            "outputs": [],
            "stateMutability": "nonpayable",
            "type": "function"
        },
        {
            "inputs": [
                {
                    "internalType": "address",
                    "name": "_rune",
                    "type": "address"
                },
                {
                    "internalType": "uint256",
                    "name": "_pid",
                    "type": "uint256"
                },
                {
                    "internalType": "uint256",
                    "name": "_amount",
                    "type": "uint256"
                }
            ],
            "name": "withdrawSpecific",
            "outputs": [],
            "stateMutability": "nonpayable",
            "type": "function"
        }
    ],
    "bytecode": "0x6080604052600060038190556006805461ff001960ff19909116600117169055600a819055600b819055600c819055600d819055600e819055600f553480156200004857600080fd5b5060405162005812380380620058128339810160408190526200006b916200026e565b60018055600280546001600160a01b03199081166001600160a01b038a81169182179093556006805462010000600160b01b031916620100008b8616021790556008805483168985161790556007805483168885161790556009805490921692861692909217905560009081526005602090815260408083208590556004909152812082905562000106906200010062000142565b62000146565b620001357f9169014801faeffeb0ffa6d3da58be378861e512c765e75a348579eecb0318546200010062000142565b50505050505050620002f5565b3390565b62000152828262000156565b5050565b6000828152602081815260409091206200017b918390620023e2620001cf821b17901c565b1562000152576200018b62000142565b6001600160a01b0316816001600160a01b0316837f2f8788117e7eff1d82e926ec794901d17c78024a50270940304540a733656f0d60405160405180910390a45050565b6000620001e6836001600160a01b038416620001ef565b90505b92915050565b6000620001fd83836200023e565b6200023557508154600181810184556000848152602080822090930184905584548482528286019093526040902091909155620001e9565b506000620001e9565b60009081526001919091016020526040902054151590565b80516001600160a01b0381168114620001e957600080fd5b600080600080600080600060e0888a03121562000289578283fd5b62000295898962000256565b9650620002a68960208a0162000256565b9550620002b78960408a0162000256565b9450620002c88960608a0162000256565b9350620002d98960808a0162000256565b925060a0880151915060c0880151905092959891949750929550565b61550d80620003056000396000f3fe608060405234801561001057600080fd5b50600436106104065760003560e01c8063662859671161021a578063c091b5eb11610135578063d59f62a8116100c8578063dc8b6b5c11610097578063e3a247fd1161007c578063e3a247fd14610807578063f9f824741461081a578063faa8e7581461082d57610406565b8063dc8b6b5c146107e1578063e2bbb158146107f457610406565b8063d59f62a8146107a0578063d8c06d8e146107b3578063d8fce433146107bb578063d9638422146107ce57610406565b8063ca6b6f5511610104578063ca6b6f551461075f578063cadd92b314610772578063cc47e49614610785578063d547741f1461078d57610406565b8063c091b5eb14610713578063c22b26bc14610726578063c6daf34614610739578063ca15c8731461074c57610406565b80639010d07c116101ad578063a217fddf1161017c578063a217fddf146106f3578063adf12e03146106fb578063afcf2fc414610703578063b2b632301461070b57610406565b80639010d07c146106a757806391d14854146106ba57806393f1a40b146106cd5780639e9551a7146106e057610406565b806384e82a33116101e957806384e82a331461067157806388384066146106845780638ed955b91461068c5780638fec02aa1461069457610406565b806366285967146106255780636e09e6ed1461063857806373309b961461064b5780637b86785c1461065e57610406565b8063351588bc11610325578063430bf08a116102b85780634e18d6071161028757806353867a661161026c57806353867a66146106025780635b8f226d1461060a578063630b5ba11461061d57610406565b80634e18d607146105dc5780635312ea8e146105ef57610406565b8063430bf08a146105b157806343b20762146105b9578063441a3e70146105c157806348cd4cb1146105d457610406565b80633ad10ef6116102f45780633ad10ef6146105865780633b8663b41461058e5780633cb747bf146105a157806341e6a1eb146105a957610406565b8063351588bc1461055057806335716f871461055857806336568abe1461056b57806339367bc61461057e57610406565b80631e1c6a071161039d5780632bcbcc101161036c5780632bcbcc101461050f5780632f2ff15d146105225780632f651314146105355780632f7e632e1461053d57610406565b80631e1c6a07146104b6578063216369b4146104d6578063248a9ca3146104e9578063255d2390146104fc57610406565b80631526fe27116103d95780631526fe27146104645780631615a19914610486578063177a24001461049b57806317caf6f1146104ae57610406565b8063041d21051461040b578063099cb207146104205780630ba84cd2146104335780630bd0c42914610446575b600080fd5b61041e610419366004614a0f565b610840565b005b61041e61042e366004614815565b6108b6565b61041e61044136600461499a565b61090a565b61044e610988565b60405161045b9190614b4a565b60405180910390f35b61047761047236600461499a565b61098e565b60405161045b93929190614b53565b61048e6109cc565b60405161045b9190614aee565b61041e6104a93660046147e1565b6109db565b61044e610a3b565b6104c96104c4366004614689565b610a41565b60405161045b9190614b3f565b61041e6104e43660046149b2565b610a56565b61044e6104f736600461499a565b610af4565b61044e61050a3660046149b2565b610b09565b61041e61051d3660046146a5565b610b4e565b61041e6105303660046149b2565b610b96565b61044e610bde565b61041e61054b3660046149d6565b610be4565b61044e610cca565b61044e610566366004614689565b610cd0565b61041e6105793660046149b2565b610ce2565b61044e610d24565b61048e610d2a565b61041e61059c3660046149d6565b610d3f565b61048e610d8d565b6104c9610d9c565b61048e610daa565b6104c9610db9565b61041e6105cf3660046149d6565b610dc2565b61044e610e2d565b61041e6105ea36600461499a565b610e4b565b61041e6105fd36600461499a565b611019565b61044e611248565b61041e6106183660046147e1565b61124e565b61041e6112a4565b61041e610633366004614689565b61131b565b61044e6106463660046147a0565b61137d565b61041e6106593660046149b2565b6113b7565b61044e61066c3660046149b2565b611421565b61041e61067f366004614a46565b611498565b61041e6118b3565b61041e6118fe565b61041e6106a2366004614815565b61194b565b61048e6106b53660046149d6565b61199b565b6104c96106c83660046149b2565b6119ba565b61044e6106db3660046149b2565b6119d2565b61041e6106ee366004614689565b6119ef565b61044e611b09565b61044e611b0e565b61048e611b14565b61044e611b23565b61041e6107213660046146f5565b611b35565b61041e610734366004614a0f565b611cc2565b61041e610747366004614775565b611d19565b61044e61075a36600461499a565b611ed4565b61041e61076d366004614775565b611eeb565b61048e61078036600461499a565b611f85565b61048e611fac565b61041e61079b3660046149b2565b611fbb565b61044e6107ae36600461499a565b611ff5565b61044e612056565b61041e6107c93660046149d6565b612074565b61041e6107dc366004614a9e565b6120e5565b61041e6107ef366004614962565b612233565b61041e6108023660046149d6565b612296565b61041e610815366004614775565b6122f8565b61044e610828366004614689565b612372565b61041e61083b3660046149d6565b612384565b61085a6000805160206154b88339815191526106c86123f7565b61087f5760405162461bcd60e51b815260040161087690614e67565b60405180910390fd5b6000928352601660209081526040808520601a546001600160a01b0390811687529083528186209416855260019093019052912055565b600260015414156108d95760405162461bcd60e51b815260040161087690615303565b6002600155600654610100900460ff166108f257610903565b610903816108fe6123f7565b6123fb565b5060018055565b6002600154141561092d5760405162461bcd60e51b815260040161087690615303565b60026001556006546201000090046001600160a01b031661094c6123f7565b6001600160a01b0316146109725760405162461bcd60e51b815260040161087690614ed5565b600254610903906001600160a01b03168261275e565b600e5481565b6015818154811061099b57fe5b60009182526020909120600590910201805460018201546004909201546001600160a01b03909116925061ffff1683565b6009546001600160a01b031681565b600260015414156109fe5760405162461bcd60e51b815260040161087690615303565b600260015560155482908110610a265760405162461bcd60e51b815260040161087690614e9e565b610a31848484612783565b5050600180555050565b60035481565b60176020526000908152604090205460ff1681565b610a706000805160206154b88339815191526106c86123f7565b610a8c5760405162461bcd60e51b815260040161087690614e67565b61087f64e8d4a51000610aee60158581548110610aa557fe5b600091825260208083206001600160a01b03888116855260059390930201600301815260408084205489855260168352818520601a549094168552929091529091205490612be3565b90612c1d565b60009081526020819052604090206002015490565b60155460009083908110610b2f5760405162461bcd60e51b815260040161087690614e9e565b600254610b46906001600160a01b03168585612c4f565b949350505050565b610b686000805160206154b88339815191526106c86123f7565b610b845760405162461bcd60e51b815260040161087690614e67565b610b9084848484612e13565b50505050565b600082815260208190526040902060020154610bb4906106c86123f7565b610bd05760405162461bcd60e51b815260040161087690614c3d565b610bda8282612f5b565b5050565b600d5481565b610bfe6000805160206154b88339815191526106c86123f7565b610c1a5760405162461bcd60e51b815260040161087690614e67565b6000828152601660209081526040808320601a546001600160a01b03908116855290835281842060025490911684526001019091528120829055601854905b81811015610b90576000848152601660209081526040808320601a546001600160a01b031684529091528120601880548693600190930192919085908110610c9d57fe5b60009182526020808320909101546001600160a01b03168352820192909252604001902055600101610c59565b600a5481565b60046020526000908152604090205481565b610cea6123f7565b6001600160a01b0316816001600160a01b031614610d1a5760405162461bcd60e51b81526004016108769061533a565b610bda8282612fc4565b600c5481565b6006546201000090046001600160a01b031681565b610d596000805160206154b88339815191526106c86123f7565b610d755760405162461bcd60e51b815260040161087690614e67565b601a54610bda9083906001600160a01b03168361302d565b6019546001600160a01b031681565b600654610100900460ff1681565b6008546001600160a01b031681565b60065460ff1681565b60026001541415610de55760405162461bcd60e51b815260040161087690615303565b600260015560155482908110610e0d5760405162461bcd60e51b815260040161087690614e9e565b600254610e24906001600160a01b031684846132c4565b50506001805550565b6002546001600160a01b031660009081526004602052604090205490565b610e656000805160206154b88339815191526106c86123f7565b610e815760405162461bcd60e51b815260040161087690614e67565b610ee664e8d4a51000610aee60158481548110610e9a57fe5b600091825260208083206002546001600160a01b03908116855260059390930201600301815260408084205488855260168352818520601a549094168552929091529091205490612be3565b6000828152601660209081526040808320601a546001600160a01b0390811685529083528184206002549091168452600101909152812091909155601854905b8181101561101457610fae64e8d4a51000610aee60158681548110610f4757fe5b9060005260206000209060050201600301600060188681548110610f6757fe5b60009182526020808320909101546001600160a01b0390811684528382019490945260409283018220548a835260168252838320601a549095168352939052205490612be3565b6000848152601660209081526040808320601a546001600160a01b031684529091528120601880546001909201929185908110610fe757fe5b60009182526020808320909101546001600160a01b03168352820192909252604001902055600101610f26565b505050565b6002600154141561103c5760405162461bcd60e51b815260040161087690615303565b6002600155601554819081106110645760405162461bcd60e51b815260040161087690614e9e565b6019546001600160a01b03166110786123f7565b6001600160a01b0316141561109f5760405162461bcd60e51b815260040161087690614c9a565b6000601583815481106110ae57fe5b600091825260208083208684526016909152604083206005909202019250816110d56123f7565b6001600160a01b03166001600160a01b03168152602001908152602001600020905060006016600086815260200190815260200160002060006111166123f7565b6001600160a01b0390811682526020808301939093526040918201600090812060025490921681526001909101909252812091909155601854905b818110156111cf576000868152601660205260408120816111706123f7565b6001600160a01b03166001600160a01b031681526020019081526020016000206001016000601884815481106111a257fe5b60009182526020808320909101546001600160a01b03168352820192909252604001902055600101611151565b508154600083556111f36111e16123f7565b85546001600160a01b031690836135ff565b856111fc6123f7565b6001600160a01b03167fbb757047c2b5f3974fe26b7c10f732e7bce710b0952a71082702781e62ae0595836040516112349190614b4a565b60405180910390a350506001805550505050565b600f5481565b600260015414156112715760405162461bcd60e51b815260040161087690615303565b6002600155601554829081106112995760405162461bcd60e51b815260040161087690614e9e565b610a318484846132c4565b6006546201000090046001600160a01b03166112be6123f7565b6001600160a01b031614806112e857506112e86000805160206154b88339815191526106c86123f7565b6113045760405162461bcd60e51b81526004016108769061506b565b600254611319906001600160a01b0316613682565b565b6006546201000090046001600160a01b03166113356123f7565b6001600160a01b03161461135b5760405162461bcd60e51b815260040161087690614ed5565b601980546001600160a01b0319166001600160a01b0392909216919091179055565b601554600090839081106113a35760405162461bcd60e51b815260040161087690614e9e565b6113ae858585612c4f565b95945050505050565b6006546201000090046001600160a01b03166113d16123f7565b6001600160a01b031614806113fb57506113fb6000805160206154b88339815191526106c86123f7565b6114175760405162461bcd60e51b81526004016108769061506b565b610bda82826136a2565b600061143d6000805160206154b88339815191526106c86123f7565b6114595760405162461bcd60e51b815260040161087690614e67565b6015838154811061146657fe5b600091825260208083206001600160a01b03861684526003600590930201919091019052604090205490505b92915050565b600260015414156114bb5760405162461bcd60e51b815260040161087690615303565b60026001556006546201000090046001600160a01b03166114da6123f7565b6001600160a01b0316146115005760405162461bcd60e51b815260040161087690614ed5565b6127108261ffff1611156115265760405162461bcd60e51b815260040161087690614bab565b6001600160a01b03831660009081526017602052604090205460ff161561155f5760405162461bcd60e51b81526004016108769061525e565b6001600160a01b0383166000908152601760205260409020805460ff19166001179055801561159d5760025461159d906001600160a01b0316613682565b6003546115aa9085613ad1565b600355604080516060810182526001600160a01b038086168083526020830188905261ffff80871693909401839052601080546001600160a01b03199081169092179081905560118981556014805461ffff19908116909617815560158054600181018255600082815260059091027f55f448fdea98c4d29eb340757ef0a66cd03dbb9538908a6a81d96026b71ec47581018054909716959097169490941790945590547f55f448fdea98c4d29eb340757ef0a66cd03dbb9538908a6a81d96026b71ec476850155547f55f448fdea98c4d29eb340757ef0a66cd03dbb9538908a6a81d96026b71ec47990930180549094169290941691909117909155805460001981019081106116b757fe5b60009182526020808320600280546001600160a01b0390811686526005949094029091016003018252604080852095909555549091168252600490522054431161171b576002546001600160a01b0316600090815260046020526040902054611720565b600143035b60158054600019810190811061173257fe5b60009182526020808320600280546001600160a01b031685526005909302019190910190526040812091909155601854905b818110156118a7576015805460009190600019810190811061178257fe5b90600052602060002090600502016003016000601884815481106117a257fe5b60009182526020808320909101546001600160a01b03168352820192909252604001812091909155601880546004929190849081106117dd57fe5b60009182526020808320909101546001600160a01b03168352820192909252604001902054431161184357600460006018838154811061181957fe5b60009182526020808320909101546001600160a01b03168352820192909252604001902054611848565b600143035b60158054600019810190811061185a57fe5b906000526020600020906005020160020160006018848154811061187a57fe5b60009182526020808320909101546001600160a01b03168352820192909252604001902055600101611764565b50506001805550505050565b6118cd6000805160206154b88339815191526106c86123f7565b6118e95760405162461bcd60e51b815260040161087690614e67565b601a54611319906001600160a01b0316613af6565b600260015414156119215760405162461bcd60e51b815260040161087690615303565b600260015560065460ff1661193557611945565b6119456119406123f7565b613af6565b60018055565b6119656000805160206154b88339815191526106c86123f7565b6119815760405162461bcd60e51b815260040161087690614e67565b601a546119989082906001600160a01b03166123fb565b50565b60008281526020819052604081206119b39083613b18565b9392505050565b60008281526020819052604081206119b39083613b24565b601660209081526000928352604080842090915290825290205481565b60026001541415611a125760405162461bcd60e51b815260040161087690615303565b60026001556006546201000090046001600160a01b0316611a316123f7565b6001600160a01b031614611a575760405162461bcd60e51b815260040161087690614ed5565b6002546001600160a01b0382811691161415611a855760405162461bcd60e51b815260040161087690615295565b6009546040517ff2fde38b0000000000000000000000000000000000000000000000000000000081526001600160a01b038381169263f2fde38b92611ad09290911690600401614aee565b600060405180830381600087803b158015611aea57600080fd5b505af1158015611afe573d6000803e3d6000fd5b505060018055505050565b600081565b600b5481565b6007546001600160a01b031681565b6000805160206154b883398151915281565b6006546201000090046001600160a01b0316611b4f6123f7565b6001600160a01b031614611b755760405162461bcd60e51b815260040161087690614ed5565b6001600160a01b03891615801590611b9557506001600160a01b03881615155b8015611ba957506001600160a01b03871615155b611bc55760405162461bcd60e51b815260040161087690615034565b619a4c8611158015611bd8575060fa8511155b8015611be657506101c28411155b611c025760405162461bcd60e51b8152600401610876906150d9565b61251c8311158015611c15575060fa8211155b8015611c2357506101c28111155b611c3f5760405162461bcd60e51b8152600401610876906150d9565b600880546001600160a01b03199081166001600160a01b039b8c161790915560078054909116988a1698909817909755600680547fffffffffffffffffffff0000000000000000000000000000000000000000ffff1662010000979099169690960297909717909455600b92909255600c55600a55600e55600f91909155600d55565b611cdc6000805160206154b88339815191526106c86123f7565b611cf85760405162461bcd60e51b815260040161087690614e67565b601a54611d1290849084906001600160a01b031684613b39565b5050505050565b60026001541415611d3c5760405162461bcd60e51b815260040161087690615303565b60026001556006546201000090046001600160a01b0316611d5b6123f7565b6001600160a01b031614611d815760405162461bcd60e51b815260040161087690614ed5565b6002546001600160a01b0383811691161415611daf5760405162461bcd60e51b815260040161087690614e30565b600254611dc4906001600160a01b0316613682565b600280546001600160a01b03908116600090815260056020526040812081905591546018805460018101825593527fb13d2d76d1f4b7be834882e410b3e3a8afaf69f83600ae24db354391d2378d2e90920180546001600160a01b03191692909116919091179055438110611e395780611e3e565b600143035b6001600160a01b038316600081815260046020526040812092909255600280546001600160a01b0319169091179055601554905b81811015611eca57824311611e875782611e8c565b600143035b60158281548110611e9957fe5b600091825260208083206001600160a01b038916845260026005909302019190910190526040902055600101611e72565b50610e2483613682565b600081815260208190526040812061149290613dcf565b611f056000805160206154b88339815191526106c86123f7565b611f215760405162461bcd60e51b815260040161087690614e67565b601a5461dead906001600160a01b0384811691161480611f525750806001600160a01b0316836001600160a01b0316145b611f6e5760405162461bcd60e51b8152600401610876906150a2565b601d54611014906001600160a01b03168484613dda565b60188181548110611f9257fe5b6000918252602090912001546001600160a01b0316905081565b6002546001600160a01b031681565b600082815260208190526040902060020154611fd9906106c86123f7565b610d1a5760405162461bcd60e51b815260040161087690614fd7565b60006120116000805160206154b88339815191526106c86123f7565b61202d5760405162461bcd60e51b815260040161087690614e67565b506000908152601660209081526040808320601a546001600160a01b0316845290915290205490565b6002546001600160a01b031660009081526005602052604090205490565b61208e6000805160206154b88339815191526106c86123f7565b6120aa5760405162461bcd60e51b815260040161087690614e67565b6000918252601660209081526040808420601a546001600160a01b039081168652908352818520600254909116855260010190915290912055565b600260015414156121085760405162461bcd60e51b815260040161087690615303565b60026001556006546201000090046001600160a01b03166121276123f7565b6001600160a01b03161461214d5760405162461bcd60e51b815260040161087690614ed5565b6127108261ffff1611156121735760405162461bcd60e51b815260040161087690615201565b801561218e5760025461218e906001600160a01b0316613682565b6121cb836121c5601587815481106121a257fe5b906000526020600020906005020160010154600354613f6b90919063ffffffff16565b90613ad1565b60038190555082601585815481106121df57fe5b906000526020600020906005020160010181905550816015858154811061220257fe5b60009182526020909120600590910201600401805461ffff191661ffff929092169190911790555050600180555050565b6006546201000090046001600160a01b031661224d6123f7565b6001600160a01b0316146122735760405162461bcd60e51b815260040161087690614ed5565b6006805460ff19169215159290921761ff00191661010091151591909102179055565b600260015414156122b95760405162461bcd60e51b815260040161087690615303565b6002600155601554829081106122e15760405162461bcd60e51b815260040161087690614e9e565b600254610e24906001600160a01b03168484612783565b6002600154141561231b5760405162461bcd60e51b815260040161087690615303565b60026001556006546201000090046001600160a01b031661233a6123f7565b6001600160a01b0316146123605760405162461bcd60e51b815260040161087690614ed5565b61236a828261275e565b505060018055565b60056020526000908152604090205481565b61239e6000805160206154b88339815191526106c86123f7565b6123ba5760405162461bcd60e51b815260040161087690614e67565b6000918252601660209081526040808420601a546001600160a01b0316855290915290912055565b60006119b3836001600160a01b038416613f93565b3390565b815160155460005b82811015611d1257600080600087848151811061241c57fe5b6020026020010151600001519050606088858151811061243857fe5b602002602001015160200151905060008151905060005b8181101561251857600083888151811061246557fe5b6020026020010151905088811061248e5760405162461bcd60e51b815260040161087690614e9e565b6015818154811061249b57fe5b600091825260208083206001600160a01b0389168452600260059093020191909101905260409020546124e05760405162461bcd60e51b815260040161087690614fa0565b6000806124f083888f6003613b39565b925090506124fe8882613ad1565b506125098983613ad1565b5050505080600101905061244f565b506002546001600160a01b038481169116141561273d57826001600160a01b03166340c10f19600660029054906101000a90046001600160a01b031661256f612710610aee600a548a612be390919063ffffffff16565b6040518363ffffffff1660e01b815260040161258c929190614b26565b600060405180830381600087803b1580156125a657600080fd5b505af11580156125ba573d6000803e3d6000fd5b50505050826001600160a01b03166340c10f19600860009054906101000a90046001600160a01b03166125fe612710610aee600b548a612be390919063ffffffff16565b6040518363ffffffff1660e01b815260040161261b929190614b26565b600060405180830381600087803b15801561263557600080fd5b505af1158015612649573d6000803e3d6000fd5b50505050826001600160a01b03166340c10f19600760009054906101000a90046001600160a01b031661268d612710610aee600c548a612be390919063ffffffff16565b6040518363ffffffff1660e01b81526004016126aa929190614b26565b600060405180830381600087803b1580156126c457600080fd5b505af11580156126d8573d6000803e3d6000fd5b50506040516340c10f1960e01b81526001600160a01b03861692506340c10f19915061270a9030908890600401614b26565b600060405180830381600087803b15801561272457600080fd5b505af1158015612738573d6000803e3d6000fd5b505050505b841561274e5761274e838a87613dda565b5050505050806001019050612403565b61276782613682565b6001600160a01b03909116600090815260056020526040902055565b6019546001600160a01b03166127976123f7565b6001600160a01b031614156127be5760405162461bcd60e51b815260040161087690614cd1565b6000601583815481106127cd57fe5b600091825260208083208684526016909152604083206005909202019250816127f46123f7565b6001600160a01b03166001600160a01b0316815260200190815260200160002090506000826002016000876001600160a01b03166001600160a01b03168152602001908152602001600020541161285d5760405162461bcd60e51b815260040161087690614d9c565b6128678186613fdd565b61287c8460006128756123f7565b88876140a1565b826129595761288b84866136a2565b6001600160a01b03851660009081526001820160209081526040808320546003860190925282205483546128d592916128cf9164e8d4a5100091610aee9190612be3565b90613f6b565b905080156128f3576128f085826128ea6123f7565b89614140565b90505b6001600160a01b038616600090815260038401602052604090205482546129249164e8d4a5100091610aee91612be3565b6001600160a01b0387166000908152600184016020526040902055801561295757612957866129516123f7565b83613dda565b505b612962816141fb565b6002546001600160a01b03868116911614801561297f5750600083115b15612b9357612997846129906123f7565b600161302d565b6129b56129a26123f7565b83546001600160a01b031690308661421e565b600482015461ffff1615612a955760048201546000906129e29061271090610aee90879061ffff16612be3565b600854600e54919250612a20916001600160a01b0390911690612a0e9061271090610aee908690612be3565b85546001600160a01b031691906135ff565b612a54600660029054906101000a90046001600160a01b0316612a0e612710610aee600d5486612be390919063ffffffff16565b600754600f54612a7b916001600160a01b031690612a0e9061271090610aee908690612be3565b8154612a8d9082906128cf9087613ad1565b825550612aa4565b8054612aa19084613ad1565b81555b6002546001600160a01b031660009081526003830160205260409020548154612ad79164e8d4a5100091610aee91612be3565b6002546001600160a01b03166000908152600183016020526040812091909155601854905b81811015612b9057612b5064e8d4a51000610aee86600301600060188681548110612b2357fe5b60009182526020808320909101546001600160a01b03168352820192909252604001902054865490612be3565b83600101600060188481548110612b6357fe5b60009182526020808320909101546001600160a01b03168352820192909252604001902055600101612afc565b50505b83612b9c6123f7565b6001600160a01b03167f90890809c654f11d6e72a28fa60149770a0d11ec6c92319d6ceb2bb0a4ea1a1585604051612bd49190614b4a565b60405180910390a35050505050565b600082612bf257506000611492565b82820282848281612bff57fe5b04146119b35760405162461bcd60e51b8152600401610876906151a4565b6000808211612c3e5760405162461bcd60e51b815260040161087690614f69565b818381612c4757fe5b049392505050565b60008060158481548110612c5f57fe5b600091825260208083208784526016825260408085206001600160a01b0389811687529084528186208b821687526005959095029092016003810190935280852054835491516370a0823160e01b81529396509394929116906370a0823190612ccc903090600401614aee565b60206040518083038186803b158015612ce457600080fd5b505afa158015612cf8573d6000803e3d6000fd5b505050506040513d601f19601f82011682018060405250810190612d1c91906149f7565b6001600160a01b038916600090815260028601602052604090205490915043118015612d4757508015155b15612dd0576001600160a01b03881660009081526005602090815260408083205460028801909252822054909190612d80904390613f6b565b90506000612dab600354610aee8960010154612da58787612be390919063ffffffff16565b90612be3565b9050612dca612dc385610aee8464e8d4a51000612be3565b8690613ad1565b94505050505b6001600160a01b03881660009081526001840160205260409020548354612e0791906128cf9064e8d4a5100090610aee9087612be3565b98975050505050505050565b6001600160a01b038316301415612e3c5760405162461bcd60e51b815260040161087690615397565b6040516370a0823160e01b815284906000906001600160a01b038316906370a0823190612e6d908890600401614aee565b60206040518083038186803b158015612e8557600080fd5b505afa158015612e99573d6000803e3d6000fd5b505050506040513d601f19601f82011682018060405250810190612ebd91906149f7565b6008549091506001600160a01b038681169116141580612f0057506008546001600160a01b038681169116148015612f00575061271061c3508202048360640211155b612f1c5760405162461bcd60e51b815260040161087690615110565b80831115612f3e57612f396001600160a01b03831686868461421e565b612f53565b612f536001600160a01b03831686868661421e565b505050505050565b6000828152602081905260409020612f7390826123e2565b15610bda57612f806123f7565b6001600160a01b0316816001600160a01b0316837f2f8788117e7eff1d82e926ec794901d17c78024a50270940304540a733656f0d60405160405180910390a45050565b6000828152602081905260409020612fdc908261423f565b15610bda57612fe96123f7565b6001600160a01b0316816001600160a01b0316837ff6391f5c32d9c69d2a47ea670b442974b53935d1edc7fd64eb21e047a839171b60405160405180910390a45050565b600254600090819061304b9086906001600160a01b03168686613b39565b600254600654600a549395509193506001600160a01b03908116926340c10f1992620100009004909116906130899061271090610aee908890612be3565b6040518363ffffffff1660e01b81526004016130a6929190614b26565b600060405180830381600087803b1580156130c057600080fd5b505af11580156130d4573d6000803e3d6000fd5b5050600254600854600b546001600160a01b0392831694506340c10f1993509116906131099061271090610aee908890612be3565b6040518363ffffffff1660e01b8152600401613126929190614b26565b600060405180830381600087803b15801561314057600080fd5b505af1158015613154573d6000803e3d6000fd5b5050600254600754600c546001600160a01b0392831694506340c10f1993509116906131899061271090610aee908890612be3565b6040518363ffffffff1660e01b81526004016131a6929190614b26565b600060405180830381600087803b1580156131c057600080fd5b505af11580156131d4573d6000803e3d6000fd5b50506002546040516340c10f1960e01b81526001600160a01b0390911692506340c10f19915061320a9030908690600401614b26565b600060405180830381600087803b15801561322457600080fd5b505af1158015613238573d6000803e3d6000fd5b50505050600081111561325c5760025461325c906001600160a01b03168583613dda565b60185460005b818110156132bb5760006018828154811061327957fe5b6000918252602090912001546001600160a01b0316905061329c88828989613b39565b909550935083156132b2576132b2818886613dda565b50600101613262565b50505050505050565b6019546001600160a01b03166132d86123f7565b6001600160a01b031614156132ff5760405162461bcd60e51b815260040161087690614cd1565b60006015838154811061330e57fe5b600091825260208083208684526016909152604083206005909202019250816133356123f7565b6001600160a01b03166001600160a01b0316815260200190815260200160002090506000826002016000876001600160a01b03166001600160a01b03168152602001908152602001600020541161339e5760405162461bcd60e51b815260040161087690614d9c565b80548311156133bf5760405162461bcd60e51b81526004016108769061516d565b6133c98186613fdd565b6133de8460006133d76123f7565b8887614254565b826134af576133ed84866136a2565b6001600160a01b038516600090815260018201602090815260408083205460038601909252822054835461343192916128cf9164e8d4a5100091610aee9190612be3565b9050801561344f5761344c85826134466123f7565b896142ba565b90505b6001600160a01b038616600090815260038401602052604090205482546134809164e8d4a5100091610aee91612be3565b6001600160a01b038716600090815260018401602052604090205580156134ad576134ad866129516123f7565b505b6134b8816141fb565b82156135be576134d1846134ca6123f7565b600261302d565b80546134dd9084613f6b565b81556134fc6134ea6123f7565b83546001600160a01b031690856135ff565b6002546001600160a01b03166000908152600383016020526040902054815461352f9164e8d4a5100091610aee91612be3565b6002546001600160a01b03166000908152600183016020526040812091909155601854905b818110156135bb5761357b64e8d4a51000610aee86600301600060188681548110612b2357fe5b8360010160006018848154811061358e57fe5b60009182526020808320909101546001600160a01b03168352820192909252604001902055600101613554565b50505b836135c76123f7565b6001600160a01b03167ff279e6a1f5e320cca91135676d9cb6e44ca8a08c0b88342bcdb1144f6511b56885604051612bd49190614b4a565b6110148363a9059cbb60e01b848460405160240161361e929190614b26565b60408051601f198184030181529190526020810180517bffffffffffffffffffffffffffffffffffffffffffffffffffffffff167fffffffff0000000000000000000000000000000000000000000000000000000090931692909217909152614323565b60155460005b818110156110145761369a81846136a2565b600101613688565b6000601583815481106136b157fe5b600091825260208083206001600160a01b0386168452600260059093020191820190526040909120549091506136f95760405162461bcd60e51b815260040161087690614d9c565b6001600160a01b0382166000908152600560209081526040808320546002850190925290912054431161372d575050610bda565b81546040516370a0823160e01b81526000916001600160a01b0316906370a082319061375d903090600401614aee565b60206040518083038186803b15801561377557600080fd5b505afa158015613789573d6000803e3d6000fd5b505050506040513d601f19601f820116820180604052508101906137ad91906149f7565b90508015806137be57506001830154155b806137c7575081155b156137f15750506001600160a01b0382166000908152600290910160205260409020439055610bda565b6001600160a01b0384166000908152600284016020526040812054613817904390613f6b565b9050600061383c600354610aee8760010154612da58887612be390919063ffffffff16565b6002549091506001600160a01b0387811691161415613a6357856001600160a01b03166340c10f19600660029054906101000a90046001600160a01b0316613895612710610aee600a5487612be390919063ffffffff16565b6040518363ffffffff1660e01b81526004016138b2929190614b26565b600060405180830381600087803b1580156138cc57600080fd5b505af11580156138e0573d6000803e3d6000fd5b50505050856001600160a01b03166340c10f19600860009054906101000a90046001600160a01b0316613924612710610aee600b5487612be390919063ffffffff16565b6040518363ffffffff1660e01b8152600401613941929190614b26565b600060405180830381600087803b15801561395b57600080fd5b505af115801561396f573d6000803e3d6000fd5b50505050856001600160a01b03166340c10f19600760009054906101000a90046001600160a01b03166139b3612710610aee600c5487612be390919063ffffffff16565b6040518363ffffffff1660e01b81526004016139d0929190614b26565b600060405180830381600087803b1580156139ea57600080fd5b505af11580156139fe573d6000803e3d6000fd5b50506040516340c10f1960e01b81526001600160a01b03891692506340c10f199150613a309030908590600401614b26565b600060405180830381600087803b158015613a4a57600080fd5b505af1158015613a5e573d6000803e3d6000fd5b505050505b613a9a613a7984610aee8464e8d4a51000612be3565b6001600160a01b038816600090815260038801602052604090205490613ad1565b6001600160a01b03871660009081526003870160209081526040808320939093556002909701909652909420439055505050505050565b6000828201838110156119b35760405162461bcd60e51b815260040161087690614d65565b60155460005b8181101561101457613b108184600361302d565b600101613afc565b60006119b383836143b2565b60006119b3836001600160a01b0384166143f7565b6001600160a01b038316600090815260056020526040812054601580548392839283928391908b908110613b6957fe5b600091825260208083208d84526016825260408085206001600160a01b03808f168752908452818620908f16865260036005909502909201938401835280852054600285019093529093205491935090431115613d185782546040516370a0823160e01b81526000916001600160a01b0316906370a0823190613bf0903090600401614aee565b60206040518083038186803b158015613c0857600080fd5b505afa158015613c1c573d6000803e3d6000fd5b505050506040513d601f19601f82011682018060405250810190613c4091906149f7565b9050801580613c5157506001840154155b80613c5a575084155b15613c81576001600160a01b038c1660009081526002850160205260409020439055613d16565b6001600160a01b038c166000908152600285016020526040812054613ca7904390613f6b565b9050613cca600354610aee8760010154612da58a86612be390919063ffffffff16565b9650613ce9613ce283610aee8a64e8d4a51000612be3565b8490613ad1565b6001600160a01b038e16600090815260038701602090815260408083209390935560028801905220439055505b505b506001600160a01b038a16600090815260038301602090815260408083205460018501909252909120548254613d5e91906128cf9064e8d4a5100090610aee9086612be3565b95508515613d8857613d70828c613fdd565b613d7d8c878c8e8d61440f565b9550613d88826141fb565b8154613d9f9064e8d4a5100090610aee9084612be3565b6001600160a01b039b909b1660009081526001929092016020525060409020989098555097909650945050505050565b6000611492826144d6565b6040516370a0823160e01b815283906000906001600160a01b038316906370a0823190613e0b903090600401614aee565b60206040518083038186803b158015613e2357600080fd5b505afa158015613e37573d6000803e3d6000fd5b505050506040513d601f19601f82011682018060405250810190613e5b91906149f7565b905080831115613eeb5760405163a9059cbb60e01b81526001600160a01b0383169063a9059cbb90613e939087908590600401614b26565b602060405180830381600087803b158015613ead57600080fd5b505af1158015613ec1573d6000803e3d6000fd5b505050506040513d601f19601f82011682018060405250810190613ee59190614946565b50611d12565b60405163a9059cbb60e01b81526001600160a01b0383169063a9059cbb90613f199087908790600401614b26565b602060405180830381600087803b158015613f3357600080fd5b505af1158015613f47573d6000803e3d6000fd5b505050506040513d601f19601f82011682018060405250810190612f539190614946565b600082821115613f8d5760405162461bcd60e51b815260040161087690614df9565b50900390565b6000613f9f83836143f7565b613fd557508154600181810184556000848152602080822090930184905584548482528286019093526040902091909155611492565b506000611492565b613fe56123f7565b601a80546001600160a01b0319166001600160a01b039283161790558254601b556040516370a0823160e01b8152908216906370a082319061402b903090600401614aee565b60206040518083038186803b15801561404357600080fd5b505afa158015614057573d6000803e3d6000fd5b505050506040513d601f19601f8201168201806040525081019061407b91906149f7565b601c55601d80546001600160a01b0319166001600160a01b039290921691909117905550565b6019546001600160a01b03166140b657611d12565b6019546040517f2688da6d0000000000000000000000000000000000000000000000000000000081526001600160a01b0390911690632688da6d9061410790889088908890889088906004016153f5565b600060405180830381600087803b15801561412157600080fd5b505af1158015614135573d6000803e3d6000fd5b505050505050505050565b6019546000906001600160a01b031661415a575082610b46565b6019546040517f905d11ca0000000000000000000000000000000000000000000000000000000081526001600160a01b039091169063905d11ca906141a99088908890889088906004016153ce565b602060405180830381600087803b1580156141c357600080fd5b505af11580156141d7573d6000803e3d6000fd5b505050506040513d601f19601f820116820180604052508101906113ae91906149f7565b601b54815410156119985760405162461bcd60e51b815260040161087690614f0c565b610b90846323b872dd60e01b85858560405160240161361e93929190614b02565b60006119b3836001600160a01b0384166144da565b6019546001600160a01b031661426957611d12565b6019546040517f825cb9c60000000000000000000000000000000000000000000000000000000081526001600160a01b039091169063825cb9c69061410790889088908890889088906004016153f5565b6019546000906001600160a01b03166142d4575082610b46565b6019546040517f550928d20000000000000000000000000000000000000000000000000000000081526001600160a01b039091169063550928d2906141a99088908890889088906004016153ce565b6060614378826040518060400160405280602081526020017f5361666542455032303a206c6f772d6c6576656c2063616c6c206661696c6564815250856001600160a01b03166145a09092919063ffffffff16565b80519091501561101457808060200190518101906143969190614946565b6110145760405162461bcd60e51b815260040161087690614d08565b815460009082106143d55760405162461bcd60e51b815260040161087690614be0565b8260000182815481106143e457fe5b9060005260206000200154905092915050565b60009081526001919091016020526040902054151590565b6019546000906001600160a01b03166144295750836113ae565b6019546040517ffa35651d0000000000000000000000000000000000000000000000000000000081526001600160a01b039091169063fa35651d9061447a90899089908990899089906004016153f5565b602060405180830381600087803b15801561449457600080fd5b505af11580156144a8573d6000803e3d6000fd5b505050506040513d601f19601f820116820180604052508101906144cc91906149f7565b9695505050505050565b5490565b60008181526001830160205260408120548015614596578354600019808301919081019060009087908390811061450d57fe5b906000526020600020015490508087600001848154811061452a57fe5b60009182526020808320909101929092558281526001898101909252604090209084019055865487908061455a57fe5b60019003818190600052602060002001600090559055866001016000878152602001908152602001600020600090556001945050505050611492565b6000915050611492565b6060610b468484600085856145b48561464a565b6145d05760405162461bcd60e51b8152600401610876906152cc565b60006060866001600160a01b031685876040516145ed9190614ad2565b60006040518083038185875af1925050503d806000811461462a576040519150601f19603f3d011682016040523d82523d6000602084013e61462f565b606091505b509150915061463f828286614650565b979650505050505050565b3b151590565b6060831561465f5750816119b3565b82511561466f5782518084602001fd5b8160405162461bcd60e51b81526004016108769190614b78565b60006020828403121561469a578081fd5b81356119b381615494565b600080600080608085870312156146ba578283fd5b84356146c581615494565b935060208501356146d581615494565b925060408501356146e581615494565b9396929550929360600135925050565b60008060008060008060008060006101208a8c031215614713578485fd5b893561471e81615494565b985060208a013561472e81615494565b975060408a013561473e81615494565b989b979a5097986060810135985060808101359760a0820135975060c0820135965060e08201359550610100909101359350915050565b60008060408385031215614787578182fd5b823561479281615494565b946020939093013593505050565b6000806000606084860312156147b4578283fd5b83356147bf81615494565b92506020840135915060408401356147d681615494565b809150509250925092565b6000806000606084860312156147f5578283fd5b833561480081615494565b95602085013595506040909401359392505050565b60006020808385031215614827578182fd5b67ffffffffffffffff808435111561483d578283fd5b8335840185601f82011261484f578384fd5b61486161485c8235615448565b615421565b8135815283810190848301865b843581101561493857813585016040818c03601f1901121561488e578889fd5b6148986040615421565b888201356148a581615494565b81526040820135888111156148b8578a8bfd5b8083019250508b603f8301126148cc57898afd5b888201356148dc61485c82615448565b808282528b82019150604085018f60408e860288010111156148fc578d8efd5b8d95505b8386101561491e578035835260019590950194918c01918c01614900565b50838c01525050855250928601929086019060010161486e565b509098975050505050505050565b600060208284031215614957578081fd5b81516119b3816154a9565b60008060408385031215614974578182fd5b823561497f816154a9565b9150602083013561498f816154a9565b809150509250929050565b6000602082840312156149ab578081fd5b5035919050565b600080604083850312156149c4578182fd5b82359150602083013561498f81615494565b600080604083850312156149e8578182fd5b50508035926020909101359150565b600060208284031215614a08578081fd5b5051919050565b600080600060608486031215614a23578081fd5b833592506020840135614a3581615494565b929592945050506040919091013590565b60008060008060808587031215614a5b578182fd5b843593506020850135614a6d81615494565b9250604085013561ffff81168114614a83578283fd5b91506060850135614a93816154a9565b939692955090935050565b60008060008060808587031215614ab3578182fd5b8435935060208501359250604085013561ffff81168114614a83578283fd5b60008251614ae4818460208701615468565b9190910192915050565b6001600160a01b0391909116815260200190565b6001600160a01b039384168152919092166020820152604081019190915260600190565b6001600160a01b03929092168252602082015260400190565b901515815260200190565b90815260200190565b6001600160a01b03939093168352602083019190915261ffff16604082015260600190565b6000602082528251806020840152614b97816040850160208701615468565b601f01601f19169190910160400192915050565b6020808252818101527f496e76616c6964206465706f7369742066656520626173697320706f696e7473604082015260600190565b60208082526022908201527f456e756d657261626c655365743a20696e646578206f7574206f6620626f756e60408201527f6473000000000000000000000000000000000000000000000000000000000000606082015260800190565b6020808252602f908201527f416363657373436f6e74726f6c3a2073656e646572206d75737420626520616e60408201527f2061646d696e20746f206772616e740000000000000000000000000000000000606082015260800190565b60208082526015908201527f4d657373656e6765722063616e277420656e7465720000000000000000000000604082015260600190565b60208082526017908201527f4d657373656e6765722063616e2774207265656e746572000000000000000000604082015260600190565b6020808252602a908201527f5361666542455032303a204245503230206f7065726174696f6e20646964206e60408201527f6f74207375636365656400000000000000000000000000000000000000000000606082015260800190565b6020808252601b908201527f536166654d6174683a206164646974696f6e206f766572666c6f770000000000604082015260600190565b60208082526024908201527f506f6f6c20666f7220746869732072756e65206861736e2774206265656e207360408201527f6574757000000000000000000000000000000000000000000000000000000000606082015260800190565b6020808252601e908201527f536166654d6174683a207375627472616374696f6e206f766572666c6f770000604082015260600190565b60208082526018908201527f43616e742073776974636820746f2073616d652072756e650000000000000000604082015260600190565b6020808252600e908201527f4d657373656e676572206f6e6c79000000000000000000000000000000000000604082015260600190565b60208082526013908201527f506f6f6c20646f6573206e6f7420657869737400000000000000000000000000604082015260600190565b60208082526008908201527f446576206f6e6c79000000000000000000000000000000000000000000000000604082015260600190565b60208082526024908201527f4d657373656e6765722063616e6e6f7420726564756365207573657220616d6f60408201527f756e747300000000000000000000000000000000000000000000000000000000606082015260800190565b6020808252601a908201527f536166654d6174683a206469766973696f6e206279207a65726f000000000000604082015260600190565b6020808252601a908201527f5265776172642072756e6520646f6573206e6f74206578697374000000000000604082015260600190565b60208082526030908201527f416363657373436f6e74726f6c3a2073656e646572206d75737420626520616e60408201527f2061646d696e20746f207265766f6b6500000000000000000000000000000000606082015260800190565b60208082526017908201527f43616e6e6f7420757365207a65726f2061646472657373000000000000000000604082015260600190565b60208082526015908201527f446576206f72204d657373656e676572206f6e6c790000000000000000000000604082015260600190565b6020808252601d908201527f43616e206f6e6c792073656e6420746f2075736572206f72206275726e000000604082015260600190565b60208082526018908201527f4d696e742070657263656e7420636f6e73747261696e74730000000000000000604082015260600190565b60208082526036908201527f53686f756c64206e6f742062652061626c6520746f207472616e73666572206d60408201527f6f7265207468616e2035252066726f6d207661756c7400000000000000000000606082015260800190565b6020808252601b908201527f547279696e6720746f20776974686472617720746f6f206d7563680000000000604082015260600190565b60208082526021908201527f536166654d6174683a206d756c7469706c69636174696f6e206f766572666c6f60408201527f7700000000000000000000000000000000000000000000000000000000000000606082015260800190565b60208082526025908201527f7365743a20696e76616c6964206465706f73697420666565206261736973207060408201527f6f696e7473000000000000000000000000000000000000000000000000000000606082015260800190565b60208082526013908201527f506f6f6c2065786973747320616c726561647900000000000000000000000000604082015260600190565b6020808252601f908201527f43616e74207468726f772063757272656e742072756e6520696e20766f696400604082015260600190565b6020808252601d908201527f416464726573733a2063616c6c20746f206e6f6e2d636f6e7472616374000000604082015260600190565b6020808252601f908201527f5265656e7472616e637947756172643a207265656e7472616e742063616c6c00604082015260600190565b6020808252602f908201527f416363657373436f6e74726f6c3a2063616e206f6e6c792072656e6f756e636560408201527f20726f6c657320666f722073656c660000000000000000000000000000000000606082015260800190565b60208082526017908201527f43616e74207472616e736665722066726f6d2073656c66000000000000000000604082015260600190565b93845260208401929092526001600160a01b03908116604084015216606082015260800190565b94855260208501939093526001600160a01b039182166040850152166060830152608082015260a00190565b60405181810167ffffffffffffffff8111828210171561544057600080fd5b604052919050565b600067ffffffffffffffff82111561545e578081fd5b5060209081020190565b60005b8381101561548357818101518382015260200161546b565b83811115610b905750506000910152565b6001600160a01b038116811461199857600080fd5b801515811461199857600080fdfe9169014801faeffeb0ffa6d3da58be378861e512c765e75a348579eecb031854a26469706673582212200ceee15c5f27a1f450cf2d710f39e07a9e3619e014e4255abba9d936f0ff97f064736f6c634300060c0033",
    "linkReferences": {},
    "deployedLinkReferences": {}
}