{
    "_format": "hh-sol-artifact-1",
    "contractName": "ArcaneCharacters",
    "sourceName": "src/ArcaneCharacters.sol",
    "abi": [
        {
            "inputs": [
                {
                    "internalType": "string",
                    "name": "_baseURI",
                    "type": "string"
                }
            ],
            "stateMutability": "nonpayable",
            "type": "constructor"
        },
        {
            "anonymous": false,
            "inputs": [
                {
                    "indexed": true,
                    "internalType": "address",
                    "name": "owner",
                    "type": "address"
                },
                {
                    "indexed": true,
                    "internalType": "address",
                    "name": "approved",
                    "type": "address"
                },
                {
                    "indexed": true,
                    "internalType": "uint256",
                    "name": "tokenId",
                    "type": "uint256"
                }
            ],
            "name": "Approval",
            "type": "event"
        },
        {
            "anonymous": false,
            "inputs": [
                {
                    "indexed": true,
                    "internalType": "address",
                    "name": "owner",
                    "type": "address"
                },
                {
                    "indexed": true,
                    "internalType": "address",
                    "name": "operator",
                    "type": "address"
                },
                {
                    "indexed": false,
                    "internalType": "bool",
                    "name": "approved",
                    "type": "bool"
                }
            ],
            "name": "ApprovalForAll",
            "type": "event"
        },
        {
            "anonymous": false,
            "inputs": [
                {
                    "indexed": true,
                    "internalType": "address",
                    "name": "previousOwner",
                    "type": "address"
                },
                {
                    "indexed": true,
                    "internalType": "address",
                    "name": "newOwner",
                    "type": "address"
                }
            ],
            "name": "OwnershipTransferred",
            "type": "event"
        },
        {
            "anonymous": false,
            "inputs": [
                {
                    "indexed": true,
                    "internalType": "address",
                    "name": "from",
                    "type": "address"
                },
                {
                    "indexed": true,
                    "internalType": "address",
                    "name": "to",
                    "type": "address"
                },
                {
                    "indexed": true,
                    "internalType": "uint256",
                    "name": "tokenId",
                    "type": "uint256"
                }
            ],
            "name": "Transfer",
            "type": "event"
        },
        {
            "inputs": [
                {
                    "internalType": "address",
                    "name": "to",
                    "type": "address"
                },
                {
                    "internalType": "uint256",
                    "name": "tokenId",
                    "type": "uint256"
                }
            ],
            "name": "approve",
            "outputs": [],
            "stateMutability": "nonpayable",
            "type": "function"
        },
        {
            "inputs": [
                {
                    "internalType": "address",
                    "name": "owner",
                    "type": "address"
                }
            ],
            "name": "balanceOf",
            "outputs": [
                {
                    "internalType": "uint256",
                    "name": "",
                    "type": "uint256"
                }
            ],
            "stateMutability": "view",
            "type": "function"
        },
        {
            "inputs": [],
            "name": "baseURI",
            "outputs": [
                {
                    "internalType": "string",
                    "name": "",
                    "type": "string"
                }
            ],
            "stateMutability": "view",
            "type": "function"
        },
        {
            "inputs": [
                {
                    "internalType": "uint256",
                    "name": "_tokenId",
                    "type": "uint256"
                }
            ],
            "name": "burn",
            "outputs": [],
            "stateMutability": "nonpayable",
            "type": "function"
        },
        {
            "inputs": [
                {
                    "internalType": "uint8",
                    "name": "",
                    "type": "uint8"
                }
            ],
            "name": "characterBurnCount",
            "outputs": [
                {
                    "internalType": "uint256",
                    "name": "",
                    "type": "uint256"
                }
            ],
            "stateMutability": "view",
            "type": "function"
        },
        {
            "inputs": [
                {
                    "internalType": "uint8",
                    "name": "",
                    "type": "uint8"
                }
            ],
            "name": "characterCount",
            "outputs": [
                {
                    "internalType": "uint256",
                    "name": "",
                    "type": "uint256"
                }
            ],
            "stateMutability": "view",
            "type": "function"
        },
        {
            "inputs": [
                {
                    "internalType": "uint256",
                    "name": "tokenId",
                    "type": "uint256"
                }
            ],
            "name": "getApproved",
            "outputs": [
                {
                    "internalType": "address",
                    "name": "",
                    "type": "address"
                }
            ],
            "stateMutability": "view",
            "type": "function"
        },
        {
            "inputs": [
                {
                    "internalType": "uint256",
                    "name": "_tokenId",
                    "type": "uint256"
                }
            ],
            "name": "getCharacterId",
            "outputs": [
                {
                    "internalType": "uint8",
                    "name": "",
                    "type": "uint8"
                }
            ],
            "stateMutability": "view",
            "type": "function"
        },
        {
            "inputs": [
                {
                    "internalType": "uint8",
                    "name": "_characterId",
                    "type": "uint8"
                }
            ],
            "name": "getCharacterName",
            "outputs": [
                {
                    "internalType": "string",
                    "name": "",
                    "type": "string"
                }
            ],
            "stateMutability": "view",
            "type": "function"
        },
        {
            "inputs": [
                {
                    "internalType": "uint256",
                    "name": "_tokenId",
                    "type": "uint256"
                }
            ],
            "name": "getCharacterNameOfTokenId",
            "outputs": [
                {
                    "internalType": "string",
                    "name": "",
                    "type": "string"
                }
            ],
            "stateMutability": "view",
            "type": "function"
        },
        {
            "inputs": [
                {
                    "internalType": "address",
                    "name": "owner",
                    "type": "address"
                },
                {
                    "internalType": "address",
                    "name": "operator",
                    "type": "address"
                }
            ],
            "name": "isApprovedForAll",
            "outputs": [
                {
                    "internalType": "bool",
                    "name": "",
                    "type": "bool"
                }
            ],
            "stateMutability": "view",
            "type": "function"
        },
        {
            "inputs": [
                {
                    "internalType": "address",
                    "name": "_to",
                    "type": "address"
                },
                {
                    "internalType": "string",
                    "name": "_tokenURI",
                    "type": "string"
                },
                {
                    "internalType": "uint8",
                    "name": "_characterId",
                    "type": "uint8"
                }
            ],
            "name": "mint",
            "outputs": [
                {
                    "internalType": "uint256",
                    "name": "",
                    "type": "uint256"
                }
            ],
            "stateMutability": "nonpayable",
            "type": "function"
        },
        {
            "inputs": [],
            "name": "name",
            "outputs": [
                {
                    "internalType": "string",
                    "name": "",
                    "type": "string"
                }
            ],
            "stateMutability": "view",
            "type": "function"
        },
        {
            "inputs": [],
            "name": "owner",
            "outputs": [
                {
                    "internalType": "address",
                    "name": "",
                    "type": "address"
                }
            ],
            "stateMutability": "view",
            "type": "function"
        },
        {
            "inputs": [
                {
                    "internalType": "uint256",
                    "name": "tokenId",
                    "type": "uint256"
                }
            ],
            "name": "ownerOf",
            "outputs": [
                {
                    "internalType": "address",
                    "name": "",
                    "type": "address"
                }
            ],
            "stateMutability": "view",
            "type": "function"
        },
        {
            "inputs": [],
            "name": "renounceOwnership",
            "outputs": [],
            "stateMutability": "nonpayable",
            "type": "function"
        },
        {
            "inputs": [
                {
                    "internalType": "address",
                    "name": "from",
                    "type": "address"
                },
                {
                    "internalType": "address",
                    "name": "to",
                    "type": "address"
                },
                {
                    "internalType": "uint256",
                    "name": "tokenId",
                    "type": "uint256"
                }
            ],
            "name": "safeTransferFrom",
            "outputs": [],
            "stateMutability": "nonpayable",
            "type": "function"
        },
        {
            "inputs": [
                {
                    "internalType": "address",
                    "name": "from",
                    "type": "address"
                },
                {
                    "internalType": "address",
                    "name": "to",
                    "type": "address"
                },
                {
                    "internalType": "uint256",
                    "name": "tokenId",
                    "type": "uint256"
                },
                {
                    "internalType": "bytes",
                    "name": "_data",
                    "type": "bytes"
                }
            ],
            "name": "safeTransferFrom",
            "outputs": [],
            "stateMutability": "nonpayable",
            "type": "function"
        },
        {
            "inputs": [
                {
                    "internalType": "address",
                    "name": "operator",
                    "type": "address"
                },
                {
                    "internalType": "bool",
                    "name": "approved",
                    "type": "bool"
                }
            ],
            "name": "setApprovalForAll",
            "outputs": [],
            "stateMutability": "nonpayable",
            "type": "function"
        },
        {
            "inputs": [
                {
                    "internalType": "uint8",
                    "name": "_characterId",
                    "type": "uint8"
                },
                {
                    "internalType": "string",
                    "name": "_name",
                    "type": "string"
                }
            ],
            "name": "setCharacterName",
            "outputs": [],
            "stateMutability": "nonpayable",
            "type": "function"
        },
        {
            "inputs": [
                {
                    "internalType": "bytes4",
                    "name": "interfaceId",
                    "type": "bytes4"
                }
            ],
            "name": "supportsInterface",
            "outputs": [
                {
                    "internalType": "bool",
                    "name": "",
                    "type": "bool"
                }
            ],
            "stateMutability": "view",
            "type": "function"
        },
        {
            "inputs": [],
            "name": "symbol",
            "outputs": [
                {
                    "internalType": "string",
                    "name": "",
                    "type": "string"
                }
            ],
            "stateMutability": "view",
            "type": "function"
        },
        {
            "inputs": [
                {
                    "internalType": "uint256",
                    "name": "index",
                    "type": "uint256"
                }
            ],
            "name": "tokenByIndex",
            "outputs": [
                {
                    "internalType": "uint256",
                    "name": "",
                    "type": "uint256"
                }
            ],
            "stateMutability": "view",
            "type": "function"
        },
        {
            "inputs": [
                {
                    "internalType": "address",
                    "name": "owner",
                    "type": "address"
                },
                {
                    "internalType": "uint256",
                    "name": "index",
                    "type": "uint256"
                }
            ],
            "name": "tokenOfOwnerByIndex",
            "outputs": [
                {
                    "internalType": "uint256",
                    "name": "",
                    "type": "uint256"
                }
            ],
            "stateMutability": "view",
            "type": "function"
        },
        {
            "inputs": [
                {
                    "internalType": "uint256",
                    "name": "tokenId",
                    "type": "uint256"
                }
            ],
            "name": "tokenURI",
            "outputs": [
                {
                    "internalType": "string",
                    "name": "",
                    "type": "string"
                }
            ],
            "stateMutability": "view",
            "type": "function"
        },
        {
            "inputs": [],
            "name": "totalSupply",
            "outputs": [
                {
                    "internalType": "uint256",
                    "name": "",
                    "type": "uint256"
                }
            ],
            "stateMutability": "view",
            "type": "function"
        },
        {
            "inputs": [
                {
                    "internalType": "address",
                    "name": "from",
                    "type": "address"
                },
                {
                    "internalType": "address",
                    "name": "to",
                    "type": "address"
                },
                {
                    "internalType": "uint256",
                    "name": "tokenId",
                    "type": "uint256"
                }
            ],
            "name": "transferFrom",
            "outputs": [],
            "stateMutability": "nonpayable",
            "type": "function"
        },
        {
            "inputs": [
                {
                    "internalType": "address",
                    "name": "newOwner",
                    "type": "address"
                }
            ],
            "name": "transferOwnership",
            "outputs": [],
            "stateMutability": "nonpayable",
            "type": "function"
        }
    ],
    "bytecode": "0x60806040523480156200001157600080fd5b5060405162002c1e38038062002c1e833981810160405260208110156200003757600080fd5b81019080805160405193929190846401000000008211156200005857600080fd5b9083019060208201858111156200006e57600080fd5b82516401000000008111828201881017156200008957600080fd5b82525081516020918201929091019080838360005b83811015620000b85781810151838201526020016200009e565b50505050905090810190601f168015620000e65780820380516001836020036101000a031916815260200191505b50604081810181526011825270417263616e65204368617261637465727360781b60208084019190915281518083019092526002825261414360f01b9082015290935091506200013f90506301ffc9a760e01b62000210565b815162000154906006906020850190620002b2565b5080516200016a906007906020840190620002b2565b506200017d6380ac58cd60e01b62000210565b6200018f635b5e139f60e01b62000210565b620001a163780e9d6360e01b62000210565b5060009050620001b062000295565b600a80546001600160a01b0319166001600160a01b038316908117909155604051919250906000907f8be0079c531659141344cd1fd0a4f28419497f9722a3daafe3b4186f6b6457e0908290a350620002098162000299565b506200034e565b6001600160e01b0319808216141562000270576040805162461bcd60e51b815260206004820152601c60248201527f4552433136353a20696e76616c696420696e7465726661636520696400000000604482015290519081900360640190fd5b6001600160e01b0319166000908152602081905260409020805460ff19166001179055565b3390565b8051620002ae906009906020840190620002b2565b5050565b828054600181600116156101000203166002900490600052602060002090601f016020900481019282601f10620002f557805160ff191683800117855562000325565b8280016001018555821562000325579182015b828111156200032557825182559160200191906001019062000308565b506200033392915062000337565b5090565b5b8082111562000333576000815560010162000338565b6128c0806200035e6000396000f3fe608060405234801561001057600080fd5b50600436106101c45760003560e01c80636352211e116100f957806395d89b4111610097578063b88d4fde11610071578063b88d4fde1461062a578063c87b56dd146106f0578063e985e9c51461070d578063f2fde38b1461073b576101c4565b806395d89b411461057a578063a1beb37414610582578063a22cb465146105fc576101c4565b806370a08231116100d357806370a0823114610511578063715018a61461053757806387ff41131461053f5780638da5cb5b14610572576101c4565b80636352211e146104695780636a4b8883146104865780636c0360eb14610509576101c4565b806325a713f01161016657806342966c681161014057806342966c68146103f257806345cbe07a1461040f5780634d264a5f1461042c5780634f6ccce71461044c576101c4565b806325a713f0146103705780632f745c591461039057806342842e0e146103bc576101c4565b8063081812fc116101a2578063081812fc146102cb578063095ea7b31461030457806318160ddd1461033257806323b872dd1461033a576101c4565b806301ffc9a7146101c957806306ae50101461021c57806306fdde031461024e575b600080fd5b610208600480360360208110156101df57600080fd5b50357fffffffff0000000000000000000000000000000000000000000000000000000016610761565b604080519115158252519081900360200190f35b61023c6004803603602081101561023257600080fd5b503560ff1661079c565b60408051918252519081900360200190f35b6102566107ae565b6040805160208082528351818301528351919283929083019185019080838360005b83811015610290578181015183820152602001610278565b50505050905090810190601f1680156102bd5780820380516001836020036101000a031916815260200191505b509250505060405180910390f35b6102e8600480360360208110156102e157600080fd5b5035610844565b604080516001600160a01b039092168252519081900360200190f35b6103306004803603604081101561031a57600080fd5b506001600160a01b0381351690602001356108a6565b005b61023c610981565b6103306004803603606081101561035057600080fd5b506001600160a01b03813581169160208101359091169060400135610992565b6102566004803603602081101561038657600080fd5b503560ff166109e9565b61023c600480360360408110156103a657600080fd5b506001600160a01b038135169060200135610a8e565b610330600480360360608110156103d257600080fd5b506001600160a01b03813581169160208101359091169060400135610ab9565b6103306004803603602081101561040857600080fd5b5035610ad4565b6102566004803603602081101561042557600080fd5b5035610bbe565b61023c6004803603602081101561044257600080fd5b503560ff16610c6e565b61023c6004803603602081101561046257600080fd5b5035610c80565b6102e86004803603602081101561047f57600080fd5b5035610c96565b61023c6004803603606081101561049c57600080fd5b6001600160a01b0382351691908101906040810160208201356401000000008111156104c757600080fd5b8201836020820111156104d957600080fd5b803590602001918460018302840111640100000000831117156104fb57600080fd5b91935091503560ff16610cbe565b610256610dea565b61023c6004803603602081101561052757600080fd5b50356001600160a01b0316610e4b565b610330610eb3565b61055c6004803603602081101561055557600080fd5b5035610f7e565b6040805160ff9092168252519081900360200190f35b6102e8610f93565b610256610fa2565b6103306004803603604081101561059857600080fd5b60ff82351691908101906040810160208201356401000000008111156105bd57600080fd5b8201836020820111156105cf57600080fd5b803590602001918460018302840111640100000000831117156105f157600080fd5b509092509050611003565b6103306004803603604081101561061257600080fd5b506001600160a01b038135169060200135151561109a565b6103306004803603608081101561064057600080fd5b6001600160a01b0382358116926020810135909116916040820135919081019060808101606082013564010000000081111561067b57600080fd5b82018360208201111561068d57600080fd5b803590602001918460018302840111640100000000831117156106af57600080fd5b91908080601f01602080910402602001604051908101604052809392919081815260200183838082843760009201919091525092955061119f945050505050565b6102566004803603602081101561070657600080fd5b50356111f7565b6102086004803603604081101561072357600080fd5b506001600160a01b038135811691602001351661147a565b6103306004803603602081101561075157600080fd5b50356001600160a01b03166114a8565b7fffffffff00000000000000000000000000000000000000000000000000000000811660009081526020819052604090205460ff165b919050565b600b6020526000908152604090205481565b60068054604080516020601f600260001961010060018816150201909516949094049384018190048102820181019092528281526060939092909183018282801561083a5780601f1061080f5761010080835404028352916020019161083a565b820191906000526020600020905b81548152906001019060200180831161081d57829003601f168201915b5050505050905090565b600061084f826115ca565b61088a5760405162461bcd60e51b815260040180806020018281038252602c815260200180612789602c913960400191505060405180910390fd5b506000908152600460205260409020546001600160a01b031690565b60006108b182610c96565b9050806001600160a01b0316836001600160a01b031614156109045760405162461bcd60e51b81526004018080602001828103825260218152602001806128396021913960400191505060405180910390fd5b806001600160a01b03166109166115d7565b6001600160a01b031614806109375750610937816109326115d7565b61147a565b6109725760405162461bcd60e51b81526004018080602001828103825260388152602001806126dc6038913960400191505060405180910390fd5b61097c83836115db565b505050565b600061098d6002611656565b905090565b6109a361099d6115d7565b82611661565b6109de5760405162461bcd60e51b815260040180806020018281038252603181526020018061285a6031913960400191505060405180910390fd5b61097c8383836116fd565b60ff81166000908152600f602090815260409182902080548351601f6002600019610100600186161502019093169290920491820184900484028101840190945280845260609392830182828015610a825780601f10610a5757610100808354040283529160200191610a82565b820191906000526020600020905b815481529060010190602001808311610a6557829003601f168201915b50505050509050919050565b6001600160a01b0382166000908152600160205260408120610ab09083611849565b90505b92915050565b61097c8383836040518060200160405280600081525061119f565b610adc6115d7565b6001600160a01b0316610aed610f93565b6001600160a01b031614610b48576040805162461bcd60e51b815260206004820181905260248201527f4f776e61626c653a2063616c6c6572206973206e6f7420746865206f776e6572604482015290519081900360640190fd5b6000818152600e602090815260408083205460ff16808452600b90925290912054610b74906001611855565b60ff82166000908152600b6020908152604080832093909355600c90522054610b9e9060016118b2565b60ff82166000908152600c6020526040902055610bba8261190c565b5050565b6000818152600e602090815260408083205460ff16808452600f83529281902080548251601f6002600019600185161561010002019093169290920491820185900485028101850190935280835260609493830182828015610c615780601f10610c3657610100808354040283529160200191610c61565b820191906000526020600020905b815481529060010190602001808311610c4457829003601f168201915b5050505050915050919050565b600c6020526000908152604090205481565b600080610c8e6002846119d9565b509392505050565b6000610ab38260405180606001604052806029815260200161273e60299139600291906119f5565b6000610cc86115d7565b6001600160a01b0316610cd9610f93565b6001600160a01b031614610d34576040805162461bcd60e51b815260206004820181905260248201527f4f776e61626c653a2063616c6c6572206973206e6f7420746865206f776e6572604482015290519081900360640190fd5b6000610d40600d611a0c565b9050610d4c600d611a10565b6000818152600e60209081526040808320805460ff191660ff88169081179091558352600b909152902054610d829060016118b2565b60ff84166000908152600b6020526040902055610d9f8682611a19565b610ddf8186868080601f016020809104026020016040519081016040528093929190818152602001838380828437600092019190915250611b4792505050565b90505b949350505050565b60098054604080516020601f600260001961010060018816150201909516949094049384018190048102820181019092528281526060939092909183018282801561083a5780601f1061080f5761010080835404028352916020019161083a565b60006001600160a01b038216610e925760405162461bcd60e51b815260040180806020018281038252602a815260200180612714602a913960400191505060405180910390fd5b6001600160a01b0382166000908152600160205260409020610ab390611656565b610ebb6115d7565b6001600160a01b0316610ecc610f93565b6001600160a01b031614610f27576040805162461bcd60e51b815260206004820181905260248201527f4f776e61626c653a2063616c6c6572206973206e6f7420746865206f776e6572604482015290519081900360640190fd5b600a546040516000916001600160a01b0316907f8be0079c531659141344cd1fd0a4f28419497f9722a3daafe3b4186f6b6457e0908390a3600a805473ffffffffffffffffffffffffffffffffffffffff19169055565b6000908152600e602052604090205460ff1690565b600a546001600160a01b031690565b60078054604080516020601f600260001961010060018816150201909516949094049384018190048102820181019092528281526060939092909183018282801561083a5780601f1061080f5761010080835404028352916020019161083a565b61100b6115d7565b6001600160a01b031661101c610f93565b6001600160a01b031614611077576040805162461bcd60e51b815260206004820181905260248201527f4f776e61626c653a2063616c6c6572206973206e6f7420746865206f776e6572604482015290519081900360640190fd5b60ff83166000908152600f602052604090206110949083836124c9565b50505050565b6110a26115d7565b6001600160a01b0316826001600160a01b03161415611108576040805162461bcd60e51b815260206004820152601960248201527f4552433732313a20617070726f766520746f2063616c6c657200000000000000604482015290519081900360640190fd5b80600560006111156115d7565b6001600160a01b03908116825260208083019390935260409182016000908120918716808252919093529120805460ff1916921515929092179091556111596115d7565b6001600160a01b03167f17307eab39ab6107e8899845ad3d59bd9653f200f220920489ca2b5937696c318360405180821515815260200191505060405180910390a35050565b6111b06111aa6115d7565b83611661565b6111eb5760405162461bcd60e51b815260040180806020018281038252603181526020018061285a6031913960400191505060405180910390fd5b61109484848484611baa565b6060611202826115ca565b61123d5760405162461bcd60e51b815260040180806020018281038252602f81526020018061280a602f913960400191505060405180910390fd5b60008281526008602090815260409182902080548351601f60026000196101006001861615020190931692909204918201849004840281018401909452808452606093928301828280156112d25780601f106112a7576101008083540402835291602001916112d2565b820191906000526020600020905b8154815290600101906020018083116112b557829003601f168201915b5050505050905060606112e3610dea565b90508051600014156112f757509050610797565b8151156113b85780826040516020018083805190602001908083835b602083106113325780518252601f199092019160209182019101611313565b51815160209384036101000a600019018019909216911617905285519190930192850191508083835b6020831061137a5780518252601f19909201916020918201910161135b565b6001836020036101000a0380198251168184511680821785525050505050509050019250505060405160208183030381529060405292505050610797565b806113c285611bfc565b6040516020018083805190602001908083835b602083106113f45780518252601f1990920191602091820191016113d5565b51815160209384036101000a600019018019909216911617905285519190930192850191508083835b6020831061143c5780518252601f19909201916020918201910161141d565b6001836020036101000a0380198251168184511680821785525050505050509050019250505060405160208183030381529060405292505050919050565b6001600160a01b03918216600090815260056020908152604080832093909416825291909152205460ff1690565b6114b06115d7565b6001600160a01b03166114c1610f93565b6001600160a01b03161461151c576040805162461bcd60e51b815260206004820181905260248201527f4f776e61626c653a2063616c6c6572206973206e6f7420746865206f776e6572604482015290519081900360640190fd5b6001600160a01b0381166115615760405162461bcd60e51b81526004018080602001828103825260268152602001806126666026913960400191505060405180910390fd5b600a546040516001600160a01b038084169216907f8be0079c531659141344cd1fd0a4f28419497f9722a3daafe3b4186f6b6457e090600090a3600a805473ffffffffffffffffffffffffffffffffffffffff19166001600160a01b0392909216919091179055565b6000610ab3600283611d0b565b3390565b6000818152600460205260409020805473ffffffffffffffffffffffffffffffffffffffff19166001600160a01b038416908117909155819061161d82610c96565b6001600160a01b03167f8c5be1e5ebec7d5bd14f71427d1e84f3dd0314c0f7b2291e5b200ac8c7c3b92560405160405180910390a45050565b6000610ab382611a0c565b600061166c826115ca565b6116a75760405162461bcd60e51b815260040180806020018281038252602c8152602001806126b0602c913960400191505060405180910390fd5b60006116b283610c96565b9050806001600160a01b0316846001600160a01b031614806116ed5750836001600160a01b03166116e284610844565b6001600160a01b0316145b80610de25750610de2818561147a565b826001600160a01b031661171082610c96565b6001600160a01b0316146117555760405162461bcd60e51b81526004018080602001828103825260298152602001806127e16029913960400191505060405180910390fd5b6001600160a01b03821661179a5760405162461bcd60e51b815260040180806020018281038252602481526020018061268c6024913960400191505060405180910390fd5b6117a583838361097c565b6117b06000826115db565b6001600160a01b03831660009081526001602052604090206117d29082611d17565b506001600160a01b03821660009081526001602052604090206117f59082611d23565b5061180260028284611d2f565b5080826001600160a01b0316846001600160a01b03167fddf252ad1be2c89b69c2b068fc378daa952ba7f163c4a11628f55a4df523b3ef60405160405180910390a4505050565b6000610ab08383611d45565b6000828211156118ac576040805162461bcd60e51b815260206004820152601e60248201527f536166654d6174683a207375627472616374696f6e206f766572666c6f770000604482015290519081900360640190fd5b50900390565b600082820183811015610ab0576040805162461bcd60e51b815260206004820152601b60248201527f536166654d6174683a206164646974696f6e206f766572666c6f770000000000604482015290519081900360640190fd5b600061191782610c96565b90506119258160008461097c565b6119306000836115db565b600082815260086020526040902054600260001961010060018416150201909116041561196e57600082815260086020526040812061196e91612547565b6001600160a01b03811660009081526001602052604090206119909083611d17565b5061199c600283611da9565b5060405182906000906001600160a01b038416907fddf252ad1be2c89b69c2b068fc378daa952ba7f163c4a11628f55a4df523b3ef908390a45050565b60008080806119e88686611db5565b9097909650945050505050565b6000611a02848484611e30565b90505b9392505050565b5490565b80546001019055565b6001600160a01b038216611a74576040805162461bcd60e51b815260206004820181905260248201527f4552433732313a206d696e7420746f20746865207a65726f2061646472657373604482015290519081900360640190fd5b611a7d816115ca565b15611acf576040805162461bcd60e51b815260206004820152601c60248201527f4552433732313a20746f6b656e20616c7265616479206d696e74656400000000604482015290519081900360640190fd5b611adb6000838361097c565b6001600160a01b0382166000908152600160205260409020611afd9082611d23565b50611b0a60028284611d2f565b5060405181906001600160a01b038416906000907fddf252ad1be2c89b69c2b068fc378daa952ba7f163c4a11628f55a4df523b3ef908290a45050565b611b50826115ca565b611b8b5760405162461bcd60e51b815260040180806020018281038252602c8152602001806127b5602c913960400191505060405180910390fd5b6000828152600860209081526040909120825161097c9284019061258e565b611bb58484846116fd565b611bc184848484611efa565b6110945760405162461bcd60e51b81526004018080602001828103825260328152602001806126346032913960400191505060405180910390fd5b606081611c3d575060408051808201909152600181527f30000000000000000000000000000000000000000000000000000000000000006020820152610797565b8160005b8115611c5557600101600a82049150611c41565b60608167ffffffffffffffff81118015611c6e57600080fd5b506040519080825280601f01601f191660200182016040528015611c99576020820181803683370190505b50859350905060001982015b8315611d0257600a840660300160f81b82828060019003935081518110611cc857fe5b60200101907effffffffffffffffffffffffffffffffffffffffffffffffffffffffffffff1916908160001a905350600a84049350611ca5565b50949350505050565b6000610ab083836120a4565b6000610ab083836120bc565b6000610ab08383612182565b6000611a0284846001600160a01b0385166121cc565b81546000908210611d875760405162461bcd60e51b81526004018080602001828103825260228152602001806126126022913960400191505060405180910390fd5b826000018281548110611d9657fe5b9060005260206000200154905092915050565b6000610ab08383612263565b815460009081908310611df95760405162461bcd60e51b81526004018080602001828103825260228152602001806127676022913960400191505060405180910390fd5b6000846000018481548110611e0a57fe5b906000526020600020906002020190508060000154816001015492509250509250929050565b60008281526001840160205260408120548281611ecb5760405162461bcd60e51b81526004018080602001828103825283818151815260200191508051906020019080838360005b83811015611e90578181015183820152602001611e78565b50505050905090810190601f168015611ebd5780820380516001836020036101000a031916815260200191505b509250505060405180910390fd5b50846000016001820381548110611ede57fe5b9060005260206000209060020201600101549150509392505050565b6000611f0e846001600160a01b0316612337565b611f1a57506001610de2565b6060612052630a85bd0160e11b611f2f6115d7565b88878760405160240180856001600160a01b03168152602001846001600160a01b0316815260200183815260200180602001828103825283818151815260200191508051906020019080838360005b83811015611f96578181015183820152602001611f7e565b50505050905090810190601f168015611fc35780820380516001836020036101000a031916815260200191505b5095505050505050604051602081830303815290604052907bffffffffffffffffffffffffffffffffffffffffffffffffffffffff19166020820180517bffffffffffffffffffffffffffffffffffffffffffffffffffffffff8381831617835250505050604051806060016040528060328152602001612634603291396001600160a01b038816919061233d565b9050600081806020019051602081101561206b57600080fd5b50517fffffffff0000000000000000000000000000000000000000000000000000000016630a85bd0160e11b1492505050949350505050565b60009081526001919091016020526040902054151590565b6000818152600183016020526040812054801561217857835460001980830191908101906000908790839081106120ef57fe5b906000526020600020015490508087600001848154811061210c57fe5b60009182526020808320909101929092558281526001898101909252604090209084019055865487908061213c57fe5b60019003818190600052602060002001600090559055866001016000878152602001908152602001600020600090556001945050505050610ab3565b6000915050610ab3565b600061218e83836120a4565b6121c457508154600181810184556000848152602080822090930184905584548482528286019093526040902091909155610ab3565b506000610ab3565b600082815260018401602052604081205480612231575050604080518082018252838152602080820184815286546001818101895560008981528481209551600290930290950191825591519082015586548684528188019092529290912055611a05565b8285600001600183038154811061224457fe5b9060005260206000209060020201600101819055506000915050611a05565b60008181526001830160205260408120548015612178578354600019808301919081019060009087908390811061229657fe5b90600052602060002090600202019050808760000184815481106122b657fe5b6000918252602080832084546002909302019182556001938401549184019190915583548252898301905260409020908401905586548790806122f557fe5b6000828152602080822060026000199094019384020182815560019081018390559290935588815289820190925260408220919091559450610ab39350505050565b3b151590565b6060611a0284846000858561235185612337565b6123a2576040805162461bcd60e51b815260206004820152601d60248201527f416464726573733a2063616c6c20746f206e6f6e2d636f6e7472616374000000604482015290519081900360640190fd5b60006060866001600160a01b031685876040518082805190602001908083835b602083106123e15780518252601f1990920191602091820191016123c2565b6001836020036101000a03801982511681845116808217855250505050505090500191505060006040518083038185875af1925050503d8060008114612443576040519150601f19603f3d011682016040523d82523d6000602084013e612448565b606091505b5091509150612458828286612463565b979650505050505050565b60608315612472575081611a05565b8251156124825782518084602001fd5b60405162461bcd60e51b8152602060048201818152845160248401528451859391928392604401919085019080838360008315611e90578181015183820152602001611e78565b828054600181600116156101000203166002900490600052602060002090601f016020900481019282601f1061250a5782800160ff19823516178555612537565b82800160010185558215612537579182015b8281111561253757823582559160200191906001019061251c565b506125439291506125fc565b5090565b50805460018160011615610100020316600290046000825580601f1061256d575061258b565b601f01602090049060005260206000209081019061258b91906125fc565b50565b828054600181600116156101000203166002900490600052602060002090601f016020900481019282601f106125cf57805160ff1916838001178555612537565b82800160010185558215612537579182015b828111156125375782518255916020019190600101906125e1565b5b8082111561254357600081556001016125fd56fe456e756d657261626c655365743a20696e646578206f7574206f6620626f756e64734552433732313a207472616e7366657220746f206e6f6e20455243373231526563656976657220696d706c656d656e7465724f776e61626c653a206e6577206f776e657220697320746865207a65726f20616464726573734552433732313a207472616e7366657220746f20746865207a65726f20616464726573734552433732313a206f70657261746f7220717565727920666f72206e6f6e6578697374656e7420746f6b656e4552433732313a20617070726f76652063616c6c6572206973206e6f74206f776e6572206e6f7220617070726f76656420666f7220616c6c4552433732313a2062616c616e636520717565727920666f7220746865207a65726f20616464726573734552433732313a206f776e657220717565727920666f72206e6f6e6578697374656e7420746f6b656e456e756d657261626c654d61703a20696e646578206f7574206f6620626f756e64734552433732313a20617070726f76656420717565727920666f72206e6f6e6578697374656e7420746f6b656e4552433732314d657461646174613a2055524920736574206f66206e6f6e6578697374656e7420746f6b656e4552433732313a207472616e73666572206f6620746f6b656e2074686174206973206e6f74206f776e4552433732314d657461646174613a2055524920717565727920666f72206e6f6e6578697374656e7420746f6b656e4552433732313a20617070726f76616c20746f2063757272656e74206f776e65724552433732313a207472616e736665722063616c6c6572206973206e6f74206f776e6572206e6f7220617070726f766564a264697066735822122095a1e51c482f3f1c7e051d1dcaf6b86a667c69bd4f28741a4bfa950221fb27f164736f6c634300060c0033",
    "linkReferences": {},
    "deployedLinkReferences": {}
}