{
    "_format": "hh-sol-artifact-1",
    "contractName": "ArcaneItems",
    "sourceName": "src/ArcaneItems.sol",
    "abi": [
        {
            "inputs": [
                {
                    "internalType": "string",
                    "name": "_baseURI",
                    "type": "string"
                }
            ],
            "stateMutability": "nonpayable",
            "type": "constructor"
        },
        {
            "anonymous": false,
            "inputs": [
                {
                    "indexed": true,
                    "internalType": "address",
                    "name": "owner",
                    "type": "address"
                },
                {
                    "indexed": true,
                    "internalType": "address",
                    "name": "approved",
                    "type": "address"
                },
                {
                    "indexed": true,
                    "internalType": "uint256",
                    "name": "tokenId",
                    "type": "uint256"
                }
            ],
            "name": "Approval",
            "type": "event"
        },
        {
            "anonymous": false,
            "inputs": [
                {
                    "indexed": true,
                    "internalType": "address",
                    "name": "owner",
                    "type": "address"
                },
                {
                    "indexed": true,
                    "internalType": "address",
                    "name": "operator",
                    "type": "address"
                },
                {
                    "indexed": false,
                    "internalType": "bool",
                    "name": "approved",
                    "type": "bool"
                }
            ],
            "name": "ApprovalForAll",
            "type": "event"
        },
        {
            "anonymous": false,
            "inputs": [
                {
                    "indexed": true,
                    "internalType": "address",
                    "name": "previousOwner",
                    "type": "address"
                },
                {
                    "indexed": true,
                    "internalType": "address",
                    "name": "newOwner",
                    "type": "address"
                }
            ],
            "name": "OwnershipTransferred",
            "type": "event"
        },
        {
            "anonymous": false,
            "inputs": [
                {
                    "indexed": true,
                    "internalType": "address",
                    "name": "from",
                    "type": "address"
                },
                {
                    "indexed": true,
                    "internalType": "address",
                    "name": "to",
                    "type": "address"
                },
                {
                    "indexed": true,
                    "internalType": "uint256",
                    "name": "tokenId",
                    "type": "uint256"
                }
            ],
            "name": "Transfer",
            "type": "event"
        },
        {
            "inputs": [
                {
                    "internalType": "address",
                    "name": "to",
                    "type": "address"
                },
                {
                    "internalType": "uint256",
                    "name": "tokenId",
                    "type": "uint256"
                }
            ],
            "name": "approve",
            "outputs": [],
            "stateMutability": "nonpayable",
            "type": "function"
        },
        {
            "inputs": [
                {
                    "internalType": "address",
                    "name": "owner",
                    "type": "address"
                }
            ],
            "name": "balanceOf",
            "outputs": [
                {
                    "internalType": "uint256",
                    "name": "",
                    "type": "uint256"
                }
            ],
            "stateMutability": "view",
            "type": "function"
        },
        {
            "inputs": [],
            "name": "baseURI",
            "outputs": [
                {
                    "internalType": "string",
                    "name": "",
                    "type": "string"
                }
            ],
            "stateMutability": "view",
            "type": "function"
        },
        {
            "inputs": [
                {
                    "internalType": "uint256",
                    "name": "_tokenId",
                    "type": "uint256"
                }
            ],
            "name": "burn",
            "outputs": [],
            "stateMutability": "nonpayable",
            "type": "function"
        },
        {
            "inputs": [
                {
                    "internalType": "uint256",
                    "name": "tokenId",
                    "type": "uint256"
                }
            ],
            "name": "getApproved",
            "outputs": [
                {
                    "internalType": "address",
                    "name": "",
                    "type": "address"
                }
            ],
            "stateMutability": "view",
            "type": "function"
        },
        {
            "inputs": [
                {
                    "internalType": "uint256",
                    "name": "_tokenId",
                    "type": "uint256"
                }
            ],
            "name": "getItemId",
            "outputs": [
                {
                    "internalType": "uint16",
                    "name": "",
                    "type": "uint16"
                }
            ],
            "stateMutability": "view",
            "type": "function"
        },
        {
            "inputs": [
                {
                    "internalType": "uint16",
                    "name": "_itemId",
                    "type": "uint16"
                }
            ],
            "name": "getItemName",
            "outputs": [
                {
                    "internalType": "string",
                    "name": "",
                    "type": "string"
                }
            ],
            "stateMutability": "view",
            "type": "function"
        },
        {
            "inputs": [
                {
                    "internalType": "uint256",
                    "name": "_tokenId",
                    "type": "uint256"
                }
            ],
            "name": "getItemNameOfTokenId",
            "outputs": [
                {
                    "internalType": "string",
                    "name": "",
                    "type": "string"
                }
            ],
            "stateMutability": "view",
            "type": "function"
        },
        {
            "inputs": [
                {
                    "internalType": "address",
                    "name": "owner",
                    "type": "address"
                },
                {
                    "internalType": "address",
                    "name": "operator",
                    "type": "address"
                }
            ],
            "name": "isApprovedForAll",
            "outputs": [
                {
                    "internalType": "bool",
                    "name": "",
                    "type": "bool"
                }
            ],
            "stateMutability": "view",
            "type": "function"
        },
        {
            "inputs": [
                {
                    "internalType": "uint16",
                    "name": "",
                    "type": "uint16"
                }
            ],
            "name": "itemBurnCount",
            "outputs": [
                {
                    "internalType": "uint256",
                    "name": "",
                    "type": "uint256"
                }
            ],
            "stateMutability": "view",
            "type": "function"
        },
        {
            "inputs": [
                {
                    "internalType": "uint16",
                    "name": "",
                    "type": "uint16"
                }
            ],
            "name": "itemCount",
            "outputs": [
                {
                    "internalType": "uint256",
                    "name": "",
                    "type": "uint256"
                }
            ],
            "stateMutability": "view",
            "type": "function"
        },
        {
            "inputs": [
                {
                    "internalType": "uint256",
                    "name": "",
                    "type": "uint256"
                }
            ],
            "name": "itemIds",
            "outputs": [
                {
                    "internalType": "uint16",
                    "name": "",
                    "type": "uint16"
                }
            ],
            "stateMutability": "view",
            "type": "function"
        },
        {
            "inputs": [
                {
                    "internalType": "uint16",
                    "name": "",
                    "type": "uint16"
                }
            ],
            "name": "itemNames",
            "outputs": [
                {
                    "internalType": "string",
                    "name": "",
                    "type": "string"
                }
            ],
            "stateMutability": "view",
            "type": "function"
        },
        {
            "inputs": [
                {
                    "internalType": "address",
                    "name": "_to",
                    "type": "address"
                },
                {
                    "internalType": "string",
                    "name": "_tokenURI",
                    "type": "string"
                },
                {
                    "internalType": "uint16",
                    "name": "_itemId",
                    "type": "uint16"
                },
                {
                    "internalType": "uint256",
                    "name": "_tokenId",
                    "type": "uint256"
                }
            ],
            "name": "mint",
            "outputs": [
                {
                    "internalType": "uint256",
                    "name": "",
                    "type": "uint256"
                }
            ],
            "stateMutability": "nonpayable",
            "type": "function"
        },
        {
            "inputs": [],
            "name": "name",
            "outputs": [
                {
                    "internalType": "string",
                    "name": "",
                    "type": "string"
                }
            ],
            "stateMutability": "view",
            "type": "function"
        },
        {
            "inputs": [],
            "name": "owner",
            "outputs": [
                {
                    "internalType": "address",
                    "name": "",
                    "type": "address"
                }
            ],
            "stateMutability": "view",
            "type": "function"
        },
        {
            "inputs": [
                {
                    "internalType": "uint256",
                    "name": "tokenId",
                    "type": "uint256"
                }
            ],
            "name": "ownerOf",
            "outputs": [
                {
                    "internalType": "address",
                    "name": "",
                    "type": "address"
                }
            ],
            "stateMutability": "view",
            "type": "function"
        },
        {
            "inputs": [],
            "name": "renounceOwnership",
            "outputs": [],
            "stateMutability": "nonpayable",
            "type": "function"
        },
        {
            "inputs": [
                {
                    "internalType": "address",
                    "name": "from",
                    "type": "address"
                },
                {
                    "internalType": "address",
                    "name": "to",
                    "type": "address"
                },
                {
                    "internalType": "uint256",
                    "name": "tokenId",
                    "type": "uint256"
                }
            ],
            "name": "safeTransferFrom",
            "outputs": [],
            "stateMutability": "nonpayable",
            "type": "function"
        },
        {
            "inputs": [
                {
                    "internalType": "address",
                    "name": "from",
                    "type": "address"
                },
                {
                    "internalType": "address",
                    "name": "to",
                    "type": "address"
                },
                {
                    "internalType": "uint256",
                    "name": "tokenId",
                    "type": "uint256"
                },
                {
                    "internalType": "bytes",
                    "name": "_data",
                    "type": "bytes"
                }
            ],
            "name": "safeTransferFrom",
            "outputs": [],
            "stateMutability": "nonpayable",
            "type": "function"
        },
        {
            "inputs": [
                {
                    "internalType": "address",
                    "name": "operator",
                    "type": "address"
                },
                {
                    "internalType": "bool",
                    "name": "approved",
                    "type": "bool"
                }
            ],
            "name": "setApprovalForAll",
            "outputs": [],
            "stateMutability": "nonpayable",
            "type": "function"
        },
        {
            "inputs": [
                {
                    "internalType": "uint16",
                    "name": "_itemId",
                    "type": "uint16"
                },
                {
                    "internalType": "string",
                    "name": "_name",
                    "type": "string"
                }
            ],
            "name": "setItemName",
            "outputs": [],
            "stateMutability": "nonpayable",
            "type": "function"
        },
        {
            "inputs": [
                {
                    "internalType": "bytes4",
                    "name": "interfaceId",
                    "type": "bytes4"
                }
            ],
            "name": "supportsInterface",
            "outputs": [
                {
                    "internalType": "bool",
                    "name": "",
                    "type": "bool"
                }
            ],
            "stateMutability": "view",
            "type": "function"
        },
        {
            "inputs": [],
            "name": "symbol",
            "outputs": [
                {
                    "internalType": "string",
                    "name": "",
                    "type": "string"
                }
            ],
            "stateMutability": "view",
            "type": "function"
        },
        {
            "inputs": [
                {
                    "internalType": "uint256",
                    "name": "index",
                    "type": "uint256"
                }
            ],
            "name": "tokenByIndex",
            "outputs": [
                {
                    "internalType": "uint256",
                    "name": "",
                    "type": "uint256"
                }
            ],
            "stateMutability": "view",
            "type": "function"
        },
        {
            "inputs": [
                {
                    "internalType": "address",
                    "name": "owner",
                    "type": "address"
                },
                {
                    "internalType": "uint256",
                    "name": "index",
                    "type": "uint256"
                }
            ],
            "name": "tokenOfOwnerByIndex",
            "outputs": [
                {
                    "internalType": "uint256",
                    "name": "",
                    "type": "uint256"
                }
            ],
            "stateMutability": "view",
            "type": "function"
        },
        {
            "inputs": [
                {
                    "internalType": "uint256",
                    "name": "tokenId",
                    "type": "uint256"
                }
            ],
            "name": "tokenURI",
            "outputs": [
                {
                    "internalType": "string",
                    "name": "",
                    "type": "string"
                }
            ],
            "stateMutability": "view",
            "type": "function"
        },
        {
            "inputs": [],
            "name": "totalSupply",
            "outputs": [
                {
                    "internalType": "uint256",
                    "name": "",
                    "type": "uint256"
                }
            ],
            "stateMutability": "view",
            "type": "function"
        },
        {
            "inputs": [
                {
                    "internalType": "address",
                    "name": "from",
                    "type": "address"
                },
                {
                    "internalType": "address",
                    "name": "to",
                    "type": "address"
                },
                {
                    "internalType": "uint256",
                    "name": "tokenId",
                    "type": "uint256"
                }
            ],
            "name": "transferFrom",
            "outputs": [],
            "stateMutability": "nonpayable",
            "type": "function"
        },
        {
            "inputs": [
                {
                    "internalType": "address",
                    "name": "newOwner",
                    "type": "address"
                }
            ],
            "name": "transferOwnership",
            "outputs": [],
            "stateMutability": "nonpayable",
            "type": "function"
        }
    ],
    "bytecode": "0x60806040523480156200001157600080fd5b5060405162002d1038038062002d10833981810160405260208110156200003757600080fd5b81019080805160405193929190846401000000008211156200005857600080fd5b9083019060208201858111156200006e57600080fd5b82516401000000008111828201881017156200008957600080fd5b82525081516020918201929091019080838360005b83811015620000b85781810151838201526020016200009e565b50505050905090810190601f168015620000e65780820380516001836020036101000a031916815260200191505b5060408181018152600c82526b417263616e65204974656d7360a01b60208084019190915281518083019092526002825261414960f01b9082015290935091506200013a90506301ffc9a760e01b6200020b565b81516200014f906006906020850190620002ad565b50805162000165906007906020840190620002ad565b50620001786380ac58cd60e01b6200020b565b6200018a635b5e139f60e01b6200020b565b6200019c63780e9d6360e01b6200020b565b5060009050620001ab62000290565b600a80546001600160a01b0319166001600160a01b038316908117909155604051919250906000907f8be0079c531659141344cd1fd0a4f28419497f9722a3daafe3b4186f6b6457e0908290a350620002048162000294565b5062000349565b6001600160e01b031980821614156200026b576040805162461bcd60e51b815260206004820152601c60248201527f4552433136353a20696e76616c696420696e7465726661636520696400000000604482015290519081900360640190fd5b6001600160e01b0319166000908152602081905260409020805460ff19166001179055565b3390565b8051620002a9906009906020840190620002ad565b5050565b828054600181600116156101000203166002900490600052602060002090601f016020900481019282601f10620002f057805160ff191683800117855562000320565b8280016001018555821562000320579182015b828111156200032057825182559160200191906001019062000303565b506200032e92915062000332565b5090565b5b808211156200032e576000815560010162000333565b6129b780620003596000396000f3fe608060405234801561001057600080fd5b50600436106101da5760003560e01c80638da5cb5b11610104578063c87b56dd116100a2578063e5057e0e11610071578063e5057e0e1461072b578063e985e9c51461074c578063f2fde38b1461077a578063f3d55b4a146107a0576101da565b8063c87b56dd146105e8578063cc2afd9a14610605578063cf05047414610626578063cf6efc68146106b0576101da565b8063a85c2592116100de578063a85c2592146104b4578063a9a76ece146104d1578063b3dc00fe14610505578063b88d4fde14610522576101da565b80638da5cb5b1461047657806395d89b411461047e578063a22cb46514610486576101da565b806337638f131161017c5780636352211e1161014b5780636352211e146104235780636c0360eb1461044057806370a0823114610448578063715018a61461046e576101da565b806337638f131461039257806342842e0e146103b357806342966c68146103e95780634f6ccce714610406576101da565b8063095ea7b3116101b8578063095ea7b3146102e857806318160ddd1461031657806323b872dd146103305780632f745c5914610366576101da565b806301ffc9a7146101df57806306fdde0314610232578063081812fc146102af575b600080fd5b61021e600480360360208110156101f557600080fd5b50357fffffffff00000000000000000000000000000000000000000000000000000000166107c1565b604080519115158252519081900360200190f35b61023a6107fc565b6040805160208082528351818301528351919283929083019185019080838360005b8381101561027457818101518382015260200161025c565b50505050905090810190601f1680156102a15780820380516001836020036101000a031916815260200191505b509250505060405180910390f35b6102cc600480360360208110156102c557600080fd5b5035610892565b604080516001600160a01b039092168252519081900360200190f35b610314600480360360408110156102fe57600080fd5b506001600160a01b0381351690602001356108f4565b005b61031e6109cf565b60408051918252519081900360200190f35b6103146004803603606081101561034657600080fd5b506001600160a01b038135811691602081013590911690604001356109e0565b61031e6004803603604081101561037c57600080fd5b506001600160a01b038135169060200135610a37565b61031e600480360360208110156103a857600080fd5b503561ffff16610a62565b610314600480360360608110156103c957600080fd5b506001600160a01b03813581169160208101359091169060400135610a74565b610314600480360360208110156103ff57600080fd5b5035610a8f565b61031e6004803603602081101561041c57600080fd5b5035610b7c565b6102cc6004803603602081101561043957600080fd5b5035610b92565b61023a610bba565b61031e6004803603602081101561045e57600080fd5b50356001600160a01b0316610c1b565b610314610c83565b6102cc610d4e565b61023a610d5d565b6103146004803603604081101561049c57600080fd5b506001600160a01b0381351690602001351515610dbe565b61023a600480360360208110156104ca57600080fd5b5035610ec3565b6104ee600480360360208110156104e757600080fd5b5035610f74565b6040805161ffff9092168252519081900360200190f35b6104ee6004803603602081101561051b57600080fd5b5035610f8a565b6103146004803603608081101561053857600080fd5b6001600160a01b0382358116926020810135909116916040820135919081019060808101606082013564010000000081111561057357600080fd5b82018360208201111561058557600080fd5b803590602001918460018302840111640100000000831117156105a757600080fd5b91908080601f016020809104026020016040519081016040528093929190818152602001838380828437600092019190915250929550610fa0945050505050565b61023a600480360360208110156105fe57600080fd5b5035610ffe565b61023a6004803603602081101561061b57600080fd5b503561ffff16611281565b61031e6004803603608081101561063c57600080fd5b6001600160a01b03823516919081019060408101602082013564010000000081111561066757600080fd5b82018360208201111561067957600080fd5b8035906020019184600183028401116401000000008311171561069b57600080fd5b919350915061ffff813516906020013561131c565b610314600480360360408110156106c657600080fd5b61ffff82351691908101906040810160208201356401000000008111156106ec57600080fd5b8201836020820111156106fe57600080fd5b8035906020019184600183028401116401000000008311171561072057600080fd5b509092509050611431565b61031e6004803603602081101561074157600080fd5b503561ffff166114c3565b61021e6004803603604081101561076257600080fd5b506001600160a01b03813581169160200135166114d5565b6103146004803603602081101561079057600080fd5b50356001600160a01b0316611503565b61023a600480360360208110156107b657600080fd5b503561ffff16611625565b7fffffffff00000000000000000000000000000000000000000000000000000000811660009081526020819052604090205460ff165b919050565b60068054604080516020601f60026000196101006001881615020190951694909404938401819004810282018101909252828152606093909290918301828280156108885780601f1061085d57610100808354040283529160200191610888565b820191906000526020600020905b81548152906001019060200180831161086b57829003601f168201915b5050505050905090565b600061089d826116cb565b6108d85760405162461bcd60e51b815260040180806020018281038252602c815260200180612880602c913960400191505060405180910390fd5b506000908152600460205260409020546001600160a01b031690565b60006108ff82610b92565b9050806001600160a01b0316836001600160a01b031614156109525760405162461bcd60e51b81526004018080602001828103825260218152602001806129306021913960400191505060405180910390fd5b806001600160a01b03166109646116d8565b6001600160a01b031614806109855750610985816109806116d8565b6114d5565b6109c05760405162461bcd60e51b81526004018080602001828103825260388152602001806127d36038913960400191505060405180910390fd5b6109ca83836116dc565b505050565b60006109db6002611757565b905090565b6109f16109eb6116d8565b82611762565b610a2c5760405162461bcd60e51b81526004018080602001828103825260318152602001806129516031913960400191505060405180910390fd5b6109ca838383611806565b6001600160a01b0382166000908152600160205260408120610a599083611952565b90505b92915050565b600c6020526000908152604090205481565b6109ca83838360405180602001604052806000815250610fa0565b610a976116d8565b6001600160a01b0316610aa8610d4e565b6001600160a01b031614610b03576040805162461bcd60e51b815260206004820181905260248201527f4f776e61626c653a2063616c6c6572206973206e6f7420746865206f776e6572604482015290519081900360640190fd5b6000818152600d602090815260408083205461ffff16808452600b90925290912054610b3090600161195e565b61ffff82166000908152600b6020908152604080832093909355600c90522054610b5b9060016119bb565b61ffff82166000908152600c6020526040902055610b7882611a15565b5050565b600080610b8a600284611ae2565b509392505050565b6000610a5c826040518060600160405280602981526020016128356029913960029190611afe565b60098054604080516020601f60026000196101006001881615020190951694909404938401819004810282018101909252828152606093909290918301828280156108885780601f1061085d57610100808354040283529160200191610888565b60006001600160a01b038216610c625760405162461bcd60e51b815260040180806020018281038252602a81526020018061280b602a913960400191505060405180910390fd5b6001600160a01b0382166000908152600160205260409020610a5c90611757565b610c8b6116d8565b6001600160a01b0316610c9c610d4e565b6001600160a01b031614610cf7576040805162461bcd60e51b815260206004820181905260248201527f4f776e61626c653a2063616c6c6572206973206e6f7420746865206f776e6572604482015290519081900360640190fd5b600a546040516000916001600160a01b0316907f8be0079c531659141344cd1fd0a4f28419497f9722a3daafe3b4186f6b6457e0908390a3600a805473ffffffffffffffffffffffffffffffffffffffff19169055565b600a546001600160a01b031690565b60078054604080516020601f60026000196101006001881615020190951694909404938401819004810282018101909252828152606093909290918301828280156108885780601f1061085d57610100808354040283529160200191610888565b610dc66116d8565b6001600160a01b0316826001600160a01b03161415610e2c576040805162461bcd60e51b815260206004820152601960248201527f4552433732313a20617070726f766520746f2063616c6c657200000000000000604482015290519081900360640190fd5b8060056000610e396116d8565b6001600160a01b03908116825260208083019390935260409182016000908120918716808252919093529120805460ff191692151592909217909155610e7d6116d8565b6001600160a01b03167f17307eab39ab6107e8899845ad3d59bd9653f200f220920489ca2b5937696c318360405180821515815260200191505060405180910390a35050565b6000818152600d602090815260408083205461ffff16808452600e83529281902080548251601f6002600019600185161561010002019093169290920491820185900485028101850190935280835260609493830182828015610f675780601f10610f3c57610100808354040283529160200191610f67565b820191906000526020600020905b815481529060010190602001808311610f4a57829003601f168201915b5050505050915050919050565b6000908152600d602052604090205461ffff1690565b600d6020526000908152604090205461ffff1681565b610fb1610fab6116d8565b83611762565b610fec5760405162461bcd60e51b81526004018080602001828103825260318152602001806129516031913960400191505060405180910390fd5b610ff884848484611b15565b50505050565b6060611009826116cb565b6110445760405162461bcd60e51b815260040180806020018281038252602f815260200180612901602f913960400191505060405180910390fd5b60008281526008602090815260409182902080548351601f60026000196101006001861615020190931692909204918201849004840281018401909452808452606093928301828280156110d95780601f106110ae576101008083540402835291602001916110d9565b820191906000526020600020905b8154815290600101906020018083116110bc57829003601f168201915b5050505050905060606110ea610bba565b90508051600014156110fe575090506107f7565b8151156111bf5780826040516020018083805190602001908083835b602083106111395780518252601f19909201916020918201910161111a565b51815160209384036101000a600019018019909216911617905285519190930192850191508083835b602083106111815780518252601f199092019160209182019101611162565b6001836020036101000a03801982511681845116808217855250505050505090500192505050604051602081830303815290604052925050506107f7565b806111c985611b67565b6040516020018083805190602001908083835b602083106111fb5780518252601f1990920191602091820191016111dc565b51815160209384036101000a600019018019909216911617905285519190930192850191508083835b602083106112435780518252601f199092019160209182019101611224565b6001836020036101000a0380198251168184511680821785525050505050509050019250505060405160208183030381529060405292505050919050565b600e6020908152600091825260409182902080548351601f6002600019610100600186161502019093169290920491820184900484028101840190945280845290918301828280156113145780601f106112e957610100808354040283529160200191611314565b820191906000526020600020905b8154815290600101906020018083116112f757829003601f168201915b505050505081565b60006113266116d8565b6001600160a01b0316611337610d4e565b6001600160a01b031614611392576040805162461bcd60e51b815260206004820181905260248201527f4f776e61626c653a2063616c6c6572206973206e6f7420746865206f776e6572604482015290519081900360640190fd5b6000828152600d60209081526040808320805461ffff191661ffff88169081179091558352600b9091529020546113ca9060016119bb565b61ffff84166000908152600b60205260409020556113e88683611c6d565b6114288286868080601f016020809104026020016040519081016040528093929190818152602001838380828437600092019190915250611d9b92505050565b50949350505050565b6114396116d8565b6001600160a01b031661144a610d4e565b6001600160a01b0316146114a5576040805162461bcd60e51b815260206004820181905260248201527f4f776e61626c653a2063616c6c6572206973206e6f7420746865206f776e6572604482015290519081900360640190fd5b61ffff83166000908152600e60205260409020610ff89083836125c0565b600b6020526000908152604090205481565b6001600160a01b03918216600090815260056020908152604080832093909416825291909152205460ff1690565b61150b6116d8565b6001600160a01b031661151c610d4e565b6001600160a01b031614611577576040805162461bcd60e51b815260206004820181905260248201527f4f776e61626c653a2063616c6c6572206973206e6f7420746865206f776e6572604482015290519081900360640190fd5b6001600160a01b0381166115bc5760405162461bcd60e51b815260040180806020018281038252602681526020018061275d6026913960400191505060405180910390fd5b600a546040516001600160a01b038084169216907f8be0079c531659141344cd1fd0a4f28419497f9722a3daafe3b4186f6b6457e090600090a3600a805473ffffffffffffffffffffffffffffffffffffffff19166001600160a01b0392909216919091179055565b61ffff81166000908152600e602090815260409182902080548351601f60026000196101006001861615020190931692909204918201849004840281018401909452808452606093928301828280156116bf5780601f10611694576101008083540402835291602001916116bf565b820191906000526020600020905b8154815290600101906020018083116116a257829003601f168201915b50505050509050919050565b6000610a5c600283611dfe565b3390565b6000818152600460205260409020805473ffffffffffffffffffffffffffffffffffffffff19166001600160a01b038416908117909155819061171e82610b92565b6001600160a01b03167f8c5be1e5ebec7d5bd14f71427d1e84f3dd0314c0f7b2291e5b200ac8c7c3b92560405160405180910390a45050565b6000610a5c82611e0a565b600061176d826116cb565b6117a85760405162461bcd60e51b815260040180806020018281038252602c8152602001806127a7602c913960400191505060405180910390fd5b60006117b383610b92565b9050806001600160a01b0316846001600160a01b031614806117ee5750836001600160a01b03166117e384610892565b6001600160a01b0316145b806117fe57506117fe81856114d5565b949350505050565b826001600160a01b031661181982610b92565b6001600160a01b03161461185e5760405162461bcd60e51b81526004018080602001828103825260298152602001806128d86029913960400191505060405180910390fd5b6001600160a01b0382166118a35760405162461bcd60e51b81526004018080602001828103825260248152602001806127836024913960400191505060405180910390fd5b6118ae8383836109ca565b6118b96000826116dc565b6001600160a01b03831660009081526001602052604090206118db9082611e0e565b506001600160a01b03821660009081526001602052604090206118fe9082611e1a565b5061190b60028284611e26565b5080826001600160a01b0316846001600160a01b03167fddf252ad1be2c89b69c2b068fc378daa952ba7f163c4a11628f55a4df523b3ef60405160405180910390a4505050565b6000610a598383611e3c565b6000828211156119b5576040805162461bcd60e51b815260206004820152601e60248201527f536166654d6174683a207375627472616374696f6e206f766572666c6f770000604482015290519081900360640190fd5b50900390565b600082820183811015610a59576040805162461bcd60e51b815260206004820152601b60248201527f536166654d6174683a206164646974696f6e206f766572666c6f770000000000604482015290519081900360640190fd5b6000611a2082610b92565b9050611a2e816000846109ca565b611a396000836116dc565b6000828152600860205260409020546002600019610100600184161502019091160415611a77576000828152600860205260408120611a779161263e565b6001600160a01b0381166000908152600160205260409020611a999083611e0e565b50611aa5600283611ea0565b5060405182906000906001600160a01b038416907fddf252ad1be2c89b69c2b068fc378daa952ba7f163c4a11628f55a4df523b3ef908390a45050565b6000808080611af18686611eac565b9097909650945050505050565b6000611b0b848484611f27565b90505b9392505050565b611b20848484611806565b611b2c84848484611ff1565b610ff85760405162461bcd60e51b815260040180806020018281038252603281526020018061272b6032913960400191505060405180910390fd5b606081611ba8575060408051808201909152600181527f300000000000000000000000000000000000000000000000000000000000000060208201526107f7565b8160005b8115611bc057600101600a82049150611bac565b60608167ffffffffffffffff81118015611bd957600080fd5b506040519080825280601f01601f191660200182016040528015611c04576020820181803683370190505b50859350905060001982015b831561142857600a840660300160f81b82828060019003935081518110611c3357fe5b60200101907effffffffffffffffffffffffffffffffffffffffffffffffffffffffffffff1916908160001a905350600a84049350611c10565b6001600160a01b038216611cc8576040805162461bcd60e51b815260206004820181905260248201527f4552433732313a206d696e7420746f20746865207a65726f2061646472657373604482015290519081900360640190fd5b611cd1816116cb565b15611d23576040805162461bcd60e51b815260206004820152601c60248201527f4552433732313a20746f6b656e20616c7265616479206d696e74656400000000604482015290519081900360640190fd5b611d2f600083836109ca565b6001600160a01b0382166000908152600160205260409020611d519082611e1a565b50611d5e60028284611e26565b5060405181906001600160a01b038416906000907fddf252ad1be2c89b69c2b068fc378daa952ba7f163c4a11628f55a4df523b3ef908290a45050565b611da4826116cb565b611ddf5760405162461bcd60e51b815260040180806020018281038252602c8152602001806128ac602c913960400191505060405180910390fd5b600082815260086020908152604090912082516109ca92840190612685565b6000610a59838361219b565b5490565b6000610a5983836121b3565b6000610a598383612279565b6000611b0b84846001600160a01b0385166122c3565b81546000908210611e7e5760405162461bcd60e51b81526004018080602001828103825260228152602001806127096022913960400191505060405180910390fd5b826000018281548110611e8d57fe5b9060005260206000200154905092915050565b6000610a59838361235a565b815460009081908310611ef05760405162461bcd60e51b815260040180806020018281038252602281526020018061285e6022913960400191505060405180910390fd5b6000846000018481548110611f0157fe5b906000526020600020906002020190508060000154816001015492509250509250929050565b60008281526001840160205260408120548281611fc25760405162461bcd60e51b81526004018080602001828103825283818151815260200191508051906020019080838360005b83811015611f87578181015183820152602001611f6f565b50505050905090810190601f168015611fb45780820380516001836020036101000a031916815260200191505b509250505060405180910390fd5b50846000016001820381548110611fd557fe5b9060005260206000209060020201600101549150509392505050565b6000612005846001600160a01b031661242e565b612011575060016117fe565b6060612149630a85bd0160e11b6120266116d8565b88878760405160240180856001600160a01b03168152602001846001600160a01b0316815260200183815260200180602001828103825283818151815260200191508051906020019080838360005b8381101561208d578181015183820152602001612075565b50505050905090810190601f1680156120ba5780820380516001836020036101000a031916815260200191505b5095505050505050604051602081830303815290604052907bffffffffffffffffffffffffffffffffffffffffffffffffffffffff19166020820180517bffffffffffffffffffffffffffffffffffffffffffffffffffffffff838183161783525050505060405180606001604052806032815260200161272b603291396001600160a01b0388169190612434565b9050600081806020019051602081101561216257600080fd5b50517fffffffff0000000000000000000000000000000000000000000000000000000016630a85bd0160e11b1492505050949350505050565b60009081526001919091016020526040902054151590565b6000818152600183016020526040812054801561226f57835460001980830191908101906000908790839081106121e657fe5b906000526020600020015490508087600001848154811061220357fe5b60009182526020808320909101929092558281526001898101909252604090209084019055865487908061223357fe5b60019003818190600052602060002001600090559055866001016000878152602001908152602001600020600090556001945050505050610a5c565b6000915050610a5c565b6000612285838361219b565b6122bb57508154600181810184556000848152602080822090930184905584548482528286019093526040902091909155610a5c565b506000610a5c565b600082815260018401602052604081205480612328575050604080518082018252838152602080820184815286546001818101895560008981528481209551600290930290950191825591519082015586548684528188019092529290912055611b0e565b8285600001600183038154811061233b57fe5b9060005260206000209060020201600101819055506000915050611b0e565b6000818152600183016020526040812054801561226f578354600019808301919081019060009087908390811061238d57fe5b90600052602060002090600202019050808760000184815481106123ad57fe5b6000918252602080832084546002909302019182556001938401549184019190915583548252898301905260409020908401905586548790806123ec57fe5b6000828152602080822060026000199094019384020182815560019081018390559290935588815289820190925260408220919091559450610a5c9350505050565b3b151590565b6060611b0b8484600085856124488561242e565b612499576040805162461bcd60e51b815260206004820152601d60248201527f416464726573733a2063616c6c20746f206e6f6e2d636f6e7472616374000000604482015290519081900360640190fd5b60006060866001600160a01b031685876040518082805190602001908083835b602083106124d85780518252601f1990920191602091820191016124b9565b6001836020036101000a03801982511681845116808217855250505050505090500191505060006040518083038185875af1925050503d806000811461253a576040519150601f19603f3d011682016040523d82523d6000602084013e61253f565b606091505b509150915061254f82828661255a565b979650505050505050565b60608315612569575081611b0e565b8251156125795782518084602001fd5b60405162461bcd60e51b8152602060048201818152845160248401528451859391928392604401919085019080838360008315611f87578181015183820152602001611f6f565b828054600181600116156101000203166002900490600052602060002090601f016020900481019282601f106126015782800160ff1982351617855561262e565b8280016001018555821561262e579182015b8281111561262e578235825591602001919060010190612613565b5061263a9291506126f3565b5090565b50805460018160011615610100020316600290046000825580601f106126645750612682565b601f01602090049060005260206000209081019061268291906126f3565b50565b828054600181600116156101000203166002900490600052602060002090601f016020900481019282601f106126c657805160ff191683800117855561262e565b8280016001018555821561262e579182015b8281111561262e5782518255916020019190600101906126d8565b5b8082111561263a57600081556001016126f456fe456e756d657261626c655365743a20696e646578206f7574206f6620626f756e64734552433732313a207472616e7366657220746f206e6f6e20455243373231526563656976657220696d706c656d656e7465724f776e61626c653a206e6577206f776e657220697320746865207a65726f20616464726573734552433732313a207472616e7366657220746f20746865207a65726f20616464726573734552433732313a206f70657261746f7220717565727920666f72206e6f6e6578697374656e7420746f6b656e4552433732313a20617070726f76652063616c6c6572206973206e6f74206f776e6572206e6f7220617070726f76656420666f7220616c6c4552433732313a2062616c616e636520717565727920666f7220746865207a65726f20616464726573734552433732313a206f776e657220717565727920666f72206e6f6e6578697374656e7420746f6b656e456e756d657261626c654d61703a20696e646578206f7574206f6620626f756e64734552433732313a20617070726f76656420717565727920666f72206e6f6e6578697374656e7420746f6b656e4552433732314d657461646174613a2055524920736574206f66206e6f6e6578697374656e7420746f6b656e4552433732313a207472616e73666572206f6620746f6b656e2074686174206973206e6f74206f776e4552433732314d657461646174613a2055524920717565727920666f72206e6f6e6578697374656e7420746f6b656e4552433732313a20617070726f76616c20746f2063757272656e74206f776e65724552433732313a207472616e736665722063616c6c6572206973206e6f74206f776e6572206e6f7220617070726f766564a2646970667358221220d79e89dfe9c5544117003225693f77b9ab5591329b9e84f4fff05e657d4928a664736f6c634300060c0033",
    "linkReferences": {},
    "deployedLinkReferences": {}
}